{"contracts/LotteryDrawManagerV2.sol":{"LotteryDrawManagerV2":{"abi":[{"inputs":[],"stateMutability":"nonpayable","type":"constructor"},{"inputs":[{"internalType":"address","name":"target","type":"address"}],"name":"AddressEmptyCode","type":"error"},{"inputs":[{"internalType":"address","name":"implementation","type":"address"}],"name":"ERC1967InvalidImplementation","type":"error"},{"inputs":[],"name":"ERC1967NonPayable","type":"error"},{"inputs":[],"name":"EnforcedPause","type":"error"},{"inputs":[],"name":"ExpectedPause","type":"error"},{"inputs":[],"name":"FailedCall","type":"error"},{"inputs":[],"name":"InvalidInitialization","type":"error"},{"inputs":[],"name":"NotInitializing","type":"error"},{"inputs":[{"internalType":"address","name":"owner","type":"address"}],"name":"OwnableInvalidOwner","type":"error"},{"inputs":[{"internalType":"address","name":"account","type":"address"}],"name":"OwnableUnauthorizedAccount","type":"error"},{"inputs":[],"name":"ReentrancyGuardReentrantCall","type":"error"},{"inputs":[{"internalType":"address","name":"token","type":"address"}],"name":"SafeERC20FailedOperation","type":"error"},{"inputs":[],"name":"UUPSUnauthorizedCallContext","type":"error"},{"inputs":[{"internalType":"bytes32","name":"slot","type":"bytes32"}],"name":"UUPSUnsupportedProxiableUUID","type":"error"},{"anonymous":false,"inputs":[{"indexed":true,"internalType":"enum LotteryDrawManagerV2.DrawType","name":"drawType","type":"uint8"},{"indexed":false,"internalType":"uint256","name":"initialPrize","type":"uint256"},{"indexed":false,"internalType":"uint256","name":"halvingInterval","type":"uint256"},{"indexed":false,"internalType":"uint256","name":"drawInterval","type":"uint256"}],"name":"DrawConfigured","type":"event"},{"anonymous":false,"inputs":[{"indexed":true,"internalType":"uint256","name":"drawId","type":"uint256"},{"indexed":true,"internalType":"enum LotteryDrawManagerV2.DrawType","name":"drawType","type":"uint8"},{"indexed":true,"internalType":"address","name":"winner","type":"address"},{"indexed":false,"internalType":"uint256","name":"lottoID","type":"uint256"},{"indexed":false,"internalType":"uint256","name":"prizeEth","type":"uint256"}],"name":"DrawExecuted","type":"event"},{"anonymous":false,"inputs":[{"indexed":true,"internalType":"enum LotteryDrawManagerV2.DrawType","name":"drawType","type":"uint8"},{"indexed":false,"internalType":"uint256","name":"oldAmount","type":"uint256"},{"indexed":false,"internalType":"uint256","name":"newAmount","type":"uint256"},{"indexed":false,"internalType":"uint256","name":"drawNumber","type":"uint256"}],"name":"HalvingOccurred","type":"event"},{"anonymous":false,"inputs":[{"indexed":false,"internalType":"uint64","name":"version","type":"uint64"}],"name":"Initialized","type":"event"},{"anonymous":false,"inputs":[{"indexed":true,"internalType":"address","name":"previousOwner","type":"address"},{"indexed":true,"internalType":"address","name":"newOwner","type":"address"}],"name":"OwnershipTransferred","type":"event"},{"anonymous":false,"inputs":[{"indexed":false,"internalType":"address","name":"account","type":"address"}],"name":"Paused","type":"event"},{"anonymous":false,"inputs":[{"indexed":true,"internalType":"enum LotteryDrawManagerV2.DrawType","name":"drawType","type":"uint8"},{"indexed":false,"internalType":"uint256","name":"ethAmount","type":"uint256"},{"indexed":false,"internalType":"address[]","name":"tokens","type":"address[]"},{"indexed":false,"internalType":"uint256[]","name":"amounts","type":"uint256[]"}],"name":"PrizeBucketFunded","type":"event"},{"anonymous":false,"inputs":[{"indexed":false,"internalType":"enum LotteryDrawManagerV2.RandomnessMode","name":"oldMode","type":"uint8"},{"indexed":false,"internalType":"enum LotteryDrawManagerV2.RandomnessMode","name":"newMode","type":"uint8"}],"name":"RandomnessModeChanged","type":"event"},{"anonymous":false,"inputs":[{"indexed":false,"internalType":"address","name":"account","type":"address"}],"name":"Unpaused","type":"event"},{"anonymous":false,"inputs":[{"indexed":true,"internalType":"address","name":"implementation","type":"address"}],"name":"Upgraded","type":"event"},{"anonymous":false,"inputs":[{"indexed":false,"internalType":"address","name":"coordinator","type":"address"},{"indexed":false,"internalType":"bytes32","name":"keyHash","type":"bytes32"},{"indexed":false,"internalType":"uint64","name":"subscriptionId","type":"uint64"}],"name":"VRFConfigured","type":"event"},{"inputs":[],"name":"UPGRADE_INTERFACE_VERSION","outputs":[{"internalType":"string","name":"","type":"string"}],"stateMutability":"view","type":"function"},{"inputs":[{"internalType":"enum LotteryDrawManagerV2.DrawType","name":"_drawType","type":"uint8"},{"internalType":"uint256","name":"_initialPrize","type":"uint256"},{"internalType":"uint256","name":"_halvingInterval","type":"uint256"}],"name":"configureDrawType","outputs":[],"stateMutability":"nonpayable","type":"function"},{"inputs":[{"internalType":"address","name":"_coordinator","type":"address"},{"internalType":"bytes32","name":"_keyHash","type":"bytes32"},{"internalType":"uint64","name":"_subscriptionId","type":"uint64"},{"internalType":"uint32","name":"_callbackGasLimit","type":"uint32"},{"internalType":"uint16","name":"_requestConfirmations","type":"uint16"}],"name":"configureVRF","outputs":[],"stateMutability":"nonpayable","type":"function"},{"inputs":[{"internalType":"address","name":"_user","type":"address"},{"internalType":"uint256","name":"_drawId","type":"uint256"}],"name":"didUserWin","outputs":[{"internalType":"bool","name":"","type":"bool"}],"stateMutability":"view","type":"function"},{"inputs":[{"internalType":"enum LotteryDrawManagerV2.DrawType","name":"","type":"uint8"}],"name":"drawConfigs","outputs":[{"internalType":"enum LotteryDrawManagerV2.DrawType","name":"drawType","type":"uint8"},{"internalType":"uint256","name":"initialPrizeAmount","type":"uint256"},{"internalType":"uint256","name":"currentPrizeAmount","type":"uint256"},{"internalType":"uint256","name":"halvingInterval","type":"uint256"},{"internalType":"uint256","name":"drawCount","type":"uint256"},{"internalType":"uint256","name":"lastDrawTime","type":"uint256"},{"internalType":"uint256","name":"drawInterval","type":"uint256"},{"internalType":"bool","name":"active","type":"bool"}],"stateMutability":"view","type":"function"},{"inputs":[{"internalType":"uint256","name":"","type":"uint256"}],"name":"drawExecuted","outputs":[{"internalType":"bool","name":"","type":"bool"}],"stateMutability":"view","type":"function"},{"inputs":[{"internalType":"enum LotteryDrawManagerV2.DrawType","name":"","type":"uint8"}],"name":"drawIntervals","outputs":[{"internalType":"uint256","name":"","type":"uint256"}],"stateMutability":"view","type":"function"},{"inputs":[{"internalType":"uint256","name":"","type":"uint256"}],"name":"draws","outputs":[{"internalType":"uint256","name":"drawId","type":"uint256"},{"internalType":"enum LotteryDrawManagerV2.DrawType","name":"drawType","type":"uint8"},{"internalType":"uint256","name":"timestamp","type":"uint256"},{"internalType":"uint256","name":"prizeEth","type":"uint256"},{"internalType":"address","name":"winner","type":"address"},{"internalType":"uint256","name":"winningLottoID","type":"uint256"},{"internalType":"uint256","name":"winningNumber","type":"uint256"},{"internalType":"uint256","name":"participantCountAtDraw","type":"uint256"},{"internalType":"uint256","name":"totalWeightAtDraw","type":"uint256"}],"stateMutability":"view","type":"function"},{"inputs":[{"internalType":"address","name":"_token","type":"address"},{"internalType":"uint256","name":"_amount","type":"uint256"}],"name":"emergencyWithdraw","outputs":[],"stateMutability":"nonpayable","type":"function"},{"inputs":[{"internalType":"enum LotteryDrawManagerV2.DrawType","name":"_drawType","type":"uint8"}],"name":"executeDraw","outputs":[],"stateMutability":"nonpayable","type":"function"},{"inputs":[{"internalType":"enum LotteryDrawManagerV2.DrawType","name":"_drawType","type":"uint8"},{"internalType":"address[]","name":"_tokens","type":"address[]"},{"internalType":"uint256[]","name":"_amounts","type":"uint256[]"}],"name":"fundPrizeBucket","outputs":[],"stateMutability":"payable","type":"function"},{"inputs":[],"name":"getAllDrawIntervals","outputs":[{"internalType":"uint256","name":"weekly","type":"uint256"},{"internalType":"uint256","name":"monthly","type":"uint256"},{"internalType":"uint256","name":"quarterly","type":"uint256"},{"internalType":"uint256","name":"yearly","type":"uint256"}],"stateMutability":"view","type":"function"},{"inputs":[{"internalType":"enum LotteryDrawManagerV2.DrawType","name":"_drawType","type":"uint8"}],"name":"getDrawConfig","outputs":[{"internalType":"uint256","name":"initialPrize","type":"uint256"},{"internalType":"uint256","name":"currentPrize","type":"uint256"},{"internalType":"uint256","name":"halvingInterval","type":"uint256"},{"internalType":"uint256","name":"drawCount","type":"uint256"},{"internalType":"uint256","name":"lastDrawTime","type":"uint256"},{"internalType":"uint256","name":"drawInterval","type":"uint256"},{"internalType":"uint256","name":"nextDrawTime","type":"uint256"},{"internalType":"bool","name":"active","type":"bool"}],"stateMutability":"view","type":"function"},{"inputs":[{"internalType":"uint256","name":"_drawId","type":"uint256"}],"name":"getDrawDetails","outputs":[{"internalType":"enum LotteryDrawManagerV2.DrawType","name":"drawType","type":"uint8"},{"internalType":"uint256","name":"timestamp","type":"uint256"},{"internalType":"address","name":"winner","type":"address"},{"internalType":"uint256","name":"winningLottoID","type":"uint256"},{"internalType":"uint256","name":"prizeEth","type":"uint256"},{"internalType":"address[]","name":"prizeTokens","type":"address[]"}],"stateMutability":"view","type":"function"},{"inputs":[{"internalType":"uint256","name":"_drawId","type":"uint256"},{"internalType":"address","name":"_token","type":"address"}],"name":"getDrawPrizeTokenAmount","outputs":[{"internalType":"uint256","name":"","type":"uint256"}],"stateMutability":"view","type":"function"},{"inputs":[{"internalType":"enum LotteryDrawManagerV2.DrawType","name":"_drawType","type":"uint8"}],"name":"getPrizeBucketStatus","outputs":[{"internalType":"uint256","name":"ethAmount","type":"uint256"},{"internalType":"address[]","name":"tokens","type":"address[]"},{"internalType":"uint256[]","name":"amounts","type":"uint256[]"}],"stateMutability":"view","type":"function"},{"inputs":[],"name":"getSystemConfig","outputs":[{"internalType":"address","name":"_mintingContract","type":"address"},{"internalType":"enum LotteryDrawManagerV2.RandomnessMode","name":"_randomnessMode","type":"uint8"},{"internalType":"uint256","name":"_totalDrawCount","type":"uint256"},{"internalType":"bool","name":"_paused","type":"bool"}],"stateMutability":"view","type":"function"},{"inputs":[{"internalType":"address","name":"_user","type":"address"}],"name":"getUserLotteryEntries","outputs":[{"components":[{"internalType":"uint256","name":"lottoID","type":"uint256"},{"internalType":"uint256","name":"weight","type":"uint256"}],"internalType":"struct ILotteryData.LottoEntry[]","name":"","type":"tuple[]"}],"stateMutability":"view","type":"function"},{"inputs":[{"internalType":"address","name":"_user","type":"address"}],"name":"getUserWinDetails","outputs":[{"internalType":"uint256[]","name":"drawIds","type":"uint256[]"},{"internalType":"uint256[]","name":"winningLottoIDs","type":"uint256[]"}],"stateMutability":"view","type":"function"},{"inputs":[{"internalType":"address","name":"_user","type":"address"}],"name":"getUserWins","outputs":[{"internalType":"uint256[]","name":"","type":"uint256[]"}],"stateMutability":"view","type":"function"},{"inputs":[{"internalType":"address","name":"_mintingContract","type":"address"},{"internalType":"enum LotteryDrawManagerV2.RandomnessMode","name":"_randomnessMode","type":"uint8"}],"name":"initialize","outputs":[],"stateMutability":"nonpayable","type":"function"},{"inputs":[],"name":"mintingContract","outputs":[{"internalType":"contract ILotteryData","name":"","type":"address"}],"stateMutability":"view","type":"function"},{"inputs":[],"name":"owner","outputs":[{"internalType":"address","name":"","type":"address"}],"stateMutability":"view","type":"function"},{"inputs":[],"name":"pause","outputs":[],"stateMutability":"nonpayable","type":"function"},{"inputs":[],"name":"paused","outputs":[{"internalType":"bool","name":"","type":"bool"}],"stateMutability":"view","type":"function"},{"inputs":[],"name":"proxiableUUID","outputs":[{"internalType":"bytes32","name":"","type":"bytes32"}],"stateMutability":"view","type":"function"},{"inputs":[],"name":"randomnessMode","outputs":[{"internalType":"enum LotteryDrawManagerV2.RandomnessMode","name":"","type":"uint8"}],"stateMutability":"view","type":"function"},{"inputs":[],"name":"renounceOwnership","outputs":[],"stateMutability":"nonpayable","type":"function"},{"inputs":[{"internalType":"enum LotteryDrawManagerV2.DrawType","name":"_drawType","type":"uint8"},{"internalType":"uint256","name":"_interval","type":"uint256"}],"name":"setDrawInterval","outputs":[],"stateMutability":"nonpayable","type":"function"},{"inputs":[{"internalType":"enum LotteryDrawManagerV2.DrawType","name":"_drawType","type":"uint8"},{"internalType":"bool","name":"_active","type":"bool"}],"name":"setDrawTypeActive","outputs":[],"stateMutability":"nonpayable","type":"function"},{"inputs":[{"internalType":"enum LotteryDrawManagerV2.RandomnessMode","name":"_mode","type":"uint8"}],"name":"setRandomnessMode","outputs":[],"stateMutability":"nonpayable","type":"function"},{"inputs":[],"name":"totalDrawCount","outputs":[{"internalType":"uint256","name":"","type":"uint256"}],"stateMutability":"view","type":"function"},{"inputs":[{"internalType":"address","name":"newOwner","type":"address"}],"name":"transferOwnership","outputs":[],"stateMutability":"nonpayable","type":"function"},{"inputs":[],"name":"unpause","outputs":[],"stateMutability":"nonpayable","type":"function"},{"inputs":[{"internalType":"address","name":"newImplementation","type":"address"},{"internalType":"bytes","name":"data","type":"bytes"}],"name":"upgradeToAndCall","outputs":[],"stateMutability":"payable","type":"function"},{"inputs":[{"internalType":"address","name":"","type":"address"},{"internalType":"uint256","name":"","type":"uint256"}],"name":"userWins","outputs":[{"internalType":"uint256","name":"","type":"uint256"}],"stateMutability":"view","type":"function"},{"inputs":[],"name":"vrfCallbackGasLimit","outputs":[{"internalType":"uint32","name":"","type":"uint32"}],"stateMutability":"view","type":"function"},{"inputs":[],"name":"vrfCoordinator","outputs":[{"internalType":"address","name":"","type":"address"}],"stateMutability":"view","type":"function"},{"inputs":[],"name":"vrfKeyHash","outputs":[{"internalType":"bytes32","name":"","type":"bytes32"}],"stateMutability":"view","type":"function"},{"inputs":[],"name":"vrfRequestConfirmations","outputs":[{"internalType":"uint16","name":"","type":"uint16"}],"stateMutability":"view","type":"function"},{"inputs":[{"internalType":"uint256","name":"","type":"uint256"}],"name":"vrfRequestToDrawId","outputs":[{"internalType":"uint256","name":"","type":"uint256"}],"stateMutability":"view","type":"function"},{"inputs":[],"name":"vrfSubscriptionId","outputs":[{"internalType":"uint64","name":"","type":"uint64"}],"stateMutability":"view","type":"function"},{"stateMutability":"payable","type":"receive"}],"evm":{"bytecode":{"linkReferences":{},"object":"60a0604052306080523480156200001557600080fd5b506200002062000026565b620000da565b7ff0c57e16840df040f15088dc2f81fe391c3923bec73e23a9662efc9c229c6a00805468010000000000000000900460ff1615620000775760405163f92ee8a960e01b815260040160405180910390fd5b80546001600160401b0390811614620000d75780546001600160401b0319166001600160401b0390811782556040519081527fc7f505b2f371ae2175ee4913f4499e1f2633a7b5936321eed1cdaeb6115181d29060200160405180910390a15b50565b60805161398f620001046000396000818161272001528181612749015261288f015261398f6000f3fe6080604052600436106102555760003560e01c8063943b24b211610139578063d1ed9df7116100b6578063d5a962e41161007a578063d5a962e414610933578063e090938914610965578063eb78c0cb14610992578063ed647d21146109a8578063f2fde38b146109e0578063f9d734d214610a0057600080fd5b8063d1ed9df71461082f578063d2472d1a14610876578063d2f6f67d14610896578063d40d3b05146108b6578063d479ea24146108d657600080fd5b8063b6e56400116100fd578063b6e5640014610689578063ba2497a7146106b6578063ba3d5c41146106d6578063bda44783146106f6578063c8fe63ff1461077057600080fd5b8063943b24b2146105be57806395ccea67146105de578063a3e56fa8146105fe578063ad3cb1cc1461061e578063b1251b151461065c57600080fd5b8063497172be116101d2578063598bc48611610196578063598bc486146104ed5780635abb0803146105225780635c975abb14610542578063715018a6146105675780638456cb591461057c5780638da5cb5b1461059157600080fd5b8063497172be146104535780634f1ef28614610480578063510c8bf41461049357806352d1902d146104b3578063560f73f8146104c857600080fd5b806326b34f631161021957806326b34f63146103a3578063328b62e4146103c35780633b7ed734146103d65780633f4ba83a1461040f578063435bbbd21461042457600080fd5b8063041d443e14610261578063071b197e1461028a5780630cc36c36146102ca57806316d0c1e41461035357806323bc84ef1461038157600080fd5b3661025c57005b600080fd5b34801561026d57600080fd5b5061027760095481565b6040519081526020015b60405180910390f35b34801561029657600080fd5b506102ba6102a5366004612f62565b60076020526000908152604090205460ff1681565b6040519015158152602001610281565b3480156102d657600080fd5b5061033e6102e5366004612f62565b6004602081905260009182526040909120805460018201546002830154600384015494840154600585015460068601546007870154600890970154959760ff9095169693956001600160a01b0390931693919290919089565b60405161028199989796959493929190612fa5565b34801561035f57600080fd5b5060005461037490600160a01b900460ff1681565b604051610281919061300a565b34801561038d57600080fd5b506103a161039c36600461302c565b610a2e565b005b3480156103af57600080fd5b506103a16103be36600461305c565b610e89565b6103a16103d1366004613124565b610f8b565b3480156103e257600080fd5b50600a546103fa90600160401b900463ffffffff1681565b60405163ffffffff9091168152602001610281565b34801561041b57600080fd5b506103a16112fa565b34801561043057600080fd5b5061044461043f36600461302c565b61130c565b6040516102819392919061321a565b34801561045f57600080fd5b5061027761046e366004612f62565b600b6020526000908152604090205481565b6103a161048e3660046132bd565b611470565b34801561049f57600080fd5b506103a16104ae366004613364565b61148f565b3480156104bf57600080fd5b5061027761168f565b3480156104d457600080fd5b506104dd6116ac565b6040516102819493929190613397565b3480156104f957600080fd5b50600a5461050f90600160601b900461ffff1681565b60405161ffff9091168152602001610281565b34801561052e57600080fd5b506103a161053d3660046133cb565b6116f7565b34801561054e57600080fd5b5060008051602061391a8339815191525460ff166102ba565b34801561057357600080fd5b506103a161174d565b34801561058857600080fd5b506103a161175f565b34801561059d57600080fd5b506105a661176f565b6040516001600160a01b039091168152602001610281565b3480156105ca57600080fd5b506103a16105d9366004613416565b61179d565b3480156105ea57600080fd5b506103a16105f936600461344b565b611a1a565b34801561060a57600080fd5b506008546105a6906001600160a01b031681565b34801561062a57600080fd5b5061064f604051806040016040528060058152602001640352e302e360dc1b81525081565b604051610281919061349b565b34801561066857600080fd5b5061067c6106773660046134ce565b611b11565b60405161028191906134eb565b34801561069557600080fd5b506102776106a436600461302c565b60026020526000908152604090205481565b3480156106c257600080fd5b506102776106d136600461344b565b611b8a565b3480156106e257600080fd5b506102ba6106f136600461344b565b611bbb565b34801561070257600080fd5b5061075c61071136600461302c565b60016020819052600091825260409091208054918101546002820154600383015460048401546005850154600686015460079096015460ff9788169795969495939492939192911688565b60405161028198979695949392919061353a565b34801561077c57600080fd5b5060026020527fac33ff75c19e70fe83507db0d683fd3465c996598dc972688b7ace676c89077b547fe90b7bceb6e7df5418fb78d8ee546e97c83a08bbccc01a0644d599ccd2a7c2e0547f679795a0195a1b76cdebb7c51d74e058aee92919b8c3389af86ef24535e8a28c5460036000527f88601476d11616a71c5be67555bd1dff4b1cbf21533d2669b768b61518cfe1c354604080519485526020850193909352918301526060820152608001610281565b34801561083b57600080fd5b5061027761084a366004613580565b60008281526004602090815260408083206001600160a01b0385168452600a0190915290205492915050565b34801561088257600080fd5b506103a16108913660046135a5565b611bfe565b3480156108a257600080fd5b506000546105a6906001600160a01b031681565b3480156108c257600080fd5b506103a16108d13660046135c0565b611c78565b3480156108e257600080fd5b506108f66108f136600461302c565b611d04565b604080519889526020890197909752958701949094526060860192909252608085015260a084015260c0830152151560e082015261010001610281565b34801561093f57600080fd5b5061095361094e366004612f62565b611da3565b604051610281969594939291906135dc565b34801561097157600080fd5b506109856109803660046134ce565b611e60565b6040516102819190613628565b34801561099e57600080fd5b5061027760035481565b3480156109b457600080fd5b50600a546109c8906001600160401b031681565b6040516001600160401b039091168152602001610281565b3480156109ec57600080fd5b506103a16109fb3660046134ce565b611ecc565b348015610a0c57600080fd5b50610a20610a1b3660046134ce565b611f07565b60405161028192919061363b565b610a3661208c565b610a3e6120be565b610a466120f6565b600060016000836003811115610a5e57610a5e612f7b565b6003811115610a6f57610a6f612f7b565b81526020810191909152604001600020600781015490915060ff16610ad25760405162461bcd60e51b8152602060048201526014602482015273447261772074797065206e6f742061637469766560601b60448201526064015b60405180910390fd5b6000816001015411610b265760405162461bcd60e51b815260206004820152601860248201527f447261772074797065206e6f7420636f6e6669677572656400000000000000006044820152606401610ac9565b80600601548160050154610b3a9190613676565b421015610b895760405162461bcd60e51b815260206004820152601960248201527f4472617720696e74657276616c206e6f7420656c6170736564000000000000006044820152606401610ac9565b60008060009054906101000a90046001600160a01b03166001600160a01b031663ad6057296040518163ffffffff1660e01b8152600401602060405180830381865afa158015610bdd573d6000803e3d6000fd5b505050506040513d601f19601f82011682018060405250810190610c019190613689565b905060008060009054906101000a90046001600160a01b03166001600160a01b03166396c82e576040518163ffffffff1660e01b8152600401602060405180830381865afa158015610c57573d6000803e3d6000fd5b505050506040513d601f19601f82011682018060405250810190610c7b9190613689565b905060008211610cbf5760405162461bcd60e51b815260206004820152600f60248201526e4e6f207061727469636970616e747360881b6044820152606401610ac9565b60008111610cfb5760405162461bcd60e51b8152602060048201526009602482015268139bc81dd95a59da1d60ba1b6044820152606401610ac9565b60008360040154118015610d20575082600301548360040154610d1e91906136b8565b155b15610d985760028084015490610d3690826136cc565b6002850155846003811115610d4d57610d4d612f7b565b600285015460048601546040805185815260208101939093528201527f3f9f7b11395eb458ab75abb30739c795e10a96fe065f510b3e393d682323fa689060600160405180910390a2505b60038054906000610da8836136e0565b909155505060038054600081815260046020526040902081815560018082018054939492938993919260ff19909116918490811115610de957610de9612f7b565b02179055504260028201556007810184905560088101839055600485018054906000610e14836136e0565b909155505042600586015560008054600160a01b900460ff166001811115610e3e57610e3e612f7b565b03610e61576000610e4f8484612127565b9050610e5b83826121a4565b50610e6a565b610e6a82612579565b5050505050610e86600160008051602061393a83398151915255565b50565b610e9161208c565b6001600160a01b038516610edd5760405162461bcd60e51b815260206004820152601360248201527224b73b30b634b21031b7b7b93234b730ba37b960691b6044820152606401610ac9565b600880546001600160a01b0319166001600160a01b0387169081179091556009859055600a80546001600160401b0386166bffffffffffffffffffffffff199091168117600160401b63ffffffff8716021761ffff60601b1916600160601b61ffff8616021790915560408051928352602083018790528201527f93cb628e44cb03ee0c6a03a219e56aff08bdc0806b9c9ab4c2af41c2af6beb429060600160405180910390a15050505050565b610f9361208c565b828114610fda5760405162461bcd60e51b8152602060048201526015602482015274082e4e4c2f240d8cadccee8d040dad2e6dac2e8c6d605b1b6044820152606401610ac9565b600060056000876003811115610ff257610ff2612f7b565b600381111561100357611003612f7b565b81526020019081526020016000209050600034111561103657348160000160008282546110309190613676565b90915550505b60005b848110156112a0576000868683818110611055576110556136f9565b905060200201602081019061106a91906134ce565b6001600160a01b0316036110b85760405162461bcd60e51b8152602060048201526015602482015274496e76616c696420746f6b656e206164647265737360581b6044820152606401610ac9565b60008484838181106110cc576110cc6136f9565b90506020020135116111155760405162461bcd60e51b81526020600482015260126024820152710416d6f756e74206d757374206265203e20360741b6044820152606401610ac9565b61116b333086868581811061112c5761112c6136f9565b90506020020135898986818110611145576111456136f9565b905060200201602081019061115a91906134ce565b6001600160a01b0316929190612648565b816002016000878784818110611183576111836136f9565b905060200201602081019061119891906134ce565b6001600160a01b03166001600160a01b031681526020019081526020016000205460000361121e57816001018686838181106111d6576111d66136f9565b90506020020160208101906111eb91906134ce565b81546001810183556000928352602090922090910180546001600160a01b0319166001600160a01b039092169190911790555b838382818110611230576112306136f9565b9050602002013582600201600088888581811061124f5761124f6136f9565b905060200201602081019061126491906134ce565b6001600160a01b03166001600160a01b0316815260200190815260200160002060008282546112939190613676565b9091555050600101611039565b508560038111156112b3576112b3612f7b565b7f01a2fc6ff419b15b76b193a51f2cb23f236056a6214b8e8c5f4342e580323f7a34878787876040516112ea95949392919061370f565b60405180910390a2505050505050565b61130261208c565b61130a6126b5565b565b600060608060006005600086600381111561132957611329612f7b565b600381111561133a5761133a612f7b565b8152602001908152602001600020905080600001549350806001018054806020026020016040519081016040528092919081815260200182805480156113a957602002820191906000526020600020905b81546001600160a01b0316815260019091019060200180831161138b575b5050505050925082516001600160401b038111156113c9576113c961324f565b6040519080825280602002602001820160405280156113f2578160200160208202803683370190505b50915060005b835181101561146757816002016000858381518110611419576114196136f9565b60200260200101516001600160a01b03166001600160a01b0316815260200190815260200160002054838281518110611454576114546136f9565b60209081029190910101526001016113f8565b50509193909250565b611478612715565b611481826127ba565b61148b82826127c2565b5050565b61149761208c565b600082116114db5760405162461bcd60e51b815260206004820152601160248201527005072697a65206d757374206265203e203607c1b6044820152606401610ac9565b6000811161152b5760405162461bcd60e51b815260206004820152601c60248201527f48616c76696e6720696e74657276616c206d757374206265203e2030000000006044820152606401610ac9565b60008084600381111561154057611540612f7b565b0361154f575062093a8061159c565b600184600381111561156357611563612f7b565b03611572575062278d0061159c565b600284600381111561158657611586612f7b565b0361159557506276a70061159c565b506301e133805b6000600160008660038111156115b4576115b4612f7b565b60038111156115c5576115c5612f7b565b8152602081019190915260400160002080549091508590829060ff191660018360038111156115f6576115f6612f7b565b02179055506001808201859055600282018590556003808301859055600060048401554260058401556006830184905560078301805460ff1916909217909155859081111561164757611647612f7b565b60408051868152602081018690529081018490527fa916425e4612e5cdac49543f8ba862c5e4e6a315415360277cc99e0dab341e039060600160405180910390a25050505050565b6000611699612884565b506000805160206138fa83398151915290565b600080546003548291829182916001600160a01b03811691600160a01b90910460ff16906116e960008051602061391a8339815191525460ff1690565b935093509350935090919293565b6116ff61208c565b806001600084600381111561171657611716612f7b565b600381111561172757611727612f7b565b81526020810191909152604001600020600701805460ff19169115159190911790555050565b61175561208c565b61130a60006128cd565b61176761208c565b61130a61293e565b7f9016d09d72d40fdae2fd8ceac6b6234c7706214fd39c1cd1e609a0528c199300546001600160a01b031690565b60006117a7612987565b805490915060ff600160401b82041615906001600160401b03166000811580156117ce5750825b90506000826001600160401b031660011480156117ea5750303b155b9050811580156117f8575080155b156118165760405163f92ee8a960e01b815260040160405180910390fd5b845467ffffffffffffffff19166001178555831561184057845460ff60401b1916600160401b1785555b611849336129b0565b6118516129c1565b6118596129d1565b6118616129d1565b6001600160a01b0387166118b75760405162461bcd60e51b815260206004820152601860248201527f496e76616c6964206d696e74696e6720636f6e747261637400000000000000006044820152606401610ac9565b600080546001600160a01b0389166001600160a01b03198216811783558892916001600160a81b03191617600160a01b8360018111156118f9576118f9612f7b565b021790555060006003818155600a80546dffffffffffff000000000000000019166c03002625a00000000000000000179055600260205262093a807fac33ff75c19e70fe83507db0d683fd3465c996598dc972688b7ace676c89077b5562278d007fe90b7bceb6e7df5418fb78d8ee546e97c83a08bbccc01a0644d599ccd2a7c2e0556276a7007f679795a0195a1b76cdebb7c51d74e058aee92919b8c3389af86ef24535e8a28c5590526301e133807f88601476d11616a71c5be67555bd1dff4b1cbf21533d2669b768b61518cfe1c3558315611a1157845460ff60401b19168555604051600181527fc7f505b2f371ae2175ee4913f4499e1f2633a7b5936321eed1cdaeb6115181d29060200160405180910390a15b50505050505050565b611a2261208c565b611a2a6120be565b6001600160a01b038216611ade576000611a4261176f565b6001600160a01b03168260405160006040518083038185875af1925050503d8060008114611a8c576040519150601f19603f3d011682016040523d82523d6000602084013e611a91565b606091505b5050905080611ad85760405162461bcd60e51b8152602060048201526013602482015272115512081d1c985b9cd9995c8819985a5b1959606a1b6044820152606401610ac9565b50611afa565b611afa611ae961176f565b6001600160a01b03841690836129d9565b61148b600160008051602061393a83398151915255565b60005460405163824e89a160e01b81526001600160a01b038381166004830152606092169063824e89a190602401600060405180830381865afa158015611b5c573d6000803e3d6000fd5b505050506040513d6000823e601f3d908101601f19168201604052611b84919081019061379a565b92915050565b60066020528160005260406000208181548110611ba657600080fd5b90600052602060002001600091509150505481565b60008181526007602052604081205460ff16611bd957506000611b84565b50600090815260046020819052604090912001546001600160a01b0390811691161490565b611c0661208c565b60008054600160a01b80820460ff16928492909160ff60a01b1990911690836001811115611c3657611c36612f7b565b02179055507f3de86e6fc2d8c6a6c3423d8fb3e96e29d6501c06a846087c02b96bd0546a405c8183604051611c6c929190613866565b60405180910390a15050565b611c8061208c565b60008111611cc75760405162461bcd60e51b81526020600482015260146024820152730496e74657276616c206d757374206265203e20360641b6044820152606401610ac9565b8060026000846003811115611cde57611cde612f7b565b6003811115611cef57611cef612f7b565b81526020810191909152604001600020555050565b6000806000806000806000806000600160008b6003811115611d2857611d28612f7b565b6003811115611d3957611d39612f7b565b8152602001908152602001600020905080600101548160020154826003015483600401548460050154856006015486600601548760050154611d7b9190613676565b600790970154959e50939c50919a5098509650945090925060ff169050919395975091939597565b60008181526004602081815260408084206001810154600282015494820154600583015460038401546009850180548751818a0281018a019098528088528a998a998a998a99606099909860ff9091169793966001600160a01b03909116959394909392839190830182828015611e4357602002820191906000526020600020905b81546001600160a01b03168152600190910190602001808311611e25575b505050505090509650965096509650965096505091939550919395565b6001600160a01b038116600090815260066020908152604091829020805483518184028101840190945280845260609392830182828015611ec057602002820191906000526020600020905b815481526020019060010190808311611eac575b50505050509050919050565b611ed461208c565b6001600160a01b038116611efe57604051631e4fbdf760e01b815260006004820152602401610ac9565b610e86816128cd565b6001600160a01b0381166000908152600660209081526040808320805482518185028101850190935280835260609485949093929190830182828015611f6c57602002820191906000526020600020905b815481526020019060010190808311611f58575b5050835193945083925050506001600160401b03811115611f8f57611f8f61324f565b604051908082528060200260200182016040528015611fb8578160200160208202803683370190505b509350806001600160401b03811115611fd357611fd361324f565b604051908082528060200260200182016040528015611ffc578160200160208202803683370190505b50925060005b8181101561208457600083828151811061201e5761201e6136f9565b602002602001015190508086838151811061203b5761203b6136f9565b6020026020010181815250506004600082815260200190815260200160002060050154858381518110612070576120706136f9565b602090810291909101015250600101612002565b505050915091565b3361209561176f565b6001600160a01b03161461130a5760405163118cdaa760e01b8152336004820152602401610ac9565b60008051602061393a8339815191528054600119016120f057604051633ee5aeb560e01b815260040160405180910390fd5b60029055565b60008051602061391a8339815191525460ff161561130a5760405163d93c066560e01b815260040160405180910390fd5b600082424433858461213a600143613881565b6040805160208101979097528601949094526bffffffffffffffffffffffff19606093841b1692850192909252607484015260948301524060b482015260d4016040516020818303038152906040528051906020012060001c61219d91906136b8565b9392505050565b600082815260046020908152604080832060079092529091205460ff16156122065760405162461bcd60e51b8152602060048201526015602482015274111c985dc8185b1c9958591e48195e1958dd5d1959605a1b6044820152606401610ac9565b60018181015460009190829060ff16600381111561222657612226612f7b565b600381111561223757612237612f7b565b8152602081019190915260400160009081206001840154909250600590829060ff16600381111561226a5761226a612f7b565b600381111561227b5761227b612f7b565b8152602001908152602001600020905060008061229c868660080154612a0a565b6004870180546001600160a01b0319166001600160a01b0384169081179091556005880182905560068089018a905560008b8152600760209081526040808320805460ff191660019081179091559483529281529181208054938401815581522001899055600286015485549294509092509081111561231a575082545b6003860181905580156123d9578084600001600082825461233b9190613881565b90915550506040516000906001600160a01b0385169083908381818185875af1925050503d806000811461238b576040519150601f19603f3d011682016040523d82523d6000602084013e612390565b606091505b50509050806123d75760405162461bcd60e51b8152602060048201526013602482015272115512081d1c985b9cd9995c8819985a5b1959606a1b6044820152606401610ac9565b505b60008460010180548060200260200160405190810160405280929190818152602001828054801561243357602002820191906000526020600020905b81546001600160a01b03168152600190910190602001808311612415575b5050505050905060005b815181101561250057600082828151811061245a5761245a6136f9565b6020908102919091018101516001600160a01b038116600090815260028a0190925260409091205490915080156124f6576001600160a01b038216600081815260028a0160205260408120556124b19088836129d9565b60098a0180546001810182556000918252602080832090910180546001600160a01b0319166001600160a01b0386169081179091558252600a8c019052604090208190555b505060010161243d565b5061250f600186016000612f30565b60018701546001600160a01b0385169060ff16600381111561253357612533612f7b565b60408051868152602081018690528c917f48010171485dc93c9ee0516ffe9423ed9b36af118db98ab6c7d46a9c06322bf5910160405180910390a4505050505050505050565b6008546001600160a01b03166125c65760405162461bcd60e51b8152602060048201526012602482015271159491881b9bdd0818dbdb999a59dd5c995960721b6044820152606401610ac9565b60405162461bcd60e51b815260206004820152603960248201527f436861696e6c696e6b20565246206e6f742079657420696e746567726174656460448201527f202d207573652050534555444f5f52414e444f4d206d6f6465000000000000006064820152608401610ac9565b600160008051602061393a83398151915255565b6040516001600160a01b0384811660248301528381166044830152606482018390526126af9186918216906323b872dd906084015b604051602081830303815290604052915060e01b6020820180516001600160e01b038381831617835250505050612c6c565b50505050565b6126bd612cdd565b60008051602061391a833981519152805460ff191681557f5db9ee0a495bf2e6ff9c91a7834c1ba4fdd244a5e8aa4e537bd38aeae4b073aa335b6040516001600160a01b03909116815260200160405180910390a150565b306001600160a01b037f000000000000000000000000000000000000000000000000000000000000000016148061279c57507f00000000000000000000000000000000000000000000000000000000000000006001600160a01b03166127906000805160206138fa833981519152546001600160a01b031690565b6001600160a01b031614155b1561130a5760405163703e46dd60e11b815260040160405180910390fd5b610e8661208c565b816001600160a01b03166352d1902d6040518163ffffffff1660e01b8152600401602060405180830381865afa92505050801561281c575060408051601f3d908101601f1916820190925261281991810190613689565b60015b61284457604051634c9c8ce360e01b81526001600160a01b0383166004820152602401610ac9565b6000805160206138fa833981519152811461287557604051632a87526960e21b815260048101829052602401610ac9565b61287f8383612d0d565b505050565b306001600160a01b037f0000000000000000000000000000000000000000000000000000000000000000161461130a5760405163703e46dd60e11b815260040160405180910390fd5b7f9016d09d72d40fdae2fd8ceac6b6234c7706214fd39c1cd1e609a0528c19930080546001600160a01b031981166001600160a01b03848116918217845560405192169182907f8be0079c531659141344cd1fd0a4f28419497f9722a3daafe3b4186f6b6457e090600090a3505050565b6129466120f6565b60008051602061391a833981519152805460ff191660011781557f62e78cea01bee320cd4e420270b5ea74000d11b0c9f74754ebdbfc544b05a258336126f7565b6000807ff0c57e16840df040f15088dc2f81fe391c3923bec73e23a9662efc9c229c6a00611b84565b6129b8612d63565b610e8681612d88565b6129c9612d63565b61130a612d90565b61130a612d63565b6040516001600160a01b0383811660248301526044820183905261287f91859182169063a9059cbb9060640161267d565b600080828410612a545760405162461bcd60e51b815260206004820152601560248201527424b73b30b634b2103930b73237b690373ab6b132b960591b6044820152606401610ac9565b60008060009054906101000a90046001600160a01b03166001600160a01b031663ad6057296040518163ffffffff1660e01b8152600401602060405180830381865afa158015612aa8573d6000803e3d6000fd5b505050506040513d601f19601f82011682018060405250810190612acc9190613689565b905060008111612b105760405162461bcd60e51b815260206004820152600f60248201526e4e6f207061727469636970616e747360881b6044820152606401610ac9565b600080612b1e600184613881565b90505b808211612c2a5760006002612b368484613881565b612b4091906136cc565b612b4a9084613676565b600080546040516335c1d34960e01b81526004810184905292935090918291829182916001600160a01b0316906335c1d3499060240160a060405180830381865afa158015612b9d573d6000803e3d6000fd5b505050506040513d601f19601f82011682018060405250810190612bc19190613894565b509350935093509350818c1015612bf65784600003612be4575050505050612c2a565b612bef600186613881565b9550612c20565b808c10612c0f57612c08856001613676565b9650612c20565b509197509550612c65945050505050565b5050505050612b21565b60405162461bcd60e51b815260206004820152601060248201526f15da5b9b995c881b9bdd08199bdd5b9960821b6044820152606401610ac9565b9250929050565b600080602060008451602086016000885af180612c8f576040513d6000823e3d81fd5b50506000513d91508115612ca7578060011415612cb4565b6001600160a01b0384163b155b156126af57604051635274afe760e01b81526001600160a01b0385166004820152602401610ac9565b60008051602061391a8339815191525460ff1661130a57604051638dfc202b60e01b815260040160405180910390fd5b612d1682612d98565b6040516001600160a01b038316907fbc7cd75a20ee27fd9adebab32041f755214dbc6bffa90cc0225b39da2e5c2d3b90600090a2805115612d5b5761287f8282612dfd565b61148b612e73565b612d6b612e92565b61130a57604051631afcd79f60e31b815260040160405180910390fd5b611ed4612d63565b612634612d63565b806001600160a01b03163b600003612dce57604051634c9c8ce360e01b81526001600160a01b0382166004820152602401610ac9565b6000805160206138fa83398151915280546001600160a01b0319166001600160a01b0392909216919091179055565b6060600080846001600160a01b031684604051612e1a91906138dd565b600060405180830381855af49150503d8060008114612e55576040519150601f19603f3d011682016040523d82523d6000602084013e612e5a565b606091505b5091509150612e6a858383612eac565b95945050505050565b341561130a5760405163b398979f60e01b815260040160405180910390fd5b6000612e9c612987565b54600160401b900460ff16919050565b606082612ec157612ebc82612f08565b61219d565b8151158015612ed857506001600160a01b0384163b155b15612f0157604051639996b31560e01b81526001600160a01b0385166004820152602401610ac9565b5092915050565b805115612f1757805160208201fd5b60405163d6bda27560e01b815260040160405180910390fd5b5080546000825590600052602060002090810190610e8691905b80821115612f5e5760008155600101612f4a565b5090565b600060208284031215612f7457600080fd5b5035919050565b634e487b7160e01b600052602160045260246000fd5b60048110612fa157612fa1612f7b565b9052565b8981526101208101612fba602083018b612f91565b604082019890985260608101969096526001600160a01b0394909416608086015260a085019290925260c084015260e08301526101009091015292915050565b60028110612fa157612fa1612f7b565b60208101611b848284612ffa565b80356004811061302757600080fd5b919050565b60006020828403121561303e57600080fd5b61219d82613018565b6001600160a01b0381168114610e8657600080fd5b600080600080600060a0868803121561307457600080fd5b853561307f81613047565b94506020860135935060408601356001600160401b03811681146130a257600080fd5b9250606086013563ffffffff811681146130bb57600080fd5b9150608086013561ffff811681146130d257600080fd5b809150509295509295909350565b60008083601f8401126130f257600080fd5b5081356001600160401b0381111561310957600080fd5b6020830191508360208260051b8501011115612c6557600080fd5b60008060008060006060868803121561313c57600080fd5b61314586613018565b945060208601356001600160401b038082111561316157600080fd5b61316d89838a016130e0565b9096509450604088013591508082111561318657600080fd5b50613193888289016130e0565b969995985093965092949392505050565b60008151808452602080850194506020840160005b838110156131de5781516001600160a01b0316875295820195908201906001016131b9565b509495945050505050565b60008151808452602080850194506020840160005b838110156131de578151875295820195908201906001016131fe565b83815260606020820152600061323360608301856131a4565b828103604084015261324581856131e9565b9695505050505050565b634e487b7160e01b600052604160045260246000fd5b604080519081016001600160401b03811182821017156132875761328761324f565b60405290565b604051601f8201601f191681016001600160401b03811182821017156132b5576132b561324f565b604052919050565b600080604083850312156132d057600080fd5b82356132db81613047565b91506020838101356001600160401b03808211156132f857600080fd5b818601915086601f83011261330c57600080fd5b81358181111561331e5761331e61324f565b613330601f8201601f1916850161328d565b9150808252878482850101111561334657600080fd5b80848401858401376000848284010152508093505050509250929050565b60008060006060848603121561337957600080fd5b61338284613018565b95602085013595506040909401359392505050565b6001600160a01b0385168152608081016133b46020830186612ffa565b836040830152821515606083015295945050505050565b600080604083850312156133de57600080fd5b6133e783613018565b9150602083013580151581146133fc57600080fd5b809150509250929050565b80356002811061302757600080fd5b6000806040838503121561342957600080fd5b823561343481613047565b915061344260208401613407565b90509250929050565b6000806040838503121561345e57600080fd5b823561346981613047565b946020939093013593505050565b60005b8381101561349257818101518382015260200161347a565b50506000910152565b60208152600082518060208401526134ba816040850160208701613477565b601f01601f19169190910160400192915050565b6000602082840312156134e057600080fd5b813561219d81613047565b602080825282518282018190526000919060409081850190868401855b8281101561352d57815180518552860151868501529284019290850190600101613508565b5091979650505050505050565b6101008101613549828b612f91565b602082019890985260408101969096526060860194909452608085019290925260a084015260c0830152151560e090910152919050565b6000806040838503121561359357600080fd5b8235915060208301356133fc81613047565b6000602082840312156135b757600080fd5b61219d82613407565b600080604083850312156135d357600080fd5b61346983613018565b6135e68188612f91565b85602082015260018060a01b038516604082015283606082015282608082015260c060a0820152600061361c60c08301846131a4565b98975050505050505050565b60208152600061219d60208301846131e9565b60408152600061364e60408301856131e9565b8281036020840152612e6a81856131e9565b634e487b7160e01b600052601160045260246000fd5b80820180821115611b8457611b84613660565b60006020828403121561369b57600080fd5b5051919050565b634e487b7160e01b600052601260045260246000fd5b6000826136c7576136c76136a2565b500690565b6000826136db576136db6136a2565b500490565b6000600182016136f2576136f2613660565b5060010190565b634e487b7160e01b600052603260045260246000fd5b85815260606020808301829052908201859052600090869060808401835b8881101561375b57833561374081613047565b6001600160a01b03168252928201929082019060010161372d565b5084810360408601528581526001600160fb1b0386111561377b57600080fd5b8560051b92508287602083013790910160200198975050505050505050565b600060208083850312156137ad57600080fd5b82516001600160401b03808211156137c457600080fd5b818501915085601f8301126137d857600080fd5b8151818111156137ea576137ea61324f565b6137f8848260051b0161328d565b818152848101925060069190911b83018401908782111561381857600080fd5b928401925b8184101561385b57604084890312156138365760008081fd5b61383e613265565b84518152858501518682015283526040909301929184019161381d565b979650505050505050565b604081016138748285612ffa565b61219d6020830184612ffa565b81810381811115611b8457611b84613660565b600080600080600060a086880312156138ac57600080fd5b85516138b781613047565b602087015160408801516060890151608090990151929a91995097965090945092505050565b600082516138ef818460208701613477565b919091019291505056fe360894a13ba1a3210667c828492db98dca3e2076cc3735a920a3ca505d382bbccd5ed15c6e187e77e9aee88184c21f4f2182ab5827cb3b7e07fbedcd63f033009b779b17422d0df92223018b32b4d1fa46e071723d6817e2486d003becc55f00a264697066735822122024fc928eb4d6557080c85d8c55c04a7cf4a0163c8459b9fbc4c10671a935a32f64736f6c63430008160033","opcodes":"PUSH1 0xA0 PUSH1 0x40 MSTORE ADDRESS PUSH1 0x80 MSTORE CALLVALUE DUP1 ISZERO PUSH3 0x15 JUMPI PUSH1 0x0 DUP1 REVERT JUMPDEST POP PUSH3 0x20 PUSH3 0x26 JUMP JUMPDEST PUSH3 0xDA JUMP JUMPDEST PUSH32 0xF0C57E16840DF040F15088DC2F81FE391C3923BEC73E23A9662EFC9C229C6A00 DUP1 SLOAD PUSH9 0x10000000000000000 SWAP1 DIV PUSH1 0xFF AND ISZERO PUSH3 0x77 JUMPI PUSH1 0x40 MLOAD PUSH4 0xF92EE8A9 PUSH1 0xE0 SHL DUP2 MSTORE PUSH1 0x4 ADD PUSH1 0x40 MLOAD DUP1 SWAP2 SUB SWAP1 REVERT JUMPDEST DUP1 SLOAD PUSH1 0x1 PUSH1 0x1 PUSH1 0x40 SHL SUB SWAP1 DUP2 AND EQ PUSH3 0xD7 JUMPI DUP1 SLOAD PUSH1 0x1 PUSH1 0x1 PUSH1 0x40 SHL SUB NOT AND PUSH1 0x1 PUSH1 0x1 PUSH1 0x40 SHL SUB SWAP1 DUP2 OR DUP3 SSTORE PUSH1 0x40 MLOAD SWAP1 DUP2 MSTORE PUSH32 0xC7F505B2F371AE2175EE4913F4499E1F2633A7B5936321EED1CDAEB6115181D2 SWAP1 PUSH1 0x20 ADD PUSH1 0x40 MLOAD DUP1 SWAP2 SUB SWAP1 LOG1 JUMPDEST POP JUMP JUMPDEST PUSH1 0x80 MLOAD PUSH2 0x398F PUSH3 0x104 PUSH1 0x0 CODECOPY PUSH1 0x0 DUP2 DUP2 PUSH2 0x2720 ADD MSTORE DUP2 DUP2 PUSH2 0x2749 ADD MSTORE PUSH2 0x288F ADD MSTORE PUSH2 0x398F PUSH1 0x0 RETURN INVALID PUSH1 0x80 PUSH1 0x40 MSTORE PUSH1 0x4 CALLDATASIZE LT PUSH2 0x255 JUMPI PUSH1 0x0 CALLDATALOAD PUSH1 0xE0 SHR DUP1 PUSH4 0x943B24B2 GT PUSH2 0x139 JUMPI DUP1 PUSH4 0xD1ED9DF7 GT PUSH2 0xB6 JUMPI DUP1 PUSH4 0xD5A962E4 GT PUSH2 0x7A JUMPI DUP1 PUSH4 0xD5A962E4 EQ PUSH2 0x933 JUMPI DUP1 PUSH4 0xE0909389 EQ PUSH2 0x965 JUMPI DUP1 PUSH4 0xEB78C0CB EQ PUSH2 0x992 JUMPI DUP1 PUSH4 0xED647D21 EQ PUSH2 0x9A8 JUMPI DUP1 PUSH4 0xF2FDE38B EQ PUSH2 0x9E0 JUMPI DUP1 PUSH4 0xF9D734D2 EQ PUSH2 0xA00 JUMPI PUSH1 0x0 DUP1 REVERT JUMPDEST DUP1 PUSH4 0xD1ED9DF7 EQ PUSH2 0x82F JUMPI DUP1 PUSH4 0xD2472D1A EQ PUSH2 0x876 JUMPI DUP1 PUSH4 0xD2F6F67D EQ PUSH2 0x896 JUMPI DUP1 PUSH4 0xD40D3B05 EQ PUSH2 0x8B6 JUMPI DUP1 PUSH4 0xD479EA24 EQ PUSH2 0x8D6 JUMPI PUSH1 0x0 DUP1 REVERT JUMPDEST DUP1 PUSH4 0xB6E56400 GT PUSH2 0xFD JUMPI DUP1 PUSH4 0xB6E56400 EQ PUSH2 0x689 JUMPI DUP1 PUSH4 0xBA2497A7 EQ PUSH2 0x6B6 JUMPI DUP1 PUSH4 0xBA3D5C41 EQ PUSH2 0x6D6 JUMPI DUP1 PUSH4 0xBDA44783 EQ PUSH2 0x6F6 JUMPI DUP1 PUSH4 0xC8FE63FF EQ PUSH2 0x770 JUMPI PUSH1 0x0 DUP1 REVERT JUMPDEST DUP1 PUSH4 0x943B24B2 EQ PUSH2 0x5BE JUMPI DUP1 PUSH4 0x95CCEA67 EQ PUSH2 0x5DE JUMPI DUP1 PUSH4 0xA3E56FA8 EQ PUSH2 0x5FE JUMPI DUP1 PUSH4 0xAD3CB1CC EQ PUSH2 0x61E JUMPI DUP1 PUSH4 0xB1251B15 EQ PUSH2 0x65C JUMPI PUSH1 0x0 DUP1 REVERT JUMPDEST DUP1 PUSH4 0x497172BE GT PUSH2 0x1D2 JUMPI DUP1 PUSH4 0x598BC486 GT PUSH2 0x196 JUMPI DUP1 PUSH4 0x598BC486 EQ PUSH2 0x4ED JUMPI DUP1 PUSH4 0x5ABB0803 EQ PUSH2 0x522 JUMPI DUP1 PUSH4 0x5C975ABB EQ PUSH2 0x542 JUMPI DUP1 PUSH4 0x715018A6 EQ PUSH2 0x567 JUMPI DUP1 PUSH4 0x8456CB59 EQ PUSH2 0x57C JUMPI DUP1 PUSH4 0x8DA5CB5B EQ PUSH2 0x591 JUMPI PUSH1 0x0 DUP1 REVERT JUMPDEST DUP1 PUSH4 0x497172BE EQ PUSH2 0x453 JUMPI DUP1 PUSH4 0x4F1EF286 EQ PUSH2 0x480 JUMPI DUP1 PUSH4 0x510C8BF4 EQ PUSH2 0x493 JUMPI DUP1 PUSH4 0x52D1902D EQ PUSH2 0x4B3 JUMPI DUP1 PUSH4 0x560F73F8 EQ PUSH2 0x4C8 JUMPI PUSH1 0x0 DUP1 REVERT JUMPDEST DUP1 PUSH4 0x26B34F63 GT PUSH2 0x219 JUMPI DUP1 PUSH4 0x26B34F63 EQ PUSH2 0x3A3 JUMPI DUP1 PUSH4 0x328B62E4 EQ PUSH2 0x3C3 JUMPI DUP1 PUSH4 0x3B7ED734 EQ PUSH2 0x3D6 JUMPI DUP1 PUSH4 0x3F4BA83A EQ PUSH2 0x40F JUMPI DUP1 PUSH4 0x435BBBD2 EQ PUSH2 0x424 JUMPI PUSH1 0x0 DUP1 REVERT JUMPDEST DUP1 PUSH4 0x41D443E EQ PUSH2 0x261 JUMPI DUP1 PUSH4 0x71B197E EQ PUSH2 0x28A JUMPI DUP1 PUSH4 0xCC36C36 EQ PUSH2 0x2CA JUMPI DUP1 PUSH4 0x16D0C1E4 EQ PUSH2 0x353 JUMPI DUP1 PUSH4 0x23BC84EF EQ PUSH2 0x381 JUMPI PUSH1 0x0 DUP1 REVERT JUMPDEST CALLDATASIZE PUSH2 0x25C JUMPI STOP JUMPDEST PUSH1 0x0 DUP1 REVERT JUMPDEST CALLVALUE DUP1 ISZERO PUSH2 0x26D JUMPI PUSH1 0x0 DUP1 REVERT JUMPDEST POP PUSH2 0x277 PUSH1 0x9 SLOAD DUP2 JUMP JUMPDEST PUSH1 0x40 MLOAD SWAP1 DUP2 MSTORE PUSH1 0x20 ADD JUMPDEST PUSH1 0x40 MLOAD DUP1 SWAP2 SUB SWAP1 RETURN JUMPDEST CALLVALUE DUP1 ISZERO PUSH2 0x296 JUMPI PUSH1 0x0 DUP1 REVERT JUMPDEST POP PUSH2 0x2BA PUSH2 0x2A5 CALLDATASIZE PUSH1 0x4 PUSH2 0x2F62 JUMP JUMPDEST PUSH1 0x7 PUSH1 0x20 MSTORE PUSH1 0x0 SWAP1 DUP2 MSTORE PUSH1 0x40 SWAP1 KECCAK256 SLOAD PUSH1 0xFF AND DUP2 JUMP JUMPDEST PUSH1 0x40 MLOAD SWAP1 ISZERO ISZERO DUP2 MSTORE PUSH1 0x20 ADD PUSH2 0x281 JUMP JUMPDEST CALLVALUE DUP1 ISZERO PUSH2 0x2D6 JUMPI PUSH1 0x0 DUP1 REVERT JUMPDEST POP PUSH2 0x33E PUSH2 0x2E5 CALLDATASIZE PUSH1 0x4 PUSH2 0x2F62 JUMP JUMPDEST PUSH1 0x4 PUSH1 0x20 DUP2 SWAP1 MSTORE PUSH1 0x0 SWAP2 DUP3 MSTORE PUSH1 0x40 SWAP1 SWAP2 KECCAK256 DUP1 SLOAD PUSH1 0x1 DUP3 ADD SLOAD PUSH1 0x2 DUP4 ADD SLOAD PUSH1 0x3 DUP5 ADD SLOAD SWAP5 DUP5 ADD SLOAD PUSH1 0x5 DUP6 ADD SLOAD PUSH1 0x6 DUP7 ADD SLOAD PUSH1 0x7 DUP8 ADD SLOAD PUSH1 0x8 SWAP1 SWAP8 ADD SLOAD SWAP6 SWAP8 PUSH1 0xFF SWAP1 SWAP6 AND SWAP7 SWAP4 SWAP6 PUSH1 0x1 PUSH1 0x1 PUSH1 0xA0 SHL SUB SWAP1 SWAP4 AND SWAP4 SWAP2 SWAP3 SWAP1 SWAP2 SWAP1 DUP10 JUMP JUMPDEST PUSH1 0x40 MLOAD PUSH2 0x281 SWAP10 SWAP9 SWAP8 SWAP7 SWAP6 SWAP5 SWAP4 SWAP3 SWAP2 SWAP1 PUSH2 0x2FA5 JUMP JUMPDEST CALLVALUE DUP1 ISZERO PUSH2 0x35F JUMPI PUSH1 0x0 DUP1 REVERT JUMPDEST POP PUSH1 0x0 SLOAD PUSH2 0x374 SWAP1 PUSH1 0x1 PUSH1 0xA0 SHL SWAP1 DIV PUSH1 0xFF AND DUP2 JUMP JUMPDEST PUSH1 0x40 MLOAD PUSH2 0x281 SWAP2 SWAP1 PUSH2 0x300A JUMP JUMPDEST CALLVALUE DUP1 ISZERO PUSH2 0x38D JUMPI PUSH1 0x0 DUP1 REVERT JUMPDEST POP PUSH2 0x3A1 PUSH2 0x39C CALLDATASIZE PUSH1 0x4 PUSH2 0x302C JUMP JUMPDEST PUSH2 0xA2E JUMP JUMPDEST STOP JUMPDEST CALLVALUE DUP1 ISZERO PUSH2 0x3AF JUMPI PUSH1 0x0 DUP1 REVERT JUMPDEST POP PUSH2 0x3A1 PUSH2 0x3BE CALLDATASIZE PUSH1 0x4 PUSH2 0x305C JUMP JUMPDEST PUSH2 0xE89 JUMP JUMPDEST PUSH2 0x3A1 PUSH2 0x3D1 CALLDATASIZE PUSH1 0x4 PUSH2 0x3124 JUMP JUMPDEST PUSH2 0xF8B JUMP JUMPDEST CALLVALUE DUP1 ISZERO PUSH2 0x3E2 JUMPI PUSH1 0x0 DUP1 REVERT JUMPDEST POP PUSH1 0xA SLOAD PUSH2 0x3FA SWAP1 PUSH1 0x1 PUSH1 0x40 SHL SWAP1 DIV PUSH4 0xFFFFFFFF AND DUP2 JUMP JUMPDEST PUSH1 0x40 MLOAD PUSH4 0xFFFFFFFF SWAP1 SWAP2 AND DUP2 MSTORE PUSH1 0x20 ADD PUSH2 0x281 JUMP JUMPDEST CALLVALUE DUP1 ISZERO PUSH2 0x41B JUMPI PUSH1 0x0 DUP1 REVERT JUMPDEST POP PUSH2 0x3A1 PUSH2 0x12FA JUMP JUMPDEST CALLVALUE DUP1 ISZERO PUSH2 0x430 JUMPI PUSH1 0x0 DUP1 REVERT JUMPDEST POP PUSH2 0x444 PUSH2 0x43F CALLDATASIZE PUSH1 0x4 PUSH2 0x302C JUMP JUMPDEST PUSH2 0x130C JUMP JUMPDEST PUSH1 0x40 MLOAD PUSH2 0x281 SWAP4 SWAP3 SWAP2 SWAP1 PUSH2 0x321A JUMP JUMPDEST CALLVALUE DUP1 ISZERO PUSH2 0x45F JUMPI PUSH1 0x0 DUP1 REVERT JUMPDEST POP PUSH2 0x277 PUSH2 0x46E CALLDATASIZE PUSH1 0x4 PUSH2 0x2F62 JUMP JUMPDEST PUSH1 0xB PUSH1 0x20 MSTORE PUSH1 0x0 SWAP1 DUP2 MSTORE PUSH1 0x40 SWAP1 KECCAK256 SLOAD DUP2 JUMP JUMPDEST PUSH2 0x3A1 PUSH2 0x48E CALLDATASIZE PUSH1 0x4 PUSH2 0x32BD JUMP JUMPDEST PUSH2 0x1470 JUMP JUMPDEST CALLVALUE DUP1 ISZERO PUSH2 0x49F JUMPI PUSH1 0x0 DUP1 REVERT JUMPDEST POP PUSH2 0x3A1 PUSH2 0x4AE CALLDATASIZE PUSH1 0x4 PUSH2 0x3364 JUMP JUMPDEST PUSH2 0x148F JUMP JUMPDEST CALLVALUE DUP1 ISZERO PUSH2 0x4BF JUMPI PUSH1 0x0 DUP1 REVERT JUMPDEST POP PUSH2 0x277 PUSH2 0x168F JUMP JUMPDEST CALLVALUE DUP1 ISZERO PUSH2 0x4D4 JUMPI PUSH1 0x0 DUP1 REVERT JUMPDEST POP PUSH2 0x4DD PUSH2 0x16AC JUMP JUMPDEST PUSH1 0x40 MLOAD PUSH2 0x281 SWAP5 SWAP4 SWAP3 SWAP2 SWAP1 PUSH2 0x3397 JUMP JUMPDEST CALLVALUE DUP1 ISZERO PUSH2 0x4F9 JUMPI PUSH1 0x0 DUP1 REVERT JUMPDEST POP PUSH1 0xA SLOAD PUSH2 0x50F SWAP1 PUSH1 0x1 PUSH1 0x60 SHL SWAP1 DIV PUSH2 0xFFFF AND DUP2 JUMP JUMPDEST PUSH1 0x40 MLOAD PUSH2 0xFFFF SWAP1 SWAP2 AND DUP2 MSTORE PUSH1 0x20 ADD PUSH2 0x281 JUMP JUMPDEST CALLVALUE DUP1 ISZERO PUSH2 0x52E JUMPI PUSH1 0x0 DUP1 REVERT JUMPDEST POP PUSH2 0x3A1 PUSH2 0x53D CALLDATASIZE PUSH1 0x4 PUSH2 0x33CB JUMP JUMPDEST PUSH2 0x16F7 JUMP JUMPDEST CALLVALUE DUP1 ISZERO PUSH2 0x54E JUMPI PUSH1 0x0 DUP1 REVERT JUMPDEST POP PUSH1 0x0 DUP1 MLOAD PUSH1 0x20 PUSH2 0x391A DUP4 CODECOPY DUP2 MLOAD SWAP2 MSTORE SLOAD PUSH1 0xFF AND PUSH2 0x2BA JUMP JUMPDEST CALLVALUE DUP1 ISZERO PUSH2 0x573 JUMPI PUSH1 0x0 DUP1 REVERT JUMPDEST POP PUSH2 0x3A1 PUSH2 0x174D JUMP JUMPDEST CALLVALUE DUP1 ISZERO PUSH2 0x588 JUMPI PUSH1 0x0 DUP1 REVERT JUMPDEST POP PUSH2 0x3A1 PUSH2 0x175F JUMP JUMPDEST CALLVALUE DUP1 ISZERO PUSH2 0x59D JUMPI PUSH1 0x0 DUP1 REVERT JUMPDEST POP PUSH2 0x5A6 PUSH2 0x176F JUMP JUMPDEST PUSH1 0x40 MLOAD PUSH1 0x1 PUSH1 0x1 PUSH1 0xA0 SHL SUB SWAP1 SWAP2 AND DUP2 MSTORE PUSH1 0x20 ADD PUSH2 0x281 JUMP JUMPDEST CALLVALUE DUP1 ISZERO PUSH2 0x5CA JUMPI PUSH1 0x0 DUP1 REVERT JUMPDEST POP PUSH2 0x3A1 PUSH2 0x5D9 CALLDATASIZE PUSH1 0x4 PUSH2 0x3416 JUMP JUMPDEST PUSH2 0x179D JUMP JUMPDEST CALLVALUE DUP1 ISZERO PUSH2 0x5EA JUMPI PUSH1 0x0 DUP1 REVERT JUMPDEST POP PUSH2 0x3A1 PUSH2 0x5F9 CALLDATASIZE PUSH1 0x4 PUSH2 0x344B JUMP JUMPDEST PUSH2 0x1A1A JUMP JUMPDEST CALLVALUE DUP1 ISZERO PUSH2 0x60A JUMPI PUSH1 0x0 DUP1 REVERT JUMPDEST POP PUSH1 0x8 SLOAD PUSH2 0x5A6 SWAP1 PUSH1 0x1 PUSH1 0x1 PUSH1 0xA0 SHL SUB AND DUP2 JUMP JUMPDEST CALLVALUE DUP1 ISZERO PUSH2 0x62A JUMPI PUSH1 0x0 DUP1 REVERT JUMPDEST POP PUSH2 0x64F PUSH1 0x40 MLOAD DUP1 PUSH1 0x40 ADD PUSH1 0x40 MSTORE DUP1 PUSH1 0x5 DUP2 MSTORE PUSH1 0x20 ADD PUSH5 0x352E302E3 PUSH1 0xDC SHL DUP2 MSTORE POP DUP2 JUMP JUMPDEST PUSH1 0x40 MLOAD PUSH2 0x281 SWAP2 SWAP1 PUSH2 0x349B JUMP JUMPDEST CALLVALUE DUP1 ISZERO PUSH2 0x668 JUMPI PUSH1 0x0 DUP1 REVERT JUMPDEST POP PUSH2 0x67C PUSH2 0x677 CALLDATASIZE PUSH1 0x4 PUSH2 0x34CE JUMP JUMPDEST PUSH2 0x1B11 JUMP JUMPDEST PUSH1 0x40 MLOAD PUSH2 0x281 SWAP2 SWAP1 PUSH2 0x34EB JUMP JUMPDEST CALLVALUE DUP1 ISZERO PUSH2 0x695 JUMPI PUSH1 0x0 DUP1 REVERT JUMPDEST POP PUSH2 0x277 PUSH2 0x6A4 CALLDATASIZE PUSH1 0x4 PUSH2 0x302C JUMP JUMPDEST PUSH1 0x2 PUSH1 0x20 MSTORE PUSH1 0x0 SWAP1 DUP2 MSTORE PUSH1 0x40 SWAP1 KECCAK256 SLOAD DUP2 JUMP JUMPDEST CALLVALUE DUP1 ISZERO PUSH2 0x6C2 JUMPI PUSH1 0x0 DUP1 REVERT JUMPDEST POP PUSH2 0x277 PUSH2 0x6D1 CALLDATASIZE PUSH1 0x4 PUSH2 0x344B JUMP JUMPDEST PUSH2 0x1B8A JUMP JUMPDEST CALLVALUE DUP1 ISZERO PUSH2 0x6E2 JUMPI PUSH1 0x0 DUP1 REVERT JUMPDEST POP PUSH2 0x2BA PUSH2 0x6F1 CALLDATASIZE PUSH1 0x4 PUSH2 0x344B JUMP JUMPDEST PUSH2 0x1BBB JUMP JUMPDEST CALLVALUE DUP1 ISZERO PUSH2 0x702 JUMPI PUSH1 0x0 DUP1 REVERT JUMPDEST POP PUSH2 0x75C PUSH2 0x711 CALLDATASIZE PUSH1 0x4 PUSH2 0x302C JUMP JUMPDEST PUSH1 0x1 PUSH1 0x20 DUP2 SWAP1 MSTORE PUSH1 0x0 SWAP2 DUP3 MSTORE PUSH1 0x40 SWAP1 SWAP2 KECCAK256 DUP1 SLOAD SWAP2 DUP2 ADD SLOAD PUSH1 0x2 DUP3 ADD SLOAD PUSH1 0x3 DUP4 ADD SLOAD PUSH1 0x4 DUP5 ADD SLOAD PUSH1 0x5 DUP6 ADD SLOAD PUSH1 0x6 DUP7 ADD SLOAD PUSH1 0x7 SWAP1 SWAP7 ADD SLOAD PUSH1 0xFF SWAP8 DUP9 AND SWAP8 SWAP6 SWAP7 SWAP5 SWAP6 SWAP4 SWAP5 SWAP3 SWAP4 SWAP2 SWAP3 SWAP2 AND DUP9 JUMP JUMPDEST PUSH1 0x40 MLOAD PUSH2 0x281 SWAP9 SWAP8 SWAP7 SWAP6 SWAP5 SWAP4 SWAP3 SWAP2 SWAP1 PUSH2 0x353A JUMP JUMPDEST CALLVALUE DUP1 ISZERO PUSH2 0x77C JUMPI PUSH1 0x0 DUP1 REVERT JUMPDEST POP PUSH1 0x2 PUSH1 0x20 MSTORE PUSH32 0xAC33FF75C19E70FE83507DB0D683FD3465C996598DC972688B7ACE676C89077B SLOAD PUSH32 0xE90B7BCEB6E7DF5418FB78D8EE546E97C83A08BBCCC01A0644D599CCD2A7C2E0 SLOAD PUSH32 0x679795A0195A1B76CDEBB7C51D74E058AEE92919B8C3389AF86EF24535E8A28C SLOAD PUSH1 0x3 PUSH1 0x0 MSTORE PUSH32 0x88601476D11616A71C5BE67555BD1DFF4B1CBF21533D2669B768B61518CFE1C3 SLOAD PUSH1 0x40 DUP1 MLOAD SWAP5 DUP6 MSTORE PUSH1 0x20 DUP6 ADD SWAP4 SWAP1 SWAP4 MSTORE SWAP2 DUP4 ADD MSTORE PUSH1 0x60 DUP3 ADD MSTORE PUSH1 0x80 ADD PUSH2 0x281 JUMP JUMPDEST CALLVALUE DUP1 ISZERO PUSH2 0x83B JUMPI PUSH1 0x0 DUP1 REVERT JUMPDEST POP PUSH2 0x277 PUSH2 0x84A CALLDATASIZE PUSH1 0x4 PUSH2 0x3580 JUMP JUMPDEST PUSH1 0x0 DUP3 DUP2 MSTORE PUSH1 0x4 PUSH1 0x20 SWAP1 DUP2 MSTORE PUSH1 0x40 DUP1 DUP4 KECCAK256 PUSH1 0x1 PUSH1 0x1 PUSH1 0xA0 SHL SUB DUP6 AND DUP5 MSTORE PUSH1 0xA ADD SWAP1 SWAP2 MSTORE SWAP1 KECCAK256 SLOAD SWAP3 SWAP2 POP POP JUMP JUMPDEST CALLVALUE DUP1 ISZERO PUSH2 0x882 JUMPI PUSH1 0x0 DUP1 REVERT JUMPDEST POP PUSH2 0x3A1 PUSH2 0x891 CALLDATASIZE PUSH1 0x4 PUSH2 0x35A5 JUMP JUMPDEST PUSH2 0x1BFE JUMP JUMPDEST CALLVALUE DUP1 ISZERO PUSH2 0x8A2 JUMPI PUSH1 0x0 DUP1 REVERT JUMPDEST POP PUSH1 0x0 SLOAD PUSH2 0x5A6 SWAP1 PUSH1 0x1 PUSH1 0x1 PUSH1 0xA0 SHL SUB AND DUP2 JUMP JUMPDEST CALLVALUE DUP1 ISZERO PUSH2 0x8C2 JUMPI PUSH1 0x0 DUP1 REVERT JUMPDEST POP PUSH2 0x3A1 PUSH2 0x8D1 CALLDATASIZE PUSH1 0x4 PUSH2 0x35C0 JUMP JUMPDEST PUSH2 0x1C78 JUMP JUMPDEST CALLVALUE DUP1 ISZERO PUSH2 0x8E2 JUMPI PUSH1 0x0 DUP1 REVERT JUMPDEST POP PUSH2 0x8F6 PUSH2 0x8F1 CALLDATASIZE PUSH1 0x4 PUSH2 0x302C JUMP JUMPDEST PUSH2 0x1D04 JUMP JUMPDEST PUSH1 0x40 DUP1 MLOAD SWAP9 DUP10 MSTORE PUSH1 0x20 DUP10 ADD SWAP8 SWAP1 SWAP8 MSTORE SWAP6 DUP8 ADD SWAP5 SWAP1 SWAP5 MSTORE PUSH1 0x60 DUP7 ADD SWAP3 SWAP1 SWAP3 MSTORE PUSH1 0x80 DUP6 ADD MSTORE PUSH1 0xA0 DUP5 ADD MSTORE PUSH1 0xC0 DUP4 ADD MSTORE ISZERO ISZERO PUSH1 0xE0 DUP3 ADD MSTORE PUSH2 0x100 ADD PUSH2 0x281 JUMP JUMPDEST CALLVALUE DUP1 ISZERO PUSH2 0x93F JUMPI PUSH1 0x0 DUP1 REVERT JUMPDEST POP PUSH2 0x953 PUSH2 0x94E CALLDATASIZE PUSH1 0x4 PUSH2 0x2F62 JUMP JUMPDEST PUSH2 0x1DA3 JUMP JUMPDEST PUSH1 0x40 MLOAD PUSH2 0x281 SWAP7 SWAP6 SWAP5 SWAP4 SWAP3 SWAP2 SWAP1 PUSH2 0x35DC JUMP JUMPDEST CALLVALUE DUP1 ISZERO PUSH2 0x971 JUMPI PUSH1 0x0 DUP1 REVERT JUMPDEST POP PUSH2 0x985 PUSH2 0x980 CALLDATASIZE PUSH1 0x4 PUSH2 0x34CE JUMP JUMPDEST PUSH2 0x1E60 JUMP JUMPDEST PUSH1 0x40 MLOAD PUSH2 0x281 SWAP2 SWAP1 PUSH2 0x3628 JUMP JUMPDEST CALLVALUE DUP1 ISZERO PUSH2 0x99E JUMPI PUSH1 0x0 DUP1 REVERT JUMPDEST POP PUSH2 0x277 PUSH1 0x3 SLOAD DUP2 JUMP JUMPDEST CALLVALUE DUP1 ISZERO PUSH2 0x9B4 JUMPI PUSH1 0x0 DUP1 REVERT JUMPDEST POP PUSH1 0xA SLOAD PUSH2 0x9C8 SWAP1 PUSH1 0x1 PUSH1 0x1 PUSH1 0x40 SHL SUB AND DUP2 JUMP JUMPDEST PUSH1 0x40 MLOAD PUSH1 0x1 PUSH1 0x1 PUSH1 0x40 SHL SUB SWAP1 SWAP2 AND DUP2 MSTORE PUSH1 0x20 ADD PUSH2 0x281 JUMP JUMPDEST CALLVALUE DUP1 ISZERO PUSH2 0x9EC JUMPI PUSH1 0x0 DUP1 REVERT JUMPDEST POP PUSH2 0x3A1 PUSH2 0x9FB CALLDATASIZE PUSH1 0x4 PUSH2 0x34CE JUMP JUMPDEST PUSH2 0x1ECC JUMP JUMPDEST CALLVALUE DUP1 ISZERO PUSH2 0xA0C JUMPI PUSH1 0x0 DUP1 REVERT JUMPDEST POP PUSH2 0xA20 PUSH2 0xA1B CALLDATASIZE PUSH1 0x4 PUSH2 0x34CE JUMP JUMPDEST PUSH2 0x1F07 JUMP JUMPDEST PUSH1 0x40 MLOAD PUSH2 0x281 SWAP3 SWAP2 SWAP1 PUSH2 0x363B JUMP JUMPDEST PUSH2 0xA36 PUSH2 0x208C JUMP JUMPDEST PUSH2 0xA3E PUSH2 0x20BE JUMP JUMPDEST PUSH2 0xA46 PUSH2 0x20F6 JUMP JUMPDEST PUSH1 0x0 PUSH1 0x1 PUSH1 0x0 DUP4 PUSH1 0x3 DUP2 GT ISZERO PUSH2 0xA5E JUMPI PUSH2 0xA5E PUSH2 0x2F7B JUMP JUMPDEST PUSH1 0x3 DUP2 GT ISZERO PUSH2 0xA6F JUMPI PUSH2 0xA6F PUSH2 0x2F7B JUMP JUMPDEST DUP2 MSTORE PUSH1 0x20 DUP2 ADD SWAP2 SWAP1 SWAP2 MSTORE PUSH1 0x40 ADD PUSH1 0x0 KECCAK256 PUSH1 0x7 DUP2 ADD SLOAD SWAP1 SWAP2 POP PUSH1 0xFF AND PUSH2 0xAD2 JUMPI PUSH1 0x40 MLOAD PUSH3 0x461BCD PUSH1 0xE5 SHL DUP2 MSTORE PUSH1 0x20 PUSH1 0x4 DUP3 ADD MSTORE PUSH1 0x14 PUSH1 0x24 DUP3 ADD MSTORE PUSH20 0x447261772074797065206E6F7420616374697665 PUSH1 0x60 SHL PUSH1 0x44 DUP3 ADD MSTORE PUSH1 0x64 ADD JUMPDEST PUSH1 0x40 MLOAD DUP1 SWAP2 SUB SWAP1 REVERT JUMPDEST PUSH1 0x0 DUP2 PUSH1 0x1 ADD SLOAD GT PUSH2 0xB26 JUMPI PUSH1 0x40 MLOAD PUSH3 0x461BCD PUSH1 0xE5 SHL DUP2 MSTORE PUSH1 0x20 PUSH1 0x4 DUP3 ADD MSTORE PUSH1 0x18 PUSH1 0x24 DUP3 ADD MSTORE PUSH32 0x447261772074797065206E6F7420636F6E666967757265640000000000000000 PUSH1 0x44 DUP3 ADD MSTORE PUSH1 0x64 ADD PUSH2 0xAC9 JUMP JUMPDEST DUP1 PUSH1 0x6 ADD SLOAD DUP2 PUSH1 0x5 ADD SLOAD PUSH2 0xB3A SWAP2 SWAP1 PUSH2 0x3676 JUMP JUMPDEST TIMESTAMP LT ISZERO PUSH2 0xB89 JUMPI PUSH1 0x40 MLOAD PUSH3 0x461BCD PUSH1 0xE5 SHL DUP2 MSTORE PUSH1 0x20 PUSH1 0x4 DUP3 ADD MSTORE PUSH1 0x19 PUSH1 0x24 DUP3 ADD MSTORE PUSH32 0x4472617720696E74657276616C206E6F7420656C617073656400000000000000 PUSH1 0x44 DUP3 ADD MSTORE PUSH1 0x64 ADD PUSH2 0xAC9 JUMP JUMPDEST PUSH1 0x0 DUP1 PUSH1 0x0 SWAP1 SLOAD SWAP1 PUSH2 0x100 EXP SWAP1 DIV PUSH1 0x1 PUSH1 0x1 PUSH1 0xA0 SHL SUB AND PUSH1 0x1 PUSH1 0x1 PUSH1 0xA0 SHL SUB AND PUSH4 0xAD605729 PUSH1 0x40 MLOAD DUP2 PUSH4 0xFFFFFFFF AND PUSH1 0xE0 SHL DUP2 MSTORE PUSH1 0x4 ADD PUSH1 0x20 PUSH1 0x40 MLOAD DUP1 DUP4 SUB DUP2 DUP7 GAS STATICCALL ISZERO DUP1 ISZERO PUSH2 0xBDD JUMPI RETURNDATASIZE PUSH1 0x0 DUP1 RETURNDATACOPY RETURNDATASIZE PUSH1 0x0 REVERT JUMPDEST POP POP POP POP PUSH1 0x40 MLOAD RETURNDATASIZE PUSH1 0x1F NOT PUSH1 0x1F DUP3 ADD AND DUP3 ADD DUP1 PUSH1 0x40 MSTORE POP DUP2 ADD SWAP1 PUSH2 0xC01 SWAP2 SWAP1 PUSH2 0x3689 JUMP JUMPDEST SWAP1 POP PUSH1 0x0 DUP1 PUSH1 0x0 SWAP1 SLOAD SWAP1 PUSH2 0x100 EXP SWAP1 DIV PUSH1 0x1 PUSH1 0x1 PUSH1 0xA0 SHL SUB AND PUSH1 0x1 PUSH1 0x1 PUSH1 0xA0 SHL SUB AND PUSH4 0x96C82E57 PUSH1 0x40 MLOAD DUP2 PUSH4 0xFFFFFFFF AND PUSH1 0xE0 SHL DUP2 MSTORE PUSH1 0x4 ADD PUSH1 0x20 PUSH1 0x40 MLOAD DUP1 DUP4 SUB DUP2 DUP7 GAS STATICCALL ISZERO DUP1 ISZERO PUSH2 0xC57 JUMPI RETURNDATASIZE PUSH1 0x0 DUP1 RETURNDATACOPY RETURNDATASIZE PUSH1 0x0 REVERT JUMPDEST POP POP POP POP PUSH1 0x40 MLOAD RETURNDATASIZE PUSH1 0x1F NOT PUSH1 0x1F DUP3 ADD AND DUP3 ADD DUP1 PUSH1 0x40 MSTORE POP DUP2 ADD SWAP1 PUSH2 0xC7B SWAP2 SWAP1 PUSH2 0x3689 JUMP JUMPDEST SWAP1 POP PUSH1 0x0 DUP3 GT PUSH2 0xCBF JUMPI PUSH1 0x40 MLOAD PUSH3 0x461BCD PUSH1 0xE5 SHL DUP2 MSTORE PUSH1 0x20 PUSH1 0x4 DUP3 ADD MSTORE PUSH1 0xF PUSH1 0x24 DUP3 ADD MSTORE PUSH15 0x4E6F207061727469636970616E7473 PUSH1 0x88 SHL PUSH1 0x44 DUP3 ADD MSTORE PUSH1 0x64 ADD PUSH2 0xAC9 JUMP JUMPDEST PUSH1 0x0 DUP2 GT PUSH2 0xCFB JUMPI PUSH1 0x40 MLOAD PUSH3 0x461BCD PUSH1 0xE5 SHL DUP2 MSTORE PUSH1 0x20 PUSH1 0x4 DUP3 ADD MSTORE PUSH1 0x9 PUSH1 0x24 DUP3 ADD MSTORE PUSH9 0x139BC81DD95A59DA1D PUSH1 0xBA SHL PUSH1 0x44 DUP3 ADD MSTORE PUSH1 0x64 ADD PUSH2 0xAC9 JUMP JUMPDEST PUSH1 0x0 DUP4 PUSH1 0x4 ADD SLOAD GT DUP1 ISZERO PUSH2 0xD20 JUMPI POP DUP3 PUSH1 0x3 ADD SLOAD DUP4 PUSH1 0x4 ADD SLOAD PUSH2 0xD1E SWAP2 SWAP1 PUSH2 0x36B8 JUMP JUMPDEST ISZERO JUMPDEST ISZERO PUSH2 0xD98 JUMPI PUSH1 0x2 DUP1 DUP5 ADD SLOAD SWAP1 PUSH2 0xD36 SWAP1 DUP3 PUSH2 0x36CC JUMP JUMPDEST PUSH1 0x2 DUP6 ADD SSTORE DUP5 PUSH1 0x3 DUP2 GT ISZERO PUSH2 0xD4D JUMPI PUSH2 0xD4D PUSH2 0x2F7B JUMP JUMPDEST PUSH1 0x2 DUP6 ADD SLOAD PUSH1 0x4 DUP7 ADD SLOAD PUSH1 0x40 DUP1 MLOAD DUP6 DUP2 MSTORE PUSH1 0x20 DUP2 ADD SWAP4 SWAP1 SWAP4 MSTORE DUP3 ADD MSTORE PUSH32 0x3F9F7B11395EB458AB75ABB30739C795E10A96FE065F510B3E393D682323FA68 SWAP1 PUSH1 0x60 ADD PUSH1 0x40 MLOAD DUP1 SWAP2 SUB SWAP1 LOG2 POP JUMPDEST PUSH1 0x3 DUP1 SLOAD SWAP1 PUSH1 0x0 PUSH2 0xDA8 DUP4 PUSH2 0x36E0 JUMP JUMPDEST SWAP1 SWAP2 SSTORE POP POP PUSH1 0x3 DUP1 SLOAD PUSH1 0x0 DUP2 DUP2 MSTORE PUSH1 0x4 PUSH1 0x20 MSTORE PUSH1 0x40 SWAP1 KECCAK256 DUP2 DUP2 SSTORE PUSH1 0x1 DUP1 DUP3 ADD DUP1 SLOAD SWAP4 SWAP5 SWAP3 SWAP4 DUP10 SWAP4 SWAP2 SWAP3 PUSH1 0xFF NOT SWAP1 SWAP2 AND SWAP2 DUP5 SWAP1 DUP2 GT ISZERO PUSH2 0xDE9 JUMPI PUSH2 0xDE9 PUSH2 0x2F7B JUMP JUMPDEST MUL OR SWAP1 SSTORE POP TIMESTAMP PUSH1 0x2 DUP3 ADD SSTORE PUSH1 0x7 DUP2 ADD DUP5 SWAP1 SSTORE PUSH1 0x8 DUP2 ADD DUP4 SWAP1 SSTORE PUSH1 0x4 DUP6 ADD DUP1 SLOAD SWAP1 PUSH1 0x0 PUSH2 0xE14 DUP4 PUSH2 0x36E0 JUMP JUMPDEST SWAP1 SWAP2 SSTORE POP POP TIMESTAMP PUSH1 0x5 DUP7 ADD SSTORE PUSH1 0x0 DUP1 SLOAD PUSH1 0x1 PUSH1 0xA0 SHL SWAP1 DIV PUSH1 0xFF AND PUSH1 0x1 DUP2 GT ISZERO PUSH2 0xE3E JUMPI PUSH2 0xE3E PUSH2 0x2F7B JUMP JUMPDEST SUB PUSH2 0xE61 JUMPI PUSH1 0x0 PUSH2 0xE4F DUP5 DUP5 PUSH2 0x2127 JUMP JUMPDEST SWAP1 POP PUSH2 0xE5B DUP4 DUP3 PUSH2 0x21A4 JUMP JUMPDEST POP PUSH2 0xE6A JUMP JUMPDEST PUSH2 0xE6A DUP3 PUSH2 0x2579 JUMP JUMPDEST POP POP POP POP POP PUSH2 0xE86 PUSH1 0x1 PUSH1 0x0 DUP1 MLOAD PUSH1 0x20 PUSH2 0x393A DUP4 CODECOPY DUP2 MLOAD SWAP2 MSTORE SSTORE JUMP JUMPDEST POP JUMP JUMPDEST PUSH2 0xE91 PUSH2 0x208C JUMP JUMPDEST PUSH1 0x1 PUSH1 0x1 PUSH1 0xA0 SHL SUB DUP6 AND PUSH2 0xEDD JUMPI PUSH1 0x40 MLOAD PUSH3 0x461BCD PUSH1 0xE5 SHL DUP2 MSTORE PUSH1 0x20 PUSH1 0x4 DUP3 ADD MSTORE PUSH1 0x13 PUSH1 0x24 DUP3 ADD MSTORE PUSH19 0x24B73B30B634B21031B7B7B93234B730BA37B9 PUSH1 0x69 SHL PUSH1 0x44 DUP3 ADD MSTORE PUSH1 0x64 ADD PUSH2 0xAC9 JUMP JUMPDEST PUSH1 0x8 DUP1 SLOAD PUSH1 0x1 PUSH1 0x1 PUSH1 0xA0 SHL SUB NOT AND PUSH1 0x1 PUSH1 0x1 PUSH1 0xA0 SHL SUB DUP8 AND SWAP1 DUP2 OR SWAP1 SWAP2 SSTORE PUSH1 0x9 DUP6 SWAP1 SSTORE PUSH1 0xA DUP1 SLOAD PUSH1 0x1 PUSH1 0x1 PUSH1 0x40 SHL SUB DUP7 AND PUSH12 0xFFFFFFFFFFFFFFFFFFFFFFFF NOT SWAP1 SWAP2 AND DUP2 OR PUSH1 0x1 PUSH1 0x40 SHL PUSH4 0xFFFFFFFF DUP8 AND MUL OR PUSH2 0xFFFF PUSH1 0x60 SHL NOT AND PUSH1 0x1 PUSH1 0x60 SHL PUSH2 0xFFFF DUP7 AND MUL OR SWAP1 SWAP2 SSTORE PUSH1 0x40 DUP1 MLOAD SWAP3 DUP4 MSTORE PUSH1 0x20 DUP4 ADD DUP8 SWAP1 MSTORE DUP3 ADD MSTORE PUSH32 0x93CB628E44CB03EE0C6A03A219E56AFF08BDC0806B9C9AB4C2AF41C2AF6BEB42 SWAP1 PUSH1 0x60 ADD PUSH1 0x40 MLOAD DUP1 SWAP2 SUB SWAP1 LOG1 POP POP POP POP POP JUMP JUMPDEST PUSH2 0xF93 PUSH2 0x208C JUMP JUMPDEST DUP3 DUP2 EQ PUSH2 0xFDA JUMPI PUSH1 0x40 MLOAD PUSH3 0x461BCD PUSH1 0xE5 SHL DUP2 MSTORE PUSH1 0x20 PUSH1 0x4 DUP3 ADD MSTORE PUSH1 0x15 PUSH1 0x24 DUP3 ADD MSTORE PUSH21 0x82E4E4C2F240D8CADCCEE8D040DAD2E6DAC2E8C6D PUSH1 0x5B SHL PUSH1 0x44 DUP3 ADD MSTORE PUSH1 0x64 ADD PUSH2 0xAC9 JUMP JUMPDEST PUSH1 0x0 PUSH1 0x5 PUSH1 0x0 DUP8 PUSH1 0x3 DUP2 GT ISZERO PUSH2 0xFF2 JUMPI PUSH2 0xFF2 PUSH2 0x2F7B JUMP JUMPDEST PUSH1 0x3 DUP2 GT ISZERO PUSH2 0x1003 JUMPI PUSH2 0x1003 PUSH2 0x2F7B JUMP JUMPDEST DUP2 MSTORE PUSH1 0x20 ADD SWAP1 DUP2 MSTORE PUSH1 0x20 ADD PUSH1 0x0 KECCAK256 SWAP1 POP PUSH1 0x0 CALLVALUE GT ISZERO PUSH2 0x1036 JUMPI CALLVALUE DUP2 PUSH1 0x0 ADD PUSH1 0x0 DUP3 DUP3 SLOAD PUSH2 0x1030 SWAP2 SWAP1 PUSH2 0x3676 JUMP JUMPDEST SWAP1 SWAP2 SSTORE POP POP JUMPDEST PUSH1 0x0 JUMPDEST DUP5 DUP2 LT ISZERO PUSH2 0x12A0 JUMPI PUSH1 0x0 DUP7 DUP7 DUP4 DUP2 DUP2 LT PUSH2 0x1055 JUMPI PUSH2 0x1055 PUSH2 0x36F9 JUMP JUMPDEST SWAP1 POP PUSH1 0x20 MUL ADD PUSH1 0x20 DUP2 ADD SWAP1 PUSH2 0x106A SWAP2 SWAP1 PUSH2 0x34CE JUMP JUMPDEST PUSH1 0x1 PUSH1 0x1 PUSH1 0xA0 SHL SUB AND SUB PUSH2 0x10B8 JUMPI PUSH1 0x40 MLOAD PUSH3 0x461BCD PUSH1 0xE5 SHL DUP2 MSTORE PUSH1 0x20 PUSH1 0x4 DUP3 ADD MSTORE PUSH1 0x15 PUSH1 0x24 DUP3 ADD MSTORE PUSH21 0x496E76616C696420746F6B656E2061646472657373 PUSH1 0x58 SHL PUSH1 0x44 DUP3 ADD MSTORE PUSH1 0x64 ADD PUSH2 0xAC9 JUMP JUMPDEST PUSH1 0x0 DUP5 DUP5 DUP4 DUP2 DUP2 LT PUSH2 0x10CC JUMPI PUSH2 0x10CC PUSH2 0x36F9 JUMP JUMPDEST SWAP1 POP PUSH1 0x20 MUL ADD CALLDATALOAD GT PUSH2 0x1115 JUMPI PUSH1 0x40 MLOAD PUSH3 0x461BCD PUSH1 0xE5 SHL DUP2 MSTORE PUSH1 0x20 PUSH1 0x4 DUP3 ADD MSTORE PUSH1 0x12 PUSH1 0x24 DUP3 ADD MSTORE PUSH18 0x416D6F756E74206D757374206265203E203 PUSH1 0x74 SHL PUSH1 0x44 DUP3 ADD MSTORE PUSH1 0x64 ADD PUSH2 0xAC9 JUMP JUMPDEST PUSH2 0x116B CALLER ADDRESS DUP7 DUP7 DUP6 DUP2 DUP2 LT PUSH2 0x112C JUMPI PUSH2 0x112C PUSH2 0x36F9 JUMP JUMPDEST SWAP1 POP PUSH1 0x20 MUL ADD CALLDATALOAD DUP10 DUP10 DUP7 DUP2 DUP2 LT PUSH2 0x1145 JUMPI PUSH2 0x1145 PUSH2 0x36F9 JUMP JUMPDEST SWAP1 POP PUSH1 0x20 MUL ADD PUSH1 0x20 DUP2 ADD SWAP1 PUSH2 0x115A SWAP2 SWAP1 PUSH2 0x34CE JUMP JUMPDEST PUSH1 0x1 PUSH1 0x1 PUSH1 0xA0 SHL SUB AND SWAP3 SWAP2 SWAP1 PUSH2 0x2648 JUMP JUMPDEST DUP2 PUSH1 0x2 ADD PUSH1 0x0 DUP8 DUP8 DUP5 DUP2 DUP2 LT PUSH2 0x1183 JUMPI PUSH2 0x1183 PUSH2 0x36F9 JUMP JUMPDEST SWAP1 POP PUSH1 0x20 MUL ADD PUSH1 0x20 DUP2 ADD SWAP1 PUSH2 0x1198 SWAP2 SWAP1 PUSH2 0x34CE JUMP JUMPDEST PUSH1 0x1 PUSH1 0x1 PUSH1 0xA0 SHL SUB AND PUSH1 0x1 PUSH1 0x1 PUSH1 0xA0 SHL SUB AND DUP2 MSTORE PUSH1 0x20 ADD SWAP1 DUP2 MSTORE PUSH1 0x20 ADD PUSH1 0x0 KECCAK256 SLOAD PUSH1 0x0 SUB PUSH2 0x121E JUMPI DUP2 PUSH1 0x1 ADD DUP7 DUP7 DUP4 DUP2 DUP2 LT PUSH2 0x11D6 JUMPI PUSH2 0x11D6 PUSH2 0x36F9 JUMP JUMPDEST SWAP1 POP PUSH1 0x20 MUL ADD PUSH1 0x20 DUP2 ADD SWAP1 PUSH2 0x11EB SWAP2 SWAP1 PUSH2 0x34CE JUMP JUMPDEST DUP2 SLOAD PUSH1 0x1 DUP2 ADD DUP4 SSTORE PUSH1 0x0 SWAP3 DUP4 MSTORE PUSH1 0x20 SWAP1 SWAP3 KECCAK256 SWAP1 SWAP2 ADD DUP1 SLOAD PUSH1 0x1 PUSH1 0x1 PUSH1 0xA0 SHL SUB NOT AND PUSH1 0x1 PUSH1 0x1 PUSH1 0xA0 SHL SUB SWAP1 SWAP3 AND SWAP2 SWAP1 SWAP2 OR SWAP1 SSTORE JUMPDEST DUP4 DUP4 DUP3 DUP2 DUP2 LT PUSH2 0x1230 JUMPI PUSH2 0x1230 PUSH2 0x36F9 JUMP JUMPDEST SWAP1 POP PUSH1 0x20 MUL ADD CALLDATALOAD DUP3 PUSH1 0x2 ADD PUSH1 0x0 DUP9 DUP9 DUP6 DUP2 DUP2 LT PUSH2 0x124F JUMPI PUSH2 0x124F PUSH2 0x36F9 JUMP JUMPDEST SWAP1 POP PUSH1 0x20 MUL ADD PUSH1 0x20 DUP2 ADD SWAP1 PUSH2 0x1264 SWAP2 SWAP1 PUSH2 0x34CE JUMP JUMPDEST PUSH1 0x1 PUSH1 0x1 PUSH1 0xA0 SHL SUB AND PUSH1 0x1 PUSH1 0x1 PUSH1 0xA0 SHL SUB AND DUP2 MSTORE PUSH1 0x20 ADD SWAP1 DUP2 MSTORE PUSH1 0x20 ADD PUSH1 0x0 KECCAK256 PUSH1 0x0 DUP3 DUP3 SLOAD PUSH2 0x1293 SWAP2 SWAP1 PUSH2 0x3676 JUMP JUMPDEST SWAP1 SWAP2 SSTORE POP POP PUSH1 0x1 ADD PUSH2 0x1039 JUMP JUMPDEST POP DUP6 PUSH1 0x3 DUP2 GT ISZERO PUSH2 0x12B3 JUMPI PUSH2 0x12B3 PUSH2 0x2F7B JUMP JUMPDEST PUSH32 0x1A2FC6FF419B15B76B193A51F2CB23F236056A6214B8E8C5F4342E580323F7A CALLVALUE DUP8 DUP8 DUP8 DUP8 PUSH1 0x40 MLOAD PUSH2 0x12EA SWAP6 SWAP5 SWAP4 SWAP3 SWAP2 SWAP1 PUSH2 0x370F JUMP JUMPDEST PUSH1 0x40 MLOAD DUP1 SWAP2 SUB SWAP1 LOG2 POP POP POP POP POP POP JUMP JUMPDEST PUSH2 0x1302 PUSH2 0x208C JUMP JUMPDEST PUSH2 0x130A PUSH2 0x26B5 JUMP JUMPDEST JUMP JUMPDEST PUSH1 0x0 PUSH1 0x60 DUP1 PUSH1 0x0 PUSH1 0x5 PUSH1 0x0 DUP7 PUSH1 0x3 DUP2 GT ISZERO PUSH2 0x1329 JUMPI PUSH2 0x1329 PUSH2 0x2F7B JUMP JUMPDEST PUSH1 0x3 DUP2 GT ISZERO PUSH2 0x133A JUMPI PUSH2 0x133A PUSH2 0x2F7B JUMP JUMPDEST DUP2 MSTORE PUSH1 0x20 ADD SWAP1 DUP2 MSTORE PUSH1 0x20 ADD PUSH1 0x0 KECCAK256 SWAP1 POP DUP1 PUSH1 0x0 ADD SLOAD SWAP4 POP DUP1 PUSH1 0x1 ADD DUP1 SLOAD DUP1 PUSH1 0x20 MUL PUSH1 0x20 ADD PUSH1 0x40 MLOAD SWAP1 DUP2 ADD PUSH1 0x40 MSTORE DUP1 SWAP3 SWAP2 SWAP1 DUP2 DUP2 MSTORE PUSH1 0x20 ADD DUP3 DUP1 SLOAD DUP1 ISZERO PUSH2 0x13A9 JUMPI PUSH1 0x20 MUL DUP3 ADD SWAP2 SWAP1 PUSH1 0x0 MSTORE PUSH1 0x20 PUSH1 0x0 KECCAK256 SWAP1 JUMPDEST DUP2 SLOAD PUSH1 0x1 PUSH1 0x1 PUSH1 0xA0 SHL SUB AND DUP2 MSTORE PUSH1 0x1 SWAP1 SWAP2 ADD SWAP1 PUSH1 0x20 ADD DUP1 DUP4 GT PUSH2 0x138B JUMPI JUMPDEST POP POP POP POP POP SWAP3 POP DUP3 MLOAD PUSH1 0x1 PUSH1 0x1 PUSH1 0x40 SHL SUB DUP2 GT ISZERO PUSH2 0x13C9 JUMPI PUSH2 0x13C9 PUSH2 0x324F JUMP JUMPDEST PUSH1 0x40 MLOAD SWAP1 DUP1 DUP3 MSTORE DUP1 PUSH1 0x20 MUL PUSH1 0x20 ADD DUP3 ADD PUSH1 0x40 MSTORE DUP1 ISZERO PUSH2 0x13F2 JUMPI DUP2 PUSH1 0x20 ADD PUSH1 0x20 DUP3 MUL DUP1 CALLDATASIZE DUP4 CALLDATACOPY ADD SWAP1 POP JUMPDEST POP SWAP2 POP PUSH1 0x0 JUMPDEST DUP4 MLOAD DUP2 LT ISZERO PUSH2 0x1467 JUMPI DUP2 PUSH1 0x2 ADD PUSH1 0x0 DUP6 DUP4 DUP2 MLOAD DUP2 LT PUSH2 0x1419 JUMPI PUSH2 0x1419 PUSH2 0x36F9 JUMP JUMPDEST PUSH1 0x20 MUL PUSH1 0x20 ADD ADD MLOAD PUSH1 0x1 PUSH1 0x1 PUSH1 0xA0 SHL SUB AND PUSH1 0x1 PUSH1 0x1 PUSH1 0xA0 SHL SUB AND DUP2 MSTORE PUSH1 0x20 ADD SWAP1 DUP2 MSTORE PUSH1 0x20 ADD PUSH1 0x0 KECCAK256 SLOAD DUP4 DUP3 DUP2 MLOAD DUP2 LT PUSH2 0x1454 JUMPI PUSH2 0x1454 PUSH2 0x36F9 JUMP JUMPDEST PUSH1 0x20 SWAP1 DUP2 MUL SWAP2 SWAP1 SWAP2 ADD ADD MSTORE PUSH1 0x1 ADD PUSH2 0x13F8 JUMP JUMPDEST POP POP SWAP2 SWAP4 SWAP1 SWAP3 POP JUMP JUMPDEST PUSH2 0x1478 PUSH2 0x2715 JUMP JUMPDEST PUSH2 0x1481 DUP3 PUSH2 0x27BA JUMP JUMPDEST PUSH2 0x148B DUP3 DUP3 PUSH2 0x27C2 JUMP JUMPDEST POP POP JUMP JUMPDEST PUSH2 0x1497 PUSH2 0x208C JUMP JUMPDEST PUSH1 0x0 DUP3 GT PUSH2 0x14DB JUMPI PUSH1 0x40 MLOAD PUSH3 0x461BCD PUSH1 0xE5 SHL DUP2 MSTORE PUSH1 0x20 PUSH1 0x4 DUP3 ADD MSTORE PUSH1 0x11 PUSH1 0x24 DUP3 ADD MSTORE PUSH17 0x5072697A65206D757374206265203E203 PUSH1 0x7C SHL PUSH1 0x44 DUP3 ADD MSTORE PUSH1 0x64 ADD PUSH2 0xAC9 JUMP JUMPDEST PUSH1 0x0 DUP2 GT PUSH2 0x152B JUMPI PUSH1 0x40 MLOAD PUSH3 0x461BCD PUSH1 0xE5 SHL DUP2 MSTORE PUSH1 0x20 PUSH1 0x4 DUP3 ADD MSTORE PUSH1 0x1C PUSH1 0x24 DUP3 ADD MSTORE PUSH32 0x48616C76696E6720696E74657276616C206D757374206265203E203000000000 PUSH1 0x44 DUP3 ADD MSTORE PUSH1 0x64 ADD PUSH2 0xAC9 JUMP JUMPDEST PUSH1 0x0 DUP1 DUP5 PUSH1 0x3 DUP2 GT ISZERO PUSH2 0x1540 JUMPI PUSH2 0x1540 PUSH2 0x2F7B JUMP JUMPDEST SUB PUSH2 0x154F JUMPI POP PUSH3 0x93A80 PUSH2 0x159C JUMP JUMPDEST PUSH1 0x1 DUP5 PUSH1 0x3 DUP2 GT ISZERO PUSH2 0x1563 JUMPI PUSH2 0x1563 PUSH2 0x2F7B JUMP JUMPDEST SUB PUSH2 0x1572 JUMPI POP PUSH3 0x278D00 PUSH2 0x159C JUMP JUMPDEST PUSH1 0x2 DUP5 PUSH1 0x3 DUP2 GT ISZERO PUSH2 0x1586 JUMPI PUSH2 0x1586 PUSH2 0x2F7B JUMP JUMPDEST SUB PUSH2 0x1595 JUMPI POP PUSH3 0x76A700 PUSH2 0x159C JUMP JUMPDEST POP PUSH4 0x1E13380 JUMPDEST PUSH1 0x0 PUSH1 0x1 PUSH1 0x0 DUP7 PUSH1 0x3 DUP2 GT ISZERO PUSH2 0x15B4 JUMPI PUSH2 0x15B4 PUSH2 0x2F7B JUMP JUMPDEST PUSH1 0x3 DUP2 GT ISZERO PUSH2 0x15C5 JUMPI PUSH2 0x15C5 PUSH2 0x2F7B JUMP JUMPDEST DUP2 MSTORE PUSH1 0x20 DUP2 ADD SWAP2 SWAP1 SWAP2 MSTORE PUSH1 0x40 ADD PUSH1 0x0 KECCAK256 DUP1 SLOAD SWAP1 SWAP2 POP DUP6 SWAP1 DUP3 SWAP1 PUSH1 0xFF NOT AND PUSH1 0x1 DUP4 PUSH1 0x3 DUP2 GT ISZERO PUSH2 0x15F6 JUMPI PUSH2 0x15F6 PUSH2 0x2F7B JUMP JUMPDEST MUL OR SWAP1 SSTORE POP PUSH1 0x1 DUP1 DUP3 ADD DUP6 SWAP1 SSTORE PUSH1 0x2 DUP3 ADD DUP6 SWAP1 SSTORE PUSH1 0x3 DUP1 DUP4 ADD DUP6 SWAP1 SSTORE PUSH1 0x0 PUSH1 0x4 DUP5 ADD SSTORE TIMESTAMP PUSH1 0x5 DUP5 ADD SSTORE PUSH1 0x6 DUP4 ADD DUP5 SWAP1 SSTORE PUSH1 0x7 DUP4 ADD DUP1 SLOAD PUSH1 0xFF NOT AND SWAP1 SWAP3 OR SWAP1 SWAP2 SSTORE DUP6 SWAP1 DUP2 GT ISZERO PUSH2 0x1647 JUMPI PUSH2 0x1647 PUSH2 0x2F7B JUMP JUMPDEST PUSH1 0x40 DUP1 MLOAD DUP7 DUP2 MSTORE PUSH1 0x20 DUP2 ADD DUP7 SWAP1 MSTORE SWAP1 DUP2 ADD DUP5 SWAP1 MSTORE PUSH32 0xA916425E4612E5CDAC49543F8BA862C5E4E6A315415360277CC99E0DAB341E03 SWAP1 PUSH1 0x60 ADD PUSH1 0x40 MLOAD DUP1 SWAP2 SUB SWAP1 LOG2 POP POP POP POP POP JUMP JUMPDEST PUSH1 0x0 PUSH2 0x1699 PUSH2 0x2884 JUMP JUMPDEST POP PUSH1 0x0 DUP1 MLOAD PUSH1 0x20 PUSH2 0x38FA DUP4 CODECOPY DUP2 MLOAD SWAP2 MSTORE SWAP1 JUMP JUMPDEST PUSH1 0x0 DUP1 SLOAD PUSH1 0x3 SLOAD DUP3 SWAP2 DUP3 SWAP2 DUP3 SWAP2 PUSH1 0x1 PUSH1 0x1 PUSH1 0xA0 SHL SUB DUP2 AND SWAP2 PUSH1 0x1 PUSH1 0xA0 SHL SWAP1 SWAP2 DIV PUSH1 0xFF AND SWAP1 PUSH2 0x16E9 PUSH1 0x0 DUP1 MLOAD PUSH1 0x20 PUSH2 0x391A DUP4 CODECOPY DUP2 MLOAD SWAP2 MSTORE SLOAD PUSH1 0xFF AND SWAP1 JUMP JUMPDEST SWAP4 POP SWAP4 POP SWAP4 POP SWAP4 POP SWAP1 SWAP2 SWAP3 SWAP4 JUMP JUMPDEST PUSH2 0x16FF PUSH2 0x208C JUMP JUMPDEST DUP1 PUSH1 0x1 PUSH1 0x0 DUP5 PUSH1 0x3 DUP2 GT ISZERO PUSH2 0x1716 JUMPI PUSH2 0x1716 PUSH2 0x2F7B JUMP JUMPDEST PUSH1 0x3 DUP2 GT ISZERO PUSH2 0x1727 JUMPI PUSH2 0x1727 PUSH2 0x2F7B JUMP JUMPDEST DUP2 MSTORE PUSH1 0x20 DUP2 ADD SWAP2 SWAP1 SWAP2 MSTORE PUSH1 0x40 ADD PUSH1 0x0 KECCAK256 PUSH1 0x7 ADD DUP1 SLOAD PUSH1 0xFF NOT AND SWAP2 ISZERO ISZERO SWAP2 SWAP1 SWAP2 OR SWAP1 SSTORE POP POP JUMP JUMPDEST PUSH2 0x1755 PUSH2 0x208C JUMP JUMPDEST PUSH2 0x130A PUSH1 0x0 PUSH2 0x28CD JUMP JUMPDEST PUSH2 0x1767 PUSH2 0x208C JUMP JUMPDEST PUSH2 0x130A PUSH2 0x293E JUMP JUMPDEST PUSH32 0x9016D09D72D40FDAE2FD8CEAC6B6234C7706214FD39C1CD1E609A0528C199300 SLOAD PUSH1 0x1 PUSH1 0x1 PUSH1 0xA0 SHL SUB AND SWAP1 JUMP JUMPDEST PUSH1 0x0 PUSH2 0x17A7 PUSH2 0x2987 JUMP JUMPDEST DUP1 SLOAD SWAP1 SWAP2 POP PUSH1 0xFF PUSH1 0x1 PUSH1 0x40 SHL DUP3 DIV AND ISZERO SWAP1 PUSH1 0x1 PUSH1 0x1 PUSH1 0x40 SHL SUB AND PUSH1 0x0 DUP2 ISZERO DUP1 ISZERO PUSH2 0x17CE JUMPI POP DUP3 JUMPDEST SWAP1 POP PUSH1 0x0 DUP3 PUSH1 0x1 PUSH1 0x1 PUSH1 0x40 SHL SUB AND PUSH1 0x1 EQ DUP1 ISZERO PUSH2 0x17EA JUMPI POP ADDRESS EXTCODESIZE ISZERO JUMPDEST SWAP1 POP DUP2 ISZERO DUP1 ISZERO PUSH2 0x17F8 JUMPI POP DUP1 ISZERO JUMPDEST ISZERO PUSH2 0x1816 JUMPI PUSH1 0x40 MLOAD PUSH4 0xF92EE8A9 PUSH1 0xE0 SHL DUP2 MSTORE PUSH1 0x4 ADD PUSH1 0x40 MLOAD DUP1 SWAP2 SUB SWAP1 REVERT JUMPDEST DUP5 SLOAD PUSH8 0xFFFFFFFFFFFFFFFF NOT AND PUSH1 0x1 OR DUP6 SSTORE DUP4 ISZERO PUSH2 0x1840 JUMPI DUP5 SLOAD PUSH1 0xFF PUSH1 0x40 SHL NOT AND PUSH1 0x1 PUSH1 0x40 SHL OR DUP6 SSTORE JUMPDEST PUSH2 0x1849 CALLER PUSH2 0x29B0 JUMP JUMPDEST PUSH2 0x1851 PUSH2 0x29C1 JUMP JUMPDEST PUSH2 0x1859 PUSH2 0x29D1 JUMP JUMPDEST PUSH2 0x1861 PUSH2 0x29D1 JUMP JUMPDEST PUSH1 0x1 PUSH1 0x1 PUSH1 0xA0 SHL SUB DUP8 AND PUSH2 0x18B7 JUMPI PUSH1 0x40 MLOAD PUSH3 0x461BCD PUSH1 0xE5 SHL DUP2 MSTORE PUSH1 0x20 PUSH1 0x4 DUP3 ADD MSTORE PUSH1 0x18 PUSH1 0x24 DUP3 ADD MSTORE PUSH32 0x496E76616C6964206D696E74696E6720636F6E74726163740000000000000000 PUSH1 0x44 DUP3 ADD MSTORE PUSH1 0x64 ADD PUSH2 0xAC9 JUMP JUMPDEST PUSH1 0x0 DUP1 SLOAD PUSH1 0x1 PUSH1 0x1 PUSH1 0xA0 SHL SUB DUP10 AND PUSH1 0x1 PUSH1 0x1 PUSH1 0xA0 SHL SUB NOT DUP3 AND DUP2 OR DUP4 SSTORE DUP9 SWAP3 SWAP2 PUSH1 0x1 PUSH1 0x1 PUSH1 0xA8 SHL SUB NOT AND OR PUSH1 0x1 PUSH1 0xA0 SHL DUP4 PUSH1 0x1 DUP2 GT ISZERO PUSH2 0x18F9 JUMPI PUSH2 0x18F9 PUSH2 0x2F7B JUMP JUMPDEST MUL OR SWAP1 SSTORE POP PUSH1 0x0 PUSH1 0x3 DUP2 DUP2 SSTORE PUSH1 0xA DUP1 SLOAD PUSH14 0xFFFFFFFFFFFF0000000000000000 NOT AND PUSH13 0x3002625A00000000000000000 OR SWAP1 SSTORE PUSH1 0x2 PUSH1 0x20 MSTORE PUSH3 0x93A80 PUSH32 0xAC33FF75C19E70FE83507DB0D683FD3465C996598DC972688B7ACE676C89077B SSTORE PUSH3 0x278D00 PUSH32 0xE90B7BCEB6E7DF5418FB78D8EE546E97C83A08BBCCC01A0644D599CCD2A7C2E0 SSTORE PUSH3 0x76A700 PUSH32 0x679795A0195A1B76CDEBB7C51D74E058AEE92919B8C3389AF86EF24535E8A28C SSTORE SWAP1 MSTORE PUSH4 0x1E13380 PUSH32 0x88601476D11616A71C5BE67555BD1DFF4B1CBF21533D2669B768B61518CFE1C3 SSTORE DUP4 ISZERO PUSH2 0x1A11 JUMPI DUP5 SLOAD PUSH1 0xFF PUSH1 0x40 SHL NOT AND DUP6 SSTORE PUSH1 0x40 MLOAD PUSH1 0x1 DUP2 MSTORE PUSH32 0xC7F505B2F371AE2175EE4913F4499E1F2633A7B5936321EED1CDAEB6115181D2 SWAP1 PUSH1 0x20 ADD PUSH1 0x40 MLOAD DUP1 SWAP2 SUB SWAP1 LOG1 JUMPDEST POP POP POP POP POP POP POP JUMP JUMPDEST PUSH2 0x1A22 PUSH2 0x208C JUMP JUMPDEST PUSH2 0x1A2A PUSH2 0x20BE JUMP JUMPDEST PUSH1 0x1 PUSH1 0x1 PUSH1 0xA0 SHL SUB DUP3 AND PUSH2 0x1ADE JUMPI PUSH1 0x0 PUSH2 0x1A42 PUSH2 0x176F JUMP JUMPDEST PUSH1 0x1 PUSH1 0x1 PUSH1 0xA0 SHL SUB AND DUP3 PUSH1 0x40 MLOAD PUSH1 0x0 PUSH1 0x40 MLOAD DUP1 DUP4 SUB DUP2 DUP6 DUP8 GAS CALL SWAP3 POP POP POP RETURNDATASIZE DUP1 PUSH1 0x0 DUP2 EQ PUSH2 0x1A8C JUMPI PUSH1 0x40 MLOAD SWAP2 POP PUSH1 0x1F NOT PUSH1 0x3F RETURNDATASIZE ADD AND DUP3 ADD PUSH1 0x40 MSTORE RETURNDATASIZE DUP3 MSTORE RETURNDATASIZE PUSH1 0x0 PUSH1 0x20 DUP5 ADD RETURNDATACOPY PUSH2 0x1A91 JUMP JUMPDEST PUSH1 0x60 SWAP2 POP JUMPDEST POP POP SWAP1 POP DUP1 PUSH2 0x1AD8 JUMPI PUSH1 0x40 MLOAD PUSH3 0x461BCD PUSH1 0xE5 SHL DUP2 MSTORE PUSH1 0x20 PUSH1 0x4 DUP3 ADD MSTORE PUSH1 0x13 PUSH1 0x24 DUP3 ADD MSTORE PUSH19 0x115512081D1C985B9CD9995C8819985A5B1959 PUSH1 0x6A SHL PUSH1 0x44 DUP3 ADD MSTORE PUSH1 0x64 ADD PUSH2 0xAC9 JUMP JUMPDEST POP PUSH2 0x1AFA JUMP JUMPDEST PUSH2 0x1AFA PUSH2 0x1AE9 PUSH2 0x176F JUMP JUMPDEST PUSH1 0x1 PUSH1 0x1 PUSH1 0xA0 SHL SUB DUP5 AND SWAP1 DUP4 PUSH2 0x29D9 JUMP JUMPDEST PUSH2 0x148B PUSH1 0x1 PUSH1 0x0 DUP1 MLOAD PUSH1 0x20 PUSH2 0x393A DUP4 CODECOPY DUP2 MLOAD SWAP2 MSTORE SSTORE JUMP JUMPDEST PUSH1 0x0 SLOAD PUSH1 0x40 MLOAD PUSH4 0x824E89A1 PUSH1 0xE0 SHL DUP2 MSTORE PUSH1 0x1 PUSH1 0x1 PUSH1 0xA0 SHL SUB DUP4 DUP2 AND PUSH1 0x4 DUP4 ADD MSTORE PUSH1 0x60 SWAP3 AND SWAP1 PUSH4 0x824E89A1 SWAP1 PUSH1 0x24 ADD PUSH1 0x0 PUSH1 0x40 MLOAD DUP1 DUP4 SUB DUP2 DUP7 GAS STATICCALL ISZERO DUP1 ISZERO PUSH2 0x1B5C JUMPI RETURNDATASIZE PUSH1 0x0 DUP1 RETURNDATACOPY RETURNDATASIZE PUSH1 0x0 REVERT JUMPDEST POP POP POP POP PUSH1 0x40 MLOAD RETURNDATASIZE PUSH1 0x0 DUP3 RETURNDATACOPY PUSH1 0x1F RETURNDATASIZE SWAP1 DUP2 ADD PUSH1 0x1F NOT AND DUP3 ADD PUSH1 0x40 MSTORE PUSH2 0x1B84 SWAP2 SWAP1 DUP2 ADD SWAP1 PUSH2 0x379A JUMP JUMPDEST SWAP3 SWAP2 POP POP JUMP JUMPDEST PUSH1 0x6 PUSH1 0x20 MSTORE DUP2 PUSH1 0x0 MSTORE PUSH1 0x40 PUSH1 0x0 KECCAK256 DUP2 DUP2 SLOAD DUP2 LT PUSH2 0x1BA6 JUMPI PUSH1 0x0 DUP1 REVERT JUMPDEST SWAP1 PUSH1 0x0 MSTORE PUSH1 0x20 PUSH1 0x0 KECCAK256 ADD PUSH1 0x0 SWAP2 POP SWAP2 POP POP SLOAD DUP2 JUMP JUMPDEST PUSH1 0x0 DUP2 DUP2 MSTORE PUSH1 0x7 PUSH1 0x20 MSTORE PUSH1 0x40 DUP2 KECCAK256 SLOAD PUSH1 0xFF AND PUSH2 0x1BD9 JUMPI POP PUSH1 0x0 PUSH2 0x1B84 JUMP JUMPDEST POP PUSH1 0x0 SWAP1 DUP2 MSTORE PUSH1 0x4 PUSH1 0x20 DUP2 SWAP1 MSTORE PUSH1 0x40 SWAP1 SWAP2 KECCAK256 ADD SLOAD PUSH1 0x1 PUSH1 0x1 PUSH1 0xA0 SHL SUB SWAP1 DUP2 AND SWAP2 AND EQ SWAP1 JUMP JUMPDEST PUSH2 0x1C06 PUSH2 0x208C JUMP JUMPDEST PUSH1 0x0 DUP1 SLOAD PUSH1 0x1 PUSH1 0xA0 SHL DUP1 DUP3 DIV PUSH1 0xFF AND SWAP3 DUP5 SWAP3 SWAP1 SWAP2 PUSH1 0xFF PUSH1 0xA0 SHL NOT SWAP1 SWAP2 AND SWAP1 DUP4 PUSH1 0x1 DUP2 GT ISZERO PUSH2 0x1C36 JUMPI PUSH2 0x1C36 PUSH2 0x2F7B JUMP JUMPDEST MUL OR SWAP1 SSTORE POP PUSH32 0x3DE86E6FC2D8C6A6C3423D8FB3E96E29D6501C06A846087C02B96BD0546A405C DUP2 DUP4 PUSH1 0x40 MLOAD PUSH2 0x1C6C SWAP3 SWAP2 SWAP1 PUSH2 0x3866 JUMP JUMPDEST PUSH1 0x40 MLOAD DUP1 SWAP2 SUB SWAP1 LOG1 POP POP JUMP JUMPDEST PUSH2 0x1C80 PUSH2 0x208C JUMP JUMPDEST PUSH1 0x0 DUP2 GT PUSH2 0x1CC7 JUMPI PUSH1 0x40 MLOAD PUSH3 0x461BCD PUSH1 0xE5 SHL DUP2 MSTORE PUSH1 0x20 PUSH1 0x4 DUP3 ADD MSTORE PUSH1 0x14 PUSH1 0x24 DUP3 ADD MSTORE PUSH20 0x496E74657276616C206D757374206265203E203 PUSH1 0x64 SHL PUSH1 0x44 DUP3 ADD MSTORE PUSH1 0x64 ADD PUSH2 0xAC9 JUMP JUMPDEST DUP1 PUSH1 0x2 PUSH1 0x0 DUP5 PUSH1 0x3 DUP2 GT ISZERO PUSH2 0x1CDE JUMPI PUSH2 0x1CDE PUSH2 0x2F7B JUMP JUMPDEST PUSH1 0x3 DUP2 GT ISZERO PUSH2 0x1CEF JUMPI PUSH2 0x1CEF PUSH2 0x2F7B JUMP JUMPDEST DUP2 MSTORE PUSH1 0x20 DUP2 ADD SWAP2 SWAP1 SWAP2 MSTORE PUSH1 0x40 ADD PUSH1 0x0 KECCAK256 SSTORE POP POP JUMP JUMPDEST PUSH1 0x0 DUP1 PUSH1 0x0 DUP1 PUSH1 0x0 DUP1 PUSH1 0x0 DUP1 PUSH1 0x0 PUSH1 0x1 PUSH1 0x0 DUP12 PUSH1 0x3 DUP2 GT ISZERO PUSH2 0x1D28 JUMPI PUSH2 0x1D28 PUSH2 0x2F7B JUMP JUMPDEST PUSH1 0x3 DUP2 GT ISZERO PUSH2 0x1D39 JUMPI PUSH2 0x1D39 PUSH2 0x2F7B JUMP JUMPDEST DUP2 MSTORE PUSH1 0x20 ADD SWAP1 DUP2 MSTORE PUSH1 0x20 ADD PUSH1 0x0 KECCAK256 SWAP1 POP DUP1 PUSH1 0x1 ADD SLOAD DUP2 PUSH1 0x2 ADD SLOAD DUP3 PUSH1 0x3 ADD SLOAD DUP4 PUSH1 0x4 ADD SLOAD DUP5 PUSH1 0x5 ADD SLOAD DUP6 PUSH1 0x6 ADD SLOAD DUP7 PUSH1 0x6 ADD SLOAD DUP8 PUSH1 0x5 ADD SLOAD PUSH2 0x1D7B SWAP2 SWAP1 PUSH2 0x3676 JUMP JUMPDEST PUSH1 0x7 SWAP1 SWAP8 ADD SLOAD SWAP6 SWAP15 POP SWAP4 SWAP13 POP SWAP2 SWAP11 POP SWAP9 POP SWAP7 POP SWAP5 POP SWAP1 SWAP3 POP PUSH1 0xFF AND SWAP1 POP SWAP2 SWAP4 SWAP6 SWAP8 POP SWAP2 SWAP4 SWAP6 SWAP8 JUMP JUMPDEST PUSH1 0x0 DUP2 DUP2 MSTORE PUSH1 0x4 PUSH1 0x20 DUP2 DUP2 MSTORE PUSH1 0x40 DUP1 DUP5 KECCAK256 PUSH1 0x1 DUP2 ADD SLOAD PUSH1 0x2 DUP3 ADD SLOAD SWAP5 DUP3 ADD SLOAD PUSH1 0x5 DUP4 ADD SLOAD PUSH1 0x3 DUP5 ADD SLOAD PUSH1 0x9 DUP6 ADD DUP1 SLOAD DUP8 MLOAD DUP2 DUP11 MUL DUP2 ADD DUP11 ADD SWAP1 SWAP9 MSTORE DUP1 DUP9 MSTORE DUP11 SWAP10 DUP11 SWAP10 DUP11 SWAP10 DUP11 SWAP10 PUSH1 0x60 SWAP10 SWAP1 SWAP9 PUSH1 0xFF SWAP1 SWAP2 AND SWAP8 SWAP4 SWAP7 PUSH1 0x1 PUSH1 0x1 PUSH1 0xA0 SHL SUB SWAP1 SWAP2 AND SWAP6 SWAP4 SWAP5 SWAP1 SWAP4 SWAP3 DUP4 SWAP2 SWAP1 DUP4 ADD DUP3 DUP3 DUP1 ISZERO PUSH2 0x1E43 JUMPI PUSH1 0x20 MUL DUP3 ADD SWAP2 SWAP1 PUSH1 0x0 MSTORE PUSH1 0x20 PUSH1 0x0 KECCAK256 SWAP1 JUMPDEST DUP2 SLOAD PUSH1 0x1 PUSH1 0x1 PUSH1 0xA0 SHL SUB AND DUP2 MSTORE PUSH1 0x1 SWAP1 SWAP2 ADD SWAP1 PUSH1 0x20 ADD DUP1 DUP4 GT PUSH2 0x1E25 JUMPI JUMPDEST POP POP POP POP POP SWAP1 POP SWAP7 POP SWAP7 POP SWAP7 POP SWAP7 POP SWAP7 POP SWAP7 POP POP SWAP2 SWAP4 SWAP6 POP SWAP2 SWAP4 SWAP6 JUMP JUMPDEST PUSH1 0x1 PUSH1 0x1 PUSH1 0xA0 SHL SUB DUP2 AND PUSH1 0x0 SWAP1 DUP2 MSTORE PUSH1 0x6 PUSH1 0x20 SWAP1 DUP2 MSTORE PUSH1 0x40 SWAP2 DUP3 SWAP1 KECCAK256 DUP1 SLOAD DUP4 MLOAD DUP2 DUP5 MUL DUP2 ADD DUP5 ADD SWAP1 SWAP5 MSTORE DUP1 DUP5 MSTORE PUSH1 0x60 SWAP4 SWAP3 DUP4 ADD DUP3 DUP3 DUP1 ISZERO PUSH2 0x1EC0 JUMPI PUSH1 0x20 MUL DUP3 ADD SWAP2 SWAP1 PUSH1 0x0 MSTORE PUSH1 0x20 PUSH1 0x0 KECCAK256 SWAP1 JUMPDEST DUP2 SLOAD DUP2 MSTORE PUSH1 0x20 ADD SWAP1 PUSH1 0x1 ADD SWAP1 DUP1 DUP4 GT PUSH2 0x1EAC JUMPI JUMPDEST POP POP POP POP POP SWAP1 POP SWAP2 SWAP1 POP JUMP JUMPDEST PUSH2 0x1ED4 PUSH2 0x208C JUMP JUMPDEST PUSH1 0x1 PUSH1 0x1 PUSH1 0xA0 SHL SUB DUP2 AND PUSH2 0x1EFE JUMPI PUSH1 0x40 MLOAD PUSH4 0x1E4FBDF7 PUSH1 0xE0 SHL DUP2 MSTORE PUSH1 0x0 PUSH1 0x4 DUP3 ADD MSTORE PUSH1 0x24 ADD PUSH2 0xAC9 JUMP JUMPDEST PUSH2 0xE86 DUP2 PUSH2 0x28CD JUMP JUMPDEST PUSH1 0x1 PUSH1 0x1 PUSH1 0xA0 SHL SUB DUP2 AND PUSH1 0x0 SWAP1 DUP2 MSTORE PUSH1 0x6 PUSH1 0x20 SWAP1 DUP2 MSTORE PUSH1 0x40 DUP1 DUP4 KECCAK256 DUP1 SLOAD DUP3 MLOAD DUP2 DUP6 MUL DUP2 ADD DUP6 ADD SWAP1 SWAP4 MSTORE DUP1 DUP4 MSTORE PUSH1 0x60 SWAP5 DUP6 SWAP5 SWAP1 SWAP4 SWAP3 SWAP2 SWAP1 DUP4 ADD DUP3 DUP3 DUP1 ISZERO PUSH2 0x1F6C JUMPI PUSH1 0x20 MUL DUP3 ADD SWAP2 SWAP1 PUSH1 0x0 MSTORE PUSH1 0x20 PUSH1 0x0 KECCAK256 SWAP1 JUMPDEST DUP2 SLOAD DUP2 MSTORE PUSH1 0x20 ADD SWAP1 PUSH1 0x1 ADD SWAP1 DUP1 DUP4 GT PUSH2 0x1F58 JUMPI JUMPDEST POP POP DUP4 MLOAD SWAP4 SWAP5 POP DUP4 SWAP3 POP POP POP PUSH1 0x1 PUSH1 0x1 PUSH1 0x40 SHL SUB DUP2 GT ISZERO PUSH2 0x1F8F JUMPI PUSH2 0x1F8F PUSH2 0x324F JUMP JUMPDEST PUSH1 0x40 MLOAD SWAP1 DUP1 DUP3 MSTORE DUP1 PUSH1 0x20 MUL PUSH1 0x20 ADD DUP3 ADD PUSH1 0x40 MSTORE DUP1 ISZERO PUSH2 0x1FB8 JUMPI DUP2 PUSH1 0x20 ADD PUSH1 0x20 DUP3 MUL DUP1 CALLDATASIZE DUP4 CALLDATACOPY ADD SWAP1 POP JUMPDEST POP SWAP4 POP DUP1 PUSH1 0x1 PUSH1 0x1 PUSH1 0x40 SHL SUB DUP2 GT ISZERO PUSH2 0x1FD3 JUMPI PUSH2 0x1FD3 PUSH2 0x324F JUMP JUMPDEST PUSH1 0x40 MLOAD SWAP1 DUP1 DUP3 MSTORE DUP1 PUSH1 0x20 MUL PUSH1 0x20 ADD DUP3 ADD PUSH1 0x40 MSTORE DUP1 ISZERO PUSH2 0x1FFC JUMPI DUP2 PUSH1 0x20 ADD PUSH1 0x20 DUP3 MUL DUP1 CALLDATASIZE DUP4 CALLDATACOPY ADD SWAP1 POP JUMPDEST POP SWAP3 POP PUSH1 0x0 JUMPDEST DUP2 DUP2 LT ISZERO PUSH2 0x2084 JUMPI PUSH1 0x0 DUP4 DUP3 DUP2 MLOAD DUP2 LT PUSH2 0x201E JUMPI PUSH2 0x201E PUSH2 0x36F9 JUMP JUMPDEST PUSH1 0x20 MUL PUSH1 0x20 ADD ADD MLOAD SWAP1 POP DUP1 DUP7 DUP4 DUP2 MLOAD DUP2 LT PUSH2 0x203B JUMPI PUSH2 0x203B PUSH2 0x36F9 JUMP JUMPDEST PUSH1 0x20 MUL PUSH1 0x20 ADD ADD DUP2 DUP2 MSTORE POP POP PUSH1 0x4 PUSH1 0x0 DUP3 DUP2 MSTORE PUSH1 0x20 ADD SWAP1 DUP2 MSTORE PUSH1 0x20 ADD PUSH1 0x0 KECCAK256 PUSH1 0x5 ADD SLOAD DUP6 DUP4 DUP2 MLOAD DUP2 LT PUSH2 0x2070 JUMPI PUSH2 0x2070 PUSH2 0x36F9 JUMP JUMPDEST PUSH1 0x20 SWAP1 DUP2 MUL SWAP2 SWAP1 SWAP2 ADD ADD MSTORE POP PUSH1 0x1 ADD PUSH2 0x2002 JUMP JUMPDEST POP POP POP SWAP2 POP SWAP2 JUMP JUMPDEST CALLER PUSH2 0x2095 PUSH2 0x176F JUMP JUMPDEST PUSH1 0x1 PUSH1 0x1 PUSH1 0xA0 SHL SUB AND EQ PUSH2 0x130A JUMPI PUSH1 0x40 MLOAD PUSH4 0x118CDAA7 PUSH1 0xE0 SHL DUP2 MSTORE CALLER PUSH1 0x4 DUP3 ADD MSTORE PUSH1 0x24 ADD PUSH2 0xAC9 JUMP JUMPDEST PUSH1 0x0 DUP1 MLOAD PUSH1 0x20 PUSH2 0x393A DUP4 CODECOPY DUP2 MLOAD SWAP2 MSTORE DUP1 SLOAD PUSH1 0x1 NOT ADD PUSH2 0x20F0 JUMPI PUSH1 0x40 MLOAD PUSH4 0x3EE5AEB5 PUSH1 0xE0 SHL DUP2 MSTORE PUSH1 0x4 ADD PUSH1 0x40 MLOAD DUP1 SWAP2 SUB SWAP1 REVERT JUMPDEST PUSH1 0x2 SWAP1 SSTORE JUMP JUMPDEST PUSH1 0x0 DUP1 MLOAD PUSH1 0x20 PUSH2 0x391A DUP4 CODECOPY DUP2 MLOAD SWAP2 MSTORE SLOAD PUSH1 0xFF AND ISZERO PUSH2 0x130A JUMPI PUSH1 0x40 MLOAD PUSH4 0xD93C0665 PUSH1 0xE0 SHL DUP2 MSTORE PUSH1 0x4 ADD PUSH1 0x40 MLOAD DUP1 SWAP2 SUB SWAP1 REVERT JUMPDEST PUSH1 0x0 DUP3 TIMESTAMP PREVRANDAO CALLER DUP6 DUP5 PUSH2 0x213A PUSH1 0x1 NUMBER PUSH2 0x3881 JUMP JUMPDEST PUSH1 0x40 DUP1 MLOAD PUSH1 0x20 DUP2 ADD SWAP8 SWAP1 SWAP8 MSTORE DUP7 ADD SWAP5 SWAP1 SWAP5 MSTORE PUSH12 0xFFFFFFFFFFFFFFFFFFFFFFFF NOT PUSH1 0x60 SWAP4 DUP5 SHL AND SWAP3 DUP6 ADD SWAP3 SWAP1 SWAP3 MSTORE PUSH1 0x74 DUP5 ADD MSTORE PUSH1 0x94 DUP4 ADD MSTORE BLOCKHASH PUSH1 0xB4 DUP3 ADD MSTORE PUSH1 0xD4 ADD PUSH1 0x40 MLOAD PUSH1 0x20 DUP2 DUP4 SUB SUB DUP2 MSTORE SWAP1 PUSH1 0x40 MSTORE DUP1 MLOAD SWAP1 PUSH1 0x20 ADD KECCAK256 PUSH1 0x0 SHR PUSH2 0x219D SWAP2 SWAP1 PUSH2 0x36B8 JUMP JUMPDEST SWAP4 SWAP3 POP POP POP JUMP JUMPDEST PUSH1 0x0 DUP3 DUP2 MSTORE PUSH1 0x4 PUSH1 0x20 SWAP1 DUP2 MSTORE PUSH1 0x40 DUP1 DUP4 KECCAK256 PUSH1 0x7 SWAP1 SWAP3 MSTORE SWAP1 SWAP2 KECCAK256 SLOAD PUSH1 0xFF AND ISZERO PUSH2 0x2206 JUMPI PUSH1 0x40 MLOAD PUSH3 0x461BCD PUSH1 0xE5 SHL DUP2 MSTORE PUSH1 0x20 PUSH1 0x4 DUP3 ADD MSTORE PUSH1 0x15 PUSH1 0x24 DUP3 ADD MSTORE PUSH21 0x111C985DC8185B1C9958591E48195E1958DD5D1959 PUSH1 0x5A SHL PUSH1 0x44 DUP3 ADD MSTORE PUSH1 0x64 ADD PUSH2 0xAC9 JUMP JUMPDEST PUSH1 0x1 DUP2 DUP2 ADD SLOAD PUSH1 0x0 SWAP2 SWAP1 DUP3 SWAP1 PUSH1 0xFF AND PUSH1 0x3 DUP2 GT ISZERO PUSH2 0x2226 JUMPI PUSH2 0x2226 PUSH2 0x2F7B JUMP JUMPDEST PUSH1 0x3 DUP2 GT ISZERO PUSH2 0x2237 JUMPI PUSH2 0x2237 PUSH2 0x2F7B JUMP JUMPDEST DUP2 MSTORE PUSH1 0x20 DUP2 ADD SWAP2 SWAP1 SWAP2 MSTORE PUSH1 0x40 ADD PUSH1 0x0 SWAP1 DUP2 KECCAK256 PUSH1 0x1 DUP5 ADD SLOAD SWAP1 SWAP3 POP PUSH1 0x5 SWAP1 DUP3 SWAP1 PUSH1 0xFF AND PUSH1 0x3 DUP2 GT ISZERO PUSH2 0x226A JUMPI PUSH2 0x226A PUSH2 0x2F7B JUMP JUMPDEST PUSH1 0x3 DUP2 GT ISZERO PUSH2 0x227B JUMPI PUSH2 0x227B PUSH2 0x2F7B JUMP JUMPDEST DUP2 MSTORE PUSH1 0x20 ADD SWAP1 DUP2 MSTORE PUSH1 0x20 ADD PUSH1 0x0 KECCAK256 SWAP1 POP PUSH1 0x0 DUP1 PUSH2 0x229C DUP7 DUP7 PUSH1 0x8 ADD SLOAD PUSH2 0x2A0A JUMP JUMPDEST PUSH1 0x4 DUP8 ADD DUP1 SLOAD PUSH1 0x1 PUSH1 0x1 PUSH1 0xA0 SHL SUB NOT AND PUSH1 0x1 PUSH1 0x1 PUSH1 0xA0 SHL SUB DUP5 AND SWAP1 DUP2 OR SWAP1 SWAP2 SSTORE PUSH1 0x5 DUP9 ADD DUP3 SWAP1 SSTORE PUSH1 0x6 DUP1 DUP10 ADD DUP11 SWAP1 SSTORE PUSH1 0x0 DUP12 DUP2 MSTORE PUSH1 0x7 PUSH1 0x20 SWAP1 DUP2 MSTORE PUSH1 0x40 DUP1 DUP4 KECCAK256 DUP1 SLOAD PUSH1 0xFF NOT AND PUSH1 0x1 SWAP1 DUP2 OR SWAP1 SWAP2 SSTORE SWAP5 DUP4 MSTORE SWAP3 DUP2 MSTORE SWAP2 DUP2 KECCAK256 DUP1 SLOAD SWAP4 DUP5 ADD DUP2 SSTORE DUP2 MSTORE KECCAK256 ADD DUP10 SWAP1 SSTORE PUSH1 0x2 DUP7 ADD SLOAD DUP6 SLOAD SWAP3 SWAP5 POP SWAP1 SWAP3 POP SWAP1 DUP2 GT ISZERO PUSH2 0x231A JUMPI POP DUP3 SLOAD JUMPDEST PUSH1 0x3 DUP7 ADD DUP2 SWAP1 SSTORE DUP1 ISZERO PUSH2 0x23D9 JUMPI DUP1 DUP5 PUSH1 0x0 ADD PUSH1 0x0 DUP3 DUP3 SLOAD PUSH2 0x233B SWAP2 SWAP1 PUSH2 0x3881 JUMP JUMPDEST SWAP1 SWAP2 SSTORE POP POP PUSH1 0x40 MLOAD PUSH1 0x0 SWAP1 PUSH1 0x1 PUSH1 0x1 PUSH1 0xA0 SHL SUB DUP6 AND SWAP1 DUP4 SWAP1 DUP4 DUP2 DUP2 DUP2 DUP6 DUP8 GAS CALL SWAP3 POP POP POP RETURNDATASIZE DUP1 PUSH1 0x0 DUP2 EQ PUSH2 0x238B JUMPI PUSH1 0x40 MLOAD SWAP2 POP PUSH1 0x1F NOT PUSH1 0x3F RETURNDATASIZE ADD AND DUP3 ADD PUSH1 0x40 MSTORE RETURNDATASIZE DUP3 MSTORE RETURNDATASIZE PUSH1 0x0 PUSH1 0x20 DUP5 ADD RETURNDATACOPY PUSH2 0x2390 JUMP JUMPDEST PUSH1 0x60 SWAP2 POP JUMPDEST POP POP SWAP1 POP DUP1 PUSH2 0x23D7 JUMPI PUSH1 0x40 MLOAD PUSH3 0x461BCD PUSH1 0xE5 SHL DUP2 MSTORE PUSH1 0x20 PUSH1 0x4 DUP3 ADD MSTORE PUSH1 0x13 PUSH1 0x24 DUP3 ADD MSTORE PUSH19 0x115512081D1C985B9CD9995C8819985A5B1959 PUSH1 0x6A SHL PUSH1 0x44 DUP3 ADD MSTORE PUSH1 0x64 ADD PUSH2 0xAC9 JUMP JUMPDEST POP JUMPDEST PUSH1 0x0 DUP5 PUSH1 0x1 ADD DUP1 SLOAD DUP1 PUSH1 0x20 MUL PUSH1 0x20 ADD PUSH1 0x40 MLOAD SWAP1 DUP2 ADD PUSH1 0x40 MSTORE DUP1 SWAP3 SWAP2 SWAP1 DUP2 DUP2 MSTORE PUSH1 0x20 ADD DUP3 DUP1 SLOAD DUP1 ISZERO PUSH2 0x2433 JUMPI PUSH1 0x20 MUL DUP3 ADD SWAP2 SWAP1 PUSH1 0x0 MSTORE PUSH1 0x20 PUSH1 0x0 KECCAK256 SWAP1 JUMPDEST DUP2 SLOAD PUSH1 0x1 PUSH1 0x1 PUSH1 0xA0 SHL SUB AND DUP2 MSTORE PUSH1 0x1 SWAP1 SWAP2 ADD SWAP1 PUSH1 0x20 ADD DUP1 DUP4 GT PUSH2 0x2415 JUMPI JUMPDEST POP POP POP POP POP SWAP1 POP PUSH1 0x0 JUMPDEST DUP2 MLOAD DUP2 LT ISZERO PUSH2 0x2500 JUMPI PUSH1 0x0 DUP3 DUP3 DUP2 MLOAD DUP2 LT PUSH2 0x245A JUMPI PUSH2 0x245A PUSH2 0x36F9 JUMP JUMPDEST PUSH1 0x20 SWAP1 DUP2 MUL SWAP2 SWAP1 SWAP2 ADD DUP2 ADD MLOAD PUSH1 0x1 PUSH1 0x1 PUSH1 0xA0 SHL SUB DUP2 AND PUSH1 0x0 SWAP1 DUP2 MSTORE PUSH1 0x2 DUP11 ADD SWAP1 SWAP3 MSTORE PUSH1 0x40 SWAP1 SWAP2 KECCAK256 SLOAD SWAP1 SWAP2 POP DUP1 ISZERO PUSH2 0x24F6 JUMPI PUSH1 0x1 PUSH1 0x1 PUSH1 0xA0 SHL SUB DUP3 AND PUSH1 0x0 DUP2 DUP2 MSTORE PUSH1 0x2 DUP11 ADD PUSH1 0x20 MSTORE PUSH1 0x40 DUP2 KECCAK256 SSTORE PUSH2 0x24B1 SWAP1 DUP9 DUP4 PUSH2 0x29D9 JUMP JUMPDEST PUSH1 0x9 DUP11 ADD DUP1 SLOAD PUSH1 0x1 DUP2 ADD DUP3 SSTORE PUSH1 0x0 SWAP2 DUP3 MSTORE PUSH1 0x20 DUP1 DUP4 KECCAK256 SWAP1 SWAP2 ADD DUP1 SLOAD PUSH1 0x1 PUSH1 0x1 PUSH1 0xA0 SHL SUB NOT AND PUSH1 0x1 PUSH1 0x1 PUSH1 0xA0 SHL SUB DUP7 AND SWAP1 DUP2 OR SWAP1 SWAP2 SSTORE DUP3 MSTORE PUSH1 0xA DUP13 ADD SWAP1 MSTORE PUSH1 0x40 SWAP1 KECCAK256 DUP2 SWAP1 SSTORE JUMPDEST POP POP PUSH1 0x1 ADD PUSH2 0x243D JUMP JUMPDEST POP PUSH2 0x250F PUSH1 0x1 DUP7 ADD PUSH1 0x0 PUSH2 0x2F30 JUMP JUMPDEST PUSH1 0x1 DUP8 ADD SLOAD PUSH1 0x1 PUSH1 0x1 PUSH1 0xA0 SHL SUB DUP6 AND SWAP1 PUSH1 0xFF AND PUSH1 0x3 DUP2 GT ISZERO PUSH2 0x2533 JUMPI PUSH2 0x2533 PUSH2 0x2F7B JUMP JUMPDEST PUSH1 0x40 DUP1 MLOAD DUP7 DUP2 MSTORE PUSH1 0x20 DUP2 ADD DUP7 SWAP1 MSTORE DUP13 SWAP2 PUSH32 0x48010171485DC93C9EE0516FFE9423ED9B36AF118DB98AB6C7D46A9C06322BF5 SWAP2 ADD PUSH1 0x40 MLOAD DUP1 SWAP2 SUB SWAP1 LOG4 POP POP POP POP POP POP POP POP POP JUMP JUMPDEST PUSH1 0x8 SLOAD PUSH1 0x1 PUSH1 0x1 PUSH1 0xA0 SHL SUB AND PUSH2 0x25C6 JUMPI PUSH1 0x40 MLOAD PUSH3 0x461BCD PUSH1 0xE5 SHL DUP2 MSTORE PUSH1 0x20 PUSH1 0x4 DUP3 ADD MSTORE PUSH1 0x12 PUSH1 0x24 DUP3 ADD MSTORE PUSH18 0x159491881B9BDD0818DBDB999A59DD5C9959 PUSH1 0x72 SHL PUSH1 0x44 DUP3 ADD MSTORE PUSH1 0x64 ADD PUSH2 0xAC9 JUMP JUMPDEST PUSH1 0x40 MLOAD PUSH3 0x461BCD PUSH1 0xE5 SHL DUP2 MSTORE PUSH1 0x20 PUSH1 0x4 DUP3 ADD MSTORE PUSH1 0x39 PUSH1 0x24 DUP3 ADD MSTORE PUSH32 0x436861696E6C696E6B20565246206E6F742079657420696E7465677261746564 PUSH1 0x44 DUP3 ADD MSTORE PUSH32 0x202D207573652050534555444F5F52414E444F4D206D6F646500000000000000 PUSH1 0x64 DUP3 ADD MSTORE PUSH1 0x84 ADD PUSH2 0xAC9 JUMP JUMPDEST PUSH1 0x1 PUSH1 0x0 DUP1 MLOAD PUSH1 0x20 PUSH2 0x393A DUP4 CODECOPY DUP2 MLOAD SWAP2 MSTORE SSTORE JUMP JUMPDEST PUSH1 0x40 MLOAD PUSH1 0x1 PUSH1 0x1 PUSH1 0xA0 SHL SUB DUP5 DUP2 AND PUSH1 0x24 DUP4 ADD MSTORE DUP4 DUP2 AND PUSH1 0x44 DUP4 ADD MSTORE PUSH1 0x64 DUP3 ADD DUP4 SWAP1 MSTORE PUSH2 0x26AF SWAP2 DUP7 SWAP2 DUP3 AND SWAP1 PUSH4 0x23B872DD SWAP1 PUSH1 0x84 ADD JUMPDEST PUSH1 0x40 MLOAD PUSH1 0x20 DUP2 DUP4 SUB SUB DUP2 MSTORE SWAP1 PUSH1 0x40 MSTORE SWAP2 POP PUSH1 0xE0 SHL PUSH1 0x20 DUP3 ADD DUP1 MLOAD PUSH1 0x1 PUSH1 0x1 PUSH1 0xE0 SHL SUB DUP4 DUP2 DUP4 AND OR DUP4 MSTORE POP POP POP POP PUSH2 0x2C6C JUMP JUMPDEST POP POP POP POP JUMP JUMPDEST PUSH2 0x26BD PUSH2 0x2CDD JUMP JUMPDEST PUSH1 0x0 DUP1 MLOAD PUSH1 0x20 PUSH2 0x391A DUP4 CODECOPY DUP2 MLOAD SWAP2 MSTORE DUP1 SLOAD PUSH1 0xFF NOT AND DUP2 SSTORE PUSH32 0x5DB9EE0A495BF2E6FF9C91A7834C1BA4FDD244A5E8AA4E537BD38AEAE4B073AA CALLER JUMPDEST PUSH1 0x40 MLOAD PUSH1 0x1 PUSH1 0x1 PUSH1 0xA0 SHL SUB SWAP1 SWAP2 AND DUP2 MSTORE PUSH1 0x20 ADD PUSH1 0x40 MLOAD DUP1 SWAP2 SUB SWAP1 LOG1 POP JUMP JUMPDEST ADDRESS PUSH1 0x1 PUSH1 0x1 PUSH1 0xA0 SHL SUB PUSH32 0x0 AND EQ DUP1 PUSH2 0x279C JUMPI POP PUSH32 0x0 PUSH1 0x1 PUSH1 0x1 PUSH1 0xA0 SHL SUB AND PUSH2 0x2790 PUSH1 0x0 DUP1 MLOAD PUSH1 0x20 PUSH2 0x38FA DUP4 CODECOPY DUP2 MLOAD SWAP2 MSTORE SLOAD PUSH1 0x1 PUSH1 0x1 PUSH1 0xA0 SHL SUB AND SWAP1 JUMP JUMPDEST PUSH1 0x1 PUSH1 0x1 PUSH1 0xA0 SHL SUB AND EQ ISZERO JUMPDEST ISZERO PUSH2 0x130A JUMPI PUSH1 0x40 MLOAD PUSH4 0x703E46DD PUSH1 0xE1 SHL DUP2 MSTORE PUSH1 0x4 ADD PUSH1 0x40 MLOAD DUP1 SWAP2 SUB SWAP1 REVERT JUMPDEST PUSH2 0xE86 PUSH2 0x208C JUMP JUMPDEST DUP2 PUSH1 0x1 PUSH1 0x1 PUSH1 0xA0 SHL SUB AND PUSH4 0x52D1902D PUSH1 0x40 MLOAD DUP2 PUSH4 0xFFFFFFFF AND PUSH1 0xE0 SHL DUP2 MSTORE PUSH1 0x4 ADD PUSH1 0x20 PUSH1 0x40 MLOAD DUP1 DUP4 SUB DUP2 DUP7 GAS STATICCALL SWAP3 POP POP POP DUP1 ISZERO PUSH2 0x281C JUMPI POP PUSH1 0x40 DUP1 MLOAD PUSH1 0x1F RETURNDATASIZE SWAP1 DUP2 ADD PUSH1 0x1F NOT AND DUP3 ADD SWAP1 SWAP3 MSTORE PUSH2 0x2819 SWAP2 DUP2 ADD SWAP1 PUSH2 0x3689 JUMP JUMPDEST PUSH1 0x1 JUMPDEST PUSH2 0x2844 JUMPI PUSH1 0x40 MLOAD PUSH4 0x4C9C8CE3 PUSH1 0xE0 SHL DUP2 MSTORE PUSH1 0x1 PUSH1 0x1 PUSH1 0xA0 SHL SUB DUP4 AND PUSH1 0x4 DUP3 ADD MSTORE PUSH1 0x24 ADD PUSH2 0xAC9 JUMP JUMPDEST PUSH1 0x0 DUP1 MLOAD PUSH1 0x20 PUSH2 0x38FA DUP4 CODECOPY DUP2 MLOAD SWAP2 MSTORE DUP2 EQ PUSH2 0x2875 JUMPI PUSH1 0x40 MLOAD PUSH4 0x2A875269 PUSH1 0xE2 SHL DUP2 MSTORE PUSH1 0x4 DUP2 ADD DUP3 SWAP1 MSTORE PUSH1 0x24 ADD PUSH2 0xAC9 JUMP JUMPDEST PUSH2 0x287F DUP4 DUP4 PUSH2 0x2D0D JUMP JUMPDEST POP POP POP JUMP JUMPDEST ADDRESS PUSH1 0x1 PUSH1 0x1 PUSH1 0xA0 SHL SUB PUSH32 0x0 AND EQ PUSH2 0x130A JUMPI PUSH1 0x40 MLOAD PUSH4 0x703E46DD PUSH1 0xE1 SHL DUP2 MSTORE PUSH1 0x4 ADD PUSH1 0x40 MLOAD DUP1 SWAP2 SUB SWAP1 REVERT JUMPDEST PUSH32 0x9016D09D72D40FDAE2FD8CEAC6B6234C7706214FD39C1CD1E609A0528C199300 DUP1 SLOAD PUSH1 0x1 PUSH1 0x1 PUSH1 0xA0 SHL SUB NOT DUP2 AND PUSH1 0x1 PUSH1 0x1 PUSH1 0xA0 SHL SUB DUP5 DUP2 AND SWAP2 DUP3 OR DUP5 SSTORE PUSH1 0x40 MLOAD SWAP3 AND SWAP2 DUP3 SWAP1 PUSH32 0x8BE0079C531659141344CD1FD0A4F28419497F9722A3DAAFE3B4186F6B6457E0 SWAP1 PUSH1 0x0 SWAP1 LOG3 POP POP POP JUMP JUMPDEST PUSH2 0x2946 PUSH2 0x20F6 JUMP JUMPDEST PUSH1 0x0 DUP1 MLOAD PUSH1 0x20 PUSH2 0x391A DUP4 CODECOPY DUP2 MLOAD SWAP2 MSTORE DUP1 SLOAD PUSH1 0xFF NOT AND PUSH1 0x1 OR DUP2 SSTORE PUSH32 0x62E78CEA01BEE320CD4E420270B5EA74000D11B0C9F74754EBDBFC544B05A258 CALLER PUSH2 0x26F7 JUMP JUMPDEST PUSH1 0x0 DUP1 PUSH32 0xF0C57E16840DF040F15088DC2F81FE391C3923BEC73E23A9662EFC9C229C6A00 PUSH2 0x1B84 JUMP JUMPDEST PUSH2 0x29B8 PUSH2 0x2D63 JUMP JUMPDEST PUSH2 0xE86 DUP2 PUSH2 0x2D88 JUMP JUMPDEST PUSH2 0x29C9 PUSH2 0x2D63 JUMP JUMPDEST PUSH2 0x130A PUSH2 0x2D90 JUMP JUMPDEST PUSH2 0x130A PUSH2 0x2D63 JUMP JUMPDEST PUSH1 0x40 MLOAD PUSH1 0x1 PUSH1 0x1 PUSH1 0xA0 SHL SUB DUP4 DUP2 AND PUSH1 0x24 DUP4 ADD MSTORE PUSH1 0x44 DUP3 ADD DUP4 SWAP1 MSTORE PUSH2 0x287F SWAP2 DUP6 SWAP2 DUP3 AND SWAP1 PUSH4 0xA9059CBB SWAP1 PUSH1 0x64 ADD PUSH2 0x267D JUMP JUMPDEST PUSH1 0x0 DUP1 DUP3 DUP5 LT PUSH2 0x2A54 JUMPI PUSH1 0x40 MLOAD PUSH3 0x461BCD PUSH1 0xE5 SHL DUP2 MSTORE PUSH1 0x20 PUSH1 0x4 DUP3 ADD MSTORE PUSH1 0x15 PUSH1 0x24 DUP3 ADD MSTORE PUSH21 0x24B73B30B634B2103930B73237B690373AB6B132B9 PUSH1 0x59 SHL PUSH1 0x44 DUP3 ADD MSTORE PUSH1 0x64 ADD PUSH2 0xAC9 JUMP JUMPDEST PUSH1 0x0 DUP1 PUSH1 0x0 SWAP1 SLOAD SWAP1 PUSH2 0x100 EXP SWAP1 DIV PUSH1 0x1 PUSH1 0x1 PUSH1 0xA0 SHL SUB AND PUSH1 0x1 PUSH1 0x1 PUSH1 0xA0 SHL SUB AND PUSH4 0xAD605729 PUSH1 0x40 MLOAD DUP2 PUSH4 0xFFFFFFFF AND PUSH1 0xE0 SHL DUP2 MSTORE PUSH1 0x4 ADD PUSH1 0x20 PUSH1 0x40 MLOAD DUP1 DUP4 SUB DUP2 DUP7 GAS STATICCALL ISZERO DUP1 ISZERO PUSH2 0x2AA8 JUMPI RETURNDATASIZE PUSH1 0x0 DUP1 RETURNDATACOPY RETURNDATASIZE PUSH1 0x0 REVERT JUMPDEST POP POP POP POP PUSH1 0x40 MLOAD RETURNDATASIZE PUSH1 0x1F NOT PUSH1 0x1F DUP3 ADD AND DUP3 ADD DUP1 PUSH1 0x40 MSTORE POP DUP2 ADD SWAP1 PUSH2 0x2ACC SWAP2 SWAP1 PUSH2 0x3689 JUMP JUMPDEST SWAP1 POP PUSH1 0x0 DUP2 GT PUSH2 0x2B10 JUMPI PUSH1 0x40 MLOAD PUSH3 0x461BCD PUSH1 0xE5 SHL DUP2 MSTORE PUSH1 0x20 PUSH1 0x4 DUP3 ADD MSTORE PUSH1 0xF PUSH1 0x24 DUP3 ADD MSTORE PUSH15 0x4E6F207061727469636970616E7473 PUSH1 0x88 SHL PUSH1 0x44 DUP3 ADD MSTORE PUSH1 0x64 ADD PUSH2 0xAC9 JUMP JUMPDEST PUSH1 0x0 DUP1 PUSH2 0x2B1E PUSH1 0x1 DUP5 PUSH2 0x3881 JUMP JUMPDEST SWAP1 POP JUMPDEST DUP1 DUP3 GT PUSH2 0x2C2A JUMPI PUSH1 0x0 PUSH1 0x2 PUSH2 0x2B36 DUP5 DUP5 PUSH2 0x3881 JUMP JUMPDEST PUSH2 0x2B40 SWAP2 SWAP1 PUSH2 0x36CC JUMP JUMPDEST PUSH2 0x2B4A SWAP1 DUP5 PUSH2 0x3676 JUMP JUMPDEST PUSH1 0x0 DUP1 SLOAD PUSH1 0x40 MLOAD PUSH4 0x35C1D349 PUSH1 0xE0 SHL DUP2 MSTORE PUSH1 0x4 DUP2 ADD DUP5 SWAP1 MSTORE SWAP3 SWAP4 POP SWAP1 SWAP2 DUP3 SWAP2 DUP3 SWAP2 DUP3 SWAP2 PUSH1 0x1 PUSH1 0x1 PUSH1 0xA0 SHL SUB AND SWAP1 PUSH4 0x35C1D349 SWAP1 PUSH1 0x24 ADD PUSH1 0xA0 PUSH1 0x40 MLOAD DUP1 DUP4 SUB DUP2 DUP7 GAS STATICCALL ISZERO DUP1 ISZERO PUSH2 0x2B9D JUMPI RETURNDATASIZE PUSH1 0x0 DUP1 RETURNDATACOPY RETURNDATASIZE PUSH1 0x0 REVERT JUMPDEST POP POP POP POP PUSH1 0x40 MLOAD RETURNDATASIZE PUSH1 0x1F NOT PUSH1 0x1F DUP3 ADD AND DUP3 ADD DUP1 PUSH1 0x40 MSTORE POP DUP2 ADD SWAP1 PUSH2 0x2BC1 SWAP2 SWAP1 PUSH2 0x3894 JUMP JUMPDEST POP SWAP4 POP SWAP4 POP SWAP4 POP SWAP4 POP DUP2 DUP13 LT ISZERO PUSH2 0x2BF6 JUMPI DUP5 PUSH1 0x0 SUB PUSH2 0x2BE4 JUMPI POP POP POP POP POP PUSH2 0x2C2A JUMP JUMPDEST PUSH2 0x2BEF PUSH1 0x1 DUP7 PUSH2 0x3881 JUMP JUMPDEST SWAP6 POP PUSH2 0x2C20 JUMP JUMPDEST DUP1 DUP13 LT PUSH2 0x2C0F JUMPI PUSH2 0x2C08 DUP6 PUSH1 0x1 PUSH2 0x3676 JUMP JUMPDEST SWAP7 POP PUSH2 0x2C20 JUMP JUMPDEST POP SWAP2 SWAP8 POP SWAP6 POP PUSH2 0x2C65 SWAP5 POP POP POP POP POP JUMP JUMPDEST POP POP POP POP POP PUSH2 0x2B21 JUMP JUMPDEST PUSH1 0x40 MLOAD PUSH3 0x461BCD PUSH1 0xE5 SHL DUP2 MSTORE PUSH1 0x20 PUSH1 0x4 DUP3 ADD MSTORE PUSH1 0x10 PUSH1 0x24 DUP3 ADD MSTORE PUSH16 0x15DA5B9B995C881B9BDD08199BDD5B99 PUSH1 0x82 SHL PUSH1 0x44 DUP3 ADD MSTORE PUSH1 0x64 ADD PUSH2 0xAC9 JUMP JUMPDEST SWAP3 POP SWAP3 SWAP1 POP JUMP JUMPDEST PUSH1 0x0 DUP1 PUSH1 0x20 PUSH1 0x0 DUP5 MLOAD PUSH1 0x20 DUP7 ADD PUSH1 0x0 DUP9 GAS CALL DUP1 PUSH2 0x2C8F JUMPI PUSH1 0x40 MLOAD RETURNDATASIZE PUSH1 0x0 DUP3 RETURNDATACOPY RETURNDATASIZE DUP2 REVERT JUMPDEST POP POP PUSH1 0x0 MLOAD RETURNDATASIZE SWAP2 POP DUP2 ISZERO PUSH2 0x2CA7 JUMPI DUP1 PUSH1 0x1 EQ ISZERO PUSH2 0x2CB4 JUMP JUMPDEST PUSH1 0x1 PUSH1 0x1 PUSH1 0xA0 SHL SUB DUP5 AND EXTCODESIZE ISZERO JUMPDEST ISZERO PUSH2 0x26AF JUMPI PUSH1 0x40 MLOAD PUSH4 0x5274AFE7 PUSH1 0xE0 SHL DUP2 MSTORE PUSH1 0x1 PUSH1 0x1 PUSH1 0xA0 SHL SUB DUP6 AND PUSH1 0x4 DUP3 ADD MSTORE PUSH1 0x24 ADD PUSH2 0xAC9 JUMP JUMPDEST PUSH1 0x0 DUP1 MLOAD PUSH1 0x20 PUSH2 0x391A DUP4 CODECOPY DUP2 MLOAD SWAP2 MSTORE SLOAD PUSH1 0xFF AND PUSH2 0x130A JUMPI PUSH1 0x40 MLOAD PUSH4 0x8DFC202B PUSH1 0xE0 SHL DUP2 MSTORE PUSH1 0x4 ADD PUSH1 0x40 MLOAD DUP1 SWAP2 SUB SWAP1 REVERT JUMPDEST PUSH2 0x2D16 DUP3 PUSH2 0x2D98 JUMP JUMPDEST PUSH1 0x40 MLOAD PUSH1 0x1 PUSH1 0x1 PUSH1 0xA0 SHL SUB DUP4 AND SWAP1 PUSH32 0xBC7CD75A20EE27FD9ADEBAB32041F755214DBC6BFFA90CC0225B39DA2E5C2D3B SWAP1 PUSH1 0x0 SWAP1 LOG2 DUP1 MLOAD ISZERO PUSH2 0x2D5B JUMPI PUSH2 0x287F DUP3 DUP3 PUSH2 0x2DFD JUMP JUMPDEST PUSH2 0x148B PUSH2 0x2E73 JUMP JUMPDEST PUSH2 0x2D6B PUSH2 0x2E92 JUMP JUMPDEST PUSH2 0x130A JUMPI PUSH1 0x40 MLOAD PUSH4 0x1AFCD79F PUSH1 0xE3 SHL DUP2 MSTORE PUSH1 0x4 ADD PUSH1 0x40 MLOAD DUP1 SWAP2 SUB SWAP1 REVERT JUMPDEST PUSH2 0x1ED4 PUSH2 0x2D63 JUMP JUMPDEST PUSH2 0x2634 PUSH2 0x2D63 JUMP JUMPDEST DUP1 PUSH1 0x1 PUSH1 0x1 PUSH1 0xA0 SHL SUB AND EXTCODESIZE PUSH1 0x0 SUB PUSH2 0x2DCE JUMPI PUSH1 0x40 MLOAD PUSH4 0x4C9C8CE3 PUSH1 0xE0 SHL DUP2 MSTORE PUSH1 0x1 PUSH1 0x1 PUSH1 0xA0 SHL SUB DUP3 AND PUSH1 0x4 DUP3 ADD MSTORE PUSH1 0x24 ADD PUSH2 0xAC9 JUMP JUMPDEST PUSH1 0x0 DUP1 MLOAD PUSH1 0x20 PUSH2 0x38FA DUP4 CODECOPY DUP2 MLOAD SWAP2 MSTORE DUP1 SLOAD PUSH1 0x1 PUSH1 0x1 PUSH1 0xA0 SHL SUB NOT AND PUSH1 0x1 PUSH1 0x1 PUSH1 0xA0 SHL SUB SWAP3 SWAP1 SWAP3 AND SWAP2 SWAP1 SWAP2 OR SWAP1 SSTORE JUMP JUMPDEST PUSH1 0x60 PUSH1 0x0 DUP1 DUP5 PUSH1 0x1 PUSH1 0x1 PUSH1 0xA0 SHL SUB AND DUP5 PUSH1 0x40 MLOAD PUSH2 0x2E1A SWAP2 SWAP1 PUSH2 0x38DD JUMP JUMPDEST PUSH1 0x0 PUSH1 0x40 MLOAD DUP1 DUP4 SUB DUP2 DUP6 GAS DELEGATECALL SWAP2 POP POP RETURNDATASIZE DUP1 PUSH1 0x0 DUP2 EQ PUSH2 0x2E55 JUMPI PUSH1 0x40 MLOAD SWAP2 POP PUSH1 0x1F NOT PUSH1 0x3F RETURNDATASIZE ADD AND DUP3 ADD PUSH1 0x40 MSTORE RETURNDATASIZE DUP3 MSTORE RETURNDATASIZE PUSH1 0x0 PUSH1 0x20 DUP5 ADD RETURNDATACOPY PUSH2 0x2E5A JUMP JUMPDEST PUSH1 0x60 SWAP2 POP JUMPDEST POP SWAP2 POP SWAP2 POP PUSH2 0x2E6A DUP6 DUP4 DUP4 PUSH2 0x2EAC JUMP JUMPDEST SWAP6 SWAP5 POP POP POP POP POP JUMP JUMPDEST CALLVALUE ISZERO PUSH2 0x130A JUMPI PUSH1 0x40 MLOAD PUSH4 0xB398979F PUSH1 0xE0 SHL DUP2 MSTORE PUSH1 0x4 ADD PUSH1 0x40 MLOAD DUP1 SWAP2 SUB SWAP1 REVERT JUMPDEST PUSH1 0x0 PUSH2 0x2E9C PUSH2 0x2987 JUMP JUMPDEST SLOAD PUSH1 0x1 PUSH1 0x40 SHL SWAP1 DIV PUSH1 0xFF AND SWAP2 SWAP1 POP JUMP JUMPDEST PUSH1 0x60 DUP3 PUSH2 0x2EC1 JUMPI PUSH2 0x2EBC DUP3 PUSH2 0x2F08 JUMP JUMPDEST PUSH2 0x219D JUMP JUMPDEST DUP2 MLOAD ISZERO DUP1 ISZERO PUSH2 0x2ED8 JUMPI POP PUSH1 0x1 PUSH1 0x1 PUSH1 0xA0 SHL SUB DUP5 AND EXTCODESIZE ISZERO JUMPDEST ISZERO PUSH2 0x2F01 JUMPI PUSH1 0x40 MLOAD PUSH4 0x9996B315 PUSH1 0xE0 SHL DUP2 MSTORE PUSH1 0x1 PUSH1 0x1 PUSH1 0xA0 SHL SUB DUP6 AND PUSH1 0x4 DUP3 ADD MSTORE PUSH1 0x24 ADD PUSH2 0xAC9 JUMP JUMPDEST POP SWAP3 SWAP2 POP POP JUMP JUMPDEST DUP1 MLOAD ISZERO PUSH2 0x2F17 JUMPI DUP1 MLOAD PUSH1 0x20 DUP3 ADD REVERT JUMPDEST PUSH1 0x40 MLOAD PUSH4 0xD6BDA275 PUSH1 0xE0 SHL DUP2 MSTORE PUSH1 0x4 ADD PUSH1 0x40 MLOAD DUP1 SWAP2 SUB SWAP1 REVERT JUMPDEST POP DUP1 SLOAD PUSH1 0x0 DUP3 SSTORE SWAP1 PUSH1 0x0 MSTORE PUSH1 0x20 PUSH1 0x0 KECCAK256 SWAP1 DUP2 ADD SWAP1 PUSH2 0xE86 SWAP2 SWAP1 JUMPDEST DUP1 DUP3 GT ISZERO PUSH2 0x2F5E JUMPI PUSH1 0x0 DUP2 SSTORE PUSH1 0x1 ADD PUSH2 0x2F4A JUMP JUMPDEST POP SWAP1 JUMP JUMPDEST PUSH1 0x0 PUSH1 0x20 DUP3 DUP5 SUB SLT ISZERO PUSH2 0x2F74 JUMPI PUSH1 0x0 DUP1 REVERT JUMPDEST POP CALLDATALOAD SWAP2 SWAP1 POP JUMP JUMPDEST PUSH4 0x4E487B71 PUSH1 0xE0 SHL PUSH1 0x0 MSTORE PUSH1 0x21 PUSH1 0x4 MSTORE PUSH1 0x24 PUSH1 0x0 REVERT JUMPDEST PUSH1 0x4 DUP2 LT PUSH2 0x2FA1 JUMPI PUSH2 0x2FA1 PUSH2 0x2F7B JUMP JUMPDEST SWAP1 MSTORE JUMP JUMPDEST DUP10 DUP2 MSTORE PUSH2 0x120 DUP2 ADD PUSH2 0x2FBA PUSH1 0x20 DUP4 ADD DUP12 PUSH2 0x2F91 JUMP JUMPDEST PUSH1 0x40 DUP3 ADD SWAP9 SWAP1 SWAP9 MSTORE PUSH1 0x60 DUP2 ADD SWAP7 SWAP1 SWAP7 MSTORE PUSH1 0x1 PUSH1 0x1 PUSH1 0xA0 SHL SUB SWAP5 SWAP1 SWAP5 AND PUSH1 0x80 DUP7 ADD MSTORE PUSH1 0xA0 DUP6 ADD SWAP3 SWAP1 SWAP3 MSTORE PUSH1 0xC0 DUP5 ADD MSTORE PUSH1 0xE0 DUP4 ADD MSTORE PUSH2 0x100 SWAP1 SWAP2 ADD MSTORE SWAP3 SWAP2 POP POP JUMP JUMPDEST PUSH1 0x2 DUP2 LT PUSH2 0x2FA1 JUMPI PUSH2 0x2FA1 PUSH2 0x2F7B JUMP JUMPDEST PUSH1 0x20 DUP2 ADD PUSH2 0x1B84 DUP3 DUP5 PUSH2 0x2FFA JUMP JUMPDEST DUP1 CALLDATALOAD PUSH1 0x4 DUP2 LT PUSH2 0x3027 JUMPI PUSH1 0x0 DUP1 REVERT JUMPDEST SWAP2 SWAP1 POP JUMP JUMPDEST PUSH1 0x0 PUSH1 0x20 DUP3 DUP5 SUB SLT ISZERO PUSH2 0x303E JUMPI PUSH1 0x0 DUP1 REVERT JUMPDEST PUSH2 0x219D DUP3 PUSH2 0x3018 JUMP JUMPDEST PUSH1 0x1 PUSH1 0x1 PUSH1 0xA0 SHL SUB DUP2 AND DUP2 EQ PUSH2 0xE86 JUMPI PUSH1 0x0 DUP1 REVERT JUMPDEST PUSH1 0x0 DUP1 PUSH1 0x0 DUP1 PUSH1 0x0 PUSH1 0xA0 DUP7 DUP9 SUB SLT ISZERO PUSH2 0x3074 JUMPI PUSH1 0x0 DUP1 REVERT JUMPDEST DUP6 CALLDATALOAD PUSH2 0x307F DUP2 PUSH2 0x3047 JUMP JUMPDEST SWAP5 POP PUSH1 0x20 DUP7 ADD CALLDATALOAD SWAP4 POP PUSH1 0x40 DUP7 ADD CALLDATALOAD PUSH1 0x1 PUSH1 0x1 PUSH1 0x40 SHL SUB DUP2 AND DUP2 EQ PUSH2 0x30A2 JUMPI PUSH1 0x0 DUP1 REVERT JUMPDEST SWAP3 POP PUSH1 0x60 DUP7 ADD CALLDATALOAD PUSH4 0xFFFFFFFF DUP2 AND DUP2 EQ PUSH2 0x30BB JUMPI PUSH1 0x0 DUP1 REVERT JUMPDEST SWAP2 POP PUSH1 0x80 DUP7 ADD CALLDATALOAD PUSH2 0xFFFF DUP2 AND DUP2 EQ PUSH2 0x30D2 JUMPI PUSH1 0x0 DUP1 REVERT JUMPDEST DUP1 SWAP2 POP POP SWAP3 SWAP6 POP SWAP3 SWAP6 SWAP1 SWAP4 POP JUMP JUMPDEST PUSH1 0x0 DUP1 DUP4 PUSH1 0x1F DUP5 ADD SLT PUSH2 0x30F2 JUMPI PUSH1 0x0 DUP1 REVERT JUMPDEST POP DUP2 CALLDATALOAD PUSH1 0x1 PUSH1 0x1 PUSH1 0x40 SHL SUB DUP2 GT ISZERO PUSH2 0x3109 JUMPI PUSH1 0x0 DUP1 REVERT JUMPDEST PUSH1 0x20 DUP4 ADD SWAP2 POP DUP4 PUSH1 0x20 DUP3 PUSH1 0x5 SHL DUP6 ADD ADD GT ISZERO PUSH2 0x2C65 JUMPI PUSH1 0x0 DUP1 REVERT JUMPDEST PUSH1 0x0 DUP1 PUSH1 0x0 DUP1 PUSH1 0x0 PUSH1 0x60 DUP7 DUP9 SUB SLT ISZERO PUSH2 0x313C JUMPI PUSH1 0x0 DUP1 REVERT JUMPDEST PUSH2 0x3145 DUP7 PUSH2 0x3018 JUMP JUMPDEST SWAP5 POP PUSH1 0x20 DUP7 ADD CALLDATALOAD PUSH1 0x1 PUSH1 0x1 PUSH1 0x40 SHL SUB DUP1 DUP3 GT ISZERO PUSH2 0x3161 JUMPI PUSH1 0x0 DUP1 REVERT JUMPDEST PUSH2 0x316D DUP10 DUP4 DUP11 ADD PUSH2 0x30E0 JUMP JUMPDEST SWAP1 SWAP7 POP SWAP5 POP PUSH1 0x40 DUP9 ADD CALLDATALOAD SWAP2 POP DUP1 DUP3 GT ISZERO PUSH2 0x3186 JUMPI PUSH1 0x0 DUP1 REVERT JUMPDEST POP PUSH2 0x3193 DUP9 DUP3 DUP10 ADD PUSH2 0x30E0 JUMP JUMPDEST SWAP7 SWAP10 SWAP6 SWAP9 POP SWAP4 SWAP7 POP SWAP3 SWAP5 SWAP4 SWAP3 POP POP POP JUMP JUMPDEST PUSH1 0x0 DUP2 MLOAD DUP1 DUP5 MSTORE PUSH1 0x20 DUP1 DUP6 ADD SWAP5 POP PUSH1 0x20 DUP5 ADD PUSH1 0x0 JUMPDEST DUP4 DUP2 LT ISZERO PUSH2 0x31DE JUMPI DUP2 MLOAD PUSH1 0x1 PUSH1 0x1 PUSH1 0xA0 SHL SUB AND DUP8 MSTORE SWAP6 DUP3 ADD SWAP6 SWAP1 DUP3 ADD SWAP1 PUSH1 0x1 ADD PUSH2 0x31B9 JUMP JUMPDEST POP SWAP5 SWAP6 SWAP5 POP POP POP POP POP JUMP JUMPDEST PUSH1 0x0 DUP2 MLOAD DUP1 DUP5 MSTORE PUSH1 0x20 DUP1 DUP6 ADD SWAP5 POP PUSH1 0x20 DUP5 ADD PUSH1 0x0 JUMPDEST DUP4 DUP2 LT ISZERO PUSH2 0x31DE JUMPI DUP2 MLOAD DUP8 MSTORE SWAP6 DUP3 ADD SWAP6 SWAP1 DUP3 ADD SWAP1 PUSH1 0x1 ADD PUSH2 0x31FE JUMP JUMPDEST DUP4 DUP2 MSTORE PUSH1 0x60 PUSH1 0x20 DUP3 ADD MSTORE PUSH1 0x0 PUSH2 0x3233 PUSH1 0x60 DUP4 ADD DUP6 PUSH2 0x31A4 JUMP JUMPDEST DUP3 DUP2 SUB PUSH1 0x40 DUP5 ADD MSTORE PUSH2 0x3245 DUP2 DUP6 PUSH2 0x31E9 JUMP JUMPDEST SWAP7 SWAP6 POP POP POP POP POP POP JUMP JUMPDEST PUSH4 0x4E487B71 PUSH1 0xE0 SHL PUSH1 0x0 MSTORE PUSH1 0x41 PUSH1 0x4 MSTORE PUSH1 0x24 PUSH1 0x0 REVERT JUMPDEST PUSH1 0x40 DUP1 MLOAD SWAP1 DUP2 ADD PUSH1 0x1 PUSH1 0x1 PUSH1 0x40 SHL SUB DUP2 GT DUP3 DUP3 LT OR ISZERO PUSH2 0x3287 JUMPI PUSH2 0x3287 PUSH2 0x324F JUMP JUMPDEST PUSH1 0x40 MSTORE SWAP1 JUMP JUMPDEST PUSH1 0x40 MLOAD PUSH1 0x1F DUP3 ADD PUSH1 0x1F NOT AND DUP2 ADD PUSH1 0x1 PUSH1 0x1 PUSH1 0x40 SHL SUB DUP2 GT DUP3 DUP3 LT OR ISZERO PUSH2 0x32B5 JUMPI PUSH2 0x32B5 PUSH2 0x324F JUMP JUMPDEST PUSH1 0x40 MSTORE SWAP2 SWAP1 POP JUMP JUMPDEST PUSH1 0x0 DUP1 PUSH1 0x40 DUP4 DUP6 SUB SLT ISZERO PUSH2 0x32D0 JUMPI PUSH1 0x0 DUP1 REVERT JUMPDEST DUP3 CALLDATALOAD PUSH2 0x32DB DUP2 PUSH2 0x3047 JUMP JUMPDEST SWAP2 POP PUSH1 0x20 DUP4 DUP2 ADD CALLDATALOAD PUSH1 0x1 PUSH1 0x1 PUSH1 0x40 SHL SUB DUP1 DUP3 GT ISZERO PUSH2 0x32F8 JUMPI PUSH1 0x0 DUP1 REVERT JUMPDEST DUP2 DUP7 ADD SWAP2 POP DUP7 PUSH1 0x1F DUP4 ADD SLT PUSH2 0x330C JUMPI PUSH1 0x0 DUP1 REVERT JUMPDEST DUP2 CALLDATALOAD DUP2 DUP2 GT ISZERO PUSH2 0x331E JUMPI PUSH2 0x331E PUSH2 0x324F JUMP JUMPDEST PUSH2 0x3330 PUSH1 0x1F DUP3 ADD PUSH1 0x1F NOT AND DUP6 ADD PUSH2 0x328D JUMP JUMPDEST SWAP2 POP DUP1 DUP3 MSTORE DUP8 DUP5 DUP3 DUP6 ADD ADD GT ISZERO PUSH2 0x3346 JUMPI PUSH1 0x0 DUP1 REVERT JUMPDEST DUP1 DUP5 DUP5 ADD DUP6 DUP5 ADD CALLDATACOPY PUSH1 0x0 DUP5 DUP3 DUP5 ADD ADD MSTORE POP DUP1 SWAP4 POP POP POP POP SWAP3 POP SWAP3 SWAP1 POP JUMP JUMPDEST PUSH1 0x0 DUP1 PUSH1 0x0 PUSH1 0x60 DUP5 DUP7 SUB SLT ISZERO PUSH2 0x3379 JUMPI PUSH1 0x0 DUP1 REVERT JUMPDEST PUSH2 0x3382 DUP5 PUSH2 0x3018 JUMP JUMPDEST SWAP6 PUSH1 0x20 DUP6 ADD CALLDATALOAD SWAP6 POP PUSH1 0x40 SWAP1 SWAP5 ADD CALLDATALOAD SWAP4 SWAP3 POP POP POP JUMP JUMPDEST PUSH1 0x1 PUSH1 0x1 PUSH1 0xA0 SHL SUB DUP6 AND DUP2 MSTORE PUSH1 0x80 DUP2 ADD PUSH2 0x33B4 PUSH1 0x20 DUP4 ADD DUP7 PUSH2 0x2FFA JUMP JUMPDEST DUP4 PUSH1 0x40 DUP4 ADD MSTORE DUP3 ISZERO ISZERO PUSH1 0x60 DUP4 ADD MSTORE SWAP6 SWAP5 POP POP POP POP POP JUMP JUMPDEST PUSH1 0x0 DUP1 PUSH1 0x40 DUP4 DUP6 SUB SLT ISZERO PUSH2 0x33DE JUMPI PUSH1 0x0 DUP1 REVERT JUMPDEST PUSH2 0x33E7 DUP4 PUSH2 0x3018 JUMP JUMPDEST SWAP2 POP PUSH1 0x20 DUP4 ADD CALLDATALOAD DUP1 ISZERO ISZERO DUP2 EQ PUSH2 0x33FC JUMPI PUSH1 0x0 DUP1 REVERT JUMPDEST DUP1 SWAP2 POP POP SWAP3 POP SWAP3 SWAP1 POP JUMP JUMPDEST DUP1 CALLDATALOAD PUSH1 0x2 DUP2 LT PUSH2 0x3027 JUMPI PUSH1 0x0 DUP1 REVERT JUMPDEST PUSH1 0x0 DUP1 PUSH1 0x40 DUP4 DUP6 SUB SLT ISZERO PUSH2 0x3429 JUMPI PUSH1 0x0 DUP1 REVERT JUMPDEST DUP3 CALLDATALOAD PUSH2 0x3434 DUP2 PUSH2 0x3047 JUMP JUMPDEST SWAP2 POP PUSH2 0x3442 PUSH1 0x20 DUP5 ADD PUSH2 0x3407 JUMP JUMPDEST SWAP1 POP SWAP3 POP SWAP3 SWAP1 POP JUMP JUMPDEST PUSH1 0x0 DUP1 PUSH1 0x40 DUP4 DUP6 SUB SLT ISZERO PUSH2 0x345E JUMPI PUSH1 0x0 DUP1 REVERT JUMPDEST DUP3 CALLDATALOAD PUSH2 0x3469 DUP2 PUSH2 0x3047 JUMP JUMPDEST SWAP5 PUSH1 0x20 SWAP4 SWAP1 SWAP4 ADD CALLDATALOAD SWAP4 POP POP POP JUMP JUMPDEST PUSH1 0x0 JUMPDEST DUP4 DUP2 LT ISZERO PUSH2 0x3492 JUMPI DUP2 DUP2 ADD MLOAD DUP4 DUP3 ADD MSTORE PUSH1 0x20 ADD PUSH2 0x347A JUMP JUMPDEST POP POP PUSH1 0x0 SWAP2 ADD MSTORE JUMP JUMPDEST PUSH1 0x20 DUP2 MSTORE PUSH1 0x0 DUP3 MLOAD DUP1 PUSH1 0x20 DUP5 ADD MSTORE PUSH2 0x34BA DUP2 PUSH1 0x40 DUP6 ADD PUSH1 0x20 DUP8 ADD PUSH2 0x3477 JUMP JUMPDEST PUSH1 0x1F ADD PUSH1 0x1F NOT AND SWAP2 SWAP1 SWAP2 ADD PUSH1 0x40 ADD SWAP3 SWAP2 POP POP JUMP JUMPDEST PUSH1 0x0 PUSH1 0x20 DUP3 DUP5 SUB SLT ISZERO PUSH2 0x34E0 JUMPI PUSH1 0x0 DUP1 REVERT JUMPDEST DUP2 CALLDATALOAD PUSH2 0x219D DUP2 PUSH2 0x3047 JUMP JUMPDEST PUSH1 0x20 DUP1 DUP3 MSTORE DUP3 MLOAD DUP3 DUP3 ADD DUP2 SWAP1 MSTORE PUSH1 0x0 SWAP2 SWAP1 PUSH1 0x40 SWAP1 DUP2 DUP6 ADD SWAP1 DUP7 DUP5 ADD DUP6 JUMPDEST DUP3 DUP2 LT ISZERO PUSH2 0x352D JUMPI DUP2 MLOAD DUP1 MLOAD DUP6 MSTORE DUP7 ADD MLOAD DUP7 DUP6 ADD MSTORE SWAP3 DUP5 ADD SWAP3 SWAP1 DUP6 ADD SWAP1 PUSH1 0x1 ADD PUSH2 0x3508 JUMP JUMPDEST POP SWAP2 SWAP8 SWAP7 POP POP POP POP POP POP POP JUMP JUMPDEST PUSH2 0x100 DUP2 ADD PUSH2 0x3549 DUP3 DUP12 PUSH2 0x2F91 JUMP JUMPDEST PUSH1 0x20 DUP3 ADD SWAP9 SWAP1 SWAP9 MSTORE PUSH1 0x40 DUP2 ADD SWAP7 SWAP1 SWAP7 MSTORE PUSH1 0x60 DUP7 ADD SWAP5 SWAP1 SWAP5 MSTORE PUSH1 0x80 DUP6 ADD SWAP3 SWAP1 SWAP3 MSTORE PUSH1 0xA0 DUP5 ADD MSTORE PUSH1 0xC0 DUP4 ADD MSTORE ISZERO ISZERO PUSH1 0xE0 SWAP1 SWAP2 ADD MSTORE SWAP2 SWAP1 POP JUMP JUMPDEST PUSH1 0x0 DUP1 PUSH1 0x40 DUP4 DUP6 SUB SLT ISZERO PUSH2 0x3593 JUMPI PUSH1 0x0 DUP1 REVERT JUMPDEST DUP3 CALLDATALOAD SWAP2 POP PUSH1 0x20 DUP4 ADD CALLDATALOAD PUSH2 0x33FC DUP2 PUSH2 0x3047 JUMP JUMPDEST PUSH1 0x0 PUSH1 0x20 DUP3 DUP5 SUB SLT ISZERO PUSH2 0x35B7 JUMPI PUSH1 0x0 DUP1 REVERT JUMPDEST PUSH2 0x219D DUP3 PUSH2 0x3407 JUMP JUMPDEST PUSH1 0x0 DUP1 PUSH1 0x40 DUP4 DUP6 SUB SLT ISZERO PUSH2 0x35D3 JUMPI PUSH1 0x0 DUP1 REVERT JUMPDEST PUSH2 0x3469 DUP4 PUSH2 0x3018 JUMP JUMPDEST PUSH2 0x35E6 DUP2 DUP9 PUSH2 0x2F91 JUMP JUMPDEST DUP6 PUSH1 0x20 DUP3 ADD MSTORE PUSH1 0x1 DUP1 PUSH1 0xA0 SHL SUB DUP6 AND PUSH1 0x40 DUP3 ADD MSTORE DUP4 PUSH1 0x60 DUP3 ADD MSTORE DUP3 PUSH1 0x80 DUP3 ADD MSTORE PUSH1 0xC0 PUSH1 0xA0 DUP3 ADD MSTORE PUSH1 0x0 PUSH2 0x361C PUSH1 0xC0 DUP4 ADD DUP5 PUSH2 0x31A4 JUMP JUMPDEST SWAP9 SWAP8 POP POP POP POP POP POP POP POP JUMP JUMPDEST PUSH1 0x20 DUP2 MSTORE PUSH1 0x0 PUSH2 0x219D PUSH1 0x20 DUP4 ADD DUP5 PUSH2 0x31E9 JUMP JUMPDEST PUSH1 0x40 DUP2 MSTORE PUSH1 0x0 PUSH2 0x364E PUSH1 0x40 DUP4 ADD DUP6 PUSH2 0x31E9 JUMP JUMPDEST DUP3 DUP2 SUB PUSH1 0x20 DUP5 ADD MSTORE PUSH2 0x2E6A DUP2 DUP6 PUSH2 0x31E9 JUMP JUMPDEST PUSH4 0x4E487B71 PUSH1 0xE0 SHL PUSH1 0x0 MSTORE PUSH1 0x11 PUSH1 0x4 MSTORE PUSH1 0x24 PUSH1 0x0 REVERT JUMPDEST DUP1 DUP3 ADD DUP1 DUP3 GT ISZERO PUSH2 0x1B84 JUMPI PUSH2 0x1B84 PUSH2 0x3660 JUMP JUMPDEST PUSH1 0x0 PUSH1 0x20 DUP3 DUP5 SUB SLT ISZERO PUSH2 0x369B JUMPI PUSH1 0x0 DUP1 REVERT JUMPDEST POP MLOAD SWAP2 SWAP1 POP JUMP JUMPDEST PUSH4 0x4E487B71 PUSH1 0xE0 SHL PUSH1 0x0 MSTORE PUSH1 0x12 PUSH1 0x4 MSTORE PUSH1 0x24 PUSH1 0x0 REVERT JUMPDEST PUSH1 0x0 DUP3 PUSH2 0x36C7 JUMPI PUSH2 0x36C7 PUSH2 0x36A2 JUMP JUMPDEST POP MOD SWAP1 JUMP JUMPDEST PUSH1 0x0 DUP3 PUSH2 0x36DB JUMPI PUSH2 0x36DB PUSH2 0x36A2 JUMP JUMPDEST POP DIV SWAP1 JUMP JUMPDEST PUSH1 0x0 PUSH1 0x1 DUP3 ADD PUSH2 0x36F2 JUMPI PUSH2 0x36F2 PUSH2 0x3660 JUMP JUMPDEST POP PUSH1 0x1 ADD SWAP1 JUMP JUMPDEST PUSH4 0x4E487B71 PUSH1 0xE0 SHL PUSH1 0x0 MSTORE PUSH1 0x32 PUSH1 0x4 MSTORE PUSH1 0x24 PUSH1 0x0 REVERT JUMPDEST DUP6 DUP2 MSTORE PUSH1 0x60 PUSH1 0x20 DUP1 DUP4 ADD DUP3 SWAP1 MSTORE SWAP1 DUP3 ADD DUP6 SWAP1 MSTORE PUSH1 0x0 SWAP1 DUP7 SWAP1 PUSH1 0x80 DUP5 ADD DUP4 JUMPDEST DUP9 DUP2 LT ISZERO PUSH2 0x375B JUMPI DUP4 CALLDATALOAD PUSH2 0x3740 DUP2 PUSH2 0x3047 JUMP JUMPDEST PUSH1 0x1 PUSH1 0x1 PUSH1 0xA0 SHL SUB AND DUP3 MSTORE SWAP3 DUP3 ADD SWAP3 SWAP1 DUP3 ADD SWAP1 PUSH1 0x1 ADD PUSH2 0x372D JUMP JUMPDEST POP DUP5 DUP2 SUB PUSH1 0x40 DUP7 ADD MSTORE DUP6 DUP2 MSTORE PUSH1 0x1 PUSH1 0x1 PUSH1 0xFB SHL SUB DUP7 GT ISZERO PUSH2 0x377B JUMPI PUSH1 0x0 DUP1 REVERT JUMPDEST DUP6 PUSH1 0x5 SHL SWAP3 POP DUP3 DUP8 PUSH1 0x20 DUP4 ADD CALLDATACOPY SWAP1 SWAP2 ADD PUSH1 0x20 ADD SWAP9 SWAP8 POP POP POP POP POP POP POP POP JUMP JUMPDEST PUSH1 0x0 PUSH1 0x20 DUP1 DUP4 DUP6 SUB SLT ISZERO PUSH2 0x37AD JUMPI PUSH1 0x0 DUP1 REVERT JUMPDEST DUP3 MLOAD PUSH1 0x1 PUSH1 0x1 PUSH1 0x40 SHL SUB DUP1 DUP3 GT ISZERO PUSH2 0x37C4 JUMPI PUSH1 0x0 DUP1 REVERT JUMPDEST DUP2 DUP6 ADD SWAP2 POP DUP6 PUSH1 0x1F DUP4 ADD SLT PUSH2 0x37D8 JUMPI PUSH1 0x0 DUP1 REVERT JUMPDEST DUP2 MLOAD DUP2 DUP2 GT ISZERO PUSH2 0x37EA JUMPI PUSH2 0x37EA PUSH2 0x324F JUMP JUMPDEST PUSH2 0x37F8 DUP5 DUP3 PUSH1 0x5 SHL ADD PUSH2 0x328D JUMP JUMPDEST DUP2 DUP2 MSTORE DUP5 DUP2 ADD SWAP3 POP PUSH1 0x6 SWAP2 SWAP1 SWAP2 SHL DUP4 ADD DUP5 ADD SWAP1 DUP8 DUP3 GT ISZERO PUSH2 0x3818 JUMPI PUSH1 0x0 DUP1 REVERT JUMPDEST SWAP3 DUP5 ADD SWAP3 JUMPDEST DUP2 DUP5 LT ISZERO PUSH2 0x385B JUMPI PUSH1 0x40 DUP5 DUP10 SUB SLT ISZERO PUSH2 0x3836 JUMPI PUSH1 0x0 DUP1 DUP2 REVERT JUMPDEST PUSH2 0x383E PUSH2 0x3265 JUMP JUMPDEST DUP5 MLOAD DUP2 MSTORE DUP6 DUP6 ADD MLOAD DUP7 DUP3 ADD MSTORE DUP4 MSTORE PUSH1 0x40 SWAP1 SWAP4 ADD SWAP3 SWAP2 DUP5 ADD SWAP2 PUSH2 0x381D JUMP JUMPDEST SWAP8 SWAP7 POP POP POP POP POP POP POP JUMP JUMPDEST PUSH1 0x40 DUP2 ADD PUSH2 0x3874 DUP3 DUP6 PUSH2 0x2FFA JUMP JUMPDEST PUSH2 0x219D PUSH1 0x20 DUP4 ADD DUP5 PUSH2 0x2FFA JUMP JUMPDEST DUP2 DUP2 SUB DUP2 DUP2 GT ISZERO PUSH2 0x1B84 JUMPI PUSH2 0x1B84 PUSH2 0x3660 JUMP JUMPDEST PUSH1 0x0 DUP1 PUSH1 0x0 DUP1 PUSH1 0x0 PUSH1 0xA0 DUP7 DUP9 SUB SLT ISZERO PUSH2 0x38AC JUMPI PUSH1 0x0 DUP1 REVERT JUMPDEST DUP6 MLOAD PUSH2 0x38B7 DUP2 PUSH2 0x3047 JUMP JUMPDEST PUSH1 0x20 DUP8 ADD MLOAD PUSH1 0x40 DUP9 ADD MLOAD PUSH1 0x60 DUP10 ADD MLOAD PUSH1 0x80 SWAP1 SWAP10 ADD MLOAD SWAP3 SWAP11 SWAP2 SWAP10 POP SWAP8 SWAP7 POP SWAP1 SWAP5 POP SWAP3 POP POP POP JUMP JUMPDEST PUSH1 0x0 DUP3 MLOAD PUSH2 0x38EF DUP2 DUP5 PUSH1 0x20 DUP8 ADD PUSH2 0x3477 JUMP JUMPDEST SWAP2 SWAP1 SWAP2 ADD SWAP3 SWAP2 POP POP JUMP INVALID CALLDATASIZE ADDMOD SWAP5 LOG1 EXTCODESIZE LOG1 LOG3 0x21 MOD PUSH8 0xC828492DB98DCA3E KECCAK256 PUSH23 0xCC3735A920A3CA505D382BBCCD5ED15C6E187E77E9AEE8 DUP2 DUP5 0xC2 0x1F 0x4F 0x21 DUP3 0xAB PC 0x27 0xCB EXTCODESIZE PUSH31 0x7FBEDCD63F033009B779B17422D0DF92223018B32B4D1FA46E071723D6817 0xE2 BASEFEE PUSH14 0x3BECC55F00A264697066735822 SLT KECCAK256 0x24 0xFC SWAP3 DUP15 0xB4 0xD6 SSTORE PUSH17 0x80C85D8C55C04A7CF4A0163C8459B9FBC4 0xC1 MOD PUSH18 0xA935A32F64736F6C63430008160033000000 "},"methodIdentifiers":{"UPGRADE_INTERFACE_VERSION()":"ad3cb1cc","configureDrawType(uint8,uint256,uint256)":"510c8bf4","configureVRF(address,bytes32,uint64,uint32,uint16)":"26b34f63","didUserWin(address,uint256)":"ba3d5c41","drawConfigs(uint8)":"bda44783","drawExecuted(uint256)":"071b197e","drawIntervals(uint8)":"b6e56400","draws(uint256)":"0cc36c36","emergencyWithdraw(address,uint256)":"95ccea67","executeDraw(uint8)":"23bc84ef","fundPrizeBucket(uint8,address[],uint256[])":"328b62e4","getAllDrawIntervals()":"c8fe63ff","getDrawConfig(uint8)":"d479ea24","getDrawDetails(uint256)":"d5a962e4","getDrawPrizeTokenAmount(uint256,address)":"d1ed9df7","getPrizeBucketStatus(uint8)":"435bbbd2","getSystemConfig()":"560f73f8","getUserLotteryEntries(address)":"b1251b15","getUserWinDetails(address)":"f9d734d2","getUserWins(address)":"e0909389","initialize(address,uint8)":"943b24b2","mintingContract()":"d2f6f67d","owner()":"8da5cb5b","pause()":"8456cb59","paused()":"5c975abb","proxiableUUID()":"52d1902d","randomnessMode()":"16d0c1e4","renounceOwnership()":"715018a6","setDrawInterval(uint8,uint256)":"d40d3b05","setDrawTypeActive(uint8,bool)":"5abb0803","setRandomnessMode(uint8)":"d2472d1a","totalDrawCount()":"eb78c0cb","transferOwnership(address)":"f2fde38b","unpause()":"3f4ba83a","upgradeToAndCall(address,bytes)":"4f1ef286","userWins(address,uint256)":"ba2497a7","vrfCallbackGasLimit()":"3b7ed734","vrfCoordinator()":"a3e56fa8","vrfKeyHash()":"041d443e","vrfRequestConfirmations()":"598bc486","vrfRequestToDrawId(uint256)":"497172be","vrfSubscriptionId()":"ed647d21"}},"storageLayout":{"storage":[{"astId":3307,"contract":"contracts/LotteryDrawManagerV2.sol:LotteryDrawManagerV2","label":"mintingContract","offset":0,"slot":"0","type":"t_contract(ILotteryData)3216"},{"astId":3310,"contract":"contracts/LotteryDrawManagerV2.sol:LotteryDrawManagerV2","label":"randomnessMode","offset":20,"slot":"0","type":"t_enum(RandomnessMode)3244"},{"astId":3316,"contract":"contracts/LotteryDrawManagerV2.sol:LotteryDrawManagerV2","label":"drawConfigs","offset":0,"slot":"1","type":"t_mapping(t_enum(DrawType)3249,t_struct(DrawConfig)3277_storage)"},{"astId":3321,"contract":"contracts/LotteryDrawManagerV2.sol:LotteryDrawManagerV2","label":"drawIntervals","offset":0,"slot":"2","type":"t_mapping(t_enum(DrawType)3249,t_uint256)"},{"astId":3323,"contract":"contracts/LotteryDrawManagerV2.sol:LotteryDrawManagerV2","label":"totalDrawCount","offset":0,"slot":"3","type":"t_uint256"},{"astId":3328,"contract":"contracts/LotteryDrawManagerV2.sol:LotteryDrawManagerV2","label":"draws","offset":0,"slot":"4","type":"t_mapping(t_uint256,t_struct(Draw)3304_storage)"},{"astId":3334,"contract":"contracts/LotteryDrawManagerV2.sol:LotteryDrawManagerV2","label":"prizeBuckets","offset":0,"slot":"5","type":"t_mapping(t_enum(DrawType)3249,t_struct(PrizeBucket)3259_storage)"},{"astId":3339,"contract":"contracts/LotteryDrawManagerV2.sol:LotteryDrawManagerV2","label":"userWins","offset":0,"slot":"6","type":"t_mapping(t_address,t_array(t_uint256)dyn_storage)"},{"astId":3343,"contract":"contracts/LotteryDrawManagerV2.sol:LotteryDrawManagerV2","label":"drawExecuted","offset":0,"slot":"7","type":"t_mapping(t_uint256,t_bool)"},{"astId":3345,"contract":"contracts/LotteryDrawManagerV2.sol:LotteryDrawManagerV2","label":"vrfCoordinator","offset":0,"slot":"8","type":"t_address"},{"astId":3347,"contract":"contracts/LotteryDrawManagerV2.sol:LotteryDrawManagerV2","label":"vrfKeyHash","offset":0,"slot":"9","type":"t_bytes32"},{"astId":3349,"contract":"contracts/LotteryDrawManagerV2.sol:LotteryDrawManagerV2","label":"vrfSubscriptionId","offset":0,"slot":"10","type":"t_uint64"},{"astId":3351,"contract":"contracts/LotteryDrawManagerV2.sol:LotteryDrawManagerV2","label":"vrfCallbackGasLimit","offset":8,"slot":"10","type":"t_uint32"},{"astId":3353,"contract":"contracts/LotteryDrawManagerV2.sol:LotteryDrawManagerV2","label":"vrfRequestConfirmations","offset":12,"slot":"10","type":"t_uint16"},{"astId":3357,"contract":"contracts/LotteryDrawManagerV2.sol:LotteryDrawManagerV2","label":"vrfRequestToDrawId","offset":0,"slot":"11","type":"t_mapping(t_uint256,t_uint256)"}],"types":{"t_address":{"encoding":"inplace","label":"address","numberOfBytes":"20"},"t_array(t_address)dyn_storage":{"base":"t_address","encoding":"dynamic_array","label":"address[]","numberOfBytes":"32"},"t_array(t_uint256)dyn_storage":{"base":"t_uint256","encoding":"dynamic_array","label":"uint256[]","numberOfBytes":"32"},"t_bool":{"encoding":"inplace","label":"bool","numberOfBytes":"1"},"t_bytes32":{"encoding":"inplace","label":"bytes32","numberOfBytes":"32"},"t_contract(ILotteryData)3216":{"encoding":"inplace","label":"contract ILotteryData","numberOfBytes":"20"},"t_enum(DrawType)3249":{"encoding":"inplace","label":"enum LotteryDrawManagerV2.DrawType","numberOfBytes":"1"},"t_enum(RandomnessMode)3244":{"encoding":"inplace","label":"enum LotteryDrawManagerV2.RandomnessMode","numberOfBytes":"1"},"t_mapping(t_address,t_array(t_uint256)dyn_storage)":{"encoding":"mapping","key":"t_address","label":"mapping(address => uint256[])","numberOfBytes":"32","value":"t_array(t_uint256)dyn_storage"},"t_mapping(t_address,t_uint256)":{"encoding":"mapping","key":"t_address","label":"mapping(address => uint256)","numberOfBytes":"32","value":"t_uint256"},"t_mapping(t_enum(DrawType)3249,t_struct(DrawConfig)3277_storage)":{"encoding":"mapping","key":"t_enum(DrawType)3249","label":"mapping(enum LotteryDrawManagerV2.DrawType => struct LotteryDrawManagerV2.DrawConfig)","numberOfBytes":"32","value":"t_struct(DrawConfig)3277_storage"},"t_mapping(t_enum(DrawType)3249,t_struct(PrizeBucket)3259_storage)":{"encoding":"mapping","key":"t_enum(DrawType)3249","label":"mapping(enum LotteryDrawManagerV2.DrawType => struct LotteryDrawManagerV2.PrizeBucket)","numberOfBytes":"32","value":"t_struct(PrizeBucket)3259_storage"},"t_mapping(t_enum(DrawType)3249,t_uint256)":{"encoding":"mapping","key":"t_enum(DrawType)3249","label":"mapping(enum LotteryDrawManagerV2.DrawType => uint256)","numberOfBytes":"32","value":"t_uint256"},"t_mapping(t_uint256,t_bool)":{"encoding":"mapping","key":"t_uint256","label":"mapping(uint256 => bool)","numberOfBytes":"32","value":"t_bool"},"t_mapping(t_uint256,t_struct(Draw)3304_storage)":{"encoding":"mapping","key":"t_uint256","label":"mapping(uint256 => struct LotteryDrawManagerV2.Draw)","numberOfBytes":"32","value":"t_struct(Draw)3304_storage"},"t_mapping(t_uint256,t_uint256)":{"encoding":"mapping","key":"t_uint256","label":"mapping(uint256 => uint256)","numberOfBytes":"32","value":"t_uint256"},"t_struct(Draw)3304_storage":{"encoding":"inplace","label":"struct LotteryDrawManagerV2.Draw","members":[{"astId":3279,"contract":"contracts/LotteryDrawManagerV2.sol:LotteryDrawManagerV2","label":"drawId","offset":0,"slot":"0","type":"t_uint256"},{"astId":3282,"contract":"contracts/LotteryDrawManagerV2.sol:LotteryDrawManagerV2","label":"drawType","offset":0,"slot":"1","type":"t_enum(DrawType)3249"},{"astId":3284,"contract":"contracts/LotteryDrawManagerV2.sol:LotteryDrawManagerV2","label":"timestamp","offset":0,"slot":"2","type":"t_uint256"},{"astId":3286,"contract":"contracts/LotteryDrawManagerV2.sol:LotteryDrawManagerV2","label":"prizeEth","offset":0,"slot":"3","type":"t_uint256"},{"astId":3288,"contract":"contracts/LotteryDrawManagerV2.sol:LotteryDrawManagerV2","label":"winner","offset":0,"slot":"4","type":"t_address"},{"astId":3290,"contract":"contracts/LotteryDrawManagerV2.sol:LotteryDrawManagerV2","label":"winningLottoID","offset":0,"slot":"5","type":"t_uint256"},{"astId":3292,"contract":"contracts/LotteryDrawManagerV2.sol:LotteryDrawManagerV2","label":"winningNumber","offset":0,"slot":"6","type":"t_uint256"},{"astId":3294,"contract":"contracts/LotteryDrawManagerV2.sol:LotteryDrawManagerV2","label":"participantCountAtDraw","offset":0,"slot":"7","type":"t_uint256"},{"astId":3296,"contract":"contracts/LotteryDrawManagerV2.sol:LotteryDrawManagerV2","label":"totalWeightAtDraw","offset":0,"slot":"8","type":"t_uint256"},{"astId":3299,"contract":"contracts/LotteryDrawManagerV2.sol:LotteryDrawManagerV2","label":"prizeTokens","offset":0,"slot":"9","type":"t_array(t_address)dyn_storage"},{"astId":3303,"contract":"contracts/LotteryDrawManagerV2.sol:LotteryDrawManagerV2","label":"prizeTokenAmounts","offset":0,"slot":"10","type":"t_mapping(t_address,t_uint256)"}],"numberOfBytes":"352"},"t_struct(DrawConfig)3277_storage":{"encoding":"inplace","label":"struct LotteryDrawManagerV2.DrawConfig","members":[{"astId":3262,"contract":"contracts/LotteryDrawManagerV2.sol:LotteryDrawManagerV2","label":"drawType","offset":0,"slot":"0","type":"t_enum(DrawType)3249"},{"astId":3264,"contract":"contracts/LotteryDrawManagerV2.sol:LotteryDrawManagerV2","label":"initialPrizeAmount","offset":0,"slot":"1","type":"t_uint256"},{"astId":3266,"contract":"contracts/LotteryDrawManagerV2.sol:LotteryDrawManagerV2","label":"currentPrizeAmount","offset":0,"slot":"2","type":"t_uint256"},{"astId":3268,"contract":"contracts/LotteryDrawManagerV2.sol:LotteryDrawManagerV2","label":"halvingInterval","offset":0,"slot":"3","type":"t_uint256"},{"astId":3270,"contract":"contracts/LotteryDrawManagerV2.sol:LotteryDrawManagerV2","label":"drawCount","offset":0,"slot":"4","type":"t_uint256"},{"astId":3272,"contract":"contracts/LotteryDrawManagerV2.sol:LotteryDrawManagerV2","label":"lastDrawTime","offset":0,"slot":"5","type":"t_uint256"},{"astId":3274,"contract":"contracts/LotteryDrawManagerV2.sol:LotteryDrawManagerV2","label":"drawInterval","offset":0,"slot":"6","type":"t_uint256"},{"astId":3276,"contract":"contracts/LotteryDrawManagerV2.sol:LotteryDrawManagerV2","label":"active","offset":0,"slot":"7","type":"t_bool"}],"numberOfBytes":"256"},"t_struct(PrizeBucket)3259_storage":{"encoding":"inplace","label":"struct LotteryDrawManagerV2.PrizeBucket","members":[{"astId":3251,"contract":"contracts/LotteryDrawManagerV2.sol:LotteryDrawManagerV2","label":"ethAmount","offset":0,"slot":"0","type":"t_uint256"},{"astId":3254,"contract":"contracts/LotteryDrawManagerV2.sol:LotteryDrawManagerV2","label":"tokenAddresses","offset":0,"slot":"1","type":"t_array(t_address)dyn_storage"},{"astId":3258,"contract":"contracts/LotteryDrawManagerV2.sol:LotteryDrawManagerV2","label":"tokenAmounts","offset":0,"slot":"2","type":"t_mapping(t_address,t_uint256)"}],"numberOfBytes":"96"},"t_uint16":{"encoding":"inplace","label":"uint16","numberOfBytes":"2"},"t_uint256":{"encoding":"inplace","label":"uint256","numberOfBytes":"32"},"t_uint32":{"encoding":"inplace","label":"uint32","numberOfBytes":"4"},"t_uint64":{"encoding":"inplace","label":"uint64","numberOfBytes":"8"}}}}}}