{
  "_format": "hh-sol-artifact-1",
  "contractName": "LotteryDrawManagerV2",
  "sourceName": "contracts/LotteryDrawManagerV2.sol",
  "abi": [
    {
      "inputs": [
        {
          "internalType": "address",
          "name": "_mintingContract",
          "type": "address"
        },
        {
          "internalType": "enum LotteryDrawManagerV2.RandomnessMode",
          "name": "_randomnessMode",
          "type": "uint8"
        }
      ],
      "stateMutability": "nonpayable",
      "type": "constructor"
    },
    {
      "inputs": [],
      "name": "EnforcedPause",
      "type": "error"
    },
    {
      "inputs": [],
      "name": "ExpectedPause",
      "type": "error"
    },
    {
      "inputs": [
        {
          "internalType": "address",
          "name": "owner",
          "type": "address"
        }
      ],
      "name": "OwnableInvalidOwner",
      "type": "error"
    },
    {
      "inputs": [
        {
          "internalType": "address",
          "name": "account",
          "type": "address"
        }
      ],
      "name": "OwnableUnauthorizedAccount",
      "type": "error"
    },
    {
      "inputs": [],
      "name": "ReentrancyGuardReentrantCall",
      "type": "error"
    },
    {
      "inputs": [
        {
          "internalType": "address",
          "name": "token",
          "type": "address"
        }
      ],
      "name": "SafeERC20FailedOperation",
      "type": "error"
    },
    {
      "anonymous": false,
      "inputs": [
        {
          "indexed": true,
          "internalType": "enum LotteryDrawManagerV2.DrawType",
          "name": "drawType",
          "type": "uint8"
        },
        {
          "indexed": false,
          "internalType": "uint256",
          "name": "initialPrize",
          "type": "uint256"
        },
        {
          "indexed": false,
          "internalType": "uint256",
          "name": "halvingInterval",
          "type": "uint256"
        },
        {
          "indexed": false,
          "internalType": "uint256",
          "name": "drawInterval",
          "type": "uint256"
        }
      ],
      "name": "DrawConfigured",
      "type": "event"
    },
    {
      "anonymous": false,
      "inputs": [
        {
          "indexed": true,
          "internalType": "uint256",
          "name": "drawId",
          "type": "uint256"
        },
        {
          "indexed": true,
          "internalType": "enum LotteryDrawManagerV2.DrawType",
          "name": "drawType",
          "type": "uint8"
        },
        {
          "indexed": true,
          "internalType": "address",
          "name": "winner",
          "type": "address"
        },
        {
          "indexed": false,
          "internalType": "uint256",
          "name": "lottoID",
          "type": "uint256"
        },
        {
          "indexed": false,
          "internalType": "uint256",
          "name": "prizeEth",
          "type": "uint256"
        }
      ],
      "name": "DrawExecuted",
      "type": "event"
    },
    {
      "anonymous": false,
      "inputs": [
        {
          "indexed": true,
          "internalType": "enum LotteryDrawManagerV2.DrawType",
          "name": "drawType",
          "type": "uint8"
        },
        {
          "indexed": false,
          "internalType": "uint256",
          "name": "oldAmount",
          "type": "uint256"
        },
        {
          "indexed": false,
          "internalType": "uint256",
          "name": "newAmount",
          "type": "uint256"
        },
        {
          "indexed": false,
          "internalType": "uint256",
          "name": "drawNumber",
          "type": "uint256"
        }
      ],
      "name": "HalvingOccurred",
      "type": "event"
    },
    {
      "anonymous": false,
      "inputs": [
        {
          "indexed": true,
          "internalType": "address",
          "name": "previousOwner",
          "type": "address"
        },
        {
          "indexed": true,
          "internalType": "address",
          "name": "newOwner",
          "type": "address"
        }
      ],
      "name": "OwnershipTransferred",
      "type": "event"
    },
    {
      "anonymous": false,
      "inputs": [
        {
          "indexed": false,
          "internalType": "address",
          "name": "account",
          "type": "address"
        }
      ],
      "name": "Paused",
      "type": "event"
    },
    {
      "anonymous": false,
      "inputs": [
        {
          "indexed": true,
          "internalType": "enum LotteryDrawManagerV2.DrawType",
          "name": "drawType",
          "type": "uint8"
        },
        {
          "indexed": false,
          "internalType": "uint256",
          "name": "ethAmount",
          "type": "uint256"
        },
        {
          "indexed": false,
          "internalType": "address[]",
          "name": "tokens",
          "type": "address[]"
        },
        {
          "indexed": false,
          "internalType": "uint256[]",
          "name": "amounts",
          "type": "uint256[]"
        }
      ],
      "name": "PrizeBucketFunded",
      "type": "event"
    },
    {
      "anonymous": false,
      "inputs": [
        {
          "indexed": false,
          "internalType": "enum LotteryDrawManagerV2.RandomnessMode",
          "name": "oldMode",
          "type": "uint8"
        },
        {
          "indexed": false,
          "internalType": "enum LotteryDrawManagerV2.RandomnessMode",
          "name": "newMode",
          "type": "uint8"
        }
      ],
      "name": "RandomnessModeChanged",
      "type": "event"
    },
    {
      "anonymous": false,
      "inputs": [
        {
          "indexed": false,
          "internalType": "address",
          "name": "account",
          "type": "address"
        }
      ],
      "name": "Unpaused",
      "type": "event"
    },
    {
      "anonymous": false,
      "inputs": [
        {
          "indexed": false,
          "internalType": "address",
          "name": "coordinator",
          "type": "address"
        },
        {
          "indexed": false,
          "internalType": "bytes32",
          "name": "keyHash",
          "type": "bytes32"
        },
        {
          "indexed": false,
          "internalType": "uint64",
          "name": "subscriptionId",
          "type": "uint64"
        }
      ],
      "name": "VRFConfigured",
      "type": "event"
    },
    {
      "inputs": [
        {
          "internalType": "enum LotteryDrawManagerV2.DrawType",
          "name": "_drawType",
          "type": "uint8"
        },
        {
          "internalType": "uint256",
          "name": "_initialPrize",
          "type": "uint256"
        },
        {
          "internalType": "uint256",
          "name": "_halvingInterval",
          "type": "uint256"
        }
      ],
      "name": "configureDrawType",
      "outputs": [],
      "stateMutability": "nonpayable",
      "type": "function"
    },
    {
      "inputs": [
        {
          "internalType": "address",
          "name": "_coordinator",
          "type": "address"
        },
        {
          "internalType": "bytes32",
          "name": "_keyHash",
          "type": "bytes32"
        },
        {
          "internalType": "uint64",
          "name": "_subscriptionId",
          "type": "uint64"
        },
        {
          "internalType": "uint32",
          "name": "_callbackGasLimit",
          "type": "uint32"
        },
        {
          "internalType": "uint16",
          "name": "_requestConfirmations",
          "type": "uint16"
        }
      ],
      "name": "configureVRF",
      "outputs": [],
      "stateMutability": "nonpayable",
      "type": "function"
    },
    {
      "inputs": [
        {
          "internalType": "address",
          "name": "_user",
          "type": "address"
        },
        {
          "internalType": "uint256",
          "name": "_drawId",
          "type": "uint256"
        }
      ],
      "name": "didUserWin",
      "outputs": [
        {
          "internalType": "bool",
          "name": "",
          "type": "bool"
        }
      ],
      "stateMutability": "view",
      "type": "function"
    },
    {
      "inputs": [
        {
          "internalType": "enum LotteryDrawManagerV2.DrawType",
          "name": "",
          "type": "uint8"
        }
      ],
      "name": "drawConfigs",
      "outputs": [
        {
          "internalType": "enum LotteryDrawManagerV2.DrawType",
          "name": "drawType",
          "type": "uint8"
        },
        {
          "internalType": "uint256",
          "name": "initialPrizeAmount",
          "type": "uint256"
        },
        {
          "internalType": "uint256",
          "name": "currentPrizeAmount",
          "type": "uint256"
        },
        {
          "internalType": "uint256",
          "name": "halvingInterval",
          "type": "uint256"
        },
        {
          "internalType": "uint256",
          "name": "drawCount",
          "type": "uint256"
        },
        {
          "internalType": "uint256",
          "name": "lastDrawTime",
          "type": "uint256"
        },
        {
          "internalType": "uint256",
          "name": "drawInterval",
          "type": "uint256"
        },
        {
          "internalType": "bool",
          "name": "active",
          "type": "bool"
        }
      ],
      "stateMutability": "view",
      "type": "function"
    },
    {
      "inputs": [
        {
          "internalType": "uint256",
          "name": "",
          "type": "uint256"
        }
      ],
      "name": "drawExecuted",
      "outputs": [
        {
          "internalType": "bool",
          "name": "",
          "type": "bool"
        }
      ],
      "stateMutability": "view",
      "type": "function"
    },
    {
      "inputs": [
        {
          "internalType": "uint256",
          "name": "",
          "type": "uint256"
        }
      ],
      "name": "draws",
      "outputs": [
        {
          "internalType": "uint256",
          "name": "drawId",
          "type": "uint256"
        },
        {
          "internalType": "enum LotteryDrawManagerV2.DrawType",
          "name": "drawType",
          "type": "uint8"
        },
        {
          "internalType": "uint256",
          "name": "timestamp",
          "type": "uint256"
        },
        {
          "internalType": "uint256",
          "name": "prizeEth",
          "type": "uint256"
        },
        {
          "internalType": "address",
          "name": "winner",
          "type": "address"
        },
        {
          "internalType": "uint256",
          "name": "winningLottoID",
          "type": "uint256"
        },
        {
          "internalType": "uint256",
          "name": "winningNumber",
          "type": "uint256"
        },
        {
          "internalType": "uint256",
          "name": "participantCountAtDraw",
          "type": "uint256"
        },
        {
          "internalType": "uint256",
          "name": "totalWeightAtDraw",
          "type": "uint256"
        }
      ],
      "stateMutability": "view",
      "type": "function"
    },
    {
      "inputs": [
        {
          "internalType": "address",
          "name": "_token",
          "type": "address"
        },
        {
          "internalType": "uint256",
          "name": "_amount",
          "type": "uint256"
        }
      ],
      "name": "emergencyWithdraw",
      "outputs": [],
      "stateMutability": "nonpayable",
      "type": "function"
    },
    {
      "inputs": [
        {
          "internalType": "enum LotteryDrawManagerV2.DrawType",
          "name": "_drawType",
          "type": "uint8"
        }
      ],
      "name": "executeDraw",
      "outputs": [],
      "stateMutability": "nonpayable",
      "type": "function"
    },
    {
      "inputs": [
        {
          "internalType": "enum LotteryDrawManagerV2.DrawType",
          "name": "_drawType",
          "type": "uint8"
        },
        {
          "internalType": "address[]",
          "name": "_tokens",
          "type": "address[]"
        },
        {
          "internalType": "uint256[]",
          "name": "_amounts",
          "type": "uint256[]"
        }
      ],
      "name": "fundPrizeBucket",
      "outputs": [],
      "stateMutability": "payable",
      "type": "function"
    },
    {
      "inputs": [
        {
          "internalType": "enum LotteryDrawManagerV2.DrawType",
          "name": "_drawType",
          "type": "uint8"
        }
      ],
      "name": "getDrawConfig",
      "outputs": [
        {
          "internalType": "uint256",
          "name": "initialPrize",
          "type": "uint256"
        },
        {
          "internalType": "uint256",
          "name": "currentPrize",
          "type": "uint256"
        },
        {
          "internalType": "uint256",
          "name": "halvingInterval",
          "type": "uint256"
        },
        {
          "internalType": "uint256",
          "name": "drawCount",
          "type": "uint256"
        },
        {
          "internalType": "uint256",
          "name": "lastDrawTime",
          "type": "uint256"
        },
        {
          "internalType": "uint256",
          "name": "drawInterval",
          "type": "uint256"
        },
        {
          "internalType": "uint256",
          "name": "nextDrawTime",
          "type": "uint256"
        },
        {
          "internalType": "bool",
          "name": "active",
          "type": "bool"
        }
      ],
      "stateMutability": "view",
      "type": "function"
    },
    {
      "inputs": [
        {
          "internalType": "uint256",
          "name": "_drawId",
          "type": "uint256"
        }
      ],
      "name": "getDrawDetails",
      "outputs": [
        {
          "internalType": "enum LotteryDrawManagerV2.DrawType",
          "name": "drawType",
          "type": "uint8"
        },
        {
          "internalType": "uint256",
          "name": "timestamp",
          "type": "uint256"
        },
        {
          "internalType": "address",
          "name": "winner",
          "type": "address"
        },
        {
          "internalType": "uint256",
          "name": "winningLottoID",
          "type": "uint256"
        },
        {
          "internalType": "uint256",
          "name": "prizeEth",
          "type": "uint256"
        },
        {
          "internalType": "address[]",
          "name": "prizeTokens",
          "type": "address[]"
        }
      ],
      "stateMutability": "view",
      "type": "function"
    },
    {
      "inputs": [
        {
          "internalType": "uint256",
          "name": "_drawId",
          "type": "uint256"
        },
        {
          "internalType": "address",
          "name": "_token",
          "type": "address"
        }
      ],
      "name": "getDrawPrizeTokenAmount",
      "outputs": [
        {
          "internalType": "uint256",
          "name": "",
          "type": "uint256"
        }
      ],
      "stateMutability": "view",
      "type": "function"
    },
    {
      "inputs": [
        {
          "internalType": "enum LotteryDrawManagerV2.DrawType",
          "name": "_drawType",
          "type": "uint8"
        }
      ],
      "name": "getPrizeBucketStatus",
      "outputs": [
        {
          "internalType": "uint256",
          "name": "ethAmount",
          "type": "uint256"
        },
        {
          "internalType": "address[]",
          "name": "tokens",
          "type": "address[]"
        },
        {
          "internalType": "uint256[]",
          "name": "amounts",
          "type": "uint256[]"
        }
      ],
      "stateMutability": "view",
      "type": "function"
    },
    {
      "inputs": [
        {
          "internalType": "address",
          "name": "_user",
          "type": "address"
        }
      ],
      "name": "getUserLotteryEntries",
      "outputs": [
        {
          "components": [
            {
              "internalType": "uint256",
              "name": "lottoID",
              "type": "uint256"
            },
            {
              "internalType": "uint256",
              "name": "weight",
              "type": "uint256"
            }
          ],
          "internalType": "struct ILotteryData.LottoEntry[]",
          "name": "",
          "type": "tuple[]"
        }
      ],
      "stateMutability": "view",
      "type": "function"
    },
    {
      "inputs": [
        {
          "internalType": "address",
          "name": "_user",
          "type": "address"
        }
      ],
      "name": "getUserWinDetails",
      "outputs": [
        {
          "internalType": "uint256[]",
          "name": "drawIds",
          "type": "uint256[]"
        },
        {
          "internalType": "uint256[]",
          "name": "winningLottoIDs",
          "type": "uint256[]"
        }
      ],
      "stateMutability": "view",
      "type": "function"
    },
    {
      "inputs": [
        {
          "internalType": "address",
          "name": "_user",
          "type": "address"
        }
      ],
      "name": "getUserWins",
      "outputs": [
        {
          "internalType": "uint256[]",
          "name": "",
          "type": "uint256[]"
        }
      ],
      "stateMutability": "view",
      "type": "function"
    },
    {
      "inputs": [],
      "name": "mintingContract",
      "outputs": [
        {
          "internalType": "contract ILotteryData",
          "name": "",
          "type": "address"
        }
      ],
      "stateMutability": "view",
      "type": "function"
    },
    {
      "inputs": [],
      "name": "owner",
      "outputs": [
        {
          "internalType": "address",
          "name": "",
          "type": "address"
        }
      ],
      "stateMutability": "view",
      "type": "function"
    },
    {
      "inputs": [],
      "name": "pause",
      "outputs": [],
      "stateMutability": "nonpayable",
      "type": "function"
    },
    {
      "inputs": [],
      "name": "paused",
      "outputs": [
        {
          "internalType": "bool",
          "name": "",
          "type": "bool"
        }
      ],
      "stateMutability": "view",
      "type": "function"
    },
    {
      "inputs": [],
      "name": "randomnessMode",
      "outputs": [
        {
          "internalType": "enum LotteryDrawManagerV2.RandomnessMode",
          "name": "",
          "type": "uint8"
        }
      ],
      "stateMutability": "view",
      "type": "function"
    },
    {
      "inputs": [],
      "name": "renounceOwnership",
      "outputs": [],
      "stateMutability": "nonpayable",
      "type": "function"
    },
    {
      "inputs": [
        {
          "internalType": "enum LotteryDrawManagerV2.DrawType",
          "name": "_drawType",
          "type": "uint8"
        },
        {
          "internalType": "bool",
          "name": "_active",
          "type": "bool"
        }
      ],
      "name": "setDrawTypeActive",
      "outputs": [],
      "stateMutability": "nonpayable",
      "type": "function"
    },
    {
      "inputs": [
        {
          "internalType": "enum LotteryDrawManagerV2.RandomnessMode",
          "name": "_mode",
          "type": "uint8"
        }
      ],
      "name": "setRandomnessMode",
      "outputs": [],
      "stateMutability": "nonpayable",
      "type": "function"
    },
    {
      "inputs": [],
      "name": "totalDrawCount",
      "outputs": [
        {
          "internalType": "uint256",
          "name": "",
          "type": "uint256"
        }
      ],
      "stateMutability": "view",
      "type": "function"
    },
    {
      "inputs": [
        {
          "internalType": "address",
          "name": "newOwner",
          "type": "address"
        }
      ],
      "name": "transferOwnership",
      "outputs": [],
      "stateMutability": "nonpayable",
      "type": "function"
    },
    {
      "inputs": [],
      "name": "unpause",
      "outputs": [],
      "stateMutability": "nonpayable",
      "type": "function"
    },
    {
      "inputs": [
        {
          "internalType": "address",
          "name": "",
          "type": "address"
        },
        {
          "internalType": "uint256",
          "name": "",
          "type": "uint256"
        }
      ],
      "name": "userWins",
      "outputs": [
        {
          "internalType": "uint256",
          "name": "",
          "type": "uint256"
        }
      ],
      "stateMutability": "view",
      "type": "function"
    },
    {
      "inputs": [],
      "name": "vrfCallbackGasLimit",
      "outputs": [
        {
          "internalType": "uint32",
          "name": "",
          "type": "uint32"
        }
      ],
      "stateMutability": "view",
      "type": "function"
    },
    {
      "inputs": [],
      "name": "vrfCoordinator",
      "outputs": [
        {
          "internalType": "address",
          "name": "",
          "type": "address"
        }
      ],
      "stateMutability": "view",
      "type": "function"
    },
    {
      "inputs": [],
      "name": "vrfKeyHash",
      "outputs": [
        {
          "internalType": "bytes32",
          "name": "",
          "type": "bytes32"
        }
      ],
      "stateMutability": "view",
      "type": "function"
    },
    {
      "inputs": [],
      "name": "vrfRequestConfirmations",
      "outputs": [
        {
          "internalType": "uint16",
          "name": "",
          "type": "uint16"
        }
      ],
      "stateMutability": "view",
      "type": "function"
    },
    {
      "inputs": [
        {
          "internalType": "uint256",
          "name": "",
          "type": "uint256"
        }
      ],
      "name": "vrfRequestToDrawId",
      "outputs": [
        {
          "internalType": "uint256",
          "name": "",
          "type": "uint256"
        }
      ],
      "stateMutability": "view",
      "type": "function"
    },
    {
      "inputs": [],
      "name": "vrfSubscriptionId",
      "outputs": [
        {
          "internalType": "uint64",
          "name": "",
          "type": "uint64"
        }
      ],
      "stateMutability": "view",
      "type": "function"
    },
    {
      "stateMutability": "payable",
      "type": "receive"
    }
  ],
  "bytecode": "0x60806040523480156200001157600080fd5b5060405162002f2838038062002f2883398101604081905262000034916200019c565b33806200005c57604051631e4fbdf760e01b8152600060048201526024015b60405180910390fd5b62000067816200014c565b50600180556001600160a01b038216620000c45760405162461bcd60e51b815260206004820152601860248201527f496e76616c6964206d696e74696e6720636f6e74726163740000000000000000604482015260640162000053565b60028054610100600160a81b031981166101006001600160a01b038616029081178355839291610100600160b01b03191660ff60a81b1990911617600160a81b836001811115620001195762000119620001e9565b021790555050600060045550600b805465ffffffffffff60401b19166c03002625a00000000000000000179055620001ff565b600080546001600160a01b038381166001600160a01b0319831681178455604051919092169283917f8be0079c531659141344cd1fd0a4f28419497f9722a3daafe3b4186f6b6457e09190a35050565b60008060408385031215620001b057600080fd5b82516001600160a01b0381168114620001c857600080fd5b602084015190925060028110620001de57600080fd5b809150509250929050565b634e487b7160e01b600052602160045260246000fd5b612d19806200020f6000396000f3fe6080604052600436106101fd5760003560e01c80638da5cb5b1161010d578063d2472d1a116100a0578063e09093891161006f578063e090938914610753578063eb78c0cb14610780578063ed647d2114610796578063f2fde38b146107d0578063f9d734d2146107f057600080fd5b8063d2472d1a1461067f578063d2f6f67d1461069f578063d479ea24146106c4578063d5a962e41461072157600080fd5b8063ba2497a7116100dc578063ba2497a71461057e578063ba3d5c411461059e578063bda44783146105be578063d1ed9df71461063857600080fd5b80638da5cb5b146104df57806395ccea6714610511578063a3e56fa814610531578063b1251b151461055157600080fd5b80633f4ba83a11610190578063598bc4861161015f578063598bc486146104485780635abb08031461047d5780635c975abb1461049d578063715018a6146104b55780638456cb59146104ca57600080fd5b80633f4ba83a146103b7578063435bbbd2146103cc578063497172be146103fb578063510c8bf41461042857600080fd5b806323bc84ef116101cc57806323bc84ef1461032957806326b34f631461034b578063328b62e41461036b5780633b7ed7341461037e57600080fd5b8063041d443e14610209578063071b197e146102325780630cc36c361461027257806316d0c1e4146102fb57600080fd5b3661020457005b600080fd5b34801561021557600080fd5b5061021f600a5481565b6040519081526020015b60405180910390f35b34801561023e57600080fd5b5061026261024d3660046124e5565b60086020526000908152604090205460ff1681565b6040519015158152602001610229565b34801561027e57600080fd5b506102e661028d3660046124e5565b6005602081905260009182526040909120805460018201546002830154600384015460048501549585015460068601546007870154600890970154959760ff90951696939592946001600160a01b031693919290919089565b60405161022999989796959493929190612528565b34801561030757600080fd5b5060025461031c90600160a81b900460ff1681565b604051610229919061258d565b34801561033557600080fd5b506103496103443660046125af565b61081e565b005b34801561035757600080fd5b506103496103663660046125df565b610c68565b6103496103793660046126a9565b610d6b565b34801561038a57600080fd5b50600b546103a290600160401b900463ffffffff1681565b60405163ffffffff9091168152602001610229565b3480156103c357600080fd5b506103496110da565b3480156103d857600080fd5b506103ec6103e73660046125af565b6110ec565b604051610229939291906127a0565b34801561040757600080fd5b5061021f6104163660046124e5565b600c6020526000908152604090205481565b34801561043457600080fd5b506103496104433660046127d5565b611251565b34801561045457600080fd5b50600b5461046a90600160601b900461ffff1681565b60405161ffff9091168152602001610229565b34801561048957600080fd5b50610349610498366004612808565b611451565b3480156104a957600080fd5b5060025460ff16610262565b3480156104c157600080fd5b506103496114a7565b3480156104d657600080fd5b506103496114b9565b3480156104eb57600080fd5b506000546001600160a01b03165b6040516001600160a01b039091168152602001610229565b34801561051d57600080fd5b5061034961052c366004612844565b6114c9565b34801561053d57600080fd5b506009546104f9906001600160a01b031681565b34801561055d57600080fd5b5061057161056c366004612870565b6115b9565b604051610229919061288d565b34801561058a57600080fd5b5061021f610599366004612844565b611637565b3480156105aa57600080fd5b506102626105b9366004612844565b611668565b3480156105ca57600080fd5b506106246105d93660046125af565b60036020819052600091825260409091208054600182015460028301549383015460048401546005850154600686015460079096015460ff9586169794969495939492939192911688565b6040516102299897969594939291906128dc565b34801561064457600080fd5b5061021f610653366004612922565b60008281526005602090815260408083206001600160a01b0385168452600a0190915290205492915050565b34801561068b57600080fd5b5061034961069a366004612947565b6116aa565b3480156106ab57600080fd5b506002546104f99061010090046001600160a01b031681565b3480156106d057600080fd5b506106e46106df3660046125af565b611724565b604080519889526020890197909752958701949094526060860192909252608085015260a084015260c0830152151560e082015261010001610229565b34801561072d57600080fd5b5061074161073c3660046124e5565b6117c3565b60405161022996959493929190612968565b34801561075f57600080fd5b5061077361076e366004612870565b61187f565b60405161022991906129b4565b34801561078c57600080fd5b5061021f60045481565b3480156107a257600080fd5b50600b546107b79067ffffffffffffffff1681565b60405167ffffffffffffffff9091168152602001610229565b3480156107dc57600080fd5b506103496107eb366004612870565b6118eb565b3480156107fc57600080fd5b5061081061080b366004612870565b611926565b6040516102299291906129c7565b610826611aad565b61082e611ada565b610836611b04565b60006003600083600381111561084e5761084e6124fe565b600381111561085f5761085f6124fe565b81526020810191909152604001600020600781015490915060ff166108c25760405162461bcd60e51b8152602060048201526014602482015273447261772074797065206e6f742061637469766560601b60448201526064015b60405180910390fd5b60008160010154116109165760405162461bcd60e51b815260206004820152601860248201527f447261772074797065206e6f7420636f6e66696775726564000000000000000060448201526064016108b9565b8060060154816005015461092a9190612a0b565b4210156109795760405162461bcd60e51b815260206004820152601960248201527f4472617720696e74657276616c206e6f7420656c61707365640000000000000060448201526064016108b9565b6000600260019054906101000a90046001600160a01b03166001600160a01b031663ad6057296040518163ffffffff1660e01b8152600401602060405180830381865afa1580156109ce573d6000803e3d6000fd5b505050506040513d601f19601f820116820180604052508101906109f29190612a1e565b90506000600260019054906101000a90046001600160a01b03166001600160a01b03166396c82e576040518163ffffffff1660e01b8152600401602060405180830381865afa158015610a49573d6000803e3d6000fd5b505050506040513d601f19601f82011682018060405250810190610a6d9190612a1e565b905060008211610ab15760405162461bcd60e51b815260206004820152600f60248201526e4e6f207061727469636970616e747360881b60448201526064016108b9565b60008111610aed5760405162461bcd60e51b8152602060048201526009602482015268139bc81dd95a59da1d60ba1b60448201526064016108b9565b60008360040154118015610b12575082600301548360040154610b109190612a4d565b155b15610b8a5760028084015490610b289082612a61565b6002850155846003811115610b3f57610b3f6124fe565b600285015460048601546040805185815260208101939093528201527f3f9f7b11395eb458ab75abb30739c795e10a96fe065f510b3e393d682323fa689060600160405180910390a2505b60048054906000610b9a83612a75565b9091555050600454600081815260056020526040902081815560018082018054889260ff1990911690836003811115610bd557610bd56124fe565b02179055504260028201556007810184905560088101839055600485018054906000610c0083612a75565b90915550504260058601556000600254600160a81b900460ff166001811115610c2b57610c2b6124fe565b03610c4e576000610c3c8484611b28565b9050610c488382611ba5565b50610c57565b610c5782611f7a565b5050505050610c6560018055565b50565b610c70611aad565b6001600160a01b038516610cbc5760405162461bcd60e51b815260206004820152601360248201527224b73b30b634b21031b7b7b93234b730ba37b960691b60448201526064016108b9565b600980546001600160a01b0319166001600160a01b038716908117909155600a859055600b805467ffffffffffffffff86166bffffffffffffffffffffffff199091168117600160401b63ffffffff8716021761ffff60601b1916600160601b61ffff8616021790915560408051928352602083018790528201527f93cb628e44cb03ee0c6a03a219e56aff08bdc0806b9c9ab4c2af41c2af6beb429060600160405180910390a15050505050565b610d73611aad565b828114610dba5760405162461bcd60e51b8152602060048201526015602482015274082e4e4c2f240d8cadccee8d040dad2e6dac2e8c6d605b1b60448201526064016108b9565b600060066000876003811115610dd257610dd26124fe565b6003811115610de357610de36124fe565b815260200190815260200160002090506000341115610e165734816000016000828254610e109190612a0b565b90915550505b60005b84811015611080576000868683818110610e3557610e35612a8e565b9050602002016020810190610e4a9190612870565b6001600160a01b031603610e985760405162461bcd60e51b8152602060048201526015602482015274496e76616c696420746f6b656e206164647265737360581b60448201526064016108b9565b6000848483818110610eac57610eac612a8e565b9050602002013511610ef55760405162461bcd60e51b81526020600482015260126024820152710416d6f756e74206d757374206265203e20360741b60448201526064016108b9565b610f4b3330868685818110610f0c57610f0c612a8e565b90506020020135898986818110610f2557610f25612a8e565b9050602002016020810190610f3a9190612870565b6001600160a01b0316929190612035565b816002016000878784818110610f6357610f63612a8e565b9050602002016020810190610f789190612870565b6001600160a01b03166001600160a01b0316815260200190815260200160002054600003610ffe5781600101868683818110610fb657610fb6612a8e565b9050602002016020810190610fcb9190612870565b81546001810183556000928352602090922090910180546001600160a01b0319166001600160a01b039092169190911790555b83838281811061101057611010612a8e565b9050602002013582600201600088888581811061102f5761102f612a8e565b90506020020160208101906110449190612870565b6001600160a01b03166001600160a01b0316815260200190815260200160002060008282546110739190612a0b565b9091555050600101610e19565b50856003811115611093576110936124fe565b7f01a2fc6ff419b15b76b193a51f2cb23f236056a6214b8e8c5f4342e580323f7a34878787876040516110ca959493929190612aa4565b60405180910390a2505050505050565b6110e2611aad565b6110ea6120a2565b565b6000606080600060066000866003811115611109576111096124fe565b600381111561111a5761111a6124fe565b81526020019081526020016000209050806000015493508060010180548060200260200160405190810160405280929190818152602001828054801561118957602002820191906000526020600020905b81546001600160a01b0316815260019091019060200180831161116b575b50505050509250825167ffffffffffffffff8111156111aa576111aa612b2f565b6040519080825280602002602001820160405280156111d3578160200160208202803683370190505b50915060005b8351811015611248578160020160008583815181106111fa576111fa612a8e565b60200260200101516001600160a01b03166001600160a01b031681526020019081526020016000205483828151811061123557611235612a8e565b60209081029190910101526001016111d9565b50509193909250565b611259611aad565b6000821161129d5760405162461bcd60e51b815260206004820152601160248201527005072697a65206d757374206265203e203607c1b60448201526064016108b9565b600081116112ed5760405162461bcd60e51b815260206004820152601c60248201527f48616c76696e6720696e74657276616c206d757374206265203e20300000000060448201526064016108b9565b600080846003811115611302576113026124fe565b03611311575062093a8061135e565b6001846003811115611325576113256124fe565b03611334575062278d0061135e565b6002846003811115611348576113486124fe565b0361135757506276a70061135e565b506301e133805b600060036000866003811115611376576113766124fe565b6003811115611387576113876124fe565b8152602081019190915260400160002080549091508590829060ff191660018360038111156113b8576113b86124fe565b02179055506001808201859055600282018590556003808301859055600060048401554260058401556006830184905560078301805460ff19169092179091558590811115611409576114096124fe565b60408051868152602081018690529081018490527fa916425e4612e5cdac49543f8ba862c5e4e6a315415360277cc99e0dab341e039060600160405180910390a25050505050565b611459611aad565b8060036000846003811115611470576114706124fe565b6003811115611481576114816124fe565b81526020810191909152604001600020600701805460ff19169115159190911790555050565b6114af611aad565b6110ea60006120f4565b6114c1611aad565b6110ea612144565b6114d1611aad565b6114d9611ada565b6001600160a01b03821661158657600080546040516001600160a01b039091169083908381818185875af1925050503d8060008114611534576040519150601f19603f3d011682016040523d82523d6000602084013e611539565b606091505b50509050806115805760405162461bcd60e51b8152602060048201526013602482015272115512081d1c985b9cd9995c8819985a5b1959606a1b60448201526064016108b9565b506115ac565b6115ac61159b6000546001600160a01b031690565b6001600160a01b0384169083612181565b6115b560018055565b5050565b60025460405163824e89a160e01b81526001600160a01b0383811660048301526060926101009004169063824e89a190602401600060405180830381865afa158015611609573d6000803e3d6000fd5b505050506040513d6000823e601f3d908101601f191682016040526116319190810190612b9f565b92915050565b6007602052816000526040600020818154811061165357600080fd5b90600052602060002001600091509150505481565b60008181526008602052604081205460ff1661168657506000611631565b506000908152600560205260409020600401546001600160a01b0390811691161490565b6116b2611aad565b60028054600160a81b80820460ff16928492909160ff60a81b19909116908360018111156116e2576116e26124fe565b02179055507f3de86e6fc2d8c6a6c3423d8fb3e96e29d6501c06a846087c02b96bd0546a405c8183604051611718929190612c6c565b60405180910390a15050565b6000806000806000806000806000600360008b6003811115611748576117486124fe565b6003811115611759576117596124fe565b815260200190815260200160002090508060010154816002015482600301548360040154846005015485600601548660060154876005015461179b9190612a0b565b600790970154959e50939c50919a5098509650945090925060ff169050919395975091939597565b60008181526005602081815260408084206001810154600282015460048301549583015460038401546009850180548751818a0281018a019098528088528a998a998a998a99606099909860ff9091169790966001600160a01b03909416959094909283919083018282801561186257602002820191906000526020600020905b81546001600160a01b03168152600190910190602001808311611844575b505050505090509650965096509650965096505091939550919395565b6001600160a01b0381166000908152600760209081526040918290208054835181840281018401909452808452606093928301828280156118df57602002820191906000526020600020905b8154815260200190600101908083116118cb575b50505050509050919050565b6118f3611aad565b6001600160a01b03811661191d57604051631e4fbdf760e01b8152600060048201526024016108b9565b610c65816120f4565b6001600160a01b038116600090815260076020908152604080832080548251818502810185019093528083526060948594909392919083018282801561198b57602002820191906000526020600020905b815481526020019060010190808311611977575b50508351939450839250505067ffffffffffffffff8111156119af576119af612b2f565b6040519080825280602002602001820160405280156119d8578160200160208202803683370190505b5093508067ffffffffffffffff8111156119f4576119f4612b2f565b604051908082528060200260200182016040528015611a1d578160200160208202803683370190505b50925060005b81811015611aa5576000838281518110611a3f57611a3f612a8e565b6020026020010151905080868381518110611a5c57611a5c612a8e565b6020026020010181815250506005600082815260200190815260200160002060050154858381518110611a9157611a91612a8e565b602090810291909101015250600101611a23565b505050915091565b6000546001600160a01b031633146110ea5760405163118cdaa760e01b81523360048201526024016108b9565b600260015403611afd57604051633ee5aeb560e01b815260040160405180910390fd5b6002600155565b60025460ff16156110ea5760405163d93c066560e01b815260040160405180910390fd5b6000824244338584611b3b600143612c87565b6040805160208101979097528601949094526bffffffffffffffffffffffff19606093841b1692850192909252607484015260948301524060b482015260d4016040516020818303038152906040528051906020012060001c611b9e9190612a4d565b9392505050565b600082815260056020908152604080832060089092529091205460ff1615611c075760405162461bcd60e51b8152602060048201526015602482015274111c985dc8185b1c9958591e48195e1958dd5d1959605a1b60448201526064016108b9565b6001810154600090600390829060ff1682811115611c2757611c276124fe565b6003811115611c3857611c386124fe565b8152602081019190915260400160009081206001840154909250600690829060ff166003811115611c6b57611c6b6124fe565b6003811115611c7c57611c7c6124fe565b81526020019081526020016000209050600080611c9d8686600801546121b7565b6004870180546001600160a01b0319166001600160a01b038416908117909155600588018290556006880189905560008a8152600860209081526040808320805460ff191660019081179091559383526007825282208054938401815582529020018990556002860154855492945090925090811115611d1b575082545b600386018190558015611dda5780846000016000828254611d3c9190612c87565b90915550506040516000906001600160a01b0385169083908381818185875af1925050503d8060008114611d8c576040519150601f19603f3d011682016040523d82523d6000602084013e611d91565b606091505b5050905080611dd85760405162461bcd60e51b8152602060048201526013602482015272115512081d1c985b9cd9995c8819985a5b1959606a1b60448201526064016108b9565b505b600084600101805480602002602001604051908101604052809291908181526020018280548015611e3457602002820191906000526020600020905b81546001600160a01b03168152600190910190602001808311611e16575b5050505050905060005b8151811015611f01576000828281518110611e5b57611e5b612a8e565b6020908102919091018101516001600160a01b038116600090815260028a019092526040909120549091508015611ef7576001600160a01b038216600081815260028a016020526040812055611eb2908883612181565b60098a0180546001810182556000918252602080832090910180546001600160a01b0319166001600160a01b0386169081179091558252600a8c019052604090208190555b5050600101611e3e565b50611f106001860160006124b3565b60018701546001600160a01b0385169060ff166003811115611f3457611f346124fe565b60408051868152602081018690528c917f48010171485dc93c9ee0516ffe9423ed9b36af118db98ab6c7d46a9c06322bf5910160405180910390a4505050505050505050565b6009546001600160a01b0316611fc75760405162461bcd60e51b8152602060048201526012602482015271159491881b9bdd0818dbdb999a59dd5c995960721b60448201526064016108b9565b60405162461bcd60e51b815260206004820152603960248201527f436861696e6c696e6b20565246206e6f742079657420696e746567726174656460448201527f202d207573652050534555444f5f52414e444f4d206d6f64650000000000000060648201526084016108b9565b6040516001600160a01b03848116602483015283811660448301526064820183905261209c9186918216906323b872dd906084015b604051602081830303815290604052915060e01b6020820180516001600160e01b03838183161783525050505061241f565b50505050565b6120aa612490565b6002805460ff191690557f5db9ee0a495bf2e6ff9c91a7834c1ba4fdd244a5e8aa4e537bd38aeae4b073aa335b6040516001600160a01b03909116815260200160405180910390a1565b600080546001600160a01b038381166001600160a01b0319831681178455604051919092169283917f8be0079c531659141344cd1fd0a4f28419497f9722a3daafe3b4186f6b6457e09190a35050565b61214c611b04565b6002805460ff191660011790557f62e78cea01bee320cd4e420270b5ea74000d11b0c9f74754ebdbfc544b05a2586120d73390565b6040516001600160a01b038381166024830152604482018390526121b291859182169063a9059cbb9060640161206a565b505050565b6000808284106122015760405162461bcd60e51b815260206004820152601560248201527424b73b30b634b2103930b73237b690373ab6b132b960591b60448201526064016108b9565b6000600260019054906101000a90046001600160a01b03166001600160a01b031663ad6057296040518163ffffffff1660e01b8152600401602060405180830381865afa158015612256573d6000803e3d6000fd5b505050506040513d601f19601f8201168201806040525081019061227a9190612a1e565b9050600081116122be5760405162461bcd60e51b815260206004820152600f60248201526e4e6f207061727469636970616e747360881b60448201526064016108b9565b6000806122cc600184612c87565b90505b8082116123dd57600060026122e48484612c87565b6122ee9190612a61565b6122f89084612a0b565b6002546040516335c1d34960e01b81526004810183905291925060009182918291829161010090046001600160a01b0316906335c1d3499060240160a060405180830381865afa158015612350573d6000803e3d6000fd5b505050506040513d601f19601f820116820180604052508101906123749190612c9a565b509350935093509350818c10156123a957846000036123975750505050506123dd565b6123a2600186612c87565b95506123d3565b808c106123c2576123bb856001612a0b565b96506123d3565b509197509550612418945050505050565b50505050506122cf565b60405162461bcd60e51b815260206004820152601060248201526f15da5b9b995c881b9bdd08199bdd5b9960821b60448201526064016108b9565b9250929050565b600080602060008451602086016000885af180612442576040513d6000823e3d81fd5b50506000513d9150811561245a578060011415612467565b6001600160a01b0384163b155b1561209c57604051635274afe760e01b81526001600160a01b03851660048201526024016108b9565b60025460ff166110ea57604051638dfc202b60e01b815260040160405180910390fd5b5080546000825590600052602060002090810190610c6591905b808211156124e157600081556001016124cd565b5090565b6000602082840312156124f757600080fd5b5035919050565b634e487b7160e01b600052602160045260246000fd5b60048110612524576125246124fe565b9052565b898152610120810161253d602083018b612514565b604082019890985260608101969096526001600160a01b0394909416608086015260a085019290925260c084015260e08301526101009091015292915050565b60028110612524576125246124fe565b60208101611631828461257d565b8035600481106125aa57600080fd5b919050565b6000602082840312156125c157600080fd5b611b9e8261259b565b6001600160a01b0381168114610c6557600080fd5b600080600080600060a086880312156125f757600080fd5b8535612602816125ca565b945060208601359350604086013567ffffffffffffffff8116811461262657600080fd5b9250606086013563ffffffff8116811461263f57600080fd5b9150608086013561ffff8116811461265657600080fd5b809150509295509295909350565b60008083601f84011261267657600080fd5b50813567ffffffffffffffff81111561268e57600080fd5b6020830191508360208260051b850101111561241857600080fd5b6000806000806000606086880312156126c157600080fd5b6126ca8661259b565b9450602086013567ffffffffffffffff808211156126e757600080fd5b6126f389838a01612664565b9096509450604088013591508082111561270c57600080fd5b5061271988828901612664565b969995985093965092949392505050565b60008151808452602080850194506020840160005b838110156127645781516001600160a01b03168752958201959082019060010161273f565b509495945050505050565b60008151808452602080850194506020840160005b8381101561276457815187529582019590820190600101612784565b8381526060602082015260006127b9606083018561272a565b82810360408401526127cb818561276f565b9695505050505050565b6000806000606084860312156127ea57600080fd5b6127f38461259b565b95602085013595506040909401359392505050565b6000806040838503121561281b57600080fd5b6128248361259b565b91506020830135801515811461283957600080fd5b809150509250929050565b6000806040838503121561285757600080fd5b8235612862816125ca565b946020939093013593505050565b60006020828403121561288257600080fd5b8135611b9e816125ca565b602080825282518282018190526000919060409081850190868401855b828110156128cf578151805185528601518685015292840192908501906001016128aa565b5091979650505050505050565b61010081016128eb828b612514565b602082019890985260408101969096526060860194909452608085019290925260a084015260c0830152151560e090910152919050565b6000806040838503121561293557600080fd5b823591506020830135612839816125ca565b60006020828403121561295957600080fd5b813560028110611b9e57600080fd5b6129728188612514565b85602082015260018060a01b038516604082015283606082015282608082015260c060a082015260006129a860c083018461272a565b98975050505050505050565b602081526000611b9e602083018461276f565b6040815260006129da604083018561276f565b82810360208401526129ec818561276f565b95945050505050565b634e487b7160e01b600052601160045260246000fd5b80820180821115611631576116316129f5565b600060208284031215612a3057600080fd5b5051919050565b634e487b7160e01b600052601260045260246000fd5b600082612a5c57612a5c612a37565b500690565b600082612a7057612a70612a37565b500490565b600060018201612a8757612a876129f5565b5060010190565b634e487b7160e01b600052603260045260246000fd5b85815260606020808301829052908201859052600090869060808401835b88811015612af0578335612ad5816125ca565b6001600160a01b031682529282019290820190600101612ac2565b5084810360408601528581526001600160fb1b03861115612b1057600080fd5b8560051b92508287602083013790910160200198975050505050505050565b634e487b7160e01b600052604160045260246000fd5b6040805190810167ffffffffffffffff81118282101715612b6857612b68612b2f565b60405290565b604051601f8201601f1916810167ffffffffffffffff81118282101715612b9757612b97612b2f565b604052919050565b60006020808385031215612bb257600080fd5b825167ffffffffffffffff80821115612bca57600080fd5b818501915085601f830112612bde57600080fd5b815181811115612bf057612bf0612b2f565b612bfe848260051b01612b6e565b818152848101925060069190911b830184019087821115612c1e57600080fd5b928401925b81841015612c615760408489031215612c3c5760008081fd5b612c44612b45565b845181528585015186820152835260409093019291840191612c23565b979650505050505050565b60408101612c7a828561257d565b611b9e602083018461257d565b81810381811115611631576116316129f5565b600080600080600060a08688031215612cb257600080fd5b8551612cbd816125ca565b602087015160408801516060890151608090990151929a9199509796509094509250505056fea264697066735822122000c4f504e36c823c2d3f704f3bfce6da1199b0790abf0a24ace3be0f1bb4070a64736f6c63430008160033",
  "linkReferences": {},
  "deployedLinkReferences": {}
}