{
  "_format": "hh-sol-artifact-1",
  "contractName": "LotteryDrawManagerV2",
  "sourceName": "contracts/LotteryDrawManagerV2.sol",
  "abi": [
    {
      "inputs": [],
      "stateMutability": "nonpayable",
      "type": "constructor"
    },
    {
      "inputs": [
        {
          "internalType": "address",
          "name": "target",
          "type": "address"
        }
      ],
      "name": "AddressEmptyCode",
      "type": "error"
    },
    {
      "inputs": [
        {
          "internalType": "address",
          "name": "implementation",
          "type": "address"
        }
      ],
      "name": "ERC1967InvalidImplementation",
      "type": "error"
    },
    {
      "inputs": [],
      "name": "ERC1967NonPayable",
      "type": "error"
    },
    {
      "inputs": [],
      "name": "EnforcedPause",
      "type": "error"
    },
    {
      "inputs": [],
      "name": "ExpectedPause",
      "type": "error"
    },
    {
      "inputs": [],
      "name": "FailedCall",
      "type": "error"
    },
    {
      "inputs": [],
      "name": "InvalidInitialization",
      "type": "error"
    },
    {
      "inputs": [],
      "name": "NotInitializing",
      "type": "error"
    },
    {
      "inputs": [
        {
          "internalType": "address",
          "name": "owner",
          "type": "address"
        }
      ],
      "name": "OwnableInvalidOwner",
      "type": "error"
    },
    {
      "inputs": [
        {
          "internalType": "address",
          "name": "account",
          "type": "address"
        }
      ],
      "name": "OwnableUnauthorizedAccount",
      "type": "error"
    },
    {
      "inputs": [],
      "name": "ReentrancyGuardReentrantCall",
      "type": "error"
    },
    {
      "inputs": [
        {
          "internalType": "address",
          "name": "token",
          "type": "address"
        }
      ],
      "name": "SafeERC20FailedOperation",
      "type": "error"
    },
    {
      "inputs": [],
      "name": "UUPSUnauthorizedCallContext",
      "type": "error"
    },
    {
      "inputs": [
        {
          "internalType": "bytes32",
          "name": "slot",
          "type": "bytes32"
        }
      ],
      "name": "UUPSUnsupportedProxiableUUID",
      "type": "error"
    },
    {
      "anonymous": false,
      "inputs": [
        {
          "indexed": true,
          "internalType": "enum LotteryDrawManagerV2.DrawType",
          "name": "drawType",
          "type": "uint8"
        },
        {
          "indexed": false,
          "internalType": "uint256",
          "name": "initialPrize",
          "type": "uint256"
        },
        {
          "indexed": false,
          "internalType": "uint256",
          "name": "halvingInterval",
          "type": "uint256"
        },
        {
          "indexed": false,
          "internalType": "uint256",
          "name": "drawInterval",
          "type": "uint256"
        }
      ],
      "name": "DrawConfigured",
      "type": "event"
    },
    {
      "anonymous": false,
      "inputs": [
        {
          "indexed": true,
          "internalType": "uint256",
          "name": "drawId",
          "type": "uint256"
        },
        {
          "indexed": true,
          "internalType": "enum LotteryDrawManagerV2.DrawType",
          "name": "drawType",
          "type": "uint8"
        },
        {
          "indexed": true,
          "internalType": "address",
          "name": "winner",
          "type": "address"
        },
        {
          "indexed": false,
          "internalType": "uint256",
          "name": "lottoID",
          "type": "uint256"
        },
        {
          "indexed": false,
          "internalType": "uint256",
          "name": "prizeEth",
          "type": "uint256"
        }
      ],
      "name": "DrawExecuted",
      "type": "event"
    },
    {
      "anonymous": false,
      "inputs": [
        {
          "indexed": true,
          "internalType": "enum LotteryDrawManagerV2.DrawType",
          "name": "drawType",
          "type": "uint8"
        },
        {
          "indexed": false,
          "internalType": "uint256",
          "name": "oldAmount",
          "type": "uint256"
        },
        {
          "indexed": false,
          "internalType": "uint256",
          "name": "newAmount",
          "type": "uint256"
        },
        {
          "indexed": false,
          "internalType": "uint256",
          "name": "drawNumber",
          "type": "uint256"
        }
      ],
      "name": "HalvingOccurred",
      "type": "event"
    },
    {
      "anonymous": false,
      "inputs": [
        {
          "indexed": false,
          "internalType": "uint64",
          "name": "version",
          "type": "uint64"
        }
      ],
      "name": "Initialized",
      "type": "event"
    },
    {
      "anonymous": false,
      "inputs": [
        {
          "indexed": true,
          "internalType": "address",
          "name": "previousOwner",
          "type": "address"
        },
        {
          "indexed": true,
          "internalType": "address",
          "name": "newOwner",
          "type": "address"
        }
      ],
      "name": "OwnershipTransferred",
      "type": "event"
    },
    {
      "anonymous": false,
      "inputs": [
        {
          "indexed": false,
          "internalType": "address",
          "name": "account",
          "type": "address"
        }
      ],
      "name": "Paused",
      "type": "event"
    },
    {
      "anonymous": false,
      "inputs": [
        {
          "indexed": true,
          "internalType": "enum LotteryDrawManagerV2.DrawType",
          "name": "drawType",
          "type": "uint8"
        },
        {
          "indexed": false,
          "internalType": "uint256",
          "name": "ethAmount",
          "type": "uint256"
        },
        {
          "indexed": false,
          "internalType": "address[]",
          "name": "tokens",
          "type": "address[]"
        },
        {
          "indexed": false,
          "internalType": "uint256[]",
          "name": "amounts",
          "type": "uint256[]"
        }
      ],
      "name": "PrizeBucketFunded",
      "type": "event"
    },
    {
      "anonymous": false,
      "inputs": [
        {
          "indexed": false,
          "internalType": "enum LotteryDrawManagerV2.RandomnessMode",
          "name": "oldMode",
          "type": "uint8"
        },
        {
          "indexed": false,
          "internalType": "enum LotteryDrawManagerV2.RandomnessMode",
          "name": "newMode",
          "type": "uint8"
        }
      ],
      "name": "RandomnessModeChanged",
      "type": "event"
    },
    {
      "anonymous": false,
      "inputs": [
        {
          "indexed": false,
          "internalType": "address",
          "name": "account",
          "type": "address"
        }
      ],
      "name": "Unpaused",
      "type": "event"
    },
    {
      "anonymous": false,
      "inputs": [
        {
          "indexed": true,
          "internalType": "address",
          "name": "implementation",
          "type": "address"
        }
      ],
      "name": "Upgraded",
      "type": "event"
    },
    {
      "anonymous": false,
      "inputs": [
        {
          "indexed": false,
          "internalType": "address",
          "name": "coordinator",
          "type": "address"
        },
        {
          "indexed": false,
          "internalType": "bytes32",
          "name": "keyHash",
          "type": "bytes32"
        },
        {
          "indexed": false,
          "internalType": "uint64",
          "name": "subscriptionId",
          "type": "uint64"
        }
      ],
      "name": "VRFConfigured",
      "type": "event"
    },
    {
      "inputs": [],
      "name": "UPGRADE_INTERFACE_VERSION",
      "outputs": [
        {
          "internalType": "string",
          "name": "",
          "type": "string"
        }
      ],
      "stateMutability": "view",
      "type": "function"
    },
    {
      "inputs": [
        {
          "internalType": "enum LotteryDrawManagerV2.DrawType",
          "name": "_drawType",
          "type": "uint8"
        },
        {
          "internalType": "uint256",
          "name": "_initialPrize",
          "type": "uint256"
        },
        {
          "internalType": "uint256",
          "name": "_halvingInterval",
          "type": "uint256"
        }
      ],
      "name": "configureDrawType",
      "outputs": [],
      "stateMutability": "nonpayable",
      "type": "function"
    },
    {
      "inputs": [
        {
          "internalType": "address",
          "name": "_coordinator",
          "type": "address"
        },
        {
          "internalType": "bytes32",
          "name": "_keyHash",
          "type": "bytes32"
        },
        {
          "internalType": "uint64",
          "name": "_subscriptionId",
          "type": "uint64"
        },
        {
          "internalType": "uint32",
          "name": "_callbackGasLimit",
          "type": "uint32"
        },
        {
          "internalType": "uint16",
          "name": "_requestConfirmations",
          "type": "uint16"
        }
      ],
      "name": "configureVRF",
      "outputs": [],
      "stateMutability": "nonpayable",
      "type": "function"
    },
    {
      "inputs": [
        {
          "internalType": "address",
          "name": "_user",
          "type": "address"
        },
        {
          "internalType": "uint256",
          "name": "_drawId",
          "type": "uint256"
        }
      ],
      "name": "didUserWin",
      "outputs": [
        {
          "internalType": "bool",
          "name": "",
          "type": "bool"
        }
      ],
      "stateMutability": "view",
      "type": "function"
    },
    {
      "inputs": [
        {
          "internalType": "enum LotteryDrawManagerV2.DrawType",
          "name": "",
          "type": "uint8"
        }
      ],
      "name": "drawConfigs",
      "outputs": [
        {
          "internalType": "enum LotteryDrawManagerV2.DrawType",
          "name": "drawType",
          "type": "uint8"
        },
        {
          "internalType": "uint256",
          "name": "initialPrizeAmount",
          "type": "uint256"
        },
        {
          "internalType": "uint256",
          "name": "currentPrizeAmount",
          "type": "uint256"
        },
        {
          "internalType": "uint256",
          "name": "halvingInterval",
          "type": "uint256"
        },
        {
          "internalType": "uint256",
          "name": "drawCount",
          "type": "uint256"
        },
        {
          "internalType": "uint256",
          "name": "lastDrawTime",
          "type": "uint256"
        },
        {
          "internalType": "uint256",
          "name": "drawInterval",
          "type": "uint256"
        },
        {
          "internalType": "bool",
          "name": "active",
          "type": "bool"
        }
      ],
      "stateMutability": "view",
      "type": "function"
    },
    {
      "inputs": [
        {
          "internalType": "uint256",
          "name": "",
          "type": "uint256"
        }
      ],
      "name": "drawExecuted",
      "outputs": [
        {
          "internalType": "bool",
          "name": "",
          "type": "bool"
        }
      ],
      "stateMutability": "view",
      "type": "function"
    },
    {
      "inputs": [
        {
          "internalType": "enum LotteryDrawManagerV2.DrawType",
          "name": "",
          "type": "uint8"
        }
      ],
      "name": "drawIntervals",
      "outputs": [
        {
          "internalType": "uint256",
          "name": "",
          "type": "uint256"
        }
      ],
      "stateMutability": "view",
      "type": "function"
    },
    {
      "inputs": [
        {
          "internalType": "uint256",
          "name": "",
          "type": "uint256"
        }
      ],
      "name": "draws",
      "outputs": [
        {
          "internalType": "uint256",
          "name": "drawId",
          "type": "uint256"
        },
        {
          "internalType": "enum LotteryDrawManagerV2.DrawType",
          "name": "drawType",
          "type": "uint8"
        },
        {
          "internalType": "uint256",
          "name": "timestamp",
          "type": "uint256"
        },
        {
          "internalType": "uint256",
          "name": "prizeEth",
          "type": "uint256"
        },
        {
          "internalType": "address",
          "name": "winner",
          "type": "address"
        },
        {
          "internalType": "uint256",
          "name": "winningLottoID",
          "type": "uint256"
        },
        {
          "internalType": "uint256",
          "name": "winningNumber",
          "type": "uint256"
        },
        {
          "internalType": "uint256",
          "name": "participantCountAtDraw",
          "type": "uint256"
        },
        {
          "internalType": "uint256",
          "name": "totalWeightAtDraw",
          "type": "uint256"
        }
      ],
      "stateMutability": "view",
      "type": "function"
    },
    {
      "inputs": [
        {
          "internalType": "address",
          "name": "_token",
          "type": "address"
        },
        {
          "internalType": "uint256",
          "name": "_amount",
          "type": "uint256"
        }
      ],
      "name": "emergencyWithdraw",
      "outputs": [],
      "stateMutability": "nonpayable",
      "type": "function"
    },
    {
      "inputs": [
        {
          "internalType": "enum LotteryDrawManagerV2.DrawType",
          "name": "_drawType",
          "type": "uint8"
        }
      ],
      "name": "executeDraw",
      "outputs": [],
      "stateMutability": "nonpayable",
      "type": "function"
    },
    {
      "inputs": [
        {
          "internalType": "enum LotteryDrawManagerV2.DrawType",
          "name": "_drawType",
          "type": "uint8"
        },
        {
          "internalType": "address[]",
          "name": "_tokens",
          "type": "address[]"
        },
        {
          "internalType": "uint256[]",
          "name": "_amounts",
          "type": "uint256[]"
        }
      ],
      "name": "fundPrizeBucket",
      "outputs": [],
      "stateMutability": "payable",
      "type": "function"
    },
    {
      "inputs": [],
      "name": "getAllDrawIntervals",
      "outputs": [
        {
          "internalType": "uint256",
          "name": "weekly",
          "type": "uint256"
        },
        {
          "internalType": "uint256",
          "name": "monthly",
          "type": "uint256"
        },
        {
          "internalType": "uint256",
          "name": "quarterly",
          "type": "uint256"
        },
        {
          "internalType": "uint256",
          "name": "yearly",
          "type": "uint256"
        }
      ],
      "stateMutability": "view",
      "type": "function"
    },
    {
      "inputs": [
        {
          "internalType": "enum LotteryDrawManagerV2.DrawType",
          "name": "_drawType",
          "type": "uint8"
        }
      ],
      "name": "getDrawConfig",
      "outputs": [
        {
          "internalType": "uint256",
          "name": "initialPrize",
          "type": "uint256"
        },
        {
          "internalType": "uint256",
          "name": "currentPrize",
          "type": "uint256"
        },
        {
          "internalType": "uint256",
          "name": "halvingInterval",
          "type": "uint256"
        },
        {
          "internalType": "uint256",
          "name": "drawCount",
          "type": "uint256"
        },
        {
          "internalType": "uint256",
          "name": "lastDrawTime",
          "type": "uint256"
        },
        {
          "internalType": "uint256",
          "name": "drawInterval",
          "type": "uint256"
        },
        {
          "internalType": "uint256",
          "name": "nextDrawTime",
          "type": "uint256"
        },
        {
          "internalType": "bool",
          "name": "active",
          "type": "bool"
        }
      ],
      "stateMutability": "view",
      "type": "function"
    },
    {
      "inputs": [
        {
          "internalType": "uint256",
          "name": "_drawId",
          "type": "uint256"
        }
      ],
      "name": "getDrawDetails",
      "outputs": [
        {
          "internalType": "enum LotteryDrawManagerV2.DrawType",
          "name": "drawType",
          "type": "uint8"
        },
        {
          "internalType": "uint256",
          "name": "timestamp",
          "type": "uint256"
        },
        {
          "internalType": "address",
          "name": "winner",
          "type": "address"
        },
        {
          "internalType": "uint256",
          "name": "winningLottoID",
          "type": "uint256"
        },
        {
          "internalType": "uint256",
          "name": "prizeEth",
          "type": "uint256"
        },
        {
          "internalType": "address[]",
          "name": "prizeTokens",
          "type": "address[]"
        }
      ],
      "stateMutability": "view",
      "type": "function"
    },
    {
      "inputs": [
        {
          "internalType": "uint256",
          "name": "_drawId",
          "type": "uint256"
        },
        {
          "internalType": "address",
          "name": "_token",
          "type": "address"
        }
      ],
      "name": "getDrawPrizeTokenAmount",
      "outputs": [
        {
          "internalType": "uint256",
          "name": "",
          "type": "uint256"
        }
      ],
      "stateMutability": "view",
      "type": "function"
    },
    {
      "inputs": [
        {
          "internalType": "enum LotteryDrawManagerV2.DrawType",
          "name": "_drawType",
          "type": "uint8"
        }
      ],
      "name": "getPrizeBucketStatus",
      "outputs": [
        {
          "internalType": "uint256",
          "name": "ethAmount",
          "type": "uint256"
        },
        {
          "internalType": "address[]",
          "name": "tokens",
          "type": "address[]"
        },
        {
          "internalType": "uint256[]",
          "name": "amounts",
          "type": "uint256[]"
        }
      ],
      "stateMutability": "view",
      "type": "function"
    },
    {
      "inputs": [],
      "name": "getSystemConfig",
      "outputs": [
        {
          "internalType": "address",
          "name": "_mintingContract",
          "type": "address"
        },
        {
          "internalType": "enum LotteryDrawManagerV2.RandomnessMode",
          "name": "_randomnessMode",
          "type": "uint8"
        },
        {
          "internalType": "uint256",
          "name": "_totalDrawCount",
          "type": "uint256"
        },
        {
          "internalType": "bool",
          "name": "_paused",
          "type": "bool"
        }
      ],
      "stateMutability": "view",
      "type": "function"
    },
    {
      "inputs": [
        {
          "internalType": "address",
          "name": "_user",
          "type": "address"
        }
      ],
      "name": "getUserLotteryEntries",
      "outputs": [
        {
          "components": [
            {
              "internalType": "uint256",
              "name": "lottoID",
              "type": "uint256"
            },
            {
              "internalType": "uint256",
              "name": "weight",
              "type": "uint256"
            }
          ],
          "internalType": "struct ILotteryData.LottoEntry[]",
          "name": "",
          "type": "tuple[]"
        }
      ],
      "stateMutability": "view",
      "type": "function"
    },
    {
      "inputs": [
        {
          "internalType": "address",
          "name": "_user",
          "type": "address"
        }
      ],
      "name": "getUserWinDetails",
      "outputs": [
        {
          "internalType": "uint256[]",
          "name": "drawIds",
          "type": "uint256[]"
        },
        {
          "internalType": "uint256[]",
          "name": "winningLottoIDs",
          "type": "uint256[]"
        }
      ],
      "stateMutability": "view",
      "type": "function"
    },
    {
      "inputs": [
        {
          "internalType": "address",
          "name": "_user",
          "type": "address"
        }
      ],
      "name": "getUserWins",
      "outputs": [
        {
          "internalType": "uint256[]",
          "name": "",
          "type": "uint256[]"
        }
      ],
      "stateMutability": "view",
      "type": "function"
    },
    {
      "inputs": [
        {
          "internalType": "address",
          "name": "_mintingContract",
          "type": "address"
        },
        {
          "internalType": "enum LotteryDrawManagerV2.RandomnessMode",
          "name": "_randomnessMode",
          "type": "uint8"
        }
      ],
      "name": "initialize",
      "outputs": [],
      "stateMutability": "nonpayable",
      "type": "function"
    },
    {
      "inputs": [],
      "name": "mintingContract",
      "outputs": [
        {
          "internalType": "contract ILotteryData",
          "name": "",
          "type": "address"
        }
      ],
      "stateMutability": "view",
      "type": "function"
    },
    {
      "inputs": [],
      "name": "owner",
      "outputs": [
        {
          "internalType": "address",
          "name": "",
          "type": "address"
        }
      ],
      "stateMutability": "view",
      "type": "function"
    },
    {
      "inputs": [],
      "name": "pause",
      "outputs": [],
      "stateMutability": "nonpayable",
      "type": "function"
    },
    {
      "inputs": [],
      "name": "paused",
      "outputs": [
        {
          "internalType": "bool",
          "name": "",
          "type": "bool"
        }
      ],
      "stateMutability": "view",
      "type": "function"
    },
    {
      "inputs": [],
      "name": "proxiableUUID",
      "outputs": [
        {
          "internalType": "bytes32",
          "name": "",
          "type": "bytes32"
        }
      ],
      "stateMutability": "view",
      "type": "function"
    },
    {
      "inputs": [],
      "name": "randomnessMode",
      "outputs": [
        {
          "internalType": "enum LotteryDrawManagerV2.RandomnessMode",
          "name": "",
          "type": "uint8"
        }
      ],
      "stateMutability": "view",
      "type": "function"
    },
    {
      "inputs": [],
      "name": "renounceOwnership",
      "outputs": [],
      "stateMutability": "nonpayable",
      "type": "function"
    },
    {
      "inputs": [
        {
          "internalType": "enum LotteryDrawManagerV2.DrawType",
          "name": "_drawType",
          "type": "uint8"
        },
        {
          "internalType": "uint256",
          "name": "_interval",
          "type": "uint256"
        }
      ],
      "name": "setDrawInterval",
      "outputs": [],
      "stateMutability": "nonpayable",
      "type": "function"
    },
    {
      "inputs": [
        {
          "internalType": "enum LotteryDrawManagerV2.DrawType",
          "name": "_drawType",
          "type": "uint8"
        },
        {
          "internalType": "bool",
          "name": "_active",
          "type": "bool"
        }
      ],
      "name": "setDrawTypeActive",
      "outputs": [],
      "stateMutability": "nonpayable",
      "type": "function"
    },
    {
      "inputs": [
        {
          "internalType": "enum LotteryDrawManagerV2.RandomnessMode",
          "name": "_mode",
          "type": "uint8"
        }
      ],
      "name": "setRandomnessMode",
      "outputs": [],
      "stateMutability": "nonpayable",
      "type": "function"
    },
    {
      "inputs": [],
      "name": "totalDrawCount",
      "outputs": [
        {
          "internalType": "uint256",
          "name": "",
          "type": "uint256"
        }
      ],
      "stateMutability": "view",
      "type": "function"
    },
    {
      "inputs": [
        {
          "internalType": "address",
          "name": "newOwner",
          "type": "address"
        }
      ],
      "name": "transferOwnership",
      "outputs": [],
      "stateMutability": "nonpayable",
      "type": "function"
    },
    {
      "inputs": [],
      "name": "unpause",
      "outputs": [],
      "stateMutability": "nonpayable",
      "type": "function"
    },
    {
      "inputs": [
        {
          "internalType": "address",
          "name": "newImplementation",
          "type": "address"
        },
        {
          "internalType": "bytes",
          "name": "data",
          "type": "bytes"
        }
      ],
      "name": "upgradeToAndCall",
      "outputs": [],
      "stateMutability": "payable",
      "type": "function"
    },
    {
      "inputs": [
        {
          "internalType": "address",
          "name": "",
          "type": "address"
        },
        {
          "internalType": "uint256",
          "name": "",
          "type": "uint256"
        }
      ],
      "name": "userWins",
      "outputs": [
        {
          "internalType": "uint256",
          "name": "",
          "type": "uint256"
        }
      ],
      "stateMutability": "view",
      "type": "function"
    },
    {
      "inputs": [],
      "name": "vrfCallbackGasLimit",
      "outputs": [
        {
          "internalType": "uint32",
          "name": "",
          "type": "uint32"
        }
      ],
      "stateMutability": "view",
      "type": "function"
    },
    {
      "inputs": [],
      "name": "vrfCoordinator",
      "outputs": [
        {
          "internalType": "address",
          "name": "",
          "type": "address"
        }
      ],
      "stateMutability": "view",
      "type": "function"
    },
    {
      "inputs": [],
      "name": "vrfKeyHash",
      "outputs": [
        {
          "internalType": "bytes32",
          "name": "",
          "type": "bytes32"
        }
      ],
      "stateMutability": "view",
      "type": "function"
    },
    {
      "inputs": [],
      "name": "vrfRequestConfirmations",
      "outputs": [
        {
          "internalType": "uint16",
          "name": "",
          "type": "uint16"
        }
      ],
      "stateMutability": "view",
      "type": "function"
    },
    {
      "inputs": [
        {
          "internalType": "uint256",
          "name": "",
          "type": "uint256"
        }
      ],
      "name": "vrfRequestToDrawId",
      "outputs": [
        {
          "internalType": "uint256",
          "name": "",
          "type": "uint256"
        }
      ],
      "stateMutability": "view",
      "type": "function"
    },
    {
      "inputs": [],
      "name": "vrfSubscriptionId",
      "outputs": [
        {
          "internalType": "uint64",
          "name": "",
          "type": "uint64"
        }
      ],
      "stateMutability": "view",
      "type": "function"
    },
    {
      "stateMutability": "payable",
      "type": "receive"
    }
  ],
  "bytecode": "0x60a0604052306080523480156200001557600080fd5b506200002062000026565b620000da565b7ff0c57e16840df040f15088dc2f81fe391c3923bec73e23a9662efc9c229c6a00805468010000000000000000900460ff1615620000775760405163f92ee8a960e01b815260040160405180910390fd5b80546001600160401b0390811614620000d75780546001600160401b0319166001600160401b0390811782556040519081527fc7f505b2f371ae2175ee4913f4499e1f2633a7b5936321eed1cdaeb6115181d29060200160405180910390a15b50565b60805161398f620001046000396000818161272001528181612749015261288f015261398f6000f3fe6080604052600436106102555760003560e01c8063943b24b211610139578063d1ed9df7116100b6578063d5a962e41161007a578063d5a962e414610933578063e090938914610965578063eb78c0cb14610992578063ed647d21146109a8578063f2fde38b146109e0578063f9d734d214610a0057600080fd5b8063d1ed9df71461082f578063d2472d1a14610876578063d2f6f67d14610896578063d40d3b05146108b6578063d479ea24146108d657600080fd5b8063b6e56400116100fd578063b6e5640014610689578063ba2497a7146106b6578063ba3d5c41146106d6578063bda44783146106f6578063c8fe63ff1461077057600080fd5b8063943b24b2146105be57806395ccea67146105de578063a3e56fa8146105fe578063ad3cb1cc1461061e578063b1251b151461065c57600080fd5b8063497172be116101d2578063598bc48611610196578063598bc486146104ed5780635abb0803146105225780635c975abb14610542578063715018a6146105675780638456cb591461057c5780638da5cb5b1461059157600080fd5b8063497172be146104535780634f1ef28614610480578063510c8bf41461049357806352d1902d146104b3578063560f73f8146104c857600080fd5b806326b34f631161021957806326b34f63146103a3578063328b62e4146103c35780633b7ed734146103d65780633f4ba83a1461040f578063435bbbd21461042457600080fd5b8063041d443e14610261578063071b197e1461028a5780630cc36c36146102ca57806316d0c1e41461035357806323bc84ef1461038157600080fd5b3661025c57005b600080fd5b34801561026d57600080fd5b5061027760095481565b6040519081526020015b60405180910390f35b34801561029657600080fd5b506102ba6102a5366004612f62565b60076020526000908152604090205460ff1681565b6040519015158152602001610281565b3480156102d657600080fd5b5061033e6102e5366004612f62565b6004602081905260009182526040909120805460018201546002830154600384015494840154600585015460068601546007870154600890970154959760ff9095169693956001600160a01b0390931693919290919089565b60405161028199989796959493929190612fa5565b34801561035f57600080fd5b5060005461037490600160a01b900460ff1681565b604051610281919061300a565b34801561038d57600080fd5b506103a161039c36600461302c565b610a2e565b005b3480156103af57600080fd5b506103a16103be36600461305c565b610e89565b6103a16103d1366004613124565b610f8b565b3480156103e257600080fd5b50600a546103fa90600160401b900463ffffffff1681565b60405163ffffffff9091168152602001610281565b34801561041b57600080fd5b506103a16112fa565b34801561043057600080fd5b5061044461043f36600461302c565b61130c565b6040516102819392919061321a565b34801561045f57600080fd5b5061027761046e366004612f62565b600b6020526000908152604090205481565b6103a161048e3660046132bd565b611470565b34801561049f57600080fd5b506103a16104ae366004613364565b61148f565b3480156104bf57600080fd5b5061027761168f565b3480156104d457600080fd5b506104dd6116ac565b6040516102819493929190613397565b3480156104f957600080fd5b50600a5461050f90600160601b900461ffff1681565b60405161ffff9091168152602001610281565b34801561052e57600080fd5b506103a161053d3660046133cb565b6116f7565b34801561054e57600080fd5b5060008051602061391a8339815191525460ff166102ba565b34801561057357600080fd5b506103a161174d565b34801561058857600080fd5b506103a161175f565b34801561059d57600080fd5b506105a661176f565b6040516001600160a01b039091168152602001610281565b3480156105ca57600080fd5b506103a16105d9366004613416565b61179d565b3480156105ea57600080fd5b506103a16105f936600461344b565b611a1a565b34801561060a57600080fd5b506008546105a6906001600160a01b031681565b34801561062a57600080fd5b5061064f604051806040016040528060058152602001640352e302e360dc1b81525081565b604051610281919061349b565b34801561066857600080fd5b5061067c6106773660046134ce565b611b11565b60405161028191906134eb565b34801561069557600080fd5b506102776106a436600461302c565b60026020526000908152604090205481565b3480156106c257600080fd5b506102776106d136600461344b565b611b8a565b3480156106e257600080fd5b506102ba6106f136600461344b565b611bbb565b34801561070257600080fd5b5061075c61071136600461302c565b60016020819052600091825260409091208054918101546002820154600383015460048401546005850154600686015460079096015460ff9788169795969495939492939192911688565b60405161028198979695949392919061353a565b34801561077c57600080fd5b5060026020527fac33ff75c19e70fe83507db0d683fd3465c996598dc972688b7ace676c89077b547fe90b7bceb6e7df5418fb78d8ee546e97c83a08bbccc01a0644d599ccd2a7c2e0547f679795a0195a1b76cdebb7c51d74e058aee92919b8c3389af86ef24535e8a28c5460036000527f88601476d11616a71c5be67555bd1dff4b1cbf21533d2669b768b61518cfe1c354604080519485526020850193909352918301526060820152608001610281565b34801561083b57600080fd5b5061027761084a366004613580565b60008281526004602090815260408083206001600160a01b0385168452600a0190915290205492915050565b34801561088257600080fd5b506103a16108913660046135a5565b611bfe565b3480156108a257600080fd5b506000546105a6906001600160a01b031681565b3480156108c257600080fd5b506103a16108d13660046135c0565b611c78565b3480156108e257600080fd5b506108f66108f136600461302c565b611d04565b604080519889526020890197909752958701949094526060860192909252608085015260a084015260c0830152151560e082015261010001610281565b34801561093f57600080fd5b5061095361094e366004612f62565b611da3565b604051610281969594939291906135dc565b34801561097157600080fd5b506109856109803660046134ce565b611e60565b6040516102819190613628565b34801561099e57600080fd5b5061027760035481565b3480156109b457600080fd5b50600a546109c8906001600160401b031681565b6040516001600160401b039091168152602001610281565b3480156109ec57600080fd5b506103a16109fb3660046134ce565b611ecc565b348015610a0c57600080fd5b50610a20610a1b3660046134ce565b611f07565b60405161028192919061363b565b610a3661208c565b610a3e6120be565b610a466120f6565b600060016000836003811115610a5e57610a5e612f7b565b6003811115610a6f57610a6f612f7b565b81526020810191909152604001600020600781015490915060ff16610ad25760405162461bcd60e51b8152602060048201526014602482015273447261772074797065206e6f742061637469766560601b60448201526064015b60405180910390fd5b6000816001015411610b265760405162461bcd60e51b815260206004820152601860248201527f447261772074797065206e6f7420636f6e6669677572656400000000000000006044820152606401610ac9565b80600601548160050154610b3a9190613676565b421015610b895760405162461bcd60e51b815260206004820152601960248201527f4472617720696e74657276616c206e6f7420656c6170736564000000000000006044820152606401610ac9565b60008060009054906101000a90046001600160a01b03166001600160a01b031663ad6057296040518163ffffffff1660e01b8152600401602060405180830381865afa158015610bdd573d6000803e3d6000fd5b505050506040513d601f19601f82011682018060405250810190610c019190613689565b905060008060009054906101000a90046001600160a01b03166001600160a01b03166396c82e576040518163ffffffff1660e01b8152600401602060405180830381865afa158015610c57573d6000803e3d6000fd5b505050506040513d601f19601f82011682018060405250810190610c7b9190613689565b905060008211610cbf5760405162461bcd60e51b815260206004820152600f60248201526e4e6f207061727469636970616e747360881b6044820152606401610ac9565b60008111610cfb5760405162461bcd60e51b8152602060048201526009602482015268139bc81dd95a59da1d60ba1b6044820152606401610ac9565b60008360040154118015610d20575082600301548360040154610d1e91906136b8565b155b15610d985760028084015490610d3690826136cc565b6002850155846003811115610d4d57610d4d612f7b565b600285015460048601546040805185815260208101939093528201527f3f9f7b11395eb458ab75abb30739c795e10a96fe065f510b3e393d682323fa689060600160405180910390a2505b60038054906000610da8836136e0565b909155505060038054600081815260046020526040902081815560018082018054939492938993919260ff19909116918490811115610de957610de9612f7b565b02179055504260028201556007810184905560088101839055600485018054906000610e14836136e0565b909155505042600586015560008054600160a01b900460ff166001811115610e3e57610e3e612f7b565b03610e61576000610e4f8484612127565b9050610e5b83826121a4565b50610e6a565b610e6a82612579565b5050505050610e86600160008051602061393a83398151915255565b50565b610e9161208c565b6001600160a01b038516610edd5760405162461bcd60e51b815260206004820152601360248201527224b73b30b634b21031b7b7b93234b730ba37b960691b6044820152606401610ac9565b600880546001600160a01b0319166001600160a01b0387169081179091556009859055600a80546001600160401b0386166bffffffffffffffffffffffff199091168117600160401b63ffffffff8716021761ffff60601b1916600160601b61ffff8616021790915560408051928352602083018790528201527f93cb628e44cb03ee0c6a03a219e56aff08bdc0806b9c9ab4c2af41c2af6beb429060600160405180910390a15050505050565b610f9361208c565b828114610fda5760405162461bcd60e51b8152602060048201526015602482015274082e4e4c2f240d8cadccee8d040dad2e6dac2e8c6d605b1b6044820152606401610ac9565b600060056000876003811115610ff257610ff2612f7b565b600381111561100357611003612f7b565b81526020019081526020016000209050600034111561103657348160000160008282546110309190613676565b90915550505b60005b848110156112a0576000868683818110611055576110556136f9565b905060200201602081019061106a91906134ce565b6001600160a01b0316036110b85760405162461bcd60e51b8152602060048201526015602482015274496e76616c696420746f6b656e206164647265737360581b6044820152606401610ac9565b60008484838181106110cc576110cc6136f9565b90506020020135116111155760405162461bcd60e51b81526020600482015260126024820152710416d6f756e74206d757374206265203e20360741b6044820152606401610ac9565b61116b333086868581811061112c5761112c6136f9565b90506020020135898986818110611145576111456136f9565b905060200201602081019061115a91906134ce565b6001600160a01b0316929190612648565b816002016000878784818110611183576111836136f9565b905060200201602081019061119891906134ce565b6001600160a01b03166001600160a01b031681526020019081526020016000205460000361121e57816001018686838181106111d6576111d66136f9565b90506020020160208101906111eb91906134ce565b81546001810183556000928352602090922090910180546001600160a01b0319166001600160a01b039092169190911790555b838382818110611230576112306136f9565b9050602002013582600201600088888581811061124f5761124f6136f9565b905060200201602081019061126491906134ce565b6001600160a01b03166001600160a01b0316815260200190815260200160002060008282546112939190613676565b9091555050600101611039565b508560038111156112b3576112b3612f7b565b7f01a2fc6ff419b15b76b193a51f2cb23f236056a6214b8e8c5f4342e580323f7a34878787876040516112ea95949392919061370f565b60405180910390a2505050505050565b61130261208c565b61130a6126b5565b565b600060608060006005600086600381111561132957611329612f7b565b600381111561133a5761133a612f7b565b8152602001908152602001600020905080600001549350806001018054806020026020016040519081016040528092919081815260200182805480156113a957602002820191906000526020600020905b81546001600160a01b0316815260019091019060200180831161138b575b5050505050925082516001600160401b038111156113c9576113c961324f565b6040519080825280602002602001820160405280156113f2578160200160208202803683370190505b50915060005b835181101561146757816002016000858381518110611419576114196136f9565b60200260200101516001600160a01b03166001600160a01b0316815260200190815260200160002054838281518110611454576114546136f9565b60209081029190910101526001016113f8565b50509193909250565b611478612715565b611481826127ba565b61148b82826127c2565b5050565b61149761208c565b600082116114db5760405162461bcd60e51b815260206004820152601160248201527005072697a65206d757374206265203e203607c1b6044820152606401610ac9565b6000811161152b5760405162461bcd60e51b815260206004820152601c60248201527f48616c76696e6720696e74657276616c206d757374206265203e2030000000006044820152606401610ac9565b60008084600381111561154057611540612f7b565b0361154f575062093a8061159c565b600184600381111561156357611563612f7b565b03611572575062278d0061159c565b600284600381111561158657611586612f7b565b0361159557506276a70061159c565b506301e133805b6000600160008660038111156115b4576115b4612f7b565b60038111156115c5576115c5612f7b565b8152602081019190915260400160002080549091508590829060ff191660018360038111156115f6576115f6612f7b565b02179055506001808201859055600282018590556003808301859055600060048401554260058401556006830184905560078301805460ff1916909217909155859081111561164757611647612f7b565b60408051868152602081018690529081018490527fa916425e4612e5cdac49543f8ba862c5e4e6a315415360277cc99e0dab341e039060600160405180910390a25050505050565b6000611699612884565b506000805160206138fa83398151915290565b600080546003548291829182916001600160a01b03811691600160a01b90910460ff16906116e960008051602061391a8339815191525460ff1690565b935093509350935090919293565b6116ff61208c565b806001600084600381111561171657611716612f7b565b600381111561172757611727612f7b565b81526020810191909152604001600020600701805460ff19169115159190911790555050565b61175561208c565b61130a60006128cd565b61176761208c565b61130a61293e565b7f9016d09d72d40fdae2fd8ceac6b6234c7706214fd39c1cd1e609a0528c199300546001600160a01b031690565b60006117a7612987565b805490915060ff600160401b82041615906001600160401b03166000811580156117ce5750825b90506000826001600160401b031660011480156117ea5750303b155b9050811580156117f8575080155b156118165760405163f92ee8a960e01b815260040160405180910390fd5b845467ffffffffffffffff19166001178555831561184057845460ff60401b1916600160401b1785555b611849336129b0565b6118516129c1565b6118596129d1565b6118616129d1565b6001600160a01b0387166118b75760405162461bcd60e51b815260206004820152601860248201527f496e76616c6964206d696e74696e6720636f6e747261637400000000000000006044820152606401610ac9565b600080546001600160a01b0389166001600160a01b03198216811783558892916001600160a81b03191617600160a01b8360018111156118f9576118f9612f7b565b021790555060006003818155600a80546dffffffffffff000000000000000019166c03002625a00000000000000000179055600260205262093a807fac33ff75c19e70fe83507db0d683fd3465c996598dc972688b7ace676c89077b5562278d007fe90b7bceb6e7df5418fb78d8ee546e97c83a08bbccc01a0644d599ccd2a7c2e0556276a7007f679795a0195a1b76cdebb7c51d74e058aee92919b8c3389af86ef24535e8a28c5590526301e133807f88601476d11616a71c5be67555bd1dff4b1cbf21533d2669b768b61518cfe1c3558315611a1157845460ff60401b19168555604051600181527fc7f505b2f371ae2175ee4913f4499e1f2633a7b5936321eed1cdaeb6115181d29060200160405180910390a15b50505050505050565b611a2261208c565b611a2a6120be565b6001600160a01b038216611ade576000611a4261176f565b6001600160a01b03168260405160006040518083038185875af1925050503d8060008114611a8c576040519150601f19603f3d011682016040523d82523d6000602084013e611a91565b606091505b5050905080611ad85760405162461bcd60e51b8152602060048201526013602482015272115512081d1c985b9cd9995c8819985a5b1959606a1b6044820152606401610ac9565b50611afa565b611afa611ae961176f565b6001600160a01b03841690836129d9565b61148b600160008051602061393a83398151915255565b60005460405163824e89a160e01b81526001600160a01b038381166004830152606092169063824e89a190602401600060405180830381865afa158015611b5c573d6000803e3d6000fd5b505050506040513d6000823e601f3d908101601f19168201604052611b84919081019061379a565b92915050565b60066020528160005260406000208181548110611ba657600080fd5b90600052602060002001600091509150505481565b60008181526007602052604081205460ff16611bd957506000611b84565b50600090815260046020819052604090912001546001600160a01b0390811691161490565b611c0661208c565b60008054600160a01b80820460ff16928492909160ff60a01b1990911690836001811115611c3657611c36612f7b565b02179055507f3de86e6fc2d8c6a6c3423d8fb3e96e29d6501c06a846087c02b96bd0546a405c8183604051611c6c929190613866565b60405180910390a15050565b611c8061208c565b60008111611cc75760405162461bcd60e51b81526020600482015260146024820152730496e74657276616c206d757374206265203e20360641b6044820152606401610ac9565b8060026000846003811115611cde57611cde612f7b565b6003811115611cef57611cef612f7b565b81526020810191909152604001600020555050565b6000806000806000806000806000600160008b6003811115611d2857611d28612f7b565b6003811115611d3957611d39612f7b565b8152602001908152602001600020905080600101548160020154826003015483600401548460050154856006015486600601548760050154611d7b9190613676565b600790970154959e50939c50919a5098509650945090925060ff169050919395975091939597565b60008181526004602081815260408084206001810154600282015494820154600583015460038401546009850180548751818a0281018a019098528088528a998a998a998a99606099909860ff9091169793966001600160a01b03909116959394909392839190830182828015611e4357602002820191906000526020600020905b81546001600160a01b03168152600190910190602001808311611e25575b505050505090509650965096509650965096505091939550919395565b6001600160a01b038116600090815260066020908152604091829020805483518184028101840190945280845260609392830182828015611ec057602002820191906000526020600020905b815481526020019060010190808311611eac575b50505050509050919050565b611ed461208c565b6001600160a01b038116611efe57604051631e4fbdf760e01b815260006004820152602401610ac9565b610e86816128cd565b6001600160a01b0381166000908152600660209081526040808320805482518185028101850190935280835260609485949093929190830182828015611f6c57602002820191906000526020600020905b815481526020019060010190808311611f58575b5050835193945083925050506001600160401b03811115611f8f57611f8f61324f565b604051908082528060200260200182016040528015611fb8578160200160208202803683370190505b509350806001600160401b03811115611fd357611fd361324f565b604051908082528060200260200182016040528015611ffc578160200160208202803683370190505b50925060005b8181101561208457600083828151811061201e5761201e6136f9565b602002602001015190508086838151811061203b5761203b6136f9565b6020026020010181815250506004600082815260200190815260200160002060050154858381518110612070576120706136f9565b602090810291909101015250600101612002565b505050915091565b3361209561176f565b6001600160a01b03161461130a5760405163118cdaa760e01b8152336004820152602401610ac9565b60008051602061393a8339815191528054600119016120f057604051633ee5aeb560e01b815260040160405180910390fd5b60029055565b60008051602061391a8339815191525460ff161561130a5760405163d93c066560e01b815260040160405180910390fd5b600082424433858461213a600143613881565b6040805160208101979097528601949094526bffffffffffffffffffffffff19606093841b1692850192909252607484015260948301524060b482015260d4016040516020818303038152906040528051906020012060001c61219d91906136b8565b9392505050565b600082815260046020908152604080832060079092529091205460ff16156122065760405162461bcd60e51b8152602060048201526015602482015274111c985dc8185b1c9958591e48195e1958dd5d1959605a1b6044820152606401610ac9565b60018181015460009190829060ff16600381111561222657612226612f7b565b600381111561223757612237612f7b565b8152602081019190915260400160009081206001840154909250600590829060ff16600381111561226a5761226a612f7b565b600381111561227b5761227b612f7b565b8152602001908152602001600020905060008061229c868660080154612a0a565b6004870180546001600160a01b0319166001600160a01b0384169081179091556005880182905560068089018a905560008b8152600760209081526040808320805460ff191660019081179091559483529281529181208054938401815581522001899055600286015485549294509092509081111561231a575082545b6003860181905580156123d9578084600001600082825461233b9190613881565b90915550506040516000906001600160a01b0385169083908381818185875af1925050503d806000811461238b576040519150601f19603f3d011682016040523d82523d6000602084013e612390565b606091505b50509050806123d75760405162461bcd60e51b8152602060048201526013602482015272115512081d1c985b9cd9995c8819985a5b1959606a1b6044820152606401610ac9565b505b60008460010180548060200260200160405190810160405280929190818152602001828054801561243357602002820191906000526020600020905b81546001600160a01b03168152600190910190602001808311612415575b5050505050905060005b815181101561250057600082828151811061245a5761245a6136f9565b6020908102919091018101516001600160a01b038116600090815260028a0190925260409091205490915080156124f6576001600160a01b038216600081815260028a0160205260408120556124b19088836129d9565b60098a0180546001810182556000918252602080832090910180546001600160a01b0319166001600160a01b0386169081179091558252600a8c019052604090208190555b505060010161243d565b5061250f600186016000612f30565b60018701546001600160a01b0385169060ff16600381111561253357612533612f7b565b60408051868152602081018690528c917f48010171485dc93c9ee0516ffe9423ed9b36af118db98ab6c7d46a9c06322bf5910160405180910390a4505050505050505050565b6008546001600160a01b03166125c65760405162461bcd60e51b8152602060048201526012602482015271159491881b9bdd0818dbdb999a59dd5c995960721b6044820152606401610ac9565b60405162461bcd60e51b815260206004820152603960248201527f436861696e6c696e6b20565246206e6f742079657420696e746567726174656460448201527f202d207573652050534555444f5f52414e444f4d206d6f6465000000000000006064820152608401610ac9565b600160008051602061393a83398151915255565b6040516001600160a01b0384811660248301528381166044830152606482018390526126af9186918216906323b872dd906084015b604051602081830303815290604052915060e01b6020820180516001600160e01b038381831617835250505050612c6c565b50505050565b6126bd612cdd565b60008051602061391a833981519152805460ff191681557f5db9ee0a495bf2e6ff9c91a7834c1ba4fdd244a5e8aa4e537bd38aeae4b073aa335b6040516001600160a01b03909116815260200160405180910390a150565b306001600160a01b037f000000000000000000000000000000000000000000000000000000000000000016148061279c57507f00000000000000000000000000000000000000000000000000000000000000006001600160a01b03166127906000805160206138fa833981519152546001600160a01b031690565b6001600160a01b031614155b1561130a5760405163703e46dd60e11b815260040160405180910390fd5b610e8661208c565b816001600160a01b03166352d1902d6040518163ffffffff1660e01b8152600401602060405180830381865afa92505050801561281c575060408051601f3d908101601f1916820190925261281991810190613689565b60015b61284457604051634c9c8ce360e01b81526001600160a01b0383166004820152602401610ac9565b6000805160206138fa833981519152811461287557604051632a87526960e21b815260048101829052602401610ac9565b61287f8383612d0d565b505050565b306001600160a01b037f0000000000000000000000000000000000000000000000000000000000000000161461130a5760405163703e46dd60e11b815260040160405180910390fd5b7f9016d09d72d40fdae2fd8ceac6b6234c7706214fd39c1cd1e609a0528c19930080546001600160a01b031981166001600160a01b03848116918217845560405192169182907f8be0079c531659141344cd1fd0a4f28419497f9722a3daafe3b4186f6b6457e090600090a3505050565b6129466120f6565b60008051602061391a833981519152805460ff191660011781557f62e78cea01bee320cd4e420270b5ea74000d11b0c9f74754ebdbfc544b05a258336126f7565b6000807ff0c57e16840df040f15088dc2f81fe391c3923bec73e23a9662efc9c229c6a00611b84565b6129b8612d63565b610e8681612d88565b6129c9612d63565b61130a612d90565b61130a612d63565b6040516001600160a01b0383811660248301526044820183905261287f91859182169063a9059cbb9060640161267d565b600080828410612a545760405162461bcd60e51b815260206004820152601560248201527424b73b30b634b2103930b73237b690373ab6b132b960591b6044820152606401610ac9565b60008060009054906101000a90046001600160a01b03166001600160a01b031663ad6057296040518163ffffffff1660e01b8152600401602060405180830381865afa158015612aa8573d6000803e3d6000fd5b505050506040513d601f19601f82011682018060405250810190612acc9190613689565b905060008111612b105760405162461bcd60e51b815260206004820152600f60248201526e4e6f207061727469636970616e747360881b6044820152606401610ac9565b600080612b1e600184613881565b90505b808211612c2a5760006002612b368484613881565b612b4091906136cc565b612b4a9084613676565b600080546040516335c1d34960e01b81526004810184905292935090918291829182916001600160a01b0316906335c1d3499060240160a060405180830381865afa158015612b9d573d6000803e3d6000fd5b505050506040513d601f19601f82011682018060405250810190612bc19190613894565b509350935093509350818c1015612bf65784600003612be4575050505050612c2a565b612bef600186613881565b9550612c20565b808c10612c0f57612c08856001613676565b9650612c20565b509197509550612c65945050505050565b5050505050612b21565b60405162461bcd60e51b815260206004820152601060248201526f15da5b9b995c881b9bdd08199bdd5b9960821b6044820152606401610ac9565b9250929050565b600080602060008451602086016000885af180612c8f576040513d6000823e3d81fd5b50506000513d91508115612ca7578060011415612cb4565b6001600160a01b0384163b155b156126af57604051635274afe760e01b81526001600160a01b0385166004820152602401610ac9565b60008051602061391a8339815191525460ff1661130a57604051638dfc202b60e01b815260040160405180910390fd5b612d1682612d98565b6040516001600160a01b038316907fbc7cd75a20ee27fd9adebab32041f755214dbc6bffa90cc0225b39da2e5c2d3b90600090a2805115612d5b5761287f8282612dfd565b61148b612e73565b612d6b612e92565b61130a57604051631afcd79f60e31b815260040160405180910390fd5b611ed4612d63565b612634612d63565b806001600160a01b03163b600003612dce57604051634c9c8ce360e01b81526001600160a01b0382166004820152602401610ac9565b6000805160206138fa83398151915280546001600160a01b0319166001600160a01b0392909216919091179055565b6060600080846001600160a01b031684604051612e1a91906138dd565b600060405180830381855af49150503d8060008114612e55576040519150601f19603f3d011682016040523d82523d6000602084013e612e5a565b606091505b5091509150612e6a858383612eac565b95945050505050565b341561130a5760405163b398979f60e01b815260040160405180910390fd5b6000612e9c612987565b54600160401b900460ff16919050565b606082612ec157612ebc82612f08565b61219d565b8151158015612ed857506001600160a01b0384163b155b15612f0157604051639996b31560e01b81526001600160a01b0385166004820152602401610ac9565b5092915050565b805115612f1757805160208201fd5b60405163d6bda27560e01b815260040160405180910390fd5b5080546000825590600052602060002090810190610e8691905b80821115612f5e5760008155600101612f4a565b5090565b600060208284031215612f7457600080fd5b5035919050565b634e487b7160e01b600052602160045260246000fd5b60048110612fa157612fa1612f7b565b9052565b8981526101208101612fba602083018b612f91565b604082019890985260608101969096526001600160a01b0394909416608086015260a085019290925260c084015260e08301526101009091015292915050565b60028110612fa157612fa1612f7b565b60208101611b848284612ffa565b80356004811061302757600080fd5b919050565b60006020828403121561303e57600080fd5b61219d82613018565b6001600160a01b0381168114610e8657600080fd5b600080600080600060a0868803121561307457600080fd5b853561307f81613047565b94506020860135935060408601356001600160401b03811681146130a257600080fd5b9250606086013563ffffffff811681146130bb57600080fd5b9150608086013561ffff811681146130d257600080fd5b809150509295509295909350565b60008083601f8401126130f257600080fd5b5081356001600160401b0381111561310957600080fd5b6020830191508360208260051b8501011115612c6557600080fd5b60008060008060006060868803121561313c57600080fd5b61314586613018565b945060208601356001600160401b038082111561316157600080fd5b61316d89838a016130e0565b9096509450604088013591508082111561318657600080fd5b50613193888289016130e0565b969995985093965092949392505050565b60008151808452602080850194506020840160005b838110156131de5781516001600160a01b0316875295820195908201906001016131b9565b509495945050505050565b60008151808452602080850194506020840160005b838110156131de578151875295820195908201906001016131fe565b83815260606020820152600061323360608301856131a4565b828103604084015261324581856131e9565b9695505050505050565b634e487b7160e01b600052604160045260246000fd5b604080519081016001600160401b03811182821017156132875761328761324f565b60405290565b604051601f8201601f191681016001600160401b03811182821017156132b5576132b561324f565b604052919050565b600080604083850312156132d057600080fd5b82356132db81613047565b91506020838101356001600160401b03808211156132f857600080fd5b818601915086601f83011261330c57600080fd5b81358181111561331e5761331e61324f565b613330601f8201601f1916850161328d565b9150808252878482850101111561334657600080fd5b80848401858401376000848284010152508093505050509250929050565b60008060006060848603121561337957600080fd5b61338284613018565b95602085013595506040909401359392505050565b6001600160a01b0385168152608081016133b46020830186612ffa565b836040830152821515606083015295945050505050565b600080604083850312156133de57600080fd5b6133e783613018565b9150602083013580151581146133fc57600080fd5b809150509250929050565b80356002811061302757600080fd5b6000806040838503121561342957600080fd5b823561343481613047565b915061344260208401613407565b90509250929050565b6000806040838503121561345e57600080fd5b823561346981613047565b946020939093013593505050565b60005b8381101561349257818101518382015260200161347a565b50506000910152565b60208152600082518060208401526134ba816040850160208701613477565b601f01601f19169190910160400192915050565b6000602082840312156134e057600080fd5b813561219d81613047565b602080825282518282018190526000919060409081850190868401855b8281101561352d57815180518552860151868501529284019290850190600101613508565b5091979650505050505050565b6101008101613549828b612f91565b602082019890985260408101969096526060860194909452608085019290925260a084015260c0830152151560e090910152919050565b6000806040838503121561359357600080fd5b8235915060208301356133fc81613047565b6000602082840312156135b757600080fd5b61219d82613407565b600080604083850312156135d357600080fd5b61346983613018565b6135e68188612f91565b85602082015260018060a01b038516604082015283606082015282608082015260c060a0820152600061361c60c08301846131a4565b98975050505050505050565b60208152600061219d60208301846131e9565b60408152600061364e60408301856131e9565b8281036020840152612e6a81856131e9565b634e487b7160e01b600052601160045260246000fd5b80820180821115611b8457611b84613660565b60006020828403121561369b57600080fd5b5051919050565b634e487b7160e01b600052601260045260246000fd5b6000826136c7576136c76136a2565b500690565b6000826136db576136db6136a2565b500490565b6000600182016136f2576136f2613660565b5060010190565b634e487b7160e01b600052603260045260246000fd5b85815260606020808301829052908201859052600090869060808401835b8881101561375b57833561374081613047565b6001600160a01b03168252928201929082019060010161372d565b5084810360408601528581526001600160fb1b0386111561377b57600080fd5b8560051b92508287602083013790910160200198975050505050505050565b600060208083850312156137ad57600080fd5b82516001600160401b03808211156137c457600080fd5b818501915085601f8301126137d857600080fd5b8151818111156137ea576137ea61324f565b6137f8848260051b0161328d565b818152848101925060069190911b83018401908782111561381857600080fd5b928401925b8184101561385b57604084890312156138365760008081fd5b61383e613265565b84518152858501518682015283526040909301929184019161381d565b979650505050505050565b604081016138748285612ffa565b61219d6020830184612ffa565b81810381811115611b8457611b84613660565b600080600080600060a086880312156138ac57600080fd5b85516138b781613047565b602087015160408801516060890151608090990151929a91995097965090945092505050565b600082516138ef818460208701613477565b919091019291505056fe360894a13ba1a3210667c828492db98dca3e2076cc3735a920a3ca505d382bbccd5ed15c6e187e77e9aee88184c21f4f2182ab5827cb3b7e07fbedcd63f033009b779b17422d0df92223018b32b4d1fa46e071723d6817e2486d003becc55f00a264697066735822122024fc928eb4d6557080c85d8c55c04a7cf4a0163c8459b9fbc4c10671a935a32f64736f6c63430008160033",
  "linkReferences": {},
  "deployedLinkReferences": {}
}