{
  "_format": "hh-sol-artifact-1",
  "contractName": "MaliciousReceiver",
  "sourceName": "contracts/test/MaliciousReceiver.sol",
  "abi": [
    {
      "inputs": [
        {
          "internalType": "uint256",
          "name": "tier",
          "type": "uint256"
        }
      ],
      "name": "attackMint",
      "outputs": [],
      "stateMutability": "payable",
      "type": "function"
    },
    {
      "inputs": [],
      "name": "attackWithdraw",
      "outputs": [],
      "stateMutability": "nonpayable",
      "type": "function"
    },
    {
      "inputs": [],
      "name": "attacking",
      "outputs": [
        {
          "internalType": "bool",
          "name": "",
          "type": "bool"
        }
      ],
      "stateMutability": "view",
      "type": "function"
    },
    {
      "inputs": [
        {
          "internalType": "address",
          "name": "_target",
          "type": "address"
        }
      ],
      "name": "setTarget",
      "outputs": [],
      "stateMutability": "nonpayable",
      "type": "function"
    },
    {
      "inputs": [],
      "name": "target",
      "outputs": [
        {
          "internalType": "address",
          "name": "",
          "type": "address"
        }
      ],
      "stateMutability": "view",
      "type": "function"
    },
    {
      "stateMutability": "payable",
      "type": "receive"
    }
  ],
  "bytecode": "0x608060405234801561001057600080fd5b50610473806100206000396000f3fe60806040526004361061004e5760003560e01c80633c0bbcd91461010e5780637340889514610144578063776d1a0114610159578063851da6e014610196578063d4b83992146101a957600080fd5b3661010957600054600160a01b900460ff16801561007757506000546001600160a01b03163115155b15610107576000805460408051600481526024810182526020810180516001600160e01b0316633ccfd60b60e01b17905290516001600160a01b03909216916100c091906103c5565b6000604051808303816000865af19150503d80600081146100fd576040519150601f19603f3d011682016040523d82523d6000602084013e610102565b606091505b505050505b005b600080fd5b34801561011a57600080fd5b5060005461012f90600160a01b900460ff1681565b60405190151581526020015b60405180910390f35b34801561015057600080fd5b506101076101e1565b34801561016557600080fd5b506101076101743660046103f4565b600080546001600160a01b0319166001600160a01b0392909216919091179055565b6101076101a4366004610424565b6102cd565b3480156101b557600080fd5b506000546101c9906001600160a01b031681565b6040516001600160a01b03909116815260200161013b565b6000805460ff60a01b198116600160a01b17825560408051600481526024810182526020810180516001600160e01b0316633ccfd60b60e01b17905290516001600160a01b039092169161023591906103c5565b6000604051808303816000865af19150503d8060008114610272576040519150601f19603f3d011682016040523d82523d6000602084013e610277565b606091505b50506000805460ff60a01b191690559050806102ca5760405162461bcd60e51b815260206004820152600d60248201526c105d1d1858dac819985a5b1959609a1b60448201526064015b60405180910390fd5b50565b60008054600160a01b60ff60a01b198216178255604051602481018490526001600160a01b0390911690349060440160408051601f198184030181529181526020820180516001600160e01b0316630717a9c560e21b1790525161033191906103c5565b60006040518083038185875af1925050503d806000811461036e576040519150601f19603f3d011682016040523d82523d6000602084013e610373565b606091505b50506000805460ff60a01b191690559050806103c15760405162461bcd60e51b815260206004820152600d60248201526c105d1d1858dac819985a5b1959609a1b60448201526064016102c1565b5050565b6000825160005b818110156103e657602081860181015185830152016103cc565b506000920191825250919050565b60006020828403121561040657600080fd5b81356001600160a01b038116811461041d57600080fd5b9392505050565b60006020828403121561043657600080fd5b503591905056fea264697066735822122001fbe7dba37f879b569da84eb255fdacbbdec30adb5c4c278baf840d79f243ee64736f6c63430008160033",
  "linkReferences": {},
  "deployedLinkReferences": {}
}