{
  "_format": "hh-sol-artifact-1",
  "contractName": "NFTLotteryMintingTierV11",
  "sourceName": "contracts/LottoTicketMinter.sol",
  "abi": [
    {
      "inputs": [
        {
          "internalType": "address",
          "name": "target",
          "type": "address"
        }
      ],
      "name": "AddressEmptyCode",
      "type": "error"
    },
    {
      "inputs": [
        {
          "internalType": "address",
          "name": "implementation",
          "type": "address"
        }
      ],
      "name": "ERC1967InvalidImplementation",
      "type": "error"
    },
    {
      "inputs": [],
      "name": "ERC1967NonPayable",
      "type": "error"
    },
    {
      "inputs": [
        {
          "internalType": "address",
          "name": "sender",
          "type": "address"
        },
        {
          "internalType": "uint256",
          "name": "tokenId",
          "type": "uint256"
        },
        {
          "internalType": "address",
          "name": "owner",
          "type": "address"
        }
      ],
      "name": "ERC721IncorrectOwner",
      "type": "error"
    },
    {
      "inputs": [
        {
          "internalType": "address",
          "name": "operator",
          "type": "address"
        },
        {
          "internalType": "uint256",
          "name": "tokenId",
          "type": "uint256"
        }
      ],
      "name": "ERC721InsufficientApproval",
      "type": "error"
    },
    {
      "inputs": [
        {
          "internalType": "address",
          "name": "approver",
          "type": "address"
        }
      ],
      "name": "ERC721InvalidApprover",
      "type": "error"
    },
    {
      "inputs": [
        {
          "internalType": "address",
          "name": "operator",
          "type": "address"
        }
      ],
      "name": "ERC721InvalidOperator",
      "type": "error"
    },
    {
      "inputs": [
        {
          "internalType": "address",
          "name": "owner",
          "type": "address"
        }
      ],
      "name": "ERC721InvalidOwner",
      "type": "error"
    },
    {
      "inputs": [
        {
          "internalType": "address",
          "name": "receiver",
          "type": "address"
        }
      ],
      "name": "ERC721InvalidReceiver",
      "type": "error"
    },
    {
      "inputs": [
        {
          "internalType": "address",
          "name": "sender",
          "type": "address"
        }
      ],
      "name": "ERC721InvalidSender",
      "type": "error"
    },
    {
      "inputs": [
        {
          "internalType": "uint256",
          "name": "tokenId",
          "type": "uint256"
        }
      ],
      "name": "ERC721NonexistentToken",
      "type": "error"
    },
    {
      "inputs": [],
      "name": "FailedCall",
      "type": "error"
    },
    {
      "inputs": [],
      "name": "InvalidInitialization",
      "type": "error"
    },
    {
      "inputs": [],
      "name": "NotInitializing",
      "type": "error"
    },
    {
      "inputs": [
        {
          "internalType": "address",
          "name": "owner",
          "type": "address"
        }
      ],
      "name": "OwnableInvalidOwner",
      "type": "error"
    },
    {
      "inputs": [
        {
          "internalType": "address",
          "name": "account",
          "type": "address"
        }
      ],
      "name": "OwnableUnauthorizedAccount",
      "type": "error"
    },
    {
      "inputs": [],
      "name": "ReentrancyGuardReentrantCall",
      "type": "error"
    },
    {
      "inputs": [
        {
          "internalType": "address",
          "name": "token",
          "type": "address"
        }
      ],
      "name": "SafeERC20FailedOperation",
      "type": "error"
    },
    {
      "inputs": [],
      "name": "UUPSUnauthorizedCallContext",
      "type": "error"
    },
    {
      "inputs": [
        {
          "internalType": "bytes32",
          "name": "slot",
          "type": "bytes32"
        }
      ],
      "name": "UUPSUnsupportedProxiableUUID",
      "type": "error"
    },
    {
      "anonymous": false,
      "inputs": [
        {
          "indexed": false,
          "internalType": "address",
          "name": "token",
          "type": "address"
        }
      ],
      "name": "AnotherPaymentTokenSet",
      "type": "event"
    },
    {
      "anonymous": false,
      "inputs": [
        {
          "indexed": true,
          "internalType": "address",
          "name": "owner",
          "type": "address"
        },
        {
          "indexed": true,
          "internalType": "address",
          "name": "approved",
          "type": "address"
        },
        {
          "indexed": true,
          "internalType": "uint256",
          "name": "tokenId",
          "type": "uint256"
        }
      ],
      "name": "Approval",
      "type": "event"
    },
    {
      "anonymous": false,
      "inputs": [
        {
          "indexed": true,
          "internalType": "address",
          "name": "owner",
          "type": "address"
        },
        {
          "indexed": true,
          "internalType": "address",
          "name": "operator",
          "type": "address"
        },
        {
          "indexed": false,
          "internalType": "bool",
          "name": "approved",
          "type": "bool"
        }
      ],
      "name": "ApprovalForAll",
      "type": "event"
    },
    {
      "anonymous": false,
      "inputs": [
        {
          "indexed": false,
          "internalType": "uint64",
          "name": "version",
          "type": "uint64"
        }
      ],
      "name": "Initialized",
      "type": "event"
    },
    {
      "anonymous": false,
      "inputs": [],
      "name": "LotteryActivated",
      "type": "event"
    },
    {
      "anonymous": false,
      "inputs": [],
      "name": "LotteryDeactivated",
      "type": "event"
    },
    {
      "anonymous": false,
      "inputs": [
        {
          "indexed": true,
          "internalType": "address",
          "name": "winner",
          "type": "address"
        },
        {
          "indexed": false,
          "internalType": "uint256",
          "name": "lottoID",
          "type": "uint256"
        },
        {
          "indexed": false,
          "internalType": "uint256",
          "name": "winningNumber",
          "type": "uint256"
        },
        {
          "indexed": false,
          "internalType": "uint256",
          "name": "prize",
          "type": "uint256"
        }
      ],
      "name": "LotteryDrawn",
      "type": "event"
    },
    {
      "anonymous": false,
      "inputs": [
        {
          "indexed": true,
          "internalType": "address",
          "name": "previousOwner",
          "type": "address"
        },
        {
          "indexed": true,
          "internalType": "address",
          "name": "newOwner",
          "type": "address"
        }
      ],
      "name": "OwnershipTransferred",
      "type": "event"
    },
    {
      "anonymous": false,
      "inputs": [
        {
          "indexed": false,
          "internalType": "address",
          "name": "token",
          "type": "address"
        }
      ],
      "name": "PaymentTokenSet",
      "type": "event"
    },
    {
      "anonymous": false,
      "inputs": [
        {
          "indexed": false,
          "internalType": "address",
          "name": "token",
          "type": "address"
        }
      ],
      "name": "RewardPointsTokenSet",
      "type": "event"
    },
    {
      "anonymous": false,
      "inputs": [
        {
          "indexed": false,
          "internalType": "uint256",
          "name": "tier",
          "type": "uint256"
        },
        {
          "indexed": false,
          "internalType": "uint256",
          "name": "price",
          "type": "uint256"
        }
      ],
      "name": "TierPriceInRewardPointsSet",
      "type": "event"
    },
    {
      "anonymous": false,
      "inputs": [
        {
          "indexed": false,
          "internalType": "uint256",
          "name": "tier",
          "type": "uint256"
        },
        {
          "indexed": false,
          "internalType": "uint256",
          "name": "priceInBaseToken",
          "type": "uint256"
        },
        {
          "indexed": false,
          "internalType": "uint256",
          "name": "priceInPaymentToken",
          "type": "uint256"
        },
        {
          "indexed": false,
          "internalType": "uint256",
          "name": "priceInAnotherPaymentToken",
          "type": "uint256"
        }
      ],
      "name": "TierPriceSet",
      "type": "event"
    },
    {
      "anonymous": false,
      "inputs": [
        {
          "indexed": false,
          "internalType": "uint256",
          "name": "tier",
          "type": "uint256"
        },
        {
          "indexed": false,
          "internalType": "uint256",
          "name": "weight",
          "type": "uint256"
        }
      ],
      "name": "TierWeightSet",
      "type": "event"
    },
    {
      "anonymous": false,
      "inputs": [
        {
          "indexed": true,
          "internalType": "address",
          "name": "owner",
          "type": "address"
        },
        {
          "indexed": false,
          "internalType": "uint256",
          "name": "tokenId",
          "type": "uint256"
        },
        {
          "indexed": false,
          "internalType": "uint256",
          "name": "tier",
          "type": "uint256"
        },
        {
          "indexed": false,
          "internalType": "uint256",
          "name": "lottoID",
          "type": "uint256"
        }
      ],
      "name": "TokenMinted",
      "type": "event"
    },
    {
      "anonymous": false,
      "inputs": [
        {
          "indexed": true,
          "internalType": "address",
          "name": "from",
          "type": "address"
        },
        {
          "indexed": true,
          "internalType": "address",
          "name": "to",
          "type": "address"
        },
        {
          "indexed": true,
          "internalType": "uint256",
          "name": "tokenId",
          "type": "uint256"
        }
      ],
      "name": "Transfer",
      "type": "event"
    },
    {
      "anonymous": false,
      "inputs": [
        {
          "indexed": true,
          "internalType": "address",
          "name": "implementation",
          "type": "address"
        }
      ],
      "name": "Upgraded",
      "type": "event"
    },
    {
      "anonymous": false,
      "inputs": [
        {
          "indexed": true,
          "internalType": "address",
          "name": "owner",
          "type": "address"
        },
        {
          "indexed": false,
          "internalType": "uint256",
          "name": "amount",
          "type": "uint256"
        }
      ],
      "name": "Withdrawn",
      "type": "event"
    },
    {
      "inputs": [],
      "name": "UPGRADE_INTERFACE_VERSION",
      "outputs": [
        {
          "internalType": "string",
          "name": "",
          "type": "string"
        }
      ],
      "stateMutability": "view",
      "type": "function"
    },
    {
      "inputs": [],
      "name": "activateLottery",
      "outputs": [],
      "stateMutability": "nonpayable",
      "type": "function"
    },
    {
      "inputs": [
        {
          "internalType": "address",
          "name": "",
          "type": "address"
        },
        {
          "internalType": "uint256",
          "name": "",
          "type": "uint256"
        }
      ],
      "name": "addressToLottoIDs",
      "outputs": [
        {
          "internalType": "uint256",
          "name": "lottoID",
          "type": "uint256"
        },
        {
          "internalType": "uint256",
          "name": "weight",
          "type": "uint256"
        }
      ],
      "stateMutability": "view",
      "type": "function"
    },
    {
      "inputs": [],
      "name": "anotherPaymentToken",
      "outputs": [
        {
          "internalType": "address",
          "name": "",
          "type": "address"
        }
      ],
      "stateMutability": "view",
      "type": "function"
    },
    {
      "inputs": [
        {
          "internalType": "address",
          "name": "to",
          "type": "address"
        },
        {
          "internalType": "uint256",
          "name": "tokenId",
          "type": "uint256"
        }
      ],
      "name": "approve",
      "outputs": [],
      "stateMutability": "nonpayable",
      "type": "function"
    },
    {
      "inputs": [
        {
          "internalType": "address",
          "name": "owner",
          "type": "address"
        }
      ],
      "name": "balanceOf",
      "outputs": [
        {
          "internalType": "uint256",
          "name": "",
          "type": "uint256"
        }
      ],
      "stateMutability": "view",
      "type": "function"
    },
    {
      "inputs": [
        {
          "internalType": "uint256",
          "name": "tokenId",
          "type": "uint256"
        }
      ],
      "name": "burn",
      "outputs": [],
      "stateMutability": "nonpayable",
      "type": "function"
    },
    {
      "inputs": [],
      "name": "deactivateLottery",
      "outputs": [],
      "stateMutability": "nonpayable",
      "type": "function"
    },
    {
      "inputs": [],
      "name": "drawLottery",
      "outputs": [
        {
          "internalType": "address",
          "name": "winner",
          "type": "address"
        }
      ],
      "stateMutability": "nonpayable",
      "type": "function"
    },
    {
      "inputs": [
        {
          "internalType": "uint256",
          "name": "tokenId",
          "type": "uint256"
        }
      ],
      "name": "getApproved",
      "outputs": [
        {
          "internalType": "address",
          "name": "",
          "type": "address"
        }
      ],
      "stateMutability": "view",
      "type": "function"
    },
    {
      "inputs": [
        {
          "internalType": "address",
          "name": "user",
          "type": "address"
        }
      ],
      "name": "getLottoIDsByAddress",
      "outputs": [
        {
          "components": [
            {
              "internalType": "uint256",
              "name": "lottoID",
              "type": "uint256"
            },
            {
              "internalType": "uint256",
              "name": "weight",
              "type": "uint256"
            }
          ],
          "internalType": "struct NFTLotteryMintingTierV11.LottoEntry[]",
          "name": "",
          "type": "tuple[]"
        }
      ],
      "stateMutability": "view",
      "type": "function"
    },
    {
      "inputs": [],
      "name": "getParticipantCount",
      "outputs": [
        {
          "internalType": "uint256",
          "name": "",
          "type": "uint256"
        }
      ],
      "stateMutability": "view",
      "type": "function"
    },
    {
      "inputs": [],
      "name": "initialize",
      "outputs": [],
      "stateMutability": "nonpayable",
      "type": "function"
    },
    {
      "inputs": [
        {
          "internalType": "address",
          "name": "owner",
          "type": "address"
        },
        {
          "internalType": "address",
          "name": "operator",
          "type": "address"
        }
      ],
      "name": "isApprovedForAll",
      "outputs": [
        {
          "internalType": "bool",
          "name": "",
          "type": "bool"
        }
      ],
      "stateMutability": "view",
      "type": "function"
    },
    {
      "inputs": [],
      "name": "lastWinner",
      "outputs": [
        {
          "internalType": "address",
          "name": "",
          "type": "address"
        }
      ],
      "stateMutability": "view",
      "type": "function"
    },
    {
      "inputs": [],
      "name": "lastWinningLottoID",
      "outputs": [
        {
          "internalType": "uint256",
          "name": "",
          "type": "uint256"
        }
      ],
      "stateMutability": "view",
      "type": "function"
    },
    {
      "inputs": [],
      "name": "lastWinningNumber",
      "outputs": [
        {
          "internalType": "uint256",
          "name": "",
          "type": "uint256"
        }
      ],
      "stateMutability": "view",
      "type": "function"
    },
    {
      "inputs": [],
      "name": "lotteryActive",
      "outputs": [
        {
          "internalType": "bool",
          "name": "",
          "type": "bool"
        }
      ],
      "stateMutability": "view",
      "type": "function"
    },
    {
      "inputs": [
        {
          "internalType": "uint256",
          "name": "",
          "type": "uint256"
        }
      ],
      "name": "lottoIDIndexer",
      "outputs": [
        {
          "internalType": "address",
          "name": "",
          "type": "address"
        }
      ],
      "stateMutability": "view",
      "type": "function"
    },
    {
      "inputs": [
        {
          "internalType": "uint256",
          "name": "tier",
          "type": "uint256"
        }
      ],
      "name": "mintWithAnotherPaymentToken",
      "outputs": [],
      "stateMutability": "nonpayable",
      "type": "function"
    },
    {
      "inputs": [
        {
          "internalType": "uint256",
          "name": "tier",
          "type": "uint256"
        }
      ],
      "name": "mintWithBaseToken",
      "outputs": [],
      "stateMutability": "payable",
      "type": "function"
    },
    {
      "inputs": [
        {
          "internalType": "uint256",
          "name": "tier",
          "type": "uint256"
        }
      ],
      "name": "mintWithPaymentToken",
      "outputs": [],
      "stateMutability": "nonpayable",
      "type": "function"
    },
    {
      "inputs": [
        {
          "internalType": "uint256",
          "name": "tier",
          "type": "uint256"
        }
      ],
      "name": "mintWithRewardPoints",
      "outputs": [],
      "stateMutability": "nonpayable",
      "type": "function"
    },
    {
      "inputs": [],
      "name": "name",
      "outputs": [
        {
          "internalType": "string",
          "name": "",
          "type": "string"
        }
      ],
      "stateMutability": "view",
      "type": "function"
    },
    {
      "inputs": [],
      "name": "owner",
      "outputs": [
        {
          "internalType": "address",
          "name": "",
          "type": "address"
        }
      ],
      "stateMutability": "view",
      "type": "function"
    },
    {
      "inputs": [
        {
          "internalType": "uint256",
          "name": "tokenId",
          "type": "uint256"
        }
      ],
      "name": "ownerOf",
      "outputs": [
        {
          "internalType": "address",
          "name": "",
          "type": "address"
        }
      ],
      "stateMutability": "view",
      "type": "function"
    },
    {
      "inputs": [
        {
          "internalType": "uint256",
          "name": "",
          "type": "uint256"
        }
      ],
      "name": "participants",
      "outputs": [
        {
          "internalType": "address",
          "name": "owner",
          "type": "address"
        },
        {
          "internalType": "uint256",
          "name": "lottoID",
          "type": "uint256"
        },
        {
          "internalType": "uint256",
          "name": "weightStart",
          "type": "uint256"
        },
        {
          "internalType": "uint256",
          "name": "weightEnd",
          "type": "uint256"
        },
        {
          "internalType": "uint256",
          "name": "tier",
          "type": "uint256"
        }
      ],
      "stateMutability": "view",
      "type": "function"
    },
    {
      "inputs": [],
      "name": "paymentToken",
      "outputs": [
        {
          "internalType": "address",
          "name": "",
          "type": "address"
        }
      ],
      "stateMutability": "view",
      "type": "function"
    },
    {
      "inputs": [],
      "name": "prizePool",
      "outputs": [
        {
          "internalType": "uint256",
          "name": "",
          "type": "uint256"
        }
      ],
      "stateMutability": "view",
      "type": "function"
    },
    {
      "inputs": [],
      "name": "proxiableUUID",
      "outputs": [
        {
          "internalType": "bytes32",
          "name": "",
          "type": "bytes32"
        }
      ],
      "stateMutability": "view",
      "type": "function"
    },
    {
      "inputs": [],
      "name": "renounceOwnership",
      "outputs": [],
      "stateMutability": "nonpayable",
      "type": "function"
    },
    {
      "inputs": [],
      "name": "rewardPointsToken",
      "outputs": [
        {
          "internalType": "address",
          "name": "",
          "type": "address"
        }
      ],
      "stateMutability": "view",
      "type": "function"
    },
    {
      "inputs": [
        {
          "internalType": "address",
          "name": "from",
          "type": "address"
        },
        {
          "internalType": "address",
          "name": "to",
          "type": "address"
        },
        {
          "internalType": "uint256",
          "name": "tokenId",
          "type": "uint256"
        }
      ],
      "name": "safeTransferFrom",
      "outputs": [],
      "stateMutability": "nonpayable",
      "type": "function"
    },
    {
      "inputs": [
        {
          "internalType": "address",
          "name": "from",
          "type": "address"
        },
        {
          "internalType": "address",
          "name": "to",
          "type": "address"
        },
        {
          "internalType": "uint256",
          "name": "tokenId",
          "type": "uint256"
        },
        {
          "internalType": "bytes",
          "name": "data",
          "type": "bytes"
        }
      ],
      "name": "safeTransferFrom",
      "outputs": [],
      "stateMutability": "nonpayable",
      "type": "function"
    },
    {
      "inputs": [
        {
          "internalType": "address",
          "name": "token",
          "type": "address"
        }
      ],
      "name": "setAnotherPaymentToken",
      "outputs": [],
      "stateMutability": "nonpayable",
      "type": "function"
    },
    {
      "inputs": [
        {
          "internalType": "address",
          "name": "operator",
          "type": "address"
        },
        {
          "internalType": "bool",
          "name": "approved",
          "type": "bool"
        }
      ],
      "name": "setApprovalForAll",
      "outputs": [],
      "stateMutability": "nonpayable",
      "type": "function"
    },
    {
      "inputs": [
        {
          "internalType": "address",
          "name": "token",
          "type": "address"
        }
      ],
      "name": "setPaymentToken",
      "outputs": [],
      "stateMutability": "nonpayable",
      "type": "function"
    },
    {
      "inputs": [
        {
          "internalType": "address",
          "name": "token",
          "type": "address"
        }
      ],
      "name": "setRewardPointsToken",
      "outputs": [],
      "stateMutability": "nonpayable",
      "type": "function"
    },
    {
      "inputs": [
        {
          "internalType": "uint256",
          "name": "tier",
          "type": "uint256"
        },
        {
          "internalType": "uint256",
          "name": "priceInBaseToken",
          "type": "uint256"
        },
        {
          "internalType": "uint256",
          "name": "priceInPaymentToken",
          "type": "uint256"
        },
        {
          "internalType": "uint256",
          "name": "priceInAnotherPaymentToken",
          "type": "uint256"
        }
      ],
      "name": "setTierPrice",
      "outputs": [],
      "stateMutability": "nonpayable",
      "type": "function"
    },
    {
      "inputs": [
        {
          "internalType": "uint256",
          "name": "tier",
          "type": "uint256"
        },
        {
          "internalType": "uint256",
          "name": "priceInRewardPoints",
          "type": "uint256"
        }
      ],
      "name": "setTierPriceInRewardPoints",
      "outputs": [],
      "stateMutability": "nonpayable",
      "type": "function"
    },
    {
      "inputs": [
        {
          "internalType": "uint256",
          "name": "tier",
          "type": "uint256"
        },
        {
          "internalType": "uint256",
          "name": "weight",
          "type": "uint256"
        }
      ],
      "name": "setTierWeight",
      "outputs": [],
      "stateMutability": "nonpayable",
      "type": "function"
    },
    {
      "inputs": [
        {
          "internalType": "bytes4",
          "name": "interfaceId",
          "type": "bytes4"
        }
      ],
      "name": "supportsInterface",
      "outputs": [
        {
          "internalType": "bool",
          "name": "",
          "type": "bool"
        }
      ],
      "stateMutability": "view",
      "type": "function"
    },
    {
      "inputs": [],
      "name": "symbol",
      "outputs": [
        {
          "internalType": "string",
          "name": "",
          "type": "string"
        }
      ],
      "stateMutability": "view",
      "type": "function"
    },
    {
      "inputs": [
        {
          "internalType": "uint256",
          "name": "tier",
          "type": "uint256"
        }
      ],
      "name": "tierWeight",
      "outputs": [
        {
          "internalType": "uint256",
          "name": "",
          "type": "uint256"
        }
      ],
      "stateMutability": "view",
      "type": "function"
    },
    {
      "inputs": [
        {
          "internalType": "uint256",
          "name": "",
          "type": "uint256"
        }
      ],
      "name": "tiers",
      "outputs": [
        {
          "internalType": "uint256",
          "name": "priceInBaseToken",
          "type": "uint256"
        },
        {
          "internalType": "uint256",
          "name": "priceInPaymentToken",
          "type": "uint256"
        },
        {
          "internalType": "uint256",
          "name": "priceInAnotherPaymentToken",
          "type": "uint256"
        },
        {
          "internalType": "uint256",
          "name": "priceInRewardPoints",
          "type": "uint256"
        },
        {
          "internalType": "uint256",
          "name": "weight",
          "type": "uint256"
        }
      ],
      "stateMutability": "view",
      "type": "function"
    },
    {
      "inputs": [
        {
          "internalType": "uint256",
          "name": "tokenId",
          "type": "uint256"
        }
      ],
      "name": "tokenTier",
      "outputs": [
        {
          "internalType": "uint256",
          "name": "",
          "type": "uint256"
        }
      ],
      "stateMutability": "view",
      "type": "function"
    },
    {
      "inputs": [
        {
          "internalType": "uint256",
          "name": "tokenId",
          "type": "uint256"
        }
      ],
      "name": "tokenURI",
      "outputs": [
        {
          "internalType": "string",
          "name": "",
          "type": "string"
        }
      ],
      "stateMutability": "view",
      "type": "function"
    },
    {
      "inputs": [],
      "name": "totalWeight",
      "outputs": [
        {
          "internalType": "uint256",
          "name": "",
          "type": "uint256"
        }
      ],
      "stateMutability": "view",
      "type": "function"
    },
    {
      "inputs": [
        {
          "internalType": "address",
          "name": "from",
          "type": "address"
        },
        {
          "internalType": "address",
          "name": "to",
          "type": "address"
        },
        {
          "internalType": "uint256",
          "name": "tokenId",
          "type": "uint256"
        }
      ],
      "name": "transferFrom",
      "outputs": [],
      "stateMutability": "nonpayable",
      "type": "function"
    },
    {
      "inputs": [
        {
          "internalType": "address",
          "name": "newOwner",
          "type": "address"
        }
      ],
      "name": "transferOwnership",
      "outputs": [],
      "stateMutability": "nonpayable",
      "type": "function"
    },
    {
      "inputs": [
        {
          "internalType": "address",
          "name": "newImplementation",
          "type": "address"
        },
        {
          "internalType": "bytes",
          "name": "data",
          "type": "bytes"
        }
      ],
      "name": "upgradeToAndCall",
      "outputs": [],
      "stateMutability": "payable",
      "type": "function"
    },
    {
      "inputs": [],
      "name": "withdraw",
      "outputs": [],
      "stateMutability": "nonpayable",
      "type": "function"
    }
  ],
  "bytecode": "0x60a06040523060805234801561001457600080fd5b5060805161395d61003e600039600081816126d7015281816127000152612841015261395d6000f3fe6080604052600436106102ff5760003560e01c8063799e7e5a11610190578063a3dea61e116100dc578063cef5ab6511610095578063f2fde38b1161006f578063f2fde38b1461095a578063f45e36571461097a578063f84a8c0a1461099a578063fe188184146109ba57600080fd5b8063cef5ab651461090b578063e985e9c514610925578063ef32e7c71461094557600080fd5b8063a3dea61e1461083a578063a4cf58e71461086f578063ad3cb1cc14610885578063ad605729146108b6578063b88d4fde146108cb578063c87b56dd146108eb57600080fd5b80639085e2b51161014957806395d89b411161012357806395d89b41146107cf57806396c82e57146107e457806398fc539c146107fa578063a22cb4651461081a57600080fd5b80639085e2b514610759578063926bf11f1461077957806394d29be61461079957600080fd5b8063799e7e5a146106ac5780637a35ebd4146106cc5780637ff931bd146106ec5780638129fc1c14610702578063824e89a1146107175780638da5cb5b1461074457600080fd5b80633ccfd60b1161024f5780636352211e116102085780636a326ab1116101e25780636a326ab11461064157806370a0823114610661578063715018a614610681578063719ce73e1461069657600080fd5b80636352211e146105e1578063649e705f146106015780636983f7ff1461062157600080fd5b80633ccfd60b1461053657806342842e0e1461054b57806342966c681461056b5780634501cd8c1461058b5780634f1ef286146105ab57806352d1902d146105be57600080fd5b80631c5ea714116102bc57806323b872dd1161029657806323b872dd1461048f57806327e605ec146104af5780633013ce29146104c457806335c1d349146104e457600080fd5b80631c5ea7141461044757806320e909d51461045a57806323852aa41461046f57600080fd5b806301ffc9a714610304578063039af9eb14610339578063040b9a66146103ab57806306fdde03146103cd578063081812fc146103ef578063095ea7b314610427575b600080fd5b34801561031057600080fd5b5061032461031f366004613286565b6109da565b60405190151581526020015b60405180910390f35b34801561034557600080fd5b506103836103543660046132a3565b600560205260009081526040902080546001820154600283015460038401546004909401549293919290919085565b604080519586526020860194909452928401919091526060830152608082015260a001610330565b3480156103b757600080fd5b506103cb6103c63660046132d8565b610a2c565b005b3480156103d957600080fd5b506103e2610a89565b6040516103309190613343565b3480156103fb57600080fd5b5061040f61040a3660046132a3565b610b2d565b6040516001600160a01b039091168152602001610330565b34801561043357600080fd5b506103cb610442366004613356565b610b42565b6103cb6104553660046132a3565b610b51565b34801561046657600080fd5b506103cb610c6d565b34801561047b57600080fd5b5060045461040f906001600160a01b031681565b34801561049b57600080fd5b506103cb6104aa366004613380565b610caa565b3480156104bb57600080fd5b5061040f610d35565b3480156104d057600080fd5b5060025461040f906001600160a01b031681565b3480156104f057600080fd5b506105046104ff3660046132a3565b6110b4565b604080516001600160a01b0390961686526020860194909452928401919091526060830152608082015260a001610330565b34801561054257600080fd5b506103cb6110ff565b34801561055757600080fd5b506103cb610566366004613380565b611400565b34801561057757600080fd5b506103cb6105863660046132a3565b611420565b34801561059757600080fd5b506103cb6105a63660046133bc565b6114da565b6103cb6105b9366004613481565b611557565b3480156105ca57600080fd5b506105d3611572565b604051908152602001610330565b3480156105ed57600080fd5b5061040f6105fc3660046132a3565b61158f565b34801561060d57600080fd5b506105d361061c3660046132a3565b61159a565b34801561062d57600080fd5b506103cb61063c3660046132a3565b611606565b34801561064d57600080fd5b506103cb61065c3660046132d8565b61177e565b34801561066d57600080fd5b506105d361067c3660046132d8565b6117d4565b34801561068d57600080fd5b506103cb611830565b3480156106a257600080fd5b506105d3600e5481565b3480156106b857600080fd5b506103cb6106c73660046133bc565b611842565b3480156106d857600080fd5b506103cb6106e73660046132a3565b611906565b3480156106f857600080fd5b506105d3600d5481565b34801561070e57600080fd5b506103cb611a20565b34801561072357600080fd5b506107376107323660046132d8565b611c01565b60405161033091906134cf565b34801561075057600080fd5b5061040f611c8a565b34801561076557600080fd5b506103cb6107743660046132a3565b611cb8565b34801561078557600080fd5b506105d36107943660046132a3565b611db9565b3480156107a557600080fd5b5061040f6107b43660046132a3565b6007602052600090815260409020546001600160a01b031681565b3480156107db57600080fd5b506103e2611df1565b3480156107f057600080fd5b506105d3600a5481565b34801561080657600080fd5b506103cb6108153660046132d8565b611e30565b34801561082657600080fd5b506103cb61083536600461351e565b611e86565b34801561084657600080fd5b5061085a610855366004613356565b611e91565b60408051928352602083019190915201610330565b34801561087b57600080fd5b506105d3600c5481565b34801561089157600080fd5b506103e2604051806040016040528060058152602001640352e302e360dc1b81525081565b3480156108c257600080fd5b506009546105d3565b3480156108d757600080fd5b506103cb6108e636600461355a565b611ecd565b3480156108f757600080fd5b506103e26109063660046132a3565b611ee5565b34801561091757600080fd5b50600f546103249060ff1681565b34801561093157600080fd5b506103246109403660046135c2565b611f5a565b34801561095157600080fd5b506103cb611fa7565b34801561096657600080fd5b506103cb6109753660046132d8565b611fe7565b34801561098657600080fd5b506103cb6109953660046135f5565b612022565b3480156109a657600080fd5b5060035461040f906001600160a01b031681565b3480156109c657600080fd5b50600b5461040f906001600160a01b031681565b60006001600160e01b031982166380ac58cd60e01b1480610a0b57506001600160e01b03198216635b5e139f60e01b145b80610a2657506301ffc9a760e01b6001600160e01b03198316145b92915050565b610a34612127565b600380546001600160a01b0319166001600160a01b0383169081179091556040519081527f5b6fb23beb24f456731b7c4627d0eb0966bc5df951f350ab68efbaea7679ea90906020015b60405180910390a150565b6000805160206138c88339815191528054606091908190610aa990613627565b80601f0160208091040260200160405190810160405280929190818152602001828054610ad590613627565b8015610b225780601f10610af757610100808354040283529160200191610b22565b820191906000526020600020905b815481529060010190602001808311610b0557829003601f168201915b505050505091505090565b6000610b3882612159565b50610a2682612191565b610b4d8282336121cb565b5050565b610b596121d8565b80600a8110610b835760405162461bcd60e51b8152600401610b7a90613661565b60405180910390fd5b600082815260056020526040902054341015610bd85760405162461bcd60e51b8152602060048201526014602482015273125b9cdd59999a58da595b9d081c185e5b595b9d60621b6044820152606401610b7a565b600082815260056020526040902054610c495760405162461bcd60e51b815260206004820152602d60248201527f4261736520746f6b656e207061796d656e74206e6f742061636365707465642060448201526c3337b9103a3434b9903a34b2b960991b6064820152608401610b7a565b610c5282612210565b50610c6a600160008051602061390883398151915255565b50565b610c75612127565b600f805460ff191690556040517f74df1bc862cba4084b17d1a74065576a4b293835e6e3aeac6a685b9b78a07b2e90600090a1565b6001600160a01b038216610cd457604051633250574960e11b815260006004820152602401610b7a565b6000610ce183833361242c565b9050836001600160a01b0316816001600160a01b031614610d2f576040516364283d7b60e01b81526001600160a01b0380861660048301526024820184905282166044820152606401610b7a565b50505050565b6000610d3f612127565b610d476121d8565b600f5460ff16610d915760405162461bcd60e51b81526020600482015260156024820152744c6f7474657279206973206e6f742061637469766560581b6044820152606401610b7a565b6000600a5411610de35760405162461bcd60e51b815260206004820152601a60248201527f4e6f207061727469636970616e747320696e206c6f74746572790000000000006044820152606401610b7a565b600954610e245760405162461bcd60e51b815260206004820152600f60248201526e4e6f207061727469636970616e747360881b6044820152606401610b7a565b600a5460095460408051426020820152449181019190915233606090811b6bffffffffffffffffffffffff1916908201526074810191909152609481018290526000919060b4016040516020818303038152906040528051906020012060001c610e8e9190613687565b90506000610e9b826124b0565b600b80546001600160a01b0319166001600160a01b038316179055600d839055905060005b600954811015610f9e57816001600160a01b031660098281548110610ee757610ee76136a9565b60009182526020909120600590910201546001600160a01b0316148015610f32575060098181548110610f1c57610f1c6136a9565b9060005260206000209060050201600201548310155b8015610f61575060098181548110610f4c57610f4c6136a9565b90600052602060002090600502016003015483105b15610f965760098181548110610f7957610f796136a9565b906000526020600020906005020160010154600c81905550610f9e565b600101610ec0565b5047600e8190558015611048576000826001600160a01b03168260405160006040518083038185875af1925050503d8060008114610ff8576040519150601f19603f3d011682016040523d82523d6000602084013e610ffd565b606091505b50509050806110465760405162461bcd60e51b8152602060048201526015602482015274141c9a5e99481d1c985b9cd9995c8819985a5b1959605a1b6044820152606401610b7a565b505b600c54604080519182526020820185905281018290526001600160a01b038316907fed09dcfdb72700cc8551d32c412eb1a718e212c39f75adc395e1c4f4d14f645d9060600160405180910390a2509150506110b1600160008051602061390883398151915255565b90565b600981815481106110c457600080fd5b6000918252602090912060059091020180546001820154600283015460038401546004909401546001600160a01b0390931694509092909185565b611107612127565b61110f6121d8565b478015611204576000611120611c8a565b6001600160a01b03168260405160006040518083038185875af1925050503d806000811461116a576040519150601f19603f3d011682016040523d82523d6000602084013e61116f565b606091505b50509050806111b85760405162461bcd60e51b8152602060048201526015602482015274115512081dda5d1a191c985dd85b0819985a5b1959605a1b6044820152606401610b7a565b6111c0611c8a565b6001600160a01b03167f7084f5476618d8e60b11ef0d7d3f06914655adb8793e28ff7f018d4c76d505d5836040516111fa91815260200190565b60405180910390a2505b6002546001600160a01b0316156112f5576002546040516370a0823160e01b81523060048201526000916001600160a01b0316906370a0823190602401602060405180830381865afa15801561125e573d6000803e3d6000fd5b505050506040513d601f19601f8201168201806040525081019061128291906136bf565b905080156112f3576112a8611295611c8a565b6002546001600160a01b03169083612592565b6112b0611c8a565b6001600160a01b03167f7084f5476618d8e60b11ef0d7d3f06914655adb8793e28ff7f018d4c76d505d5826040516112ea91815260200190565b60405180910390a25b505b6003546001600160a01b0316156113e6576003546040516370a0823160e01b81523060048201526000916001600160a01b0316906370a0823190602401602060405180830381865afa15801561134f573d6000803e3d6000fd5b505050506040513d601f19601f8201168201806040525081019061137391906136bf565b905080156113e457611399611386611c8a565b6003546001600160a01b03169083612592565b6113a1611c8a565b6001600160a01b03167f7084f5476618d8e60b11ef0d7d3f06914655adb8793e28ff7f018d4c76d505d5826040516113db91815260200190565b60405180910390a25b505b506113fe600160008051602061390883398151915255565b565b61141b83838360405180602001604052806000815250611ecd565b505050565b600061142b826125f1565b90506001600160a01b03811661147a5760405162461bcd60e51b8152602060048201526014602482015273151bdad95b88191bd95cc81b9bdd08195e1a5cdd60621b6044820152606401610b7a565b61148581338461262b565b6114d15760405162461bcd60e51b815260206004820181905260248201527f43616c6c6572206973206e6f74206f776e6572206e6f7220617070726f7665646044820152606401610b7a565b610b4d82612691565b6114e2612127565b81600a81106115035760405162461bcd60e51b8152600401610b7a90613661565b60008381526005602090815260409182902060030184905581518581529081018490527f90797c066d518b0114b614bc43f1badda62b8df886e2c2e2f2675dae2ab3015f91015b60405180910390a1505050565b61155f6126cc565b61156882612771565b610b4d8282612779565b600061157c612836565b506000805160206138e883398151915290565b6000610a2682612159565b6000806115a6836125f1565b6001600160a01b0316036115f35760405162461bcd60e51b8152602060048201526014602482015273151bdad95b88191bd95cc81b9bdd08195e1a5cdd60621b6044820152606401610b7a565b5060009081526006602052604090205490565b61160e6121d8565b80600a811061162f5760405162461bcd60e51b8152600401610b7a90613661565b6000828152600560205260409020600301548061169f5760405162461bcd60e51b815260206004820152602860248201527f52657761726420706f696e7473206e6f7420616363657074656420666f7220746044820152673434b9903a34b2b960c11b6064820152608401610b7a565b6004546001600160a01b03166116f75760405162461bcd60e51b815260206004820152601b60248201527f52657761726420706f696e747320746f6b656e206e6f742073657400000000006044820152606401610b7a565b6004805460405163079cc67960e41b81523392810192909252602482018390526001600160a01b0316906379cc679090604401600060405180830381600087803b15801561174457600080fd5b505af1158015611758573d6000803e3d6000fd5b5050505061176583612210565b5050610c6a600160008051602061390883398151915255565b611786612127565b600280546001600160a01b0319166001600160a01b0383169081179091556040519081527fcb0aeffe884eb88fb2a31a2f3e4bd1d2763bdee48ba93b28c6e87501228cf74390602001610a7e565b60006000805160206138c88339815191526001600160a01b03831661180f576040516322718ad960e21b815260006004820152602401610b7a565b6001600160a01b039092166000908152600390920160205250604090205490565b611838612127565b6113fe600061287f565b61184a612127565b81600a811061186b5760405162461bcd60e51b8152600401610b7a90613661565b600082116118bb5760405162461bcd60e51b815260206004820152601d60248201527f576569676874206d7573742062652067726561746572207468616e20300000006044820152606401610b7a565b60008381526005602090815260409182902060040184905581518581529081018490527f7e2bcec4c4da907839a53499f83e02712d5989e4e5feca3f61ae60c5fe646fe0910161154a565b61190e6121d8565b80600a811061192f5760405162461bcd60e51b8152600401610b7a90613661565b600082815260056020526040902060020154806119a75760405162461bcd60e51b815260206004820152603060248201527f416e6f74686572207061796d656e7420746f6b656e206e6f742061636365707460448201526f32b2103337b9103a3434b9903a34b2b960811b6064820152608401610b7a565b6003546001600160a01b03166119ff5760405162461bcd60e51b815260206004820152601d60248201527f416e6f74686572207061796d656e7420746f6b656e206e6f74207365740000006044820152606401610b7a565b600354611a17906001600160a01b03163330846128f0565b61176583612210565b6000611a2a612929565b805490915060ff600160401b820416159067ffffffffffffffff16600081158015611a525750825b905060008267ffffffffffffffff166001148015611a6f5750303b155b905081158015611a7d575080155b15611a9b5760405163f92ee8a960e01b815260040160405180910390fd5b845467ffffffffffffffff191660011785558315611ac557845460ff60401b1916600160401b1785555b611b236040518060400160405280601881526020017f4e46544c6f74746572794d696e74696e67546965725631310000000000000000815250604051806040016040528060078152602001664e46545456313160c81b815250612952565b611b2c33612964565b611b34612975565b60005b600a811015611ba0576040805160a0810182526000808252602080830182815283850183815260608501848152600180891b6080880190815289875260059095529690942094518555905184860155516002840155905160038301555160049091015501611b37565b506000600a55600f805460ff191660011790558315611bfa57845460ff60401b19168555604051600181527fc7f505b2f371ae2175ee4913f4499e1f2633a7b5936321eed1cdaeb6115181d2906020015b60405180910390a15b5050505050565b6001600160a01b0381166000908152600860209081526040808320805482518185028101850190935280835260609492939192909184015b82821015611c7f57838290600052602060002090600202016040518060400160405290816000820154815260200160018201548152505081526020019060010190611c39565b505050509050919050565b7f9016d09d72d40fdae2fd8ceac6b6234c7706214fd39c1cd1e609a0528c199300546001600160a01b031690565b611cc06121d8565b80600a8110611ce15760405162461bcd60e51b8152600401610b7a90613661565b60008281526005602052604090206001015480611d515760405162461bcd60e51b815260206004820152602860248201527f5061796d656e7420746f6b656e206e6f7420616363657074656420666f7220746044820152673434b9903a34b2b960c11b6064820152608401610b7a565b6002546001600160a01b0316611da15760405162461bcd60e51b815260206004820152601560248201527414185e5b595b9d081d1bdad95b881b9bdd081cd95d605a1b6044820152606401610b7a565b600254611a17906001600160a01b03163330846128f0565b6000600a8210611ddb5760405162461bcd60e51b8152600401610b7a90613661565b5060009081526005602052604090206004015490565b7f80bb2b638cc20bc4d0a60d66940f3ab4a00c1d7b313497ca82fb0b4ab007930180546060916000805160206138c883398151915291610aa990613627565b611e38612127565b600480546001600160a01b0319166001600160a01b0383169081179091556040519081527f0df040833349d2c29e2f16e762493bc4a47bdb1bc6416e6f0bb46dd740ae56be90602001610a7e565b610b4d338383612985565b60086020528160005260406000208181548110611ead57600080fd5b600091825260209091206002909102018054600190910154909250905082565b611ed8848484610caa565b610d2f3385858585612a36565b6060611ef082612159565b506000611f0860408051602081019091526000815290565b90506000815111611f285760405180602001604052806000815250611f53565b80611f3284612b60565b604051602001611f439291906136d8565b6040516020818303038152906040525b9392505050565b6001600160a01b0391821660009081527f80bb2b638cc20bc4d0a60d66940f3ab4a00c1d7b313497ca82fb0b4ab00793056020908152604080832093909416825291909152205460ff1690565b611faf612127565b600f805460ff191660011790556040517f087d66fb14d5e7a378d0ea283559bbb0aca0f39dc8e0b4b98b78d07cba2ac47290600090a1565b611fef612127565b6001600160a01b03811661201957604051631e4fbdf760e01b815260006004820152602401610b7a565b610c6a8161287f565b61202a612127565b83600a811061204b5760405162461bcd60e51b8152600401610b7a90613661565b600084118061205a5750600083115b806120655750600082115b6120c35760405162461bcd60e51b815260206004820152602960248201527f4174206c65617374206f6e65207072696365206d75737420626520677265617460448201526806572207468616e20360bc1b6064820152608401610b7a565b600085815260056020908152604091829020868155600181018690556002018490558151878152908101869052908101849052606081018390527fe9fcef5eca84412d58f6361b8614f65ec2221bb80de2cb87f249976614ccf90690608001611bf1565b33612130611c8a565b6001600160a01b0316146113fe5760405163118cdaa760e01b8152336004820152602401610b7a565b600080612165836125f1565b90506001600160a01b038116610a2657604051637e27328960e01b815260048101849052602401610b7a565b60009081527f80bb2b638cc20bc4d0a60d66940f3ab4a00c1d7b313497ca82fb0b4ab007930460205260409020546001600160a01b031690565b61141b8383836001612bf3565b60008051602061390883398151915280546001190161220a57604051633ee5aeb560e01b815260040160405180910390fd5b60029055565b600f5460ff1661225a5760405162461bcd60e51b81526020600482015260156024820152744c6f7474657279206973206e6f742061637469766560581b6044820152606401610b7a565b600080549081908061226b8361371d565b9091555050600081815260066020526040902082905561228b3382612d09565b60018054908190600061229d8361371d565b9091555050600081815260076020908152604080832080546001600160a01b03191633908117909155808452600883528184208251808401845286815288865260058086528487206004018054838801908152845460018181018755958a52888a2094516002909102909401938455519290930191909155948890529383529254815160a081018352938452918301849052600a549083018190529091600991606082019061234d908590613736565b815260209081018790528254600180820185556000948552828520845160059093020180546001600160a01b0319166001600160a01b0390931692909217825591830151918101919091556040820151600282015560608201516003820155608090910151600490910155600a80548392906123ca908490613736565b9091555050604080518481526020810186905290810183905233907f10546b1a6f5245ff0ffa18c256b9e46859c585cbb473b453fcd4c2dc39ae08db9060600160405180910390a250505050565b600160008051602061390883398151915255565b600080612438846125f1565b90506001600160a01b038116158061245757506001600160a01b038516155b61249c5760405162461bcd60e51b8152602060048201526016602482015275151c985b9cd9995c9cc8185c9948191a5cd8589b195960521b6044820152606401610b7a565b6124a7858585612d6e565b95945050505050565b6000805b60095481101561255657600981815481106124d1576124d16136a9565b9060005260206000209060050201600201548310158015612515575060098181548110612500576125006136a9565b90600052602060002090600502016003015483105b1561254e576009818154811061252d5761252d6136a9565b60009182526020909120600590910201546001600160a01b03169392505050565b6001016124b4565b5060405162461bcd60e51b815260206004820152601060248201526f15da5b9b995c881b9bdd08199bdd5b9960821b6044820152606401610b7a565b6040516001600160a01b0383811660248301526044820183905261141b91859182169063a9059cbb906064015b604051602081830303815290604052915060e01b6020820180516001600160e01b038381831617835250505050612e78565b60009081527f80bb2b638cc20bc4d0a60d66940f3ab4a00c1d7b313497ca82fb0b4ab007930260205260409020546001600160a01b031690565b60006001600160a01b038316158015906126895750826001600160a01b0316846001600160a01b0316148061266557506126658484611f5a565b806126895750826001600160a01b031661267e83612191565b6001600160a01b0316145b949350505050565b60006126a0600083600061242c565b90506001600160a01b038116610b4d57604051637e27328960e01b815260048101839052602401610b7a565b306001600160a01b037f000000000000000000000000000000000000000000000000000000000000000016148061275357507f00000000000000000000000000000000000000000000000000000000000000006001600160a01b03166127476000805160206138e8833981519152546001600160a01b031690565b6001600160a01b031614155b156113fe5760405163703e46dd60e11b815260040160405180910390fd5b610c6a612127565b816001600160a01b03166352d1902d6040518163ffffffff1660e01b8152600401602060405180830381865afa9250505080156127d3575060408051601f3d908101601f191682019092526127d0918101906136bf565b60015b6127fb57604051634c9c8ce360e01b81526001600160a01b0383166004820152602401610b7a565b6000805160206138e8833981519152811461282c57604051632a87526960e21b815260048101829052602401610b7a565b61141b8383612ee9565b306001600160a01b037f000000000000000000000000000000000000000000000000000000000000000016146113fe5760405163703e46dd60e11b815260040160405180910390fd5b7f9016d09d72d40fdae2fd8ceac6b6234c7706214fd39c1cd1e609a0528c19930080546001600160a01b031981166001600160a01b03848116918217845560405192169182907f8be0079c531659141344cd1fd0a4f28419497f9722a3daafe3b4186f6b6457e090600090a3505050565b6040516001600160a01b038481166024830152838116604483015260648201839052610d2f9186918216906323b872dd906084016125bf565b6000807ff0c57e16840df040f15088dc2f81fe391c3923bec73e23a9662efc9c229c6a00610a26565b61295a612f3f565b610b4d8282612f64565b61296c612f3f565b610c6a81612f95565b61297d612f3f565b6113fe612f9d565b6000805160206138c88339815191526001600160a01b0383166129c657604051630b61174360e31b81526001600160a01b0384166004820152602401610b7a565b6001600160a01b038481166000818152600584016020908152604080832094881680845294825291829020805460ff191687151590811790915591519182527f17307eab39ab6107e8899845ad3d59bd9653f200f220920489ca2b5937696c31910160405180910390a350505050565b6001600160a01b0383163b15611bfa57604051630a85bd0160e11b81526001600160a01b0384169063150b7a0290612a78908890889087908790600401613749565b6020604051808303816000875af1925050508015612ab3575060408051601f3d908101601f19168201909252612ab091810190613786565b60015b612b1c573d808015612ae1576040519150601f19603f3d011682016040523d82523d6000602084013e612ae6565b606091505b508051600003612b1457604051633250574960e11b81526001600160a01b0385166004820152602401610b7a565b805160208201fd5b6001600160e01b03198116630a85bd0160e11b14612b5857604051633250574960e11b81526001600160a01b0385166004820152602401610b7a565b505050505050565b60606000612b6d83612fa5565b600101905060008167ffffffffffffffff811115612b8d57612b8d6133de565b6040519080825280601f01601f191660200182016040528015612bb7576020820181803683370190505b5090508181016020015b600019016f181899199a1a9b1b9c1cb0b131b232b360811b600a86061a8153600a8504945084612bc157509392505050565b6000805160206138c88339815191528180612c1657506001600160a01b03831615155b15612cd8576000612c2685612159565b90506001600160a01b03841615801590612c525750836001600160a01b0316816001600160a01b031614155b8015612c655750612c638185611f5a565b155b15612c8e5760405163a9fbf51f60e01b81526001600160a01b0385166004820152602401610b7a565b8215612cd65784866001600160a01b0316826001600160a01b03167f8c5be1e5ebec7d5bd14f71427d1e84f3dd0314c0f7b2291e5b200ac8c7c3b92560405160405180910390a45b505b600093845260040160205250506040902080546001600160a01b0319166001600160a01b0392909216919091179055565b6001600160a01b038216612d3357604051633250574960e11b815260006004820152602401610b7a565b6000612d418383600061242c565b90506001600160a01b0381161561141b576040516339e3563760e11b815260006004820152602401610b7a565b60006000805160206138c883398151915281612d89856125f1565b90506001600160a01b03841615612da557612da581858761307d565b6001600160a01b03811615612de557612dc2600086600080612bf3565b6001600160a01b0381166000908152600383016020526040902080546000190190555b6001600160a01b03861615612e16576001600160a01b03861660009081526003830160205260409020805460010190555b600085815260028301602052604080822080546001600160a01b0319166001600160a01b038a811691821790925591518893918516917fddf252ad1be2c89b69c2b068fc378daa952ba7f163c4a11628f55a4df523b3ef91a495945050505050565b600080602060008451602086016000885af180612e9b576040513d6000823e3d81fd5b50506000513d91508115612eb3578060011415612ec0565b6001600160a01b0384163b155b15610d2f57604051635274afe760e01b81526001600160a01b0385166004820152602401610b7a565b612ef2826130e1565b6040516001600160a01b038316907fbc7cd75a20ee27fd9adebab32041f755214dbc6bffa90cc0225b39da2e5c2d3b90600090a2805115612f375761141b8282613146565b610b4d6131b3565b612f476131d2565b6113fe57604051631afcd79f60e31b815260040160405180910390fd5b612f6c612f3f565b6000805160206138c883398151915280612f8684826137eb565b5060018101610d2f83826137eb565b611fef612f3f565b612418612f3f565b60008072184f03e93ff9f4daa797ed6e38ed64bf6a1f0160401b8310612fe45772184f03e93ff9f4daa797ed6e38ed64bf6a1f0160401b830492506040015b6d04ee2d6d415b85acef81000000008310613010576d04ee2d6d415b85acef8100000000830492506020015b662386f26fc10000831061302e57662386f26fc10000830492506010015b6305f5e1008310613046576305f5e100830492506008015b612710831061305a57612710830492506004015b6064831061306c576064830492506002015b600a8310610a265760010192915050565b61308883838361262b565b61141b576001600160a01b0383166130b657604051637e27328960e01b815260048101829052602401610b7a565b60405163177e802f60e01b81526001600160a01b038316600482015260248101829052604401610b7a565b806001600160a01b03163b60000361311757604051634c9c8ce360e01b81526001600160a01b0382166004820152602401610b7a565b6000805160206138e883398151915280546001600160a01b0319166001600160a01b0392909216919091179055565b6060600080846001600160a01b03168460405161316391906138ab565b600060405180830381855af49150503d806000811461319e576040519150601f19603f3d011682016040523d82523d6000602084013e6131a3565b606091505b50915091506124a78583836131ec565b34156113fe5760405163b398979f60e01b815260040160405180910390fd5b60006131dc612929565b54600160401b900460ff16919050565b606082613201576131fc82613248565b611f53565b815115801561321857506001600160a01b0384163b155b1561324157604051639996b31560e01b81526001600160a01b0385166004820152602401610b7a565b5080611f53565b80511561325757805160208201fd5b60405163d6bda27560e01b815260040160405180910390fd5b6001600160e01b031981168114610c6a57600080fd5b60006020828403121561329857600080fd5b8135611f5381613270565b6000602082840312156132b557600080fd5b5035919050565b80356001600160a01b03811681146132d357600080fd5b919050565b6000602082840312156132ea57600080fd5b611f53826132bc565b60005b8381101561330e5781810151838201526020016132f6565b50506000910152565b6000815180845261332f8160208601602086016132f3565b601f01601f19169290920160200192915050565b602081526000611f536020830184613317565b6000806040838503121561336957600080fd5b613372836132bc565b946020939093013593505050565b60008060006060848603121561339557600080fd5b61339e846132bc565b92506133ac602085016132bc565b9150604084013590509250925092565b600080604083850312156133cf57600080fd5b50508035926020909101359150565b634e487b7160e01b600052604160045260246000fd5b600082601f83011261340557600080fd5b813567ffffffffffffffff80821115613420576134206133de565b604051601f8301601f19908116603f01168101908282118183101715613448576134486133de565b8160405283815286602085880101111561346157600080fd5b836020870160208301376000602085830101528094505050505092915050565b6000806040838503121561349457600080fd5b61349d836132bc565b9150602083013567ffffffffffffffff8111156134b957600080fd5b6134c5858286016133f4565b9150509250929050565b602080825282518282018190526000919060409081850190868401855b82811015613511578151805185528601518685015292840192908501906001016134ec565b5091979650505050505050565b6000806040838503121561353157600080fd5b61353a836132bc565b91506020830135801515811461354f57600080fd5b809150509250929050565b6000806000806080858703121561357057600080fd5b613579856132bc565b9350613587602086016132bc565b925060408501359150606085013567ffffffffffffffff8111156135aa57600080fd5b6135b6878288016133f4565b91505092959194509250565b600080604083850312156135d557600080fd5b6135de836132bc565b91506135ec602084016132bc565b90509250929050565b6000806000806080858703121561360b57600080fd5b5050823594602084013594506040840135936060013592509050565b600181811c9082168061363b57607f821691505b60208210810361365b57634e487b7160e01b600052602260045260246000fd5b50919050565b6020808252600c908201526b24b73b30b634b2103a34b2b960a11b604082015260600190565b6000826136a457634e487b7160e01b600052601260045260246000fd5b500690565b634e487b7160e01b600052603260045260246000fd5b6000602082840312156136d157600080fd5b5051919050565b600083516136ea8184602088016132f3565b8351908301906136fe8183602088016132f3565b01949350505050565b634e487b7160e01b600052601160045260246000fd5b60006001820161372f5761372f613707565b5060010190565b80820180821115610a2657610a26613707565b6001600160a01b038581168252841660208201526040810183905260806060820181905260009061377c90830184613317565b9695505050505050565b60006020828403121561379857600080fd5b8151611f5381613270565b601f82111561141b576000816000526020600020601f850160051c810160208610156137cc5750805b601f850160051c820191505b81811015612b58578281556001016137d8565b815167ffffffffffffffff811115613805576138056133de565b613819816138138454613627565b846137a3565b602080601f83116001811461384e57600084156138365750858301515b600019600386901b1c1916600185901b178555612b58565b600085815260208120601f198616915b8281101561387d5788860151825594840194600190910190840161385e565b508582101561389b5787850151600019600388901b60f8161c191681555b5050505050600190811b01905550565b600082516138bd8184602087016132f3565b919091019291505056fe80bb2b638cc20bc4d0a60d66940f3ab4a00c1d7b313497ca82fb0b4ab0079300360894a13ba1a3210667c828492db98dca3e2076cc3735a920a3ca505d382bbc9b779b17422d0df92223018b32b4d1fa46e071723d6817e2486d003becc55f00a2646970667358221220d80be098b75c9235989a8813c2a8608b179212660d1f669b014bec909824dbe364736f6c63430008160033",
  "linkReferences": {},
  "deployedLinkReferences": {}
}