{
  "_format": "hh-sol-artifact-1",
  "contractName": "NFTLotteryMintingTierV11",
  "sourceName": "contracts/LottoTicketMinter.sol",
  "abi": [
    {
      "inputs": [
        {
          "internalType": "address",
          "name": "target",
          "type": "address"
        }
      ],
      "name": "AddressEmptyCode",
      "type": "error"
    },
    {
      "inputs": [
        {
          "internalType": "address",
          "name": "implementation",
          "type": "address"
        }
      ],
      "name": "ERC1967InvalidImplementation",
      "type": "error"
    },
    {
      "inputs": [],
      "name": "ERC1967NonPayable",
      "type": "error"
    },
    {
      "inputs": [
        {
          "internalType": "address",
          "name": "sender",
          "type": "address"
        },
        {
          "internalType": "uint256",
          "name": "tokenId",
          "type": "uint256"
        },
        {
          "internalType": "address",
          "name": "owner",
          "type": "address"
        }
      ],
      "name": "ERC721IncorrectOwner",
      "type": "error"
    },
    {
      "inputs": [
        {
          "internalType": "address",
          "name": "operator",
          "type": "address"
        },
        {
          "internalType": "uint256",
          "name": "tokenId",
          "type": "uint256"
        }
      ],
      "name": "ERC721InsufficientApproval",
      "type": "error"
    },
    {
      "inputs": [
        {
          "internalType": "address",
          "name": "approver",
          "type": "address"
        }
      ],
      "name": "ERC721InvalidApprover",
      "type": "error"
    },
    {
      "inputs": [
        {
          "internalType": "address",
          "name": "operator",
          "type": "address"
        }
      ],
      "name": "ERC721InvalidOperator",
      "type": "error"
    },
    {
      "inputs": [
        {
          "internalType": "address",
          "name": "owner",
          "type": "address"
        }
      ],
      "name": "ERC721InvalidOwner",
      "type": "error"
    },
    {
      "inputs": [
        {
          "internalType": "address",
          "name": "receiver",
          "type": "address"
        }
      ],
      "name": "ERC721InvalidReceiver",
      "type": "error"
    },
    {
      "inputs": [
        {
          "internalType": "address",
          "name": "sender",
          "type": "address"
        }
      ],
      "name": "ERC721InvalidSender",
      "type": "error"
    },
    {
      "inputs": [
        {
          "internalType": "uint256",
          "name": "tokenId",
          "type": "uint256"
        }
      ],
      "name": "ERC721NonexistentToken",
      "type": "error"
    },
    {
      "inputs": [],
      "name": "FailedCall",
      "type": "error"
    },
    {
      "inputs": [],
      "name": "InvalidInitialization",
      "type": "error"
    },
    {
      "inputs": [],
      "name": "NotInitializing",
      "type": "error"
    },
    {
      "inputs": [
        {
          "internalType": "address",
          "name": "owner",
          "type": "address"
        }
      ],
      "name": "OwnableInvalidOwner",
      "type": "error"
    },
    {
      "inputs": [
        {
          "internalType": "address",
          "name": "account",
          "type": "address"
        }
      ],
      "name": "OwnableUnauthorizedAccount",
      "type": "error"
    },
    {
      "inputs": [],
      "name": "ReentrancyGuardReentrantCall",
      "type": "error"
    },
    {
      "inputs": [
        {
          "internalType": "address",
          "name": "token",
          "type": "address"
        }
      ],
      "name": "SafeERC20FailedOperation",
      "type": "error"
    },
    {
      "inputs": [],
      "name": "UUPSUnauthorizedCallContext",
      "type": "error"
    },
    {
      "inputs": [
        {
          "internalType": "bytes32",
          "name": "slot",
          "type": "bytes32"
        }
      ],
      "name": "UUPSUnsupportedProxiableUUID",
      "type": "error"
    },
    {
      "anonymous": false,
      "inputs": [
        {
          "indexed": false,
          "internalType": "address",
          "name": "token",
          "type": "address"
        }
      ],
      "name": "AnotherPaymentTokenSet",
      "type": "event"
    },
    {
      "anonymous": false,
      "inputs": [
        {
          "indexed": true,
          "internalType": "address",
          "name": "owner",
          "type": "address"
        },
        {
          "indexed": true,
          "internalType": "address",
          "name": "approved",
          "type": "address"
        },
        {
          "indexed": true,
          "internalType": "uint256",
          "name": "tokenId",
          "type": "uint256"
        }
      ],
      "name": "Approval",
      "type": "event"
    },
    {
      "anonymous": false,
      "inputs": [
        {
          "indexed": true,
          "internalType": "address",
          "name": "owner",
          "type": "address"
        },
        {
          "indexed": true,
          "internalType": "address",
          "name": "operator",
          "type": "address"
        },
        {
          "indexed": false,
          "internalType": "bool",
          "name": "approved",
          "type": "bool"
        }
      ],
      "name": "ApprovalForAll",
      "type": "event"
    },
    {
      "anonymous": false,
      "inputs": [
        {
          "indexed": false,
          "internalType": "uint64",
          "name": "version",
          "type": "uint64"
        }
      ],
      "name": "Initialized",
      "type": "event"
    },
    {
      "anonymous": false,
      "inputs": [],
      "name": "LotteryActivated",
      "type": "event"
    },
    {
      "anonymous": false,
      "inputs": [],
      "name": "LotteryDeactivated",
      "type": "event"
    },
    {
      "anonymous": false,
      "inputs": [
        {
          "indexed": true,
          "internalType": "address",
          "name": "winner",
          "type": "address"
        },
        {
          "indexed": false,
          "internalType": "uint256",
          "name": "lottoID",
          "type": "uint256"
        },
        {
          "indexed": false,
          "internalType": "uint256",
          "name": "winningNumber",
          "type": "uint256"
        },
        {
          "indexed": false,
          "internalType": "uint256",
          "name": "prize",
          "type": "uint256"
        }
      ],
      "name": "LotteryDrawn",
      "type": "event"
    },
    {
      "anonymous": false,
      "inputs": [
        {
          "indexed": true,
          "internalType": "address",
          "name": "previousOwner",
          "type": "address"
        },
        {
          "indexed": true,
          "internalType": "address",
          "name": "newOwner",
          "type": "address"
        }
      ],
      "name": "OwnershipTransferred",
      "type": "event"
    },
    {
      "anonymous": false,
      "inputs": [
        {
          "indexed": false,
          "internalType": "address",
          "name": "token",
          "type": "address"
        }
      ],
      "name": "PaymentTokenSet",
      "type": "event"
    },
    {
      "anonymous": false,
      "inputs": [
        {
          "indexed": false,
          "internalType": "uint256",
          "name": "tier",
          "type": "uint256"
        },
        {
          "indexed": false,
          "internalType": "uint256",
          "name": "priceInBaseToken",
          "type": "uint256"
        },
        {
          "indexed": false,
          "internalType": "uint256",
          "name": "priceInPaymentToken",
          "type": "uint256"
        },
        {
          "indexed": false,
          "internalType": "uint256",
          "name": "priceInAnotherPaymentToken",
          "type": "uint256"
        }
      ],
      "name": "TierPriceSet",
      "type": "event"
    },
    {
      "anonymous": false,
      "inputs": [
        {
          "indexed": false,
          "internalType": "uint256",
          "name": "tier",
          "type": "uint256"
        },
        {
          "indexed": false,
          "internalType": "uint256",
          "name": "weight",
          "type": "uint256"
        }
      ],
      "name": "TierWeightSet",
      "type": "event"
    },
    {
      "anonymous": false,
      "inputs": [
        {
          "indexed": true,
          "internalType": "address",
          "name": "owner",
          "type": "address"
        },
        {
          "indexed": false,
          "internalType": "uint256",
          "name": "tokenId",
          "type": "uint256"
        },
        {
          "indexed": false,
          "internalType": "uint256",
          "name": "tier",
          "type": "uint256"
        },
        {
          "indexed": false,
          "internalType": "uint256",
          "name": "lottoID",
          "type": "uint256"
        }
      ],
      "name": "TokenMinted",
      "type": "event"
    },
    {
      "anonymous": false,
      "inputs": [
        {
          "indexed": true,
          "internalType": "address",
          "name": "from",
          "type": "address"
        },
        {
          "indexed": true,
          "internalType": "address",
          "name": "to",
          "type": "address"
        },
        {
          "indexed": true,
          "internalType": "uint256",
          "name": "tokenId",
          "type": "uint256"
        }
      ],
      "name": "Transfer",
      "type": "event"
    },
    {
      "anonymous": false,
      "inputs": [
        {
          "indexed": true,
          "internalType": "address",
          "name": "implementation",
          "type": "address"
        }
      ],
      "name": "Upgraded",
      "type": "event"
    },
    {
      "anonymous": false,
      "inputs": [
        {
          "indexed": true,
          "internalType": "address",
          "name": "owner",
          "type": "address"
        },
        {
          "indexed": false,
          "internalType": "uint256",
          "name": "amount",
          "type": "uint256"
        }
      ],
      "name": "Withdrawn",
      "type": "event"
    },
    {
      "inputs": [],
      "name": "UPGRADE_INTERFACE_VERSION",
      "outputs": [
        {
          "internalType": "string",
          "name": "",
          "type": "string"
        }
      ],
      "stateMutability": "view",
      "type": "function"
    },
    {
      "inputs": [],
      "name": "activateLottery",
      "outputs": [],
      "stateMutability": "nonpayable",
      "type": "function"
    },
    {
      "inputs": [
        {
          "internalType": "address",
          "name": "",
          "type": "address"
        },
        {
          "internalType": "uint256",
          "name": "",
          "type": "uint256"
        }
      ],
      "name": "addressToLottoIDs",
      "outputs": [
        {
          "internalType": "uint256",
          "name": "lottoID",
          "type": "uint256"
        },
        {
          "internalType": "uint256",
          "name": "weight",
          "type": "uint256"
        }
      ],
      "stateMutability": "view",
      "type": "function"
    },
    {
      "inputs": [],
      "name": "anotherPaymentToken",
      "outputs": [
        {
          "internalType": "address",
          "name": "",
          "type": "address"
        }
      ],
      "stateMutability": "view",
      "type": "function"
    },
    {
      "inputs": [
        {
          "internalType": "address",
          "name": "to",
          "type": "address"
        },
        {
          "internalType": "uint256",
          "name": "tokenId",
          "type": "uint256"
        }
      ],
      "name": "approve",
      "outputs": [],
      "stateMutability": "nonpayable",
      "type": "function"
    },
    {
      "inputs": [
        {
          "internalType": "address",
          "name": "owner",
          "type": "address"
        }
      ],
      "name": "balanceOf",
      "outputs": [
        {
          "internalType": "uint256",
          "name": "",
          "type": "uint256"
        }
      ],
      "stateMutability": "view",
      "type": "function"
    },
    {
      "inputs": [
        {
          "internalType": "uint256",
          "name": "tokenId",
          "type": "uint256"
        }
      ],
      "name": "burn",
      "outputs": [],
      "stateMutability": "nonpayable",
      "type": "function"
    },
    {
      "inputs": [],
      "name": "deactivateLottery",
      "outputs": [],
      "stateMutability": "nonpayable",
      "type": "function"
    },
    {
      "inputs": [],
      "name": "drawLottery",
      "outputs": [
        {
          "internalType": "address",
          "name": "winner",
          "type": "address"
        }
      ],
      "stateMutability": "nonpayable",
      "type": "function"
    },
    {
      "inputs": [
        {
          "internalType": "uint256",
          "name": "tokenId",
          "type": "uint256"
        }
      ],
      "name": "getApproved",
      "outputs": [
        {
          "internalType": "address",
          "name": "",
          "type": "address"
        }
      ],
      "stateMutability": "view",
      "type": "function"
    },
    {
      "inputs": [
        {
          "internalType": "address",
          "name": "user",
          "type": "address"
        }
      ],
      "name": "getLottoIDsByAddress",
      "outputs": [
        {
          "components": [
            {
              "internalType": "uint256",
              "name": "lottoID",
              "type": "uint256"
            },
            {
              "internalType": "uint256",
              "name": "weight",
              "type": "uint256"
            }
          ],
          "internalType": "struct NFTLotteryMintingTierV11.LottoEntry[]",
          "name": "",
          "type": "tuple[]"
        }
      ],
      "stateMutability": "view",
      "type": "function"
    },
    {
      "inputs": [],
      "name": "getParticipantCount",
      "outputs": [
        {
          "internalType": "uint256",
          "name": "",
          "type": "uint256"
        }
      ],
      "stateMutability": "view",
      "type": "function"
    },
    {
      "inputs": [],
      "name": "initialize",
      "outputs": [],
      "stateMutability": "nonpayable",
      "type": "function"
    },
    {
      "inputs": [
        {
          "internalType": "address",
          "name": "owner",
          "type": "address"
        },
        {
          "internalType": "address",
          "name": "operator",
          "type": "address"
        }
      ],
      "name": "isApprovedForAll",
      "outputs": [
        {
          "internalType": "bool",
          "name": "",
          "type": "bool"
        }
      ],
      "stateMutability": "view",
      "type": "function"
    },
    {
      "inputs": [],
      "name": "lastWinner",
      "outputs": [
        {
          "internalType": "address",
          "name": "",
          "type": "address"
        }
      ],
      "stateMutability": "view",
      "type": "function"
    },
    {
      "inputs": [],
      "name": "lastWinningLottoID",
      "outputs": [
        {
          "internalType": "uint256",
          "name": "",
          "type": "uint256"
        }
      ],
      "stateMutability": "view",
      "type": "function"
    },
    {
      "inputs": [],
      "name": "lastWinningNumber",
      "outputs": [
        {
          "internalType": "uint256",
          "name": "",
          "type": "uint256"
        }
      ],
      "stateMutability": "view",
      "type": "function"
    },
    {
      "inputs": [],
      "name": "lotteryActive",
      "outputs": [
        {
          "internalType": "bool",
          "name": "",
          "type": "bool"
        }
      ],
      "stateMutability": "view",
      "type": "function"
    },
    {
      "inputs": [
        {
          "internalType": "uint256",
          "name": "",
          "type": "uint256"
        }
      ],
      "name": "lottoIDIndexer",
      "outputs": [
        {
          "internalType": "address",
          "name": "",
          "type": "address"
        }
      ],
      "stateMutability": "view",
      "type": "function"
    },
    {
      "inputs": [
        {
          "internalType": "uint256",
          "name": "tier",
          "type": "uint256"
        }
      ],
      "name": "mintWithAnotherPaymentToken",
      "outputs": [],
      "stateMutability": "nonpayable",
      "type": "function"
    },
    {
      "inputs": [
        {
          "internalType": "uint256",
          "name": "tier",
          "type": "uint256"
        }
      ],
      "name": "mintWithBaseToken",
      "outputs": [],
      "stateMutability": "payable",
      "type": "function"
    },
    {
      "inputs": [
        {
          "internalType": "uint256",
          "name": "tier",
          "type": "uint256"
        }
      ],
      "name": "mintWithPaymentToken",
      "outputs": [],
      "stateMutability": "nonpayable",
      "type": "function"
    },
    {
      "inputs": [],
      "name": "name",
      "outputs": [
        {
          "internalType": "string",
          "name": "",
          "type": "string"
        }
      ],
      "stateMutability": "view",
      "type": "function"
    },
    {
      "inputs": [],
      "name": "owner",
      "outputs": [
        {
          "internalType": "address",
          "name": "",
          "type": "address"
        }
      ],
      "stateMutability": "view",
      "type": "function"
    },
    {
      "inputs": [
        {
          "internalType": "uint256",
          "name": "tokenId",
          "type": "uint256"
        }
      ],
      "name": "ownerOf",
      "outputs": [
        {
          "internalType": "address",
          "name": "",
          "type": "address"
        }
      ],
      "stateMutability": "view",
      "type": "function"
    },
    {
      "inputs": [
        {
          "internalType": "uint256",
          "name": "",
          "type": "uint256"
        }
      ],
      "name": "participants",
      "outputs": [
        {
          "internalType": "address",
          "name": "owner",
          "type": "address"
        },
        {
          "internalType": "uint256",
          "name": "lottoID",
          "type": "uint256"
        },
        {
          "internalType": "uint256",
          "name": "weightStart",
          "type": "uint256"
        },
        {
          "internalType": "uint256",
          "name": "weightEnd",
          "type": "uint256"
        },
        {
          "internalType": "uint256",
          "name": "tier",
          "type": "uint256"
        }
      ],
      "stateMutability": "view",
      "type": "function"
    },
    {
      "inputs": [],
      "name": "paymentToken",
      "outputs": [
        {
          "internalType": "address",
          "name": "",
          "type": "address"
        }
      ],
      "stateMutability": "view",
      "type": "function"
    },
    {
      "inputs": [],
      "name": "prizePool",
      "outputs": [
        {
          "internalType": "uint256",
          "name": "",
          "type": "uint256"
        }
      ],
      "stateMutability": "view",
      "type": "function"
    },
    {
      "inputs": [],
      "name": "proxiableUUID",
      "outputs": [
        {
          "internalType": "bytes32",
          "name": "",
          "type": "bytes32"
        }
      ],
      "stateMutability": "view",
      "type": "function"
    },
    {
      "inputs": [],
      "name": "renounceOwnership",
      "outputs": [],
      "stateMutability": "nonpayable",
      "type": "function"
    },
    {
      "inputs": [
        {
          "internalType": "address",
          "name": "from",
          "type": "address"
        },
        {
          "internalType": "address",
          "name": "to",
          "type": "address"
        },
        {
          "internalType": "uint256",
          "name": "tokenId",
          "type": "uint256"
        }
      ],
      "name": "safeTransferFrom",
      "outputs": [],
      "stateMutability": "nonpayable",
      "type": "function"
    },
    {
      "inputs": [
        {
          "internalType": "address",
          "name": "from",
          "type": "address"
        },
        {
          "internalType": "address",
          "name": "to",
          "type": "address"
        },
        {
          "internalType": "uint256",
          "name": "tokenId",
          "type": "uint256"
        },
        {
          "internalType": "bytes",
          "name": "data",
          "type": "bytes"
        }
      ],
      "name": "safeTransferFrom",
      "outputs": [],
      "stateMutability": "nonpayable",
      "type": "function"
    },
    {
      "inputs": [
        {
          "internalType": "address",
          "name": "token",
          "type": "address"
        }
      ],
      "name": "setAnotherPaymentToken",
      "outputs": [],
      "stateMutability": "nonpayable",
      "type": "function"
    },
    {
      "inputs": [
        {
          "internalType": "address",
          "name": "operator",
          "type": "address"
        },
        {
          "internalType": "bool",
          "name": "approved",
          "type": "bool"
        }
      ],
      "name": "setApprovalForAll",
      "outputs": [],
      "stateMutability": "nonpayable",
      "type": "function"
    },
    {
      "inputs": [
        {
          "internalType": "address",
          "name": "token",
          "type": "address"
        }
      ],
      "name": "setPaymentToken",
      "outputs": [],
      "stateMutability": "nonpayable",
      "type": "function"
    },
    {
      "inputs": [
        {
          "internalType": "uint256",
          "name": "tier",
          "type": "uint256"
        },
        {
          "internalType": "uint256",
          "name": "priceInBaseToken",
          "type": "uint256"
        },
        {
          "internalType": "uint256",
          "name": "priceInPaymentToken",
          "type": "uint256"
        },
        {
          "internalType": "uint256",
          "name": "priceInAnotherPaymentToken",
          "type": "uint256"
        }
      ],
      "name": "setTierPrice",
      "outputs": [],
      "stateMutability": "nonpayable",
      "type": "function"
    },
    {
      "inputs": [
        {
          "internalType": "uint256",
          "name": "tier",
          "type": "uint256"
        },
        {
          "internalType": "uint256",
          "name": "weight",
          "type": "uint256"
        }
      ],
      "name": "setTierWeight",
      "outputs": [],
      "stateMutability": "nonpayable",
      "type": "function"
    },
    {
      "inputs": [
        {
          "internalType": "bytes4",
          "name": "interfaceId",
          "type": "bytes4"
        }
      ],
      "name": "supportsInterface",
      "outputs": [
        {
          "internalType": "bool",
          "name": "",
          "type": "bool"
        }
      ],
      "stateMutability": "view",
      "type": "function"
    },
    {
      "inputs": [],
      "name": "symbol",
      "outputs": [
        {
          "internalType": "string",
          "name": "",
          "type": "string"
        }
      ],
      "stateMutability": "view",
      "type": "function"
    },
    {
      "inputs": [
        {
          "internalType": "uint256",
          "name": "tier",
          "type": "uint256"
        }
      ],
      "name": "tierWeight",
      "outputs": [
        {
          "internalType": "uint256",
          "name": "",
          "type": "uint256"
        }
      ],
      "stateMutability": "view",
      "type": "function"
    },
    {
      "inputs": [
        {
          "internalType": "uint256",
          "name": "",
          "type": "uint256"
        }
      ],
      "name": "tiers",
      "outputs": [
        {
          "internalType": "uint256",
          "name": "priceInBaseToken",
          "type": "uint256"
        },
        {
          "internalType": "uint256",
          "name": "priceInPaymentToken",
          "type": "uint256"
        },
        {
          "internalType": "uint256",
          "name": "priceInAnotherPaymentToken",
          "type": "uint256"
        },
        {
          "internalType": "uint256",
          "name": "weight",
          "type": "uint256"
        }
      ],
      "stateMutability": "view",
      "type": "function"
    },
    {
      "inputs": [
        {
          "internalType": "uint256",
          "name": "tokenId",
          "type": "uint256"
        }
      ],
      "name": "tokenTier",
      "outputs": [
        {
          "internalType": "uint256",
          "name": "",
          "type": "uint256"
        }
      ],
      "stateMutability": "view",
      "type": "function"
    },
    {
      "inputs": [
        {
          "internalType": "uint256",
          "name": "tokenId",
          "type": "uint256"
        }
      ],
      "name": "tokenURI",
      "outputs": [
        {
          "internalType": "string",
          "name": "",
          "type": "string"
        }
      ],
      "stateMutability": "view",
      "type": "function"
    },
    {
      "inputs": [],
      "name": "totalWeight",
      "outputs": [
        {
          "internalType": "uint256",
          "name": "",
          "type": "uint256"
        }
      ],
      "stateMutability": "view",
      "type": "function"
    },
    {
      "inputs": [
        {
          "internalType": "address",
          "name": "from",
          "type": "address"
        },
        {
          "internalType": "address",
          "name": "to",
          "type": "address"
        },
        {
          "internalType": "uint256",
          "name": "tokenId",
          "type": "uint256"
        }
      ],
      "name": "transferFrom",
      "outputs": [],
      "stateMutability": "nonpayable",
      "type": "function"
    },
    {
      "inputs": [
        {
          "internalType": "address",
          "name": "newOwner",
          "type": "address"
        }
      ],
      "name": "transferOwnership",
      "outputs": [],
      "stateMutability": "nonpayable",
      "type": "function"
    },
    {
      "inputs": [
        {
          "internalType": "address",
          "name": "newImplementation",
          "type": "address"
        },
        {
          "internalType": "bytes",
          "name": "data",
          "type": "bytes"
        }
      ],
      "name": "upgradeToAndCall",
      "outputs": [],
      "stateMutability": "payable",
      "type": "function"
    },
    {
      "inputs": [],
      "name": "withdraw",
      "outputs": [],
      "stateMutability": "nonpayable",
      "type": "function"
    }
  ],
  "bytecode": "0x60a06040523060805234801561001457600080fd5b5060805161362961003e600039600081816123a3015281816123cc015261250d01526136296000f3fe6080604052600436106102935760003560e01c80637a35ebd41161015a578063a4cf58e7116100c1578063e985e9c51161007a578063e985e9c514610829578063ef32e7c714610849578063f2fde38b1461085e578063f45e36571461087e578063f84a8c0a1461089e578063fe188184146108be57600080fd5b8063a4cf58e714610773578063ad3cb1cc14610789578063ad605729146107ba578063b88d4fde146107cf578063c87b56dd146107ef578063cef5ab651461080f57600080fd5b8063926bf11f11610113578063926bf11f1461069d57806394d29be6146106bd57806395d89b41146106f357806396c82e5714610708578063a22cb4651461071e578063a3dea61e1461073e57600080fd5b80637a35ebd4146105f05780637ff931bd146106105780638129fc1c14610626578063824e89a11461063b5780638da5cb5b146106685780639085e2b51461067d57600080fd5b80633ccfd60b116101fe578063649e705f116101b7578063649e705f146105455780636a326ab11461056557806370a0823114610585578063715018a6146105a5578063719ce73e146105ba578063799e7e5a146105d057600080fd5b80633ccfd60b1461049a57806342842e0e146104af57806342966c68146104cf5780634f1ef286146104ef57806352d1902d146105025780636352211e1461052557600080fd5b80631c5ea714116102505780631c5ea714146103cb57806320e909d5146103de57806323b872dd146103f357806327e605ec146104135780633013ce291461042857806335c1d3491461044857600080fd5b806301ffc9a714610298578063039af9eb146102cd578063040b9a661461032f57806306fdde0314610351578063081812fc14610373578063095ea7b3146103ab575b600080fd5b3480156102a457600080fd5b506102b86102b3366004612f52565b6108de565b60405190151581526020015b60405180910390f35b3480156102d957600080fd5b5061030f6102e8366004612f6f565b60046020526000908152604090208054600182015460028301546003909301549192909184565b6040805194855260208501939093529183015260608201526080016102c4565b34801561033b57600080fd5b5061034f61034a366004612fa4565b610930565b005b34801561035d57600080fd5b5061036661098d565b6040516102c4919061300f565b34801561037f57600080fd5b5061039361038e366004612f6f565b610a31565b6040516001600160a01b0390911681526020016102c4565b3480156103b757600080fd5b5061034f6103c6366004613022565b610a46565b61034f6103d9366004612f6f565b610a55565b3480156103ea57600080fd5b5061034f610b71565b3480156103ff57600080fd5b5061034f61040e36600461304c565b610bae565b34801561041f57600080fd5b50610393610c39565b34801561043457600080fd5b50600254610393906001600160a01b031681565b34801561045457600080fd5b50610468610463366004612f6f565b610fb8565b604080516001600160a01b0390961686526020860194909452928401919091526060830152608082015260a0016102c4565b3480156104a657600080fd5b5061034f611003565b3480156104bb57600080fd5b5061034f6104ca36600461304c565b611304565b3480156104db57600080fd5b5061034f6104ea366004612f6f565b611324565b61034f6104fd36600461312b565b6113de565b34801561050e57600080fd5b506105176113f9565b6040519081526020016102c4565b34801561053157600080fd5b50610393610540366004612f6f565b611416565b34801561055157600080fd5b50610517610560366004612f6f565b611421565b34801561057157600080fd5b5061034f610580366004612fa4565b61148d565b34801561059157600080fd5b506105176105a0366004612fa4565b6114e3565b3480156105b157600080fd5b5061034f61153f565b3480156105c657600080fd5b50610517600d5481565b3480156105dc57600080fd5b5061034f6105eb366004613179565b611551565b3480156105fc57600080fd5b5061034f61060b366004612f6f565b61161d565b34801561061c57600080fd5b50610517600c5481565b34801561063257600080fd5b5061034f611750565b34801561064757600080fd5b5061065b610656366004612fa4565b611923565b6040516102c4919061319b565b34801561067457600080fd5b506103936119ac565b34801561068957600080fd5b5061034f610698366004612f6f565b6119da565b3480156106a957600080fd5b506105176106b8366004612f6f565b611adb565b3480156106c957600080fd5b506103936106d8366004612f6f565b6006602052600090815260409020546001600160a01b031681565b3480156106ff57600080fd5b50610366611b13565b34801561071457600080fd5b5061051760095481565b34801561072a57600080fd5b5061034f6107393660046131ea565b611b52565b34801561074a57600080fd5b5061075e610759366004613022565b611b5d565b604080519283526020830191909152016102c4565b34801561077f57600080fd5b50610517600b5481565b34801561079557600080fd5b50610366604051806040016040528060058152602001640352e302e360dc1b81525081565b3480156107c657600080fd5b50600854610517565b3480156107db57600080fd5b5061034f6107ea366004613226565b611b99565b3480156107fb57600080fd5b5061036661080a366004612f6f565b611bb1565b34801561081b57600080fd5b50600e546102b89060ff1681565b34801561083557600080fd5b506102b861084436600461328e565b611c26565b34801561085557600080fd5b5061034f611c73565b34801561086a57600080fd5b5061034f610879366004612fa4565b611cb3565b34801561088a57600080fd5b5061034f6108993660046132c1565b611cee565b3480156108aa57600080fd5b50600354610393906001600160a01b031681565b3480156108ca57600080fd5b50600a54610393906001600160a01b031681565b60006001600160e01b031982166380ac58cd60e01b148061090f57506001600160e01b03198216635b5e139f60e01b145b8061092a57506301ffc9a760e01b6001600160e01b03198316145b92915050565b610938611df3565b600380546001600160a01b0319166001600160a01b0383169081179091556040519081527f5b6fb23beb24f456731b7c4627d0eb0966bc5df951f350ab68efbaea7679ea90906020015b60405180910390a150565b60008051602061359483398151915280546060919081906109ad906132f3565b80601f01602080910402602001604051908101604052809291908181526020018280546109d9906132f3565b8015610a265780601f106109fb57610100808354040283529160200191610a26565b820191906000526020600020905b815481529060010190602001808311610a0957829003601f168201915b505050505091505090565b6000610a3c82611e25565b5061092a82611e5d565b610a51828233611e97565b5050565b610a5d611ea4565b80600a8110610a875760405162461bcd60e51b8152600401610a7e9061332d565b60405180910390fd5b600082815260046020526040902054341015610adc5760405162461bcd60e51b8152602060048201526014602482015273125b9cdd59999a58da595b9d081c185e5b595b9d60621b6044820152606401610a7e565b600082815260046020526040902054610b4d5760405162461bcd60e51b815260206004820152602d60248201527f4261736520746f6b656e207061796d656e74206e6f742061636365707465642060448201526c3337b9103a3434b9903a34b2b960991b6064820152608401610a7e565b610b5682611edc565b50610b6e60016000805160206135d483398151915255565b50565b610b79611df3565b600e805460ff191690556040517f74df1bc862cba4084b17d1a74065576a4b293835e6e3aeac6a685b9b78a07b2e90600090a1565b6001600160a01b038216610bd857604051633250574960e11b815260006004820152602401610a7e565b6000610be58383336120f8565b9050836001600160a01b0316816001600160a01b031614610c33576040516364283d7b60e01b81526001600160a01b0380861660048301526024820184905282166044820152606401610a7e565b50505050565b6000610c43611df3565b610c4b611ea4565b600e5460ff16610c955760405162461bcd60e51b81526020600482015260156024820152744c6f7474657279206973206e6f742061637469766560581b6044820152606401610a7e565b600060095411610ce75760405162461bcd60e51b815260206004820152601a60248201527f4e6f207061727469636970616e747320696e206c6f74746572790000000000006044820152606401610a7e565b600854610d285760405162461bcd60e51b815260206004820152600f60248201526e4e6f207061727469636970616e747360881b6044820152606401610a7e565b60095460085460408051426020820152449181019190915233606090811b6bffffffffffffffffffffffff1916908201526074810191909152609481018290526000919060b4016040516020818303038152906040528051906020012060001c610d929190613353565b90506000610d9f8261217c565b600a80546001600160a01b0319166001600160a01b038316179055600c839055905060005b600854811015610ea257816001600160a01b031660088281548110610deb57610deb613375565b60009182526020909120600590910201546001600160a01b0316148015610e36575060088181548110610e2057610e20613375565b9060005260206000209060050201600201548310155b8015610e65575060088181548110610e5057610e50613375565b90600052602060002090600502016003015483105b15610e9a5760088181548110610e7d57610e7d613375565b906000526020600020906005020160010154600b81905550610ea2565b600101610dc4565b5047600d8190558015610f4c576000826001600160a01b03168260405160006040518083038185875af1925050503d8060008114610efc576040519150601f19603f3d011682016040523d82523d6000602084013e610f01565b606091505b5050905080610f4a5760405162461bcd60e51b8152602060048201526015602482015274141c9a5e99481d1c985b9cd9995c8819985a5b1959605a1b6044820152606401610a7e565b505b600b54604080519182526020820185905281018290526001600160a01b038316907fed09dcfdb72700cc8551d32c412eb1a718e212c39f75adc395e1c4f4d14f645d9060600160405180910390a250915050610fb560016000805160206135d483398151915255565b90565b60088181548110610fc857600080fd5b6000918252602090912060059091020180546001820154600283015460038401546004909401546001600160a01b0390931694509092909185565b61100b611df3565b611013611ea4565b4780156111085760006110246119ac565b6001600160a01b03168260405160006040518083038185875af1925050503d806000811461106e576040519150601f19603f3d011682016040523d82523d6000602084013e611073565b606091505b50509050806110bc5760405162461bcd60e51b8152602060048201526015602482015274115512081dda5d1a191c985dd85b0819985a5b1959605a1b6044820152606401610a7e565b6110c46119ac565b6001600160a01b03167f7084f5476618d8e60b11ef0d7d3f06914655adb8793e28ff7f018d4c76d505d5836040516110fe91815260200190565b60405180910390a2505b6002546001600160a01b0316156111f9576002546040516370a0823160e01b81523060048201526000916001600160a01b0316906370a0823190602401602060405180830381865afa158015611162573d6000803e3d6000fd5b505050506040513d601f19601f82011682018060405250810190611186919061338b565b905080156111f7576111ac6111996119ac565b6002546001600160a01b0316908361225e565b6111b46119ac565b6001600160a01b03167f7084f5476618d8e60b11ef0d7d3f06914655adb8793e28ff7f018d4c76d505d5826040516111ee91815260200190565b60405180910390a25b505b6003546001600160a01b0316156112ea576003546040516370a0823160e01b81523060048201526000916001600160a01b0316906370a0823190602401602060405180830381865afa158015611253573d6000803e3d6000fd5b505050506040513d601f19601f82011682018060405250810190611277919061338b565b905080156112e85761129d61128a6119ac565b6003546001600160a01b0316908361225e565b6112a56119ac565b6001600160a01b03167f7084f5476618d8e60b11ef0d7d3f06914655adb8793e28ff7f018d4c76d505d5826040516112df91815260200190565b60405180910390a25b505b5061130260016000805160206135d483398151915255565b565b61131f83838360405180602001604052806000815250611b99565b505050565b600061132f826122bd565b90506001600160a01b03811661137e5760405162461bcd60e51b8152602060048201526014602482015273151bdad95b88191bd95cc81b9bdd08195e1a5cdd60621b6044820152606401610a7e565b6113898133846122f7565b6113d55760405162461bcd60e51b815260206004820181905260248201527f43616c6c6572206973206e6f74206f776e6572206e6f7220617070726f7665646044820152606401610a7e565b610a518261235d565b6113e6612398565b6113ef8261243d565b610a518282612445565b6000611403612502565b506000805160206135b483398151915290565b600061092a82611e25565b60008061142d836122bd565b6001600160a01b03160361147a5760405162461bcd60e51b8152602060048201526014602482015273151bdad95b88191bd95cc81b9bdd08195e1a5cdd60621b6044820152606401610a7e565b5060009081526005602052604090205490565b611495611df3565b600280546001600160a01b0319166001600160a01b0383169081179091556040519081527fcb0aeffe884eb88fb2a31a2f3e4bd1d2763bdee48ba93b28c6e87501228cf74390602001610982565b60006000805160206135948339815191526001600160a01b03831661151e576040516322718ad960e21b815260006004820152602401610a7e565b6001600160a01b039092166000908152600390920160205250604090205490565b611547611df3565b611302600061254b565b611559611df3565b81600a811061157a5760405162461bcd60e51b8152600401610a7e9061332d565b600082116115ca5760405162461bcd60e51b815260206004820152601d60248201527f576569676874206d7573742062652067726561746572207468616e20300000006044820152606401610a7e565b60008381526004602090815260409182902060030184905581518581529081018490527f7e2bcec4c4da907839a53499f83e02712d5989e4e5feca3f61ae60c5fe646fe0910160405180910390a1505050565b611625611ea4565b80600a81106116465760405162461bcd60e51b8152600401610a7e9061332d565b600082815260046020526040902060020154806116be5760405162461bcd60e51b815260206004820152603060248201527f416e6f74686572207061796d656e7420746f6b656e206e6f742061636365707460448201526f32b2103337b9103a3434b9903a34b2b960811b6064820152608401610a7e565b6003546001600160a01b03166117165760405162461bcd60e51b815260206004820152601d60248201527f416e6f74686572207061796d656e7420746f6b656e206e6f74207365740000006044820152606401610a7e565b60035461172e906001600160a01b03163330846125bc565b61173783611edc565b5050610b6e60016000805160206135d483398151915255565b600061175a6125f5565b805490915060ff600160401b820416159067ffffffffffffffff166000811580156117825750825b905060008267ffffffffffffffff16600114801561179f5750303b155b9050811580156117ad575080155b156117cb5760405163f92ee8a960e01b815260040160405180910390fd5b845467ffffffffffffffff1916600117855583156117f557845460ff60401b1916600160401b1785555b6118536040518060400160405280601881526020017f4e46544c6f74746572794d696e74696e67546965725631310000000000000000815250604051806040016040528060078152602001664e46545456313160c81b81525061261e565b61185c33612630565b611864612641565b60005b600a8110156118c2576040805160808101825260008082526020808301828152838501838152600180881b60608701908152888652600490945295909320935184555183850155905160028301555160039091015501611867565b506000600955600e805460ff19166001179055831561191c57845460ff60401b19168555604051600181527fc7f505b2f371ae2175ee4913f4499e1f2633a7b5936321eed1cdaeb6115181d2906020015b60405180910390a15b5050505050565b6001600160a01b0381166000908152600760209081526040808320805482518185028101850190935280835260609492939192909184015b828210156119a15783829060005260206000209060020201604051806040016040529081600082015481526020016001820154815250508152602001906001019061195b565b505050509050919050565b7f9016d09d72d40fdae2fd8ceac6b6234c7706214fd39c1cd1e609a0528c199300546001600160a01b031690565b6119e2611ea4565b80600a8110611a035760405162461bcd60e51b8152600401610a7e9061332d565b60008281526004602052604090206001015480611a735760405162461bcd60e51b815260206004820152602860248201527f5061796d656e7420746f6b656e206e6f7420616363657074656420666f7220746044820152673434b9903a34b2b960c11b6064820152608401610a7e565b6002546001600160a01b0316611ac35760405162461bcd60e51b815260206004820152601560248201527414185e5b595b9d081d1bdad95b881b9bdd081cd95d605a1b6044820152606401610a7e565b60025461172e906001600160a01b03163330846125bc565b6000600a8210611afd5760405162461bcd60e51b8152600401610a7e9061332d565b5060009081526004602052604090206003015490565b7f80bb2b638cc20bc4d0a60d66940f3ab4a00c1d7b313497ca82fb0b4ab00793018054606091600080516020613594833981519152916109ad906132f3565b610a51338383612651565b60076020528160005260406000208181548110611b7957600080fd5b600091825260209091206002909102018054600190910154909250905082565b611ba4848484610bae565b610c333385858585612702565b6060611bbc82611e25565b506000611bd460408051602081019091526000815290565b90506000815111611bf45760405180602001604052806000815250611c1f565b80611bfe8461282c565b604051602001611c0f9291906133a4565b6040516020818303038152906040525b9392505050565b6001600160a01b0391821660009081527f80bb2b638cc20bc4d0a60d66940f3ab4a00c1d7b313497ca82fb0b4ab00793056020908152604080832093909416825291909152205460ff1690565b611c7b611df3565b600e805460ff191660011790556040517f087d66fb14d5e7a378d0ea283559bbb0aca0f39dc8e0b4b98b78d07cba2ac47290600090a1565b611cbb611df3565b6001600160a01b038116611ce557604051631e4fbdf760e01b815260006004820152602401610a7e565b610b6e8161254b565b611cf6611df3565b83600a8110611d175760405162461bcd60e51b8152600401610a7e9061332d565b6000841180611d265750600083115b80611d315750600082115b611d8f5760405162461bcd60e51b815260206004820152602960248201527f4174206c65617374206f6e65207072696365206d75737420626520677265617460448201526806572207468616e20360bc1b6064820152608401610a7e565b600085815260046020908152604091829020868155600181018690556002018490558151878152908101869052908101849052606081018390527fe9fcef5eca84412d58f6361b8614f65ec2221bb80de2cb87f249976614ccf90690608001611913565b33611dfc6119ac565b6001600160a01b0316146113025760405163118cdaa760e01b8152336004820152602401610a7e565b600080611e31836122bd565b90506001600160a01b03811661092a57604051637e27328960e01b815260048101849052602401610a7e565b60009081527f80bb2b638cc20bc4d0a60d66940f3ab4a00c1d7b313497ca82fb0b4ab007930460205260409020546001600160a01b031690565b61131f83838360016128bf565b6000805160206135d4833981519152805460011901611ed657604051633ee5aeb560e01b815260040160405180910390fd5b60029055565b600e5460ff16611f265760405162461bcd60e51b81526020600482015260156024820152744c6f7474657279206973206e6f742061637469766560581b6044820152606401610a7e565b6000805490819080611f37836133e9565b90915550506000818152600560205260409020829055611f5733826129d5565b600180549081906000611f69836133e9565b9091555050600081815260066020908152604080832080546001600160a01b03191633908117909155808452600783528184208251808401845286815288865260048086528487206003018054838801908152845460018181018755958a52888a2094516002909102909401938455519290930191909155948890529383529254815160a08101835293845291830184905260095490830181905290916008916060820190612019908590613402565b815260209081018790528254600180820185556000948552828520845160059093020180546001600160a01b0319166001600160a01b039093169290921782559183015191810191909155604082015160028201556060820151600382015560809091015160049091015560098054839290612096908490613402565b9091555050604080518481526020810186905290810183905233907f10546b1a6f5245ff0ffa18c256b9e46859c585cbb473b453fcd4c2dc39ae08db9060600160405180910390a250505050565b60016000805160206135d483398151915255565b600080612104846122bd565b90506001600160a01b038116158061212357506001600160a01b038516155b6121685760405162461bcd60e51b8152602060048201526016602482015275151c985b9cd9995c9cc8185c9948191a5cd8589b195960521b6044820152606401610a7e565b612173858585612a3a565b95945050505050565b6000805b600854811015612222576008818154811061219d5761219d613375565b90600052602060002090600502016002015483101580156121e15750600881815481106121cc576121cc613375565b90600052602060002090600502016003015483105b1561221a57600881815481106121f9576121f9613375565b60009182526020909120600590910201546001600160a01b03169392505050565b600101612180565b5060405162461bcd60e51b815260206004820152601060248201526f15da5b9b995c881b9bdd08199bdd5b9960821b6044820152606401610a7e565b6040516001600160a01b0383811660248301526044820183905261131f91859182169063a9059cbb906064015b604051602081830303815290604052915060e01b6020820180516001600160e01b038381831617835250505050612b44565b60009081527f80bb2b638cc20bc4d0a60d66940f3ab4a00c1d7b313497ca82fb0b4ab007930260205260409020546001600160a01b031690565b60006001600160a01b038316158015906123555750826001600160a01b0316846001600160a01b0316148061233157506123318484611c26565b806123555750826001600160a01b031661234a83611e5d565b6001600160a01b0316145b949350505050565b600061236c60008360006120f8565b90506001600160a01b038116610a5157604051637e27328960e01b815260048101839052602401610a7e565b306001600160a01b037f000000000000000000000000000000000000000000000000000000000000000016148061241f57507f00000000000000000000000000000000000000000000000000000000000000006001600160a01b03166124136000805160206135b4833981519152546001600160a01b031690565b6001600160a01b031614155b156113025760405163703e46dd60e11b815260040160405180910390fd5b610b6e611df3565b816001600160a01b03166352d1902d6040518163ffffffff1660e01b8152600401602060405180830381865afa92505050801561249f575060408051601f3d908101601f1916820190925261249c9181019061338b565b60015b6124c757604051634c9c8ce360e01b81526001600160a01b0383166004820152602401610a7e565b6000805160206135b483398151915281146124f857604051632a87526960e21b815260048101829052602401610a7e565b61131f8383612bb5565b306001600160a01b037f000000000000000000000000000000000000000000000000000000000000000016146113025760405163703e46dd60e11b815260040160405180910390fd5b7f9016d09d72d40fdae2fd8ceac6b6234c7706214fd39c1cd1e609a0528c19930080546001600160a01b031981166001600160a01b03848116918217845560405192169182907f8be0079c531659141344cd1fd0a4f28419497f9722a3daafe3b4186f6b6457e090600090a3505050565b6040516001600160a01b038481166024830152838116604483015260648201839052610c339186918216906323b872dd9060840161228b565b6000807ff0c57e16840df040f15088dc2f81fe391c3923bec73e23a9662efc9c229c6a0061092a565b612626612c0b565b610a518282612c30565b612638612c0b565b610b6e81612c61565b612649612c0b565b611302612c69565b6000805160206135948339815191526001600160a01b03831661269257604051630b61174360e31b81526001600160a01b0384166004820152602401610a7e565b6001600160a01b038481166000818152600584016020908152604080832094881680845294825291829020805460ff191687151590811790915591519182527f17307eab39ab6107e8899845ad3d59bd9653f200f220920489ca2b5937696c31910160405180910390a350505050565b6001600160a01b0383163b1561191c57604051630a85bd0160e11b81526001600160a01b0384169063150b7a0290612744908890889087908790600401613415565b6020604051808303816000875af192505050801561277f575060408051601f3d908101601f1916820190925261277c91810190613452565b60015b6127e8573d8080156127ad576040519150601f19603f3d011682016040523d82523d6000602084013e6127b2565b606091505b5080516000036127e057604051633250574960e11b81526001600160a01b0385166004820152602401610a7e565b805160208201fd5b6001600160e01b03198116630a85bd0160e11b1461282457604051633250574960e11b81526001600160a01b0385166004820152602401610a7e565b505050505050565b6060600061283983612c71565b600101905060008167ffffffffffffffff81111561285957612859613088565b6040519080825280601f01601f191660200182016040528015612883576020820181803683370190505b5090508181016020015b600019016f181899199a1a9b1b9c1cb0b131b232b360811b600a86061a8153600a850494508461288d57509392505050565b60008051602061359483398151915281806128e257506001600160a01b03831615155b156129a45760006128f285611e25565b90506001600160a01b0384161580159061291e5750836001600160a01b0316816001600160a01b031614155b8015612931575061292f8185611c26565b155b1561295a5760405163a9fbf51f60e01b81526001600160a01b0385166004820152602401610a7e565b82156129a25784866001600160a01b0316826001600160a01b03167f8c5be1e5ebec7d5bd14f71427d1e84f3dd0314c0f7b2291e5b200ac8c7c3b92560405160405180910390a45b505b600093845260040160205250506040902080546001600160a01b0319166001600160a01b0392909216919091179055565b6001600160a01b0382166129ff57604051633250574960e11b815260006004820152602401610a7e565b6000612a0d838360006120f8565b90506001600160a01b0381161561131f576040516339e3563760e11b815260006004820152602401610a7e565b600060008051602061359483398151915281612a55856122bd565b90506001600160a01b03841615612a7157612a71818587612d49565b6001600160a01b03811615612ab157612a8e6000866000806128bf565b6001600160a01b0381166000908152600383016020526040902080546000190190555b6001600160a01b03861615612ae2576001600160a01b03861660009081526003830160205260409020805460010190555b600085815260028301602052604080822080546001600160a01b0319166001600160a01b038a811691821790925591518893918516917fddf252ad1be2c89b69c2b068fc378daa952ba7f163c4a11628f55a4df523b3ef91a495945050505050565b600080602060008451602086016000885af180612b67576040513d6000823e3d81fd5b50506000513d91508115612b7f578060011415612b8c565b6001600160a01b0384163b155b15610c3357604051635274afe760e01b81526001600160a01b0385166004820152602401610a7e565b612bbe82612dad565b6040516001600160a01b038316907fbc7cd75a20ee27fd9adebab32041f755214dbc6bffa90cc0225b39da2e5c2d3b90600090a2805115612c035761131f8282612e12565b610a51612e7f565b612c13612e9e565b61130257604051631afcd79f60e31b815260040160405180910390fd5b612c38612c0b565b60008051602061359483398151915280612c5284826134b7565b5060018101610c3383826134b7565b611cbb612c0b565b6120e4612c0b565b60008072184f03e93ff9f4daa797ed6e38ed64bf6a1f0160401b8310612cb05772184f03e93ff9f4daa797ed6e38ed64bf6a1f0160401b830492506040015b6d04ee2d6d415b85acef81000000008310612cdc576d04ee2d6d415b85acef8100000000830492506020015b662386f26fc100008310612cfa57662386f26fc10000830492506010015b6305f5e1008310612d12576305f5e100830492506008015b6127108310612d2657612710830492506004015b60648310612d38576064830492506002015b600a831061092a5760010192915050565b612d548383836122f7565b61131f576001600160a01b038316612d8257604051637e27328960e01b815260048101829052602401610a7e565b60405163177e802f60e01b81526001600160a01b038316600482015260248101829052604401610a7e565b806001600160a01b03163b600003612de357604051634c9c8ce360e01b81526001600160a01b0382166004820152602401610a7e565b6000805160206135b483398151915280546001600160a01b0319166001600160a01b0392909216919091179055565b6060600080846001600160a01b031684604051612e2f9190613577565b600060405180830381855af49150503d8060008114612e6a576040519150601f19603f3d011682016040523d82523d6000602084013e612e6f565b606091505b5091509150612173858383612eb8565b34156113025760405163b398979f60e01b815260040160405180910390fd5b6000612ea86125f5565b54600160401b900460ff16919050565b606082612ecd57612ec882612f14565b611c1f565b8151158015612ee457506001600160a01b0384163b155b15612f0d57604051639996b31560e01b81526001600160a01b0385166004820152602401610a7e565b5080611c1f565b805115612f2357805160208201fd5b60405163d6bda27560e01b815260040160405180910390fd5b6001600160e01b031981168114610b6e57600080fd5b600060208284031215612f6457600080fd5b8135611c1f81612f3c565b600060208284031215612f8157600080fd5b5035919050565b80356001600160a01b0381168114612f9f57600080fd5b919050565b600060208284031215612fb657600080fd5b611c1f82612f88565b60005b83811015612fda578181015183820152602001612fc2565b50506000910152565b60008151808452612ffb816020860160208601612fbf565b601f01601f19169290920160200192915050565b602081526000611c1f6020830184612fe3565b6000806040838503121561303557600080fd5b61303e83612f88565b946020939093013593505050565b60008060006060848603121561306157600080fd5b61306a84612f88565b925061307860208501612f88565b9150604084013590509250925092565b634e487b7160e01b600052604160045260246000fd5b600082601f8301126130af57600080fd5b813567ffffffffffffffff808211156130ca576130ca613088565b604051601f8301601f19908116603f011681019082821181831017156130f2576130f2613088565b8160405283815286602085880101111561310b57600080fd5b836020870160208301376000602085830101528094505050505092915050565b6000806040838503121561313e57600080fd5b61314783612f88565b9150602083013567ffffffffffffffff81111561316357600080fd5b61316f8582860161309e565b9150509250929050565b6000806040838503121561318c57600080fd5b50508035926020909101359150565b602080825282518282018190526000919060409081850190868401855b828110156131dd578151805185528601518685015292840192908501906001016131b8565b5091979650505050505050565b600080604083850312156131fd57600080fd5b61320683612f88565b91506020830135801515811461321b57600080fd5b809150509250929050565b6000806000806080858703121561323c57600080fd5b61324585612f88565b935061325360208601612f88565b925060408501359150606085013567ffffffffffffffff81111561327657600080fd5b6132828782880161309e565b91505092959194509250565b600080604083850312156132a157600080fd5b6132aa83612f88565b91506132b860208401612f88565b90509250929050565b600080600080608085870312156132d757600080fd5b5050823594602084013594506040840135936060013592509050565b600181811c9082168061330757607f821691505b60208210810361332757634e487b7160e01b600052602260045260246000fd5b50919050565b6020808252600c908201526b24b73b30b634b2103a34b2b960a11b604082015260600190565b60008261337057634e487b7160e01b600052601260045260246000fd5b500690565b634e487b7160e01b600052603260045260246000fd5b60006020828403121561339d57600080fd5b5051919050565b600083516133b6818460208801612fbf565b8351908301906133ca818360208801612fbf565b01949350505050565b634e487b7160e01b600052601160045260246000fd5b6000600182016133fb576133fb6133d3565b5060010190565b8082018082111561092a5761092a6133d3565b6001600160a01b038581168252841660208201526040810183905260806060820181905260009061344890830184612fe3565b9695505050505050565b60006020828403121561346457600080fd5b8151611c1f81612f3c565b601f82111561131f576000816000526020600020601f850160051c810160208610156134985750805b601f850160051c820191505b81811015612824578281556001016134a4565b815167ffffffffffffffff8111156134d1576134d1613088565b6134e5816134df84546132f3565b8461346f565b602080601f83116001811461351a57600084156135025750858301515b600019600386901b1c1916600185901b178555612824565b600085815260208120601f198616915b828110156135495788860151825594840194600190910190840161352a565b50858210156135675787850151600019600388901b60f8161c191681555b5050505050600190811b01905550565b60008251613589818460208701612fbf565b919091019291505056fe80bb2b638cc20bc4d0a60d66940f3ab4a00c1d7b313497ca82fb0b4ab0079300360894a13ba1a3210667c828492db98dca3e2076cc3735a920a3ca505d382bbc9b779b17422d0df92223018b32b4d1fa46e071723d6817e2486d003becc55f00a26469706673582212209373e9a0fc90bb976a3863457b56820f2c49713c0d4896c0e923ba5df7c5d46364736f6c63430008160033",
  "linkReferences": {},
  "deployedLinkReferences": {}
}