{
  "_format": "hh-sol-artifact-1",
  "contractName": "RewardPointsManager",
  "sourceName": "contracts/RewardPointsManager.sol",
  "abi": [
    {
      "inputs": [
        {
          "internalType": "address",
          "name": "_stakingToken",
          "type": "address"
        },
        {
          "internalType": "address",
          "name": "_rewardPoints",
          "type": "address"
        },
        {
          "internalType": "uint256",
          "name": "_baseRewardRate",
          "type": "uint256"
        }
      ],
      "stateMutability": "nonpayable",
      "type": "constructor"
    },
    {
      "inputs": [],
      "name": "EnforcedPause",
      "type": "error"
    },
    {
      "inputs": [],
      "name": "ExpectedPause",
      "type": "error"
    },
    {
      "inputs": [
        {
          "internalType": "address",
          "name": "owner",
          "type": "address"
        }
      ],
      "name": "OwnableInvalidOwner",
      "type": "error"
    },
    {
      "inputs": [
        {
          "internalType": "address",
          "name": "account",
          "type": "address"
        }
      ],
      "name": "OwnableUnauthorizedAccount",
      "type": "error"
    },
    {
      "inputs": [],
      "name": "ReentrancyGuardReentrantCall",
      "type": "error"
    },
    {
      "anonymous": false,
      "inputs": [
        {
          "indexed": false,
          "internalType": "uint256",
          "name": "oldRate",
          "type": "uint256"
        },
        {
          "indexed": false,
          "internalType": "uint256",
          "name": "newRate",
          "type": "uint256"
        }
      ],
      "name": "BaseRewardRateUpdated",
      "type": "event"
    },
    {
      "anonymous": false,
      "inputs": [
        {
          "indexed": false,
          "internalType": "uint256",
          "name": "tier",
          "type": "uint256"
        },
        {
          "indexed": false,
          "internalType": "uint256",
          "name": "multiplier",
          "type": "uint256"
        },
        {
          "indexed": false,
          "internalType": "uint256",
          "name": "threshold",
          "type": "uint256"
        }
      ],
      "name": "MultiplierTierUpdated",
      "type": "event"
    },
    {
      "anonymous": false,
      "inputs": [
        {
          "indexed": true,
          "internalType": "address",
          "name": "previousOwner",
          "type": "address"
        },
        {
          "indexed": true,
          "internalType": "address",
          "name": "newOwner",
          "type": "address"
        }
      ],
      "name": "OwnershipTransferred",
      "type": "event"
    },
    {
      "anonymous": false,
      "inputs": [
        {
          "indexed": false,
          "internalType": "address",
          "name": "account",
          "type": "address"
        }
      ],
      "name": "Paused",
      "type": "event"
    },
    {
      "anonymous": false,
      "inputs": [
        {
          "indexed": true,
          "internalType": "address",
          "name": "token",
          "type": "address"
        }
      ],
      "name": "RewardPointsSet",
      "type": "event"
    },
    {
      "anonymous": false,
      "inputs": [
        {
          "indexed": true,
          "internalType": "address",
          "name": "user",
          "type": "address"
        },
        {
          "indexed": false,
          "internalType": "uint256",
          "name": "amount",
          "type": "uint256"
        },
        {
          "indexed": false,
          "internalType": "uint256",
          "name": "timeElapsed",
          "type": "uint256"
        }
      ],
      "name": "RewardsClaimed",
      "type": "event"
    },
    {
      "anonymous": false,
      "inputs": [
        {
          "indexed": true,
          "internalType": "address",
          "name": "token",
          "type": "address"
        }
      ],
      "name": "StakingTokenSet",
      "type": "event"
    },
    {
      "anonymous": false,
      "inputs": [
        {
          "indexed": false,
          "internalType": "address",
          "name": "account",
          "type": "address"
        }
      ],
      "name": "Unpaused",
      "type": "event"
    },
    {
      "inputs": [],
      "name": "baseRewardRate",
      "outputs": [
        {
          "internalType": "uint256",
          "name": "",
          "type": "uint256"
        }
      ],
      "stateMutability": "view",
      "type": "function"
    },
    {
      "inputs": [],
      "name": "claimRewards",
      "outputs": [],
      "stateMutability": "nonpayable",
      "type": "function"
    },
    {
      "inputs": [
        {
          "internalType": "uint256",
          "name": "_index",
          "type": "uint256"
        }
      ],
      "name": "getTier",
      "outputs": [
        {
          "internalType": "uint256",
          "name": "multiplier",
          "type": "uint256"
        },
        {
          "internalType": "uint256",
          "name": "threshold",
          "type": "uint256"
        }
      ],
      "stateMutability": "view",
      "type": "function"
    },
    {
      "inputs": [],
      "name": "getTierCount",
      "outputs": [
        {
          "internalType": "uint256",
          "name": "",
          "type": "uint256"
        }
      ],
      "stateMutability": "view",
      "type": "function"
    },
    {
      "inputs": [
        {
          "internalType": "address",
          "name": "_user",
          "type": "address"
        }
      ],
      "name": "getUserClaimData",
      "outputs": [
        {
          "internalType": "uint256",
          "name": "lastClaimTime",
          "type": "uint256"
        },
        {
          "internalType": "uint256",
          "name": "balanceAtLastClaim",
          "type": "uint256"
        },
        {
          "internalType": "uint256",
          "name": "totalClaimed",
          "type": "uint256"
        },
        {
          "internalType": "uint256",
          "name": "currentBalance",
          "type": "uint256"
        },
        {
          "internalType": "uint256",
          "name": "pendingReward",
          "type": "uint256"
        }
      ],
      "stateMutability": "view",
      "type": "function"
    },
    {
      "inputs": [
        {
          "internalType": "address",
          "name": "_user",
          "type": "address"
        }
      ],
      "name": "getUserMultiplier",
      "outputs": [
        {
          "internalType": "uint256",
          "name": "",
          "type": "uint256"
        }
      ],
      "stateMutability": "view",
      "type": "function"
    },
    {
      "inputs": [
        {
          "internalType": "uint256",
          "name": "",
          "type": "uint256"
        }
      ],
      "name": "multiplierTiers",
      "outputs": [
        {
          "internalType": "uint256",
          "name": "",
          "type": "uint256"
        }
      ],
      "stateMutability": "view",
      "type": "function"
    },
    {
      "inputs": [],
      "name": "owner",
      "outputs": [
        {
          "internalType": "address",
          "name": "",
          "type": "address"
        }
      ],
      "stateMutability": "view",
      "type": "function"
    },
    {
      "inputs": [],
      "name": "pause",
      "outputs": [],
      "stateMutability": "nonpayable",
      "type": "function"
    },
    {
      "inputs": [],
      "name": "paused",
      "outputs": [
        {
          "internalType": "bool",
          "name": "",
          "type": "bool"
        }
      ],
      "stateMutability": "view",
      "type": "function"
    },
    {
      "inputs": [
        {
          "internalType": "address",
          "name": "_user",
          "type": "address"
        }
      ],
      "name": "pendingRewards",
      "outputs": [
        {
          "internalType": "uint256",
          "name": "",
          "type": "uint256"
        }
      ],
      "stateMutability": "view",
      "type": "function"
    },
    {
      "inputs": [],
      "name": "renounceOwnership",
      "outputs": [],
      "stateMutability": "nonpayable",
      "type": "function"
    },
    {
      "inputs": [],
      "name": "rewardPoints",
      "outputs": [
        {
          "internalType": "contract IRewardPoints",
          "name": "",
          "type": "address"
        }
      ],
      "stateMutability": "view",
      "type": "function"
    },
    {
      "inputs": [
        {
          "internalType": "uint256",
          "name": "_newRate",
          "type": "uint256"
        }
      ],
      "name": "setBaseRewardRate",
      "outputs": [],
      "stateMutability": "nonpayable",
      "type": "function"
    },
    {
      "inputs": [
        {
          "internalType": "uint256",
          "name": "_tierIndex",
          "type": "uint256"
        },
        {
          "internalType": "uint256",
          "name": "_multiplier",
          "type": "uint256"
        },
        {
          "internalType": "uint256",
          "name": "_threshold",
          "type": "uint256"
        }
      ],
      "name": "setMultiplierTier",
      "outputs": [],
      "stateMutability": "nonpayable",
      "type": "function"
    },
    {
      "inputs": [
        {
          "internalType": "address",
          "name": "_token",
          "type": "address"
        }
      ],
      "name": "setStakingToken",
      "outputs": [],
      "stateMutability": "nonpayable",
      "type": "function"
    },
    {
      "inputs": [],
      "name": "stakingToken",
      "outputs": [
        {
          "internalType": "contract IERC20",
          "name": "",
          "type": "address"
        }
      ],
      "stateMutability": "view",
      "type": "function"
    },
    {
      "inputs": [
        {
          "internalType": "uint256",
          "name": "",
          "type": "uint256"
        }
      ],
      "name": "tierThresholds",
      "outputs": [
        {
          "internalType": "uint256",
          "name": "",
          "type": "uint256"
        }
      ],
      "stateMutability": "view",
      "type": "function"
    },
    {
      "inputs": [
        {
          "internalType": "address",
          "name": "newOwner",
          "type": "address"
        }
      ],
      "name": "transferOwnership",
      "outputs": [],
      "stateMutability": "nonpayable",
      "type": "function"
    },
    {
      "inputs": [],
      "name": "unpause",
      "outputs": [],
      "stateMutability": "nonpayable",
      "type": "function"
    },
    {
      "inputs": [
        {
          "internalType": "address",
          "name": "",
          "type": "address"
        }
      ],
      "name": "userClaims",
      "outputs": [
        {
          "internalType": "uint256",
          "name": "lastClaimTime",
          "type": "uint256"
        },
        {
          "internalType": "uint256",
          "name": "balanceAtLastClaim",
          "type": "uint256"
        },
        {
          "internalType": "uint256",
          "name": "totalClaimed",
          "type": "uint256"
        }
      ],
      "stateMutability": "view",
      "type": "function"
    }
  ],
  "bytecode": "0x60806040523480156200001157600080fd5b506040516200131b3803806200131b833981016040819052620000349162000233565b33806200005c57604051631e4fbdf760e01b8152600060048201526024015b60405180910390fd5b6200006781620001c6565b50600180556001600160a01b038316620000c45760405162461bcd60e51b815260206004820152601560248201527f496e76616c6964207374616b696e6720746f6b656e0000000000000000000000604482015260640162000053565b6001600160a01b0382166200011c5760405162461bcd60e51b815260206004820152601560248201527f496e76616c69642072657761726420706f696e74730000000000000000000000604482015260640162000053565b60028054610100600160a81b0319166101006001600160a01b0395861602179055600380546001600160a01b03191692909316919091179091556004556005805460018181019092556127107f036b6384b5eca791c62761152d0c79bb0604c104a5fb6f4eb0703f3154bb3db09091015560068054918201815560009081527ff652222313e28459528d920b65115c16c04f3efc82aaedc97be59f3f377c0d3f9091015562000274565b600080546001600160a01b038381166001600160a01b0319831681178455604051919092169283917f8be0079c531659141344cd1fd0a4f28419497f9722a3daafe3b4186f6b6457e09190a35050565b80516001600160a01b03811681146200022e57600080fd5b919050565b6000806000606084860312156200024957600080fd5b620002548462000216565b9250620002646020850162000216565b9150604084015190509250925092565b61109780620002846000396000f3fe608060405234801561001057600080fd5b50600436106101375760003560e01c8063715018a6116100b8578063afbf34401161007c578063afbf344014610292578063c5e22f3f1461029b578063e9c3ab11146102ae578063f0a3563c146102c1578063f0a9abe71461030b578063f2fde38b1461031e57600080fd5b8063715018a61461024657806372f702f31461024e5780638456cb59146102665780638da5cb5b1461026e578063a100d69d1461027f57600080fd5b80633f4ba83a116100ff5780633f4ba83a146101e55780634f062c5a146101ed57806357ac4ddd146102155780635c975abb1461022857806367184e281461023e57600080fd5b80631e9b12ef1461013c5780632637615b1461015157806331d7a2621461019157806332cf597e146101b2578063372500ab146101dd575b600080fd5b61014f61014a366004610f32565b610331565b005b61016461015f366004610f32565b6103d6565b604080519586526020860194909452928401919091526060830152608082015260a0015b60405180910390f35b6101a461019f366004610f32565b610530565b604051908152602001610188565b6003546101c5906001600160a01b031681565b6040516001600160a01b039091168152602001610188565b61014f610677565b61014f6109b5565b6102006101fb366004610f5b565b6109c5565b60408051928352602083019190915201610188565b61014f610223366004610f74565b610a55565b60025460ff166040519015158152602001610188565b6005546101a4565b61014f610ba8565b6002546101c59061010090046001600160a01b031681565b61014f610bba565b6000546001600160a01b03166101c5565b6101a461028d366004610f5b565b610bca565b6101a460045481565b6101a46102a9366004610f32565b610beb565b6101a46102bc366004610f5b565b610c76565b6102f06102cf366004610f32565b60076020526000908152604090208054600182015460029092015490919083565b60408051938452602084019290925290820152606001610188565b61014f610319366004610f5b565b610c86565b61014f61032c366004610f32565b610cd3565b610339610d11565b6001600160a01b0381166103845760405162461bcd60e51b815260206004820152600d60248201526c24b73b30b634b2103a37b5b2b760991b60448201526064015b60405180910390fd5b60028054610100600160a81b0319166101006001600160a01b038416908102919091179091556040517f9904a32444ae0eb0bae2045baf588aa248f03f4fef600c18afd1d7e751614af890600090a250565b6001600160a01b0381811660008181526007602052604080822060025491516370a0823160e01b81526004810194909452919384938493849384939192610100909104909116906370a0823190602401602060405180830381865afa158015610443573d6000803e3d6000fd5b505050506040513d601f19601f820116820180604052508101906104679190610fa0565b81549093501580610476575082155b156104995780546001820154600290920154909650909450925060009050610527565b80546000906104a89042610fcf565b90506000826001015485106104c15782600101546104c3565b845b905060006104d082610d3e565b905069021e19e0c9bab24000008160045484866104ed9190610fe8565b6104f79190610fe8565b6105019190610fe8565b61050b9190610fff565b9450836000015484600101548560020154985098509850505050505b91939590929450565b6002546040516370a0823160e01b81526001600160a01b0383811660048301526000928392610100909104909116906370a0823190602401602060405180830381865afa158015610585573d6000803e3d6000fd5b505050506040513d601f19601f820116820180604052508101906105a99190610fa0565b9050806000036105bc5750600092915050565b6001600160a01b038316600090815260076020526040812080549091036105e7575060009392505050565b80546000906105f69042610fcf565b90508060000361060b57506000949350505050565b600082600101548410610622578260010154610624565b835b9050600061063182610d3e565b905069021e19e0c9bab240000081600454848661064e9190610fe8565b6106589190610fe8565b6106629190610fe8565b61066c9190610fff565b979650505050505050565b61067f610de2565b610687610e0c565b6002546040516370a0823160e01b81523360048201819052916000916101009091046001600160a01b0316906370a0823190602401602060405180830381865afa1580156106d9573d6000803e3d6000fd5b505050506040513d601f19601f820116820180604052508101906106fd9190610fa0565b90506000811161074f5760405162461bcd60e51b815260206004820152601960248201527f4e6f20746f6b656e7320746f206561726e207265776172647300000000000000604482015260640161037b565b6001600160a01b038216600090815260076020526040812080549091036107c6574281556001810182905560408051600080825260208201526001600160a01b038516917fdacbdde355ba930696a362ea6738feb9f8bd52dfb3d81947558fd3217e23e325910160405180910390a25050506109aa565b80546000906107d59042610fcf565b9050600081116108275760405162461bcd60e51b815260206004820181905260248201527f4e6f2074696d6520656c61707365642073696e6365206c61737420636c61696d604482015260640161037b565b60008260010154841061083e578260010154610840565b835b9050600061084d82610d3e565b9050600069021e19e0c9bab240000082600454858761086c9190610fe8565b6108769190610fe8565b6108809190610fe8565b61088a9190610fff565b9050600081116108d25760405162461bcd60e51b81526020600482015260136024820152724e6f207265776172647320746f20636c61696d60681b604482015260640161037b565b428555600185018690556002850180548291906000906108f3908490611021565b90915550506003546040516340c10f1960e01b81526001600160a01b03898116600483015260248201849052909116906340c10f1990604401600060405180830381600087803b15801561094657600080fd5b505af115801561095a573d6000803e3d6000fd5b505060408051848152602081018890526001600160a01b038b1693507fdacbdde355ba930696a362ea6738feb9f8bd52dfb3d81947558fd3217e23e32592500160405180910390a2505050505050505b6109b360018055565b565b6109bd610d11565b6109b3610e30565b60055460009081908310610a105760405162461bcd60e51b8152602060048201526012602482015271092dcecc2d8d2c840e8d2cae440d2dcc8caf60731b604482015260640161037b565b60058381548110610a2357610a23611034565b906000526020600020015460068481548110610a4157610a41611034565b906000526020600020015491509150915091565b610a5d610d11565b612710821015610aaf5760405162461bcd60e51b815260206004820181905260248201527f4d756c7469706c696572206d757374206265203e3d2031782028313030303029604482015260640161037b565b6005548310610b1f576005805460018181019092557f036b6384b5eca791c62761152d0c79bb0604c104a5fb6f4eb0703f3154bb3db0018390556006805491820181556000527ff652222313e28459528d920b65115c16c04f3efc82aaedc97be59f3f377c0d3f01819055610b62565b8160058481548110610b3357610b33611034565b90600052602060002001819055508060068481548110610b5557610b55611034565b6000918252602090912001555b60408051848152602081018490529081018290527fd21dfcdd2c7fded204fecb79ddbd5a4b5673c1a92be8c12089433aebc99e90259060600160405180910390a1505050565b610bb0610d11565b6109b36000610e82565b610bc2610d11565b6109b3610ed2565b60068181548110610bda57600080fd5b600091825260209091200154905081565b6002546040516370a0823160e01b81526001600160a01b0383811660048301526000928392610100909104909116906370a0823190602401602060405180830381865afa158015610c40573d6000803e3d6000fd5b505050506040513d601f19601f82011682018060405250810190610c649190610fa0565b9050610c6f81610d3e565b9392505050565b60058181548110610bda57600080fd5b610c8e610d11565b600480549082905560408051828152602081018490527f4cab0e93f2febd4d1a1bb4ca2f9e35e1486b65039c3f9e506212eeef709d99eb910160405180910390a15050565b610cdb610d11565b6001600160a01b038116610d0557604051631e4fbdf760e01b81526000600482015260240161037b565b610d0e81610e82565b50565b6000546001600160a01b031633146109b35760405163118cdaa760e01b815233600482015260240161037b565b6006546000905b8015610dbb576006610d58600183610fcf565b81548110610d6857610d68611034565b90600052602060002001548310610da9576005610d86600183610fcf565b81548110610d9657610d96611034565b9060005260206000200154915050919050565b80610db38161104a565b915050610d45565b506005600081548110610dd057610dd0611034565b90600052602060002001549050919050565b600260015403610e0557604051633ee5aeb560e01b815260040160405180910390fd5b6002600155565b60025460ff16156109b35760405163d93c066560e01b815260040160405180910390fd5b610e38610f0f565b6002805460ff191690557f5db9ee0a495bf2e6ff9c91a7834c1ba4fdd244a5e8aa4e537bd38aeae4b073aa335b6040516001600160a01b03909116815260200160405180910390a1565b600080546001600160a01b038381166001600160a01b0319831681178455604051919092169283917f8be0079c531659141344cd1fd0a4f28419497f9722a3daafe3b4186f6b6457e09190a35050565b610eda610e0c565b6002805460ff191660011790557f62e78cea01bee320cd4e420270b5ea74000d11b0c9f74754ebdbfc544b05a258610e653390565b60025460ff166109b357604051638dfc202b60e01b815260040160405180910390fd5b600060208284031215610f4457600080fd5b81356001600160a01b0381168114610c6f57600080fd5b600060208284031215610f6d57600080fd5b5035919050565b600080600060608486031215610f8957600080fd5b505081359360208301359350604090920135919050565b600060208284031215610fb257600080fd5b5051919050565b634e487b7160e01b600052601160045260246000fd5b81810381811115610fe257610fe2610fb9565b92915050565b8082028115828204841417610fe257610fe2610fb9565b60008261101c57634e487b7160e01b600052601260045260246000fd5b500490565b80820180821115610fe257610fe2610fb9565b634e487b7160e01b600052603260045260246000fd5b60008161105957611059610fb9565b50600019019056fea2646970667358221220475453107b36d3b4f4ca17201ead816335a4d7e9ae2177a0b4c0c9e6df75693164736f6c63430008160033",
  "linkReferences": {},
  "deployedLinkReferences": {}
}