{
  "_format": "hh-sol-artifact-1",
  "contractName": "RewardPointsManager",
  "sourceName": "contracts/RewardPointsManager.sol",
  "abi": [
    {
      "inputs": [],
      "stateMutability": "nonpayable",
      "type": "constructor"
    },
    {
      "inputs": [
        {
          "internalType": "address",
          "name": "target",
          "type": "address"
        }
      ],
      "name": "AddressEmptyCode",
      "type": "error"
    },
    {
      "inputs": [
        {
          "internalType": "address",
          "name": "implementation",
          "type": "address"
        }
      ],
      "name": "ERC1967InvalidImplementation",
      "type": "error"
    },
    {
      "inputs": [],
      "name": "ERC1967NonPayable",
      "type": "error"
    },
    {
      "inputs": [],
      "name": "EnforcedPause",
      "type": "error"
    },
    {
      "inputs": [],
      "name": "ExpectedPause",
      "type": "error"
    },
    {
      "inputs": [],
      "name": "FailedCall",
      "type": "error"
    },
    {
      "inputs": [],
      "name": "InvalidInitialization",
      "type": "error"
    },
    {
      "inputs": [],
      "name": "NotInitializing",
      "type": "error"
    },
    {
      "inputs": [
        {
          "internalType": "address",
          "name": "owner",
          "type": "address"
        }
      ],
      "name": "OwnableInvalidOwner",
      "type": "error"
    },
    {
      "inputs": [
        {
          "internalType": "address",
          "name": "account",
          "type": "address"
        }
      ],
      "name": "OwnableUnauthorizedAccount",
      "type": "error"
    },
    {
      "inputs": [],
      "name": "ReentrancyGuardReentrantCall",
      "type": "error"
    },
    {
      "inputs": [],
      "name": "UUPSUnauthorizedCallContext",
      "type": "error"
    },
    {
      "inputs": [
        {
          "internalType": "bytes32",
          "name": "slot",
          "type": "bytes32"
        }
      ],
      "name": "UUPSUnsupportedProxiableUUID",
      "type": "error"
    },
    {
      "anonymous": false,
      "inputs": [
        {
          "indexed": false,
          "internalType": "uint256",
          "name": "oldRate",
          "type": "uint256"
        },
        {
          "indexed": false,
          "internalType": "uint256",
          "name": "newRate",
          "type": "uint256"
        }
      ],
      "name": "BaseRewardRateUpdated",
      "type": "event"
    },
    {
      "anonymous": false,
      "inputs": [
        {
          "indexed": false,
          "internalType": "uint64",
          "name": "version",
          "type": "uint64"
        }
      ],
      "name": "Initialized",
      "type": "event"
    },
    {
      "anonymous": false,
      "inputs": [
        {
          "indexed": false,
          "internalType": "uint256",
          "name": "oldInterval",
          "type": "uint256"
        },
        {
          "indexed": false,
          "internalType": "uint256",
          "name": "newInterval",
          "type": "uint256"
        }
      ],
      "name": "MinClaimIntervalUpdated",
      "type": "event"
    },
    {
      "anonymous": false,
      "inputs": [
        {
          "indexed": false,
          "internalType": "uint256",
          "name": "tier",
          "type": "uint256"
        }
      ],
      "name": "MultiplierTierRemoved",
      "type": "event"
    },
    {
      "anonymous": false,
      "inputs": [
        {
          "indexed": false,
          "internalType": "uint256",
          "name": "tier",
          "type": "uint256"
        },
        {
          "indexed": false,
          "internalType": "uint256",
          "name": "multiplier",
          "type": "uint256"
        },
        {
          "indexed": false,
          "internalType": "uint256",
          "name": "threshold",
          "type": "uint256"
        }
      ],
      "name": "MultiplierTierUpdated",
      "type": "event"
    },
    {
      "anonymous": false,
      "inputs": [
        {
          "indexed": true,
          "internalType": "address",
          "name": "previousOwner",
          "type": "address"
        },
        {
          "indexed": true,
          "internalType": "address",
          "name": "newOwner",
          "type": "address"
        }
      ],
      "name": "OwnershipTransferred",
      "type": "event"
    },
    {
      "anonymous": false,
      "inputs": [
        {
          "indexed": false,
          "internalType": "address",
          "name": "account",
          "type": "address"
        }
      ],
      "name": "Paused",
      "type": "event"
    },
    {
      "anonymous": false,
      "inputs": [
        {
          "indexed": true,
          "internalType": "address",
          "name": "token",
          "type": "address"
        }
      ],
      "name": "RewardPointsSet",
      "type": "event"
    },
    {
      "anonymous": false,
      "inputs": [
        {
          "indexed": true,
          "internalType": "address",
          "name": "user",
          "type": "address"
        },
        {
          "indexed": false,
          "internalType": "uint256",
          "name": "amount",
          "type": "uint256"
        },
        {
          "indexed": false,
          "internalType": "uint256",
          "name": "timeElapsed",
          "type": "uint256"
        }
      ],
      "name": "RewardsClaimed",
      "type": "event"
    },
    {
      "anonymous": false,
      "inputs": [
        {
          "indexed": true,
          "internalType": "address",
          "name": "token",
          "type": "address"
        }
      ],
      "name": "StakingTokenSet",
      "type": "event"
    },
    {
      "anonymous": false,
      "inputs": [
        {
          "indexed": false,
          "internalType": "address",
          "name": "account",
          "type": "address"
        }
      ],
      "name": "Unpaused",
      "type": "event"
    },
    {
      "anonymous": false,
      "inputs": [
        {
          "indexed": true,
          "internalType": "address",
          "name": "implementation",
          "type": "address"
        }
      ],
      "name": "Upgraded",
      "type": "event"
    },
    {
      "inputs": [],
      "name": "MULTIPLIER_DIVISOR",
      "outputs": [
        {
          "internalType": "uint256",
          "name": "",
          "type": "uint256"
        }
      ],
      "stateMutability": "view",
      "type": "function"
    },
    {
      "inputs": [],
      "name": "UPGRADE_INTERFACE_VERSION",
      "outputs": [
        {
          "internalType": "string",
          "name": "",
          "type": "string"
        }
      ],
      "stateMutability": "view",
      "type": "function"
    },
    {
      "inputs": [],
      "name": "baseRewardRate",
      "outputs": [
        {
          "internalType": "uint256",
          "name": "",
          "type": "uint256"
        }
      ],
      "stateMutability": "view",
      "type": "function"
    },
    {
      "inputs": [],
      "name": "claimRewards",
      "outputs": [],
      "stateMutability": "nonpayable",
      "type": "function"
    },
    {
      "inputs": [],
      "name": "getAllTiers",
      "outputs": [
        {
          "internalType": "uint256[]",
          "name": "multipliers",
          "type": "uint256[]"
        },
        {
          "internalType": "uint256[]",
          "name": "thresholds",
          "type": "uint256[]"
        }
      ],
      "stateMutability": "view",
      "type": "function"
    },
    {
      "inputs": [],
      "name": "getSystemStats",
      "outputs": [
        {
          "internalType": "uint256",
          "name": "_baseRewardRate",
          "type": "uint256"
        },
        {
          "internalType": "uint256",
          "name": "_minClaimInterval",
          "type": "uint256"
        },
        {
          "internalType": "uint256",
          "name": "_tierCount",
          "type": "uint256"
        },
        {
          "internalType": "address",
          "name": "_stakingToken",
          "type": "address"
        },
        {
          "internalType": "address",
          "name": "_rewardPoints",
          "type": "address"
        },
        {
          "internalType": "bool",
          "name": "_paused",
          "type": "bool"
        }
      ],
      "stateMutability": "view",
      "type": "function"
    },
    {
      "inputs": [
        {
          "internalType": "uint256",
          "name": "_index",
          "type": "uint256"
        }
      ],
      "name": "getTier",
      "outputs": [
        {
          "internalType": "uint256",
          "name": "multiplier",
          "type": "uint256"
        },
        {
          "internalType": "uint256",
          "name": "threshold",
          "type": "uint256"
        }
      ],
      "stateMutability": "view",
      "type": "function"
    },
    {
      "inputs": [],
      "name": "getTierCount",
      "outputs": [
        {
          "internalType": "uint256",
          "name": "",
          "type": "uint256"
        }
      ],
      "stateMutability": "view",
      "type": "function"
    },
    {
      "inputs": [
        {
          "internalType": "address",
          "name": "_user",
          "type": "address"
        }
      ],
      "name": "getUserClaimData",
      "outputs": [
        {
          "internalType": "uint256",
          "name": "lastClaimTime",
          "type": "uint256"
        },
        {
          "internalType": "uint256",
          "name": "balanceAtLastClaim",
          "type": "uint256"
        },
        {
          "internalType": "uint256",
          "name": "totalClaimed",
          "type": "uint256"
        },
        {
          "internalType": "uint256",
          "name": "currentBalance",
          "type": "uint256"
        },
        {
          "internalType": "uint256",
          "name": "pendingReward",
          "type": "uint256"
        },
        {
          "internalType": "uint256",
          "name": "currentTier",
          "type": "uint256"
        },
        {
          "internalType": "uint256",
          "name": "currentMultiplier",
          "type": "uint256"
        }
      ],
      "stateMutability": "view",
      "type": "function"
    },
    {
      "inputs": [
        {
          "internalType": "address",
          "name": "_user",
          "type": "address"
        }
      ],
      "name": "getUserMultiplier",
      "outputs": [
        {
          "internalType": "uint256",
          "name": "",
          "type": "uint256"
        }
      ],
      "stateMutability": "view",
      "type": "function"
    },
    {
      "inputs": [
        {
          "internalType": "address",
          "name": "_user",
          "type": "address"
        }
      ],
      "name": "getUserTier",
      "outputs": [
        {
          "internalType": "uint256",
          "name": "",
          "type": "uint256"
        }
      ],
      "stateMutability": "view",
      "type": "function"
    },
    {
      "inputs": [
        {
          "internalType": "address",
          "name": "_stakingToken",
          "type": "address"
        },
        {
          "internalType": "address",
          "name": "_rewardPoints",
          "type": "address"
        },
        {
          "internalType": "uint256",
          "name": "_baseRewardRate",
          "type": "uint256"
        }
      ],
      "name": "initialize",
      "outputs": [],
      "stateMutability": "nonpayable",
      "type": "function"
    },
    {
      "inputs": [],
      "name": "minClaimInterval",
      "outputs": [
        {
          "internalType": "uint256",
          "name": "",
          "type": "uint256"
        }
      ],
      "stateMutability": "view",
      "type": "function"
    },
    {
      "inputs": [
        {
          "internalType": "uint256",
          "name": "",
          "type": "uint256"
        }
      ],
      "name": "multiplierTiers",
      "outputs": [
        {
          "internalType": "uint256",
          "name": "",
          "type": "uint256"
        }
      ],
      "stateMutability": "view",
      "type": "function"
    },
    {
      "inputs": [],
      "name": "owner",
      "outputs": [
        {
          "internalType": "address",
          "name": "",
          "type": "address"
        }
      ],
      "stateMutability": "view",
      "type": "function"
    },
    {
      "inputs": [],
      "name": "pause",
      "outputs": [],
      "stateMutability": "nonpayable",
      "type": "function"
    },
    {
      "inputs": [],
      "name": "paused",
      "outputs": [
        {
          "internalType": "bool",
          "name": "",
          "type": "bool"
        }
      ],
      "stateMutability": "view",
      "type": "function"
    },
    {
      "inputs": [
        {
          "internalType": "address",
          "name": "_user",
          "type": "address"
        }
      ],
      "name": "pendingRewards",
      "outputs": [
        {
          "internalType": "uint256",
          "name": "",
          "type": "uint256"
        }
      ],
      "stateMutability": "view",
      "type": "function"
    },
    {
      "inputs": [],
      "name": "proxiableUUID",
      "outputs": [
        {
          "internalType": "bytes32",
          "name": "",
          "type": "bytes32"
        }
      ],
      "stateMutability": "view",
      "type": "function"
    },
    {
      "inputs": [],
      "name": "removeLastTier",
      "outputs": [],
      "stateMutability": "nonpayable",
      "type": "function"
    },
    {
      "inputs": [],
      "name": "renounceOwnership",
      "outputs": [],
      "stateMutability": "nonpayable",
      "type": "function"
    },
    {
      "inputs": [],
      "name": "rewardPoints",
      "outputs": [
        {
          "internalType": "contract IRewardPoints",
          "name": "",
          "type": "address"
        }
      ],
      "stateMutability": "view",
      "type": "function"
    },
    {
      "inputs": [
        {
          "internalType": "uint256",
          "name": "_newRate",
          "type": "uint256"
        }
      ],
      "name": "setBaseRewardRate",
      "outputs": [],
      "stateMutability": "nonpayable",
      "type": "function"
    },
    {
      "inputs": [
        {
          "internalType": "uint256",
          "name": "_interval",
          "type": "uint256"
        }
      ],
      "name": "setMinClaimInterval",
      "outputs": [],
      "stateMutability": "nonpayable",
      "type": "function"
    },
    {
      "inputs": [
        {
          "internalType": "uint256",
          "name": "_tierIndex",
          "type": "uint256"
        },
        {
          "internalType": "uint256",
          "name": "_multiplier",
          "type": "uint256"
        },
        {
          "internalType": "uint256",
          "name": "_threshold",
          "type": "uint256"
        }
      ],
      "name": "setMultiplierTier",
      "outputs": [],
      "stateMutability": "nonpayable",
      "type": "function"
    },
    {
      "inputs": [
        {
          "internalType": "address",
          "name": "_token",
          "type": "address"
        }
      ],
      "name": "setRewardPointsToken",
      "outputs": [],
      "stateMutability": "nonpayable",
      "type": "function"
    },
    {
      "inputs": [
        {
          "internalType": "address",
          "name": "_token",
          "type": "address"
        }
      ],
      "name": "setStakingToken",
      "outputs": [],
      "stateMutability": "nonpayable",
      "type": "function"
    },
    {
      "inputs": [],
      "name": "stakingToken",
      "outputs": [
        {
          "internalType": "contract IERC20",
          "name": "",
          "type": "address"
        }
      ],
      "stateMutability": "view",
      "type": "function"
    },
    {
      "inputs": [
        {
          "internalType": "uint256",
          "name": "",
          "type": "uint256"
        }
      ],
      "name": "tierThresholds",
      "outputs": [
        {
          "internalType": "uint256",
          "name": "",
          "type": "uint256"
        }
      ],
      "stateMutability": "view",
      "type": "function"
    },
    {
      "inputs": [
        {
          "internalType": "address",
          "name": "newOwner",
          "type": "address"
        }
      ],
      "name": "transferOwnership",
      "outputs": [],
      "stateMutability": "nonpayable",
      "type": "function"
    },
    {
      "inputs": [],
      "name": "unpause",
      "outputs": [],
      "stateMutability": "nonpayable",
      "type": "function"
    },
    {
      "inputs": [
        {
          "internalType": "address",
          "name": "newImplementation",
          "type": "address"
        },
        {
          "internalType": "bytes",
          "name": "data",
          "type": "bytes"
        }
      ],
      "name": "upgradeToAndCall",
      "outputs": [],
      "stateMutability": "payable",
      "type": "function"
    },
    {
      "inputs": [
        {
          "internalType": "address",
          "name": "",
          "type": "address"
        }
      ],
      "name": "userClaims",
      "outputs": [
        {
          "internalType": "uint256",
          "name": "lastClaimTime",
          "type": "uint256"
        },
        {
          "internalType": "uint256",
          "name": "balanceAtLastClaim",
          "type": "uint256"
        },
        {
          "internalType": "uint256",
          "name": "totalClaimed",
          "type": "uint256"
        }
      ],
      "stateMutability": "view",
      "type": "function"
    }
  ],
  "bytecode": "0x60a06040523060805234801561001457600080fd5b5061001d610022565b6100d4565b7ff0c57e16840df040f15088dc2f81fe391c3923bec73e23a9662efc9c229c6a00805468010000000000000000900460ff16156100725760405163f92ee8a960e01b815260040160405180910390fd5b80546001600160401b03908116146100d15780546001600160401b0319166001600160401b0390811782556040519081527fc7f505b2f371ae2175ee4913f4499e1f2633a7b5936321eed1cdaeb6115181d29060200160405180910390a15b50565b60805161229f620000fe60003960008181611a3a01528181611a630152611ba9015261229f6000f3fe6080604052600436106101ee5760003560e01c806372f702f31161010d578063c5e22f3f116100a0578063e9c3ab111161006f578063e9c3ab111461060a578063f07fc2241461062a578063f0a3563c1461064a578063f0a9abe7146106a1578063f2fde38b146106c157600080fd5b8063c5e22f3f1461054a578063d1ce59a71461056a578063d661dd31146105d4578063e4d2620e146105ea57600080fd5b806398fc539c116100dc57806398fc539c146104b6578063a100d69d146104d6578063ad3cb1cc146104f6578063afbf34401461053457600080fd5b806372f702f31461042f5780638456cb591461044f5780638da5cb5b1461046457806398838838146104a157600080fd5b80634f062c5a116101855780635c975abb116101545780635c975abb146103b25780636471af83146103e257806367184e2814610405578063715018a61461041a57600080fd5b80634f062c5a146103355780634f1ef2861461036a57806352d1902d1461037d57806357ac4ddd1461039257600080fd5b806331d7a262116101c157806331d7a262146102b357806332cf597e146102d3578063372500ab1461030b5780633f4ba83a1461032057600080fd5b80631794bb3c146101f35780631afcd0e6146102155780631e9b12ef1461023e5780632637615b1461025e575b600080fd5b3480156101ff57600080fd5b5061021361020e366004611f10565b6106e1565b005b34801561022157600080fd5b5061022b60035481565b6040519081526020015b60405180910390f35b34801561024a57600080fd5b50610213610259366004611f4c565b61092f565b34801561026a57600080fd5b5061027e610279366004611f4c565b6109c5565b604080519788526020880196909652948601939093526060850191909152608084015260a083015260c082015260e001610235565b3480156102bf57600080fd5b5061022b6102ce366004611f4c565b610bfb565b3480156102df57600080fd5b506001546102f3906001600160a01b031681565b6040516001600160a01b039091168152602001610235565b34801561031757600080fd5b50610213610d40565b34801561032c57600080fd5b50610213611092565b34801561034157600080fd5b50610355610350366004611f67565b6110a2565b60408051928352602083019190915201610235565b610213610378366004611f96565b611132565b34801561038957600080fd5b5061022b611151565b34801561039e57600080fd5b506102136103ad366004612058565b61116e565b3480156103be57600080fd5b5060008051602061224a8339815191525460ff166040519015158152602001610235565b3480156103ee57600080fd5b506103f761131f565b6040516102359291906120c0565b34801561041157600080fd5b5060045461022b565b34801561042657600080fd5b506102136113d2565b34801561043b57600080fd5b506000546102f3906001600160a01b031681565b34801561045b57600080fd5b506102136113e4565b34801561047057600080fd5b507f9016d09d72d40fdae2fd8ceac6b6234c7706214fd39c1cd1e609a0528c199300546001600160a01b03166102f3565b3480156104ad57600080fd5b506102136113f4565b3480156104c257600080fd5b506102136104d1366004611f4c565b6114ec565b3480156104e257600080fd5b5061022b6104f1366004611f67565b611584565b34801561050257600080fd5b50610527604051806040016040528060058152602001640352e302e360dc1b81525081565b6040516102359190612109565b34801561054057600080fd5b5061022b60025481565b34801561055657600080fd5b5061022b610565366004611f4c565b6115a5565b34801561057657600080fd5b5060025460035460045460005460015460008051602061224a83398151915254604080519687526020870195909552938501929092526001600160a01b03908116606085015216608083015260ff16151560a082015260c001610235565b3480156105e057600080fd5b5061022b61271081565b3480156105f657600080fd5b5061022b610605366004611f4c565b611626565b34801561061657600080fd5b5061022b610625366004611f67565b6116ff565b34801561063657600080fd5b50610213610645366004611f67565b61170f565b34801561065657600080fd5b50610686610665366004611f4c565b60066020526000908152604090208054600182015460029092015490919083565b60408051938452602084019290925290820152606001610235565b3480156106ad57600080fd5b506102136106bc366004611f67565b61175d565b3480156106cd57600080fd5b506102136106dc366004611f4c565b6117a3565b60006106eb6117e1565b805490915060ff600160401b820416159067ffffffffffffffff166000811580156107135750825b905060008267ffffffffffffffff1660011480156107305750303b155b90508115801561073e575080155b1561075c5760405163f92ee8a960e01b815260040160405180910390fd5b845467ffffffffffffffff19166001178555831561078657845460ff60401b1916600160401b1785555b61078f3361180c565b61079761181d565b61079f61182d565b6107a761182d565b6001600160a01b0388166107fa5760405162461bcd60e51b815260206004820152601560248201527424b73b30b634b21039ba30b5b4b733903a37b5b2b760591b60448201526064015b60405180910390fd5b6001600160a01b0387166108485760405162461bcd60e51b8152602060048201526015602482015274496e76616c69642072657761726420706f696e747360581b60448201526064016107f1565b600080546001600160a01b03808b166001600160a01b031992831617835560018054918b16919092161781556002889055610e10600355600480548083019091556127107f8a35acfbc15ff81a39ae7d344fd709f28e8600b4aa8c65c6b64bfe7fe36bd19b9091015560058054918201815582527f036b6384b5eca791c62761152d0c79bb0604c104a5fb6f4eb0703f3154bb3db00155831561092557845460ff60401b19168555604051600181527fc7f505b2f371ae2175ee4913f4499e1f2633a7b5936321eed1cdaeb6115181d29060200160405180910390a15b5050505050505050565b610937611835565b6001600160a01b03811661097d5760405162461bcd60e51b815260206004820152600d60248201526c24b73b30b634b2103a37b5b2b760991b60448201526064016107f1565b600080546001600160a01b0319166001600160a01b038316908117825560405190917f9904a32444ae0eb0bae2045baf588aa248f03f4fef600c18afd1d7e751614af891a250565b6001600160a01b03818116600081815260066020526040808220825491516370a0823160e01b81526004810194909452919384938493849384938493849392909116906370a0823190602401602060405180830381865afa158015610a2e573d6000803e3d6000fd5b505050506040513d601f19601f82011682018060405250810190610a52919061213c565b60405163c5e22f3f60e01b81526001600160a01b038b166004820152909550309063c5e22f3f90602401602060405180830381865afa158015610a99573d6000803e3d6000fd5b505050506040513d601f19601f82011682018060405250810190610abd919061213c565b604051637269310760e11b81526001600160a01b038b166004820152909250309063e4d2620e90602401602060405180830381865afa158015610b04573d6000803e3d6000fd5b505050506040513d601f19601f82011682018060405250810190610b28919061213c565b81549093501580610b37575084155b15610b5a5780546001820154600290920154909850909650945060009250610bf0565b8054600090610b69904261216b565b9050600082600101548710610b82578260010154610b84565b865b90506000610b9182611890565b9050610ba7612710670de0b6b3a764000061217e565b6002548290610bb6858761217e565b610bc0919061217e565b610bca919061217e565b610bd49190612195565b96508360000154846001015485600201549a509a509a50505050505b919395979092949650565b600080546040516370a0823160e01b81526001600160a01b038481166004830152839216906370a0823190602401602060405180830381865afa158015610c46573d6000803e3d6000fd5b505050506040513d601f19601f82011682018060405250810190610c6a919061213c565b905080600003610c7d5750600092915050565b6001600160a01b03831660009081526006602052604081208054909103610ca8575060009392505050565b8054600090610cb7904261216b565b905080600003610ccc57506000949350505050565b600082600101548410610ce3578260010154610ce5565b835b90506000610cf282611890565b9050610d08612710670de0b6b3a764000061217e565b6002548290610d17858761217e565b610d21919061217e565b610d2b919061217e565b610d359190612195565b979650505050505050565b610d48611934565b610d5061197e565b600080546040516370a0823160e01b8152336004820181905292916001600160a01b0316906370a0823190602401602060405180830381865afa158015610d9b573d6000803e3d6000fd5b505050506040513d601f19601f82011682018060405250810190610dbf919061213c565b905060008111610e115760405162461bcd60e51b815260206004820152601960248201527f4e6f20746f6b656e7320746f206561726e20726577617264730000000000000060448201526064016107f1565b6001600160a01b03821660009081526006602052604081208054909103610e88574281556001810182905560408051600080825260208201526001600160a01b038516917fdacbdde355ba930696a362ea6738feb9f8bd52dfb3d81947558fd3217e23e325910160405180910390a2505050611067565b8054600090610e97904261216b565b9050600354811015610edc5760405162461bcd60e51b815260206004820152600e60248201526d21b630b4b6903a37b79039b7b7b760911b60448201526064016107f1565b600082600101548410610ef3578260010154610ef5565b835b90506000610f0282611890565b90506000610f1a612710670de0b6b3a764000061217e565b6002548390610f29868861217e565b610f33919061217e565b610f3d919061217e565b610f479190612195565b905060008111610f8f5760405162461bcd60e51b81526020600482015260136024820152724e6f207265776172647320746f20636c61696d60681b60448201526064016107f1565b42855560018501869055600285018054829190600090610fb09084906121b7565b90915550506001546040516340c10f1960e01b81526001600160a01b03898116600483015260248201849052909116906340c10f1990604401600060405180830381600087803b15801561100357600080fd5b505af1158015611017573d6000803e3d6000fd5b505060408051848152602081018890526001600160a01b038b1693507fdacbdde355ba930696a362ea6738feb9f8bd52dfb3d81947558fd3217e23e32592500160405180910390a2505050505050505b61109060017f9b779b17422d0df92223018b32b4d1fa46e071723d6817e2486d003becc55f0055565b565b61109a611835565b6110906119d5565b600454600090819083106110ed5760405162461bcd60e51b8152602060048201526012602482015271092dcecc2d8d2c840e8d2cae440d2dcc8caf60731b60448201526064016107f1565b60048381548110611100576111006121ca565b90600052602060002001546005848154811061111e5761111e6121ca565b906000526020600020015491509150915091565b61113a611a2f565b61114382611ad4565b61114d8282611adc565b5050565b600061115b611b9e565b5060008051602061222a83398151915290565b611176611835565b6127108210156111c85760405162461bcd60e51b815260206004820181905260248201527f4d756c7469706c696572206d757374206265203e3d203178202831303030302960448201526064016107f1565b620186a08211156112265760405162461bcd60e51b815260206004820152602260248201527f4d756c7469706c696572206d757374206265203c3d2031307820283130303030604482015261302960f01b60648201526084016107f1565b6004548310611296576004805460018181019092557f8a35acfbc15ff81a39ae7d344fd709f28e8600b4aa8c65c6b64bfe7fe36bd19b018390556005805491820181556000527f036b6384b5eca791c62761152d0c79bb0604c104a5fb6f4eb0703f3154bb3db0018190556112d9565b81600484815481106112aa576112aa6121ca565b906000526020600020018190555080600584815481106112cc576112cc6121ca565b6000918252602090912001555b60408051848152602081018490529081018290527fd21dfcdd2c7fded204fecb79ddbd5a4b5673c1a92be8c12089433aebc99e90259060600160405180910390a1505050565b606080600460058180548060200260200160405190810160405280929190818152602001828054801561137157602002820191906000526020600020905b81548152602001906001019080831161135d575b50505050509150808054806020026020016040519081016040528092919081815260200182805480156113c357602002820191906000526020600020905b8154815260200190600101908083116113af575b50505050509050915091509091565b6113da611835565b6110906000611be7565b6113ec611835565b611090611c58565b6113fc611835565b60045460011061144e5760405162461bcd60e51b815260206004820152601760248201527f43616e6e6f742072656d6f7665206c617374207469657200000000000000000060448201526064016107f1565b6004546000906114609060019061216b565b90506004805480611473576114736121e0565b60019003818190600052602060002001600090559055600580548061149a5761149a6121e0565b600190038181906000526020600020016000905590557f8fa04867a0a1c9bc12ecb65dde92e2f4c99b17fdc81078b9cfd03b91e5e2f66e816040516114e191815260200190565b60405180910390a150565b6114f4611835565b6001600160a01b03811661153a5760405162461bcd60e51b815260206004820152600d60248201526c24b73b30b634b2103a37b5b2b760991b60448201526064016107f1565b600180546001600160a01b0319166001600160a01b0383169081179091556040517f77bcb3f48f2f77aadd01a7e3e609b265d40a1a1cacb0fc0a6d450b96ee28ee5e90600090a250565b6005818154811061159457600080fd5b600091825260209091200154905081565b600080546040516370a0823160e01b81526001600160a01b038481166004830152839216906370a0823190602401602060405180830381865afa1580156115f0573d6000803e3d6000fd5b505050506040513d601f19601f82011682018060405250810190611614919061213c565b905061161f81611890565b9392505050565b600080546040516370a0823160e01b81526001600160a01b038481166004830152839216906370a0823190602401602060405180830381865afa158015611671573d6000803e3d6000fd5b505050506040513d601f19601f82011682018060405250810190611695919061213c565b6005549091505b80156116f55760056116af60018361216b565b815481106116bf576116bf6121ca565b906000526020600020015482106116e3576116db60018261216b565b949350505050565b806116ed816121f6565b91505061169c565b5060009392505050565b6004818154811061159457600080fd5b611717611835565b600380549082905560408051828152602081018490527f3ddc332fa05f40d1bb72f0da99d449ba7f0398a3d2af91398b221f93199844fe91015b60405180910390a15050565b611765611835565b600280549082905560408051828152602081018490527f4cab0e93f2febd4d1a1bb4ca2f9e35e1486b65039c3f9e506212eeef709d99eb9101611751565b6117ab611835565b6001600160a01b0381166117d557604051631e4fbdf760e01b8152600060048201526024016107f1565b6117de81611be7565b50565b6000807ff0c57e16840df040f15088dc2f81fe391c3923bec73e23a9662efc9c229c6a005b92915050565b611814611ca1565b6117de81611cc6565b611825611ca1565b611090611cce565b611090611ca1565b336118677f9016d09d72d40fdae2fd8ceac6b6234c7706214fd39c1cd1e609a0528c199300546001600160a01b031690565b6001600160a01b0316146110905760405163118cdaa760e01b81523360048201526024016107f1565b6005546000905b801561190d5760056118aa60018361216b565b815481106118ba576118ba6121ca565b906000526020600020015483106118fb5760046118d860018361216b565b815481106118e8576118e86121ca565b9060005260206000200154915050919050565b80611905816121f6565b915050611897565b506004600081548110611922576119226121ca565b90600052602060002001549050919050565b7f9b779b17422d0df92223018b32b4d1fa46e071723d6817e2486d003becc55f0080546001190161197857604051633ee5aeb560e01b815260040160405180910390fd5b60029055565b60008051602061224a8339815191525460ff16156110905760405163d93c066560e01b815260040160405180910390fd5b60017f9b779b17422d0df92223018b32b4d1fa46e071723d6817e2486d003becc55f0055565b6119dd611cd6565b60008051602061224a833981519152805460ff191681557f5db9ee0a495bf2e6ff9c91a7834c1ba4fdd244a5e8aa4e537bd38aeae4b073aa335b6040516001600160a01b0390911681526020016114e1565b306001600160a01b037f0000000000000000000000000000000000000000000000000000000000000000161480611ab657507f00000000000000000000000000000000000000000000000000000000000000006001600160a01b0316611aaa60008051602061222a833981519152546001600160a01b031690565b6001600160a01b031614155b156110905760405163703e46dd60e11b815260040160405180910390fd5b6117de611835565b816001600160a01b03166352d1902d6040518163ffffffff1660e01b8152600401602060405180830381865afa925050508015611b36575060408051601f3d908101601f19168201909252611b339181019061213c565b60015b611b5e57604051634c9c8ce360e01b81526001600160a01b03831660048201526024016107f1565b60008051602061222a8339815191528114611b8f57604051632a87526960e21b8152600481018290526024016107f1565b611b998383611d06565b505050565b306001600160a01b037f000000000000000000000000000000000000000000000000000000000000000016146110905760405163703e46dd60e11b815260040160405180910390fd5b7f9016d09d72d40fdae2fd8ceac6b6234c7706214fd39c1cd1e609a0528c19930080546001600160a01b031981166001600160a01b03848116918217845560405192169182907f8be0079c531659141344cd1fd0a4f28419497f9722a3daafe3b4186f6b6457e090600090a3505050565b611c6061197e565b60008051602061224a833981519152805460ff191660011781557f62e78cea01bee320cd4e420270b5ea74000d11b0c9f74754ebdbfc544b05a25833611a17565b611ca9611d5c565b61109057604051631afcd79f60e31b815260040160405180910390fd5b6117ab611ca1565b6119af611ca1565b60008051602061224a8339815191525460ff1661109057604051638dfc202b60e01b815260040160405180910390fd5b611d0f82611d76565b6040516001600160a01b038316907fbc7cd75a20ee27fd9adebab32041f755214dbc6bffa90cc0225b39da2e5c2d3b90600090a2805115611d5457611b998282611ddb565b61114d611e51565b6000611d666117e1565b54600160401b900460ff16919050565b806001600160a01b03163b600003611dac57604051634c9c8ce360e01b81526001600160a01b03821660048201526024016107f1565b60008051602061222a83398151915280546001600160a01b0319166001600160a01b0392909216919091179055565b6060600080846001600160a01b031684604051611df8919061220d565b600060405180830381855af49150503d8060008114611e33576040519150601f19603f3d011682016040523d82523d6000602084013e611e38565b606091505b5091509150611e48858383611e70565b95945050505050565b34156110905760405163b398979f60e01b815260040160405180910390fd5b606082611e8557611e8082611ecc565b61161f565b8151158015611e9c57506001600160a01b0384163b155b15611ec557604051639996b31560e01b81526001600160a01b03851660048201526024016107f1565b5092915050565b805115611edb57805160208201fd5b60405163d6bda27560e01b815260040160405180910390fd5b80356001600160a01b0381168114611f0b57600080fd5b919050565b600080600060608486031215611f2557600080fd5b611f2e84611ef4565b9250611f3c60208501611ef4565b9150604084013590509250925092565b600060208284031215611f5e57600080fd5b61161f82611ef4565b600060208284031215611f7957600080fd5b5035919050565b634e487b7160e01b600052604160045260246000fd5b60008060408385031215611fa957600080fd5b611fb283611ef4565b9150602083013567ffffffffffffffff80821115611fcf57600080fd5b818501915085601f830112611fe357600080fd5b813581811115611ff557611ff5611f80565b604051601f8201601f19908116603f0116810190838211818310171561201d5761201d611f80565b8160405282815288602084870101111561203657600080fd5b8260208601602083013760006020848301015280955050505050509250929050565b60008060006060848603121561206d57600080fd5b505081359360208301359350604090920135919050565b60008151808452602080850194506020840160005b838110156120b557815187529582019590820190600101612099565b509495945050505050565b6040815260006120d36040830185612084565b8281036020840152611e488185612084565b60005b838110156121005781810151838201526020016120e8565b50506000910152565b60208152600082518060208401526121288160408501602087016120e5565b601f01601f19169190910160400192915050565b60006020828403121561214e57600080fd5b5051919050565b634e487b7160e01b600052601160045260246000fd5b8181038181111561180657611806612155565b808202811582820484141761180657611806612155565b6000826121b257634e487b7160e01b600052601260045260246000fd5b500490565b8082018082111561180657611806612155565b634e487b7160e01b600052603260045260246000fd5b634e487b7160e01b600052603160045260246000fd5b60008161220557612205612155565b506000190190565b6000825161221f8184602087016120e5565b919091019291505056fe360894a13ba1a3210667c828492db98dca3e2076cc3735a920a3ca505d382bbccd5ed15c6e187e77e9aee88184c21f4f2182ab5827cb3b7e07fbedcd63f03300a2646970667358221220c412f9bcf9f9a6b029d6894de9914979e095ca83d3c17d1d9e7c90e148f2cd5764736f6c63430008160033",
  "linkReferences": {},
  "deployedLinkReferences": {}
}