{
  "_format": "hh-sol-artifact-1",
  "contractName": "RewardPointsManager",
  "sourceName": "contracts/RewardPointsManager.sol",
  "abi": [
    {
      "inputs": [],
      "stateMutability": "nonpayable",
      "type": "constructor"
    },
    {
      "inputs": [
        {
          "internalType": "address",
          "name": "target",
          "type": "address"
        }
      ],
      "name": "AddressEmptyCode",
      "type": "error"
    },
    {
      "inputs": [
        {
          "internalType": "address",
          "name": "implementation",
          "type": "address"
        }
      ],
      "name": "ERC1967InvalidImplementation",
      "type": "error"
    },
    {
      "inputs": [],
      "name": "ERC1967NonPayable",
      "type": "error"
    },
    {
      "inputs": [],
      "name": "EnforcedPause",
      "type": "error"
    },
    {
      "inputs": [],
      "name": "ExpectedPause",
      "type": "error"
    },
    {
      "inputs": [],
      "name": "FailedCall",
      "type": "error"
    },
    {
      "inputs": [],
      "name": "InvalidInitialization",
      "type": "error"
    },
    {
      "inputs": [],
      "name": "NotInitializing",
      "type": "error"
    },
    {
      "inputs": [
        {
          "internalType": "address",
          "name": "owner",
          "type": "address"
        }
      ],
      "name": "OwnableInvalidOwner",
      "type": "error"
    },
    {
      "inputs": [
        {
          "internalType": "address",
          "name": "account",
          "type": "address"
        }
      ],
      "name": "OwnableUnauthorizedAccount",
      "type": "error"
    },
    {
      "inputs": [],
      "name": "ReentrancyGuardReentrantCall",
      "type": "error"
    },
    {
      "inputs": [],
      "name": "UUPSUnauthorizedCallContext",
      "type": "error"
    },
    {
      "inputs": [
        {
          "internalType": "bytes32",
          "name": "slot",
          "type": "bytes32"
        }
      ],
      "name": "UUPSUnsupportedProxiableUUID",
      "type": "error"
    },
    {
      "anonymous": false,
      "inputs": [
        {
          "indexed": false,
          "internalType": "uint256",
          "name": "oldRate",
          "type": "uint256"
        },
        {
          "indexed": false,
          "internalType": "uint256",
          "name": "newRate",
          "type": "uint256"
        }
      ],
      "name": "BaseRewardRateUpdated",
      "type": "event"
    },
    {
      "anonymous": false,
      "inputs": [
        {
          "indexed": false,
          "internalType": "uint256",
          "name": "oldDuration",
          "type": "uint256"
        },
        {
          "indexed": false,
          "internalType": "uint256",
          "name": "newDuration",
          "type": "uint256"
        }
      ],
      "name": "EpochDurationUpdated",
      "type": "event"
    },
    {
      "anonymous": false,
      "inputs": [
        {
          "indexed": false,
          "internalType": "uint64",
          "name": "version",
          "type": "uint64"
        }
      ],
      "name": "Initialized",
      "type": "event"
    },
    {
      "anonymous": false,
      "inputs": [
        {
          "indexed": false,
          "internalType": "uint256",
          "name": "oldInterval",
          "type": "uint256"
        },
        {
          "indexed": false,
          "internalType": "uint256",
          "name": "newInterval",
          "type": "uint256"
        }
      ],
      "name": "MinClaimIntervalUpdated",
      "type": "event"
    },
    {
      "anonymous": false,
      "inputs": [
        {
          "indexed": false,
          "internalType": "uint256",
          "name": "tier",
          "type": "uint256"
        }
      ],
      "name": "MultiplierTierRemoved",
      "type": "event"
    },
    {
      "anonymous": false,
      "inputs": [
        {
          "indexed": false,
          "internalType": "uint256",
          "name": "tier",
          "type": "uint256"
        },
        {
          "indexed": false,
          "internalType": "uint256",
          "name": "multiplier",
          "type": "uint256"
        },
        {
          "indexed": false,
          "internalType": "uint256",
          "name": "threshold",
          "type": "uint256"
        }
      ],
      "name": "MultiplierTierUpdated",
      "type": "event"
    },
    {
      "anonymous": false,
      "inputs": [
        {
          "indexed": false,
          "internalType": "uint256",
          "name": "oldCredit",
          "type": "uint256"
        },
        {
          "indexed": false,
          "internalType": "uint256",
          "name": "newCredit",
          "type": "uint256"
        }
      ],
      "name": "NewTokenCreditUpdated",
      "type": "event"
    },
    {
      "anonymous": false,
      "inputs": [
        {
          "indexed": true,
          "internalType": "address",
          "name": "previousOwner",
          "type": "address"
        },
        {
          "indexed": true,
          "internalType": "address",
          "name": "newOwner",
          "type": "address"
        }
      ],
      "name": "OwnershipTransferred",
      "type": "event"
    },
    {
      "anonymous": false,
      "inputs": [
        {
          "indexed": false,
          "internalType": "address",
          "name": "account",
          "type": "address"
        }
      ],
      "name": "Paused",
      "type": "event"
    },
    {
      "anonymous": false,
      "inputs": [
        {
          "indexed": true,
          "internalType": "address",
          "name": "user",
          "type": "address"
        },
        {
          "indexed": false,
          "internalType": "uint256",
          "name": "oldAmount",
          "type": "uint256"
        },
        {
          "indexed": false,
          "internalType": "uint256",
          "name": "newAmount",
          "type": "uint256"
        },
        {
          "indexed": false,
          "internalType": "uint256",
          "name": "rewardsClaimed",
          "type": "uint256"
        },
        {
          "indexed": false,
          "internalType": "uint256",
          "name": "timestamp",
          "type": "uint256"
        }
      ],
      "name": "Restaked",
      "type": "event"
    },
    {
      "anonymous": false,
      "inputs": [
        {
          "indexed": true,
          "internalType": "address",
          "name": "token",
          "type": "address"
        }
      ],
      "name": "RewardPointsSet",
      "type": "event"
    },
    {
      "anonymous": false,
      "inputs": [
        {
          "indexed": true,
          "internalType": "address",
          "name": "user",
          "type": "address"
        },
        {
          "indexed": false,
          "internalType": "uint256",
          "name": "amount",
          "type": "uint256"
        },
        {
          "indexed": false,
          "internalType": "uint256",
          "name": "epochsCompleted",
          "type": "uint256"
        }
      ],
      "name": "RewardsClaimed",
      "type": "event"
    },
    {
      "anonymous": false,
      "inputs": [
        {
          "indexed": true,
          "internalType": "address",
          "name": "user",
          "type": "address"
        },
        {
          "indexed": false,
          "internalType": "uint256",
          "name": "amount",
          "type": "uint256"
        },
        {
          "indexed": false,
          "internalType": "uint256",
          "name": "timestamp",
          "type": "uint256"
        }
      ],
      "name": "Staked",
      "type": "event"
    },
    {
      "anonymous": false,
      "inputs": [
        {
          "indexed": true,
          "internalType": "address",
          "name": "token",
          "type": "address"
        }
      ],
      "name": "StakingTokenSet",
      "type": "event"
    },
    {
      "anonymous": false,
      "inputs": [
        {
          "indexed": false,
          "internalType": "address",
          "name": "account",
          "type": "address"
        }
      ],
      "name": "Unpaused",
      "type": "event"
    },
    {
      "anonymous": false,
      "inputs": [
        {
          "indexed": true,
          "internalType": "address",
          "name": "implementation",
          "type": "address"
        }
      ],
      "name": "Upgraded",
      "type": "event"
    },
    {
      "inputs": [],
      "name": "MULTIPLIER_DIVISOR",
      "outputs": [
        {
          "internalType": "uint256",
          "name": "",
          "type": "uint256"
        }
      ],
      "stateMutability": "view",
      "type": "function"
    },
    {
      "inputs": [],
      "name": "UPGRADE_INTERFACE_VERSION",
      "outputs": [
        {
          "internalType": "string",
          "name": "",
          "type": "string"
        }
      ],
      "stateMutability": "view",
      "type": "function"
    },
    {
      "inputs": [],
      "name": "baseRewardRate",
      "outputs": [
        {
          "internalType": "uint256",
          "name": "",
          "type": "uint256"
        }
      ],
      "stateMutability": "view",
      "type": "function"
    },
    {
      "inputs": [],
      "name": "claimRewards",
      "outputs": [],
      "stateMutability": "nonpayable",
      "type": "function"
    },
    {
      "inputs": [],
      "name": "epochDuration",
      "outputs": [
        {
          "internalType": "uint256",
          "name": "",
          "type": "uint256"
        }
      ],
      "stateMutability": "view",
      "type": "function"
    },
    {
      "inputs": [],
      "name": "getAllTiers",
      "outputs": [
        {
          "internalType": "uint256[]",
          "name": "multipliers",
          "type": "uint256[]"
        },
        {
          "internalType": "uint256[]",
          "name": "thresholds",
          "type": "uint256[]"
        }
      ],
      "stateMutability": "view",
      "type": "function"
    },
    {
      "inputs": [
        {
          "internalType": "address",
          "name": "_user",
          "type": "address"
        }
      ],
      "name": "getEpochsCompleted",
      "outputs": [
        {
          "internalType": "uint256",
          "name": "",
          "type": "uint256"
        }
      ],
      "stateMutability": "view",
      "type": "function"
    },
    {
      "inputs": [
        {
          "internalType": "address",
          "name": "_user",
          "type": "address"
        }
      ],
      "name": "getFractionalEpochs",
      "outputs": [
        {
          "internalType": "uint256",
          "name": "",
          "type": "uint256"
        }
      ],
      "stateMutability": "view",
      "type": "function"
    },
    {
      "inputs": [],
      "name": "getSystemStats",
      "outputs": [
        {
          "internalType": "uint256",
          "name": "_baseRewardRate",
          "type": "uint256"
        },
        {
          "internalType": "uint256",
          "name": "_epochDuration",
          "type": "uint256"
        },
        {
          "internalType": "uint256",
          "name": "_newTokenCreditBasisPoints",
          "type": "uint256"
        },
        {
          "internalType": "uint256",
          "name": "_minClaimInterval",
          "type": "uint256"
        },
        {
          "internalType": "uint256",
          "name": "_tierCount",
          "type": "uint256"
        },
        {
          "internalType": "address",
          "name": "_stakingToken",
          "type": "address"
        },
        {
          "internalType": "address",
          "name": "_rewardPoints",
          "type": "address"
        },
        {
          "internalType": "bool",
          "name": "_paused",
          "type": "bool"
        }
      ],
      "stateMutability": "view",
      "type": "function"
    },
    {
      "inputs": [
        {
          "internalType": "uint256",
          "name": "_index",
          "type": "uint256"
        }
      ],
      "name": "getTier",
      "outputs": [
        {
          "internalType": "uint256",
          "name": "multiplier",
          "type": "uint256"
        },
        {
          "internalType": "uint256",
          "name": "threshold",
          "type": "uint256"
        }
      ],
      "stateMutability": "view",
      "type": "function"
    },
    {
      "inputs": [],
      "name": "getTierCount",
      "outputs": [
        {
          "internalType": "uint256",
          "name": "",
          "type": "uint256"
        }
      ],
      "stateMutability": "view",
      "type": "function"
    },
    {
      "inputs": [
        {
          "internalType": "address",
          "name": "_user",
          "type": "address"
        }
      ],
      "name": "getUserMultiplier",
      "outputs": [
        {
          "internalType": "uint256",
          "name": "",
          "type": "uint256"
        }
      ],
      "stateMutability": "view",
      "type": "function"
    },
    {
      "inputs": [
        {
          "internalType": "address",
          "name": "_user",
          "type": "address"
        }
      ],
      "name": "getUserStakeData",
      "outputs": [
        {
          "internalType": "uint256",
          "name": "stakedBalance",
          "type": "uint256"
        },
        {
          "internalType": "uint256",
          "name": "stakeTimestamp",
          "type": "uint256"
        },
        {
          "internalType": "uint256",
          "name": "lastClaimTimestamp",
          "type": "uint256"
        },
        {
          "internalType": "uint256",
          "name": "totalClaimed",
          "type": "uint256"
        },
        {
          "internalType": "uint256",
          "name": "currentBalance",
          "type": "uint256"
        },
        {
          "internalType": "uint256",
          "name": "pendingReward",
          "type": "uint256"
        },
        {
          "internalType": "uint256",
          "name": "epochsCompleted",
          "type": "uint256"
        },
        {
          "internalType": "uint256",
          "name": "currentTier",
          "type": "uint256"
        },
        {
          "internalType": "uint256",
          "name": "currentMultiplier",
          "type": "uint256"
        },
        {
          "internalType": "bool",
          "name": "hasSoldTokens",
          "type": "bool"
        }
      ],
      "stateMutability": "view",
      "type": "function"
    },
    {
      "inputs": [
        {
          "internalType": "address",
          "name": "_user",
          "type": "address"
        }
      ],
      "name": "getUserTier",
      "outputs": [
        {
          "internalType": "uint256",
          "name": "",
          "type": "uint256"
        }
      ],
      "stateMutability": "view",
      "type": "function"
    },
    {
      "inputs": [
        {
          "internalType": "address",
          "name": "_stakingToken",
          "type": "address"
        },
        {
          "internalType": "address",
          "name": "_rewardPoints",
          "type": "address"
        },
        {
          "internalType": "uint256",
          "name": "_baseRewardRate",
          "type": "uint256"
        }
      ],
      "name": "initialize",
      "outputs": [],
      "stateMutability": "nonpayable",
      "type": "function"
    },
    {
      "inputs": [],
      "name": "minClaimInterval",
      "outputs": [
        {
          "internalType": "uint256",
          "name": "",
          "type": "uint256"
        }
      ],
      "stateMutability": "view",
      "type": "function"
    },
    {
      "inputs": [
        {
          "internalType": "uint256",
          "name": "",
          "type": "uint256"
        }
      ],
      "name": "multiplierTiers",
      "outputs": [
        {
          "internalType": "uint256",
          "name": "",
          "type": "uint256"
        }
      ],
      "stateMutability": "view",
      "type": "function"
    },
    {
      "inputs": [],
      "name": "newTokenCreditBasisPoints",
      "outputs": [
        {
          "internalType": "uint256",
          "name": "",
          "type": "uint256"
        }
      ],
      "stateMutability": "view",
      "type": "function"
    },
    {
      "inputs": [],
      "name": "owner",
      "outputs": [
        {
          "internalType": "address",
          "name": "",
          "type": "address"
        }
      ],
      "stateMutability": "view",
      "type": "function"
    },
    {
      "inputs": [],
      "name": "pause",
      "outputs": [],
      "stateMutability": "nonpayable",
      "type": "function"
    },
    {
      "inputs": [],
      "name": "paused",
      "outputs": [
        {
          "internalType": "bool",
          "name": "",
          "type": "bool"
        }
      ],
      "stateMutability": "view",
      "type": "function"
    },
    {
      "inputs": [
        {
          "internalType": "address",
          "name": "_user",
          "type": "address"
        }
      ],
      "name": "pendingRewards",
      "outputs": [
        {
          "internalType": "uint256",
          "name": "",
          "type": "uint256"
        }
      ],
      "stateMutability": "view",
      "type": "function"
    },
    {
      "inputs": [],
      "name": "proxiableUUID",
      "outputs": [
        {
          "internalType": "bytes32",
          "name": "",
          "type": "bytes32"
        }
      ],
      "stateMutability": "view",
      "type": "function"
    },
    {
      "inputs": [],
      "name": "removeLastTier",
      "outputs": [],
      "stateMutability": "nonpayable",
      "type": "function"
    },
    {
      "inputs": [],
      "name": "renounceOwnership",
      "outputs": [],
      "stateMutability": "nonpayable",
      "type": "function"
    },
    {
      "inputs": [],
      "name": "rewardPoints",
      "outputs": [
        {
          "internalType": "contract IRewardPoints",
          "name": "",
          "type": "address"
        }
      ],
      "stateMutability": "view",
      "type": "function"
    },
    {
      "inputs": [
        {
          "internalType": "uint256",
          "name": "_newRate",
          "type": "uint256"
        }
      ],
      "name": "setBaseRewardRate",
      "outputs": [],
      "stateMutability": "nonpayable",
      "type": "function"
    },
    {
      "inputs": [
        {
          "internalType": "uint256",
          "name": "_duration",
          "type": "uint256"
        }
      ],
      "name": "setEpochDuration",
      "outputs": [],
      "stateMutability": "nonpayable",
      "type": "function"
    },
    {
      "inputs": [
        {
          "internalType": "uint256",
          "name": "_interval",
          "type": "uint256"
        }
      ],
      "name": "setMinClaimInterval",
      "outputs": [],
      "stateMutability": "nonpayable",
      "type": "function"
    },
    {
      "inputs": [
        {
          "internalType": "uint256",
          "name": "_tierIndex",
          "type": "uint256"
        },
        {
          "internalType": "uint256",
          "name": "_multiplier",
          "type": "uint256"
        },
        {
          "internalType": "uint256",
          "name": "_threshold",
          "type": "uint256"
        }
      ],
      "name": "setMultiplierTier",
      "outputs": [],
      "stateMutability": "nonpayable",
      "type": "function"
    },
    {
      "inputs": [
        {
          "internalType": "uint256",
          "name": "_basisPoints",
          "type": "uint256"
        }
      ],
      "name": "setNewTokenCredit",
      "outputs": [],
      "stateMutability": "nonpayable",
      "type": "function"
    },
    {
      "inputs": [
        {
          "internalType": "address",
          "name": "_token",
          "type": "address"
        }
      ],
      "name": "setRewardPointsToken",
      "outputs": [],
      "stateMutability": "nonpayable",
      "type": "function"
    },
    {
      "inputs": [
        {
          "internalType": "address",
          "name": "_token",
          "type": "address"
        }
      ],
      "name": "setStakingToken",
      "outputs": [],
      "stateMutability": "nonpayable",
      "type": "function"
    },
    {
      "inputs": [],
      "name": "stake",
      "outputs": [],
      "stateMutability": "nonpayable",
      "type": "function"
    },
    {
      "inputs": [],
      "name": "stakingToken",
      "outputs": [
        {
          "internalType": "contract IERC20",
          "name": "",
          "type": "address"
        }
      ],
      "stateMutability": "view",
      "type": "function"
    },
    {
      "inputs": [
        {
          "internalType": "uint256",
          "name": "",
          "type": "uint256"
        }
      ],
      "name": "tierThresholds",
      "outputs": [
        {
          "internalType": "uint256",
          "name": "",
          "type": "uint256"
        }
      ],
      "stateMutability": "view",
      "type": "function"
    },
    {
      "inputs": [
        {
          "internalType": "address",
          "name": "newOwner",
          "type": "address"
        }
      ],
      "name": "transferOwnership",
      "outputs": [],
      "stateMutability": "nonpayable",
      "type": "function"
    },
    {
      "inputs": [],
      "name": "unpause",
      "outputs": [],
      "stateMutability": "nonpayable",
      "type": "function"
    },
    {
      "inputs": [
        {
          "internalType": "address",
          "name": "newImplementation",
          "type": "address"
        },
        {
          "internalType": "bytes",
          "name": "data",
          "type": "bytes"
        }
      ],
      "name": "upgradeToAndCall",
      "outputs": [],
      "stateMutability": "payable",
      "type": "function"
    },
    {
      "inputs": [
        {
          "internalType": "address",
          "name": "",
          "type": "address"
        }
      ],
      "name": "userStakes",
      "outputs": [
        {
          "internalType": "uint256",
          "name": "stakedBalance",
          "type": "uint256"
        },
        {
          "internalType": "uint256",
          "name": "stakeTimestamp",
          "type": "uint256"
        },
        {
          "internalType": "uint256",
          "name": "lastClaimTimestamp",
          "type": "uint256"
        },
        {
          "internalType": "uint256",
          "name": "totalClaimed",
          "type": "uint256"
        }
      ],
      "stateMutability": "view",
      "type": "function"
    }
  ],
  "bytecode": "0x60a0604052306080523480156200001557600080fd5b506200002062000026565b620000da565b7ff0c57e16840df040f15088dc2f81fe391c3923bec73e23a9662efc9c229c6a00805468010000000000000000900460ff1615620000775760405163f92ee8a960e01b815260040160405180910390fd5b80546001600160401b0390811614620000d75780546001600160401b0319166001600160401b0390811782556040519081527fc7f505b2f371ae2175ee4913f4499e1f2633a7b5936321eed1cdaeb6115181d29060200160405180910390a15b50565b6080516129356200010460003960008181611e1501528181611e3e0152611f8401526129356000f3fe60806040526004361061023b5760003560e01c806372f702f31161012e578063b1d10236116100ab578063e9c3ab111161006f578063e9c3ab1114610739578063e9ce34a514610759578063f07fc224146107c5578063f0a9abe7146107e5578063f2fde38b1461080557600080fd5b8063b1d1023614610645578063c5e22f3f14610665578063d1ce59a714610685578063d661dd3114610703578063e4d2620e1461071957600080fd5b806398fc539c116100f257806398fc539c14610591578063a100d69d146105b1578063a1037501146105d1578063ad3cb1cc146105f1578063afbf34401461062f57600080fd5b806372f702f3146104a85780638456cb59146104c85780638da5cb5b146104dd5780638da7ad231461051a578063988388381461057c57600080fd5b80634b78537a116101bc57806357ac4ddd1161018057806357ac4ddd1461040b5780635c975abb1461042b5780636471af831461045b57806367184e281461047e578063715018a61461049357600080fd5b80634b78537a146103825780634f062c5a146103985780634f1ef286146103cd5780634ff0876a146103e057806352d1902d146103f657600080fd5b806332cf597e1161020357806332cf597e146102eb578063372500ab146103235780633a4b66f1146103385780633f4ba83a1461034d578063413193fc1461036257600080fd5b80631794bb3c146102405780631afcd0e6146102625780631e9b12ef1461028b57806330024dfe146102ab57806331d7a262146102cb575b600080fd5b34801561024c57600080fd5b5061026061025b366004612586565b610825565b005b34801561026e57600080fd5b5061027860045481565b6040519081526020015b60405180910390f35b34801561029757600080fd5b506102606102a63660046125c2565b610a80565b3480156102b757600080fd5b506102606102c63660046125dd565b610b16565b3480156102d757600080fd5b506102786102e63660046125c2565b610bb4565b3480156102f757600080fd5b5060015461030b906001600160a01b031681565b6040516001600160a01b039091168152602001610282565b34801561032f57600080fd5b50610260610bc5565b34801561034457600080fd5b50610260610dd4565b34801561035957600080fd5b50610260610f42565b34801561036e57600080fd5b5061026061037d3660046125dd565b610f52565b34801561038e57600080fd5b5061027860035481565b3480156103a457600080fd5b506103b86103b33660046125dd565b610fdf565b60408051928352602083019190915201610282565b6102606103db36600461260c565b61106f565b3480156103ec57600080fd5b5061027860055481565b34801561040257600080fd5b5061027861108e565b34801561041757600080fd5b506102606104263660046126ce565b6110ab565b34801561043757600080fd5b506000805160206128c08339815191525460ff166040519015158152602001610282565b34801561046757600080fd5b5061047061125c565b604051610282929190612736565b34801561048a57600080fd5b50600654610278565b34801561049f57600080fd5b5061026061130f565b3480156104b457600080fd5b5060005461030b906001600160a01b031681565b3480156104d457600080fd5b50610260611321565b3480156104e957600080fd5b507f9016d09d72d40fdae2fd8ceac6b6234c7706214fd39c1cd1e609a0528c199300546001600160a01b031661030b565b34801561052657600080fd5b5061055c6105353660046125c2565b60086020526000908152604090208054600182015460028301546003909301549192909184565b604080519485526020850193909352918301526060820152608001610282565b34801561058857600080fd5b50610260611331565b34801561059d57600080fd5b506102606105ac3660046125c2565b611429565b3480156105bd57600080fd5b506102786105cc3660046125dd565b6114c1565b3480156105dd57600080fd5b506102786105ec3660046125c2565b6114e2565b3480156105fd57600080fd5b50610622604051806040016040528060058152602001640352e302e360dc1b81525081565b604051610282919061277f565b34801561063b57600080fd5b5061027860025481565b34801561065157600080fd5b506102786106603660046125c2565b61154a565b34801561067157600080fd5b506102786106803660046125c2565b611599565b34801561069157600080fd5b506002546005546003546004546006546000546001546000805160206128c08339815191525460408051988952602089019790975295870194909452606086019290925260808501526001600160a01b0390811660a08501521660c083015260ff16151560e082015261010001610282565b34801561070f57600080fd5b5061027861271081565b34801561072557600080fd5b506102786107343660046125c2565b611613565b34801561074557600080fd5b506102786107543660046125dd565b6116e4565b34801561076557600080fd5b506107796107743660046125c2565b6116f4565b604080519a8b5260208b0199909952978901969096526060880194909452608087019290925260a086015260c085015260e0840152610100830152151561012082015261014001610282565b3480156107d157600080fd5b506102606107e03660046125dd565b611922565b3480156107f157600080fd5b506102606108003660046125dd565b611968565b34801561081157600080fd5b506102606108203660046125c2565b6119ae565b600061082f6119ec565b805490915060ff600160401b820416159067ffffffffffffffff166000811580156108575750825b905060008267ffffffffffffffff1660011480156108745750303b155b905081158015610882575080155b156108a05760405163f92ee8a960e01b815260040160405180910390fd5b845467ffffffffffffffff1916600117855583156108ca57845460ff60401b1916600160401b1785555b6108d333611a15565b6108db611a26565b6108e3611a36565b6108eb611a36565b6001600160a01b03881661093e5760405162461bcd60e51b815260206004820152601560248201527424b73b30b634b21039ba30b5b4b733903a37b5b2b760591b60448201526064015b60405180910390fd5b6001600160a01b03871661098c5760405162461bcd60e51b8152602060048201526015602482015274496e76616c69642072657761726420706f696e747360581b6044820152606401610935565b600080546001600160a01b03808b166001600160a01b031992831617835560018054918b16919092161781556002889055610e10600455620151806005556107d0600355600680548083019091556127107ff652222313e28459528d920b65115c16c04f3efc82aaedc97be59f3f377c0d3f9091015560078054918201815582527fa66cc928b5edb82af9bd49922954155ab7b0942694bea4ce44661d9a8736c68801558315610a7657845460ff60401b19168555604051600181527fc7f505b2f371ae2175ee4913f4499e1f2633a7b5936321eed1cdaeb6115181d29060200160405180910390a15b5050505050505050565b610a88611a3e565b6001600160a01b038116610ace5760405162461bcd60e51b815260206004820152600d60248201526c24b73b30b634b2103a37b5b2b760991b6044820152606401610935565b600080546001600160a01b0319166001600160a01b038316908117825560405190917f9904a32444ae0eb0bae2045baf588aa248f03f4fef600c18afd1d7e751614af891a250565b610b1e611a3e565b60008111610b6e5760405162461bcd60e51b815260206004820152601a60248201527f45706f6368206475726174696f6e206d757374206265203e20300000000000006044820152606401610935565b600580549082905560408051828152602081018490527fda8ff87475657c76bff7b4e017c535d5fbf29958aedc8095a45c56d9fab528f691015b60405180910390a15050565b6000610bbf82611a99565b92915050565b610bcd611c17565b610bd5611c4f565b3360008181526008602052604090208054610c245760405162461bcd60e51b815260206004820152600f60248201526e4e6f20616374697665207374616b6560881b6044820152606401610935565b6004548160020154610c3691906127c8565b421015610c765760405162461bcd60e51b815260206004820152600e60248201526d21b630b4b6903a37b79039b7b7b760911b6044820152606401610935565b6000610c8183611a99565b905060008111610cc95760405162461bcd60e51b81526020600482015260136024820152724e6f207265776172647320746f20636c61696d60681b6044820152606401610935565b42826002018190555080826003016000828254610ce691906127c8565b90915550506001546040516340c10f1960e01b81526001600160a01b03858116600483015260248201849052909116906340c10f1990604401600060405180830381600087803b158015610d3957600080fd5b505af1158015610d4d573d6000803e3d6000fd5b505050506000600554836001015442610d6691906127db565b610d7091906127ee565b60408051848152602081018390529192506001600160a01b038616917fdacbdde355ba930696a362ea6738feb9f8bd52dfb3d81947558fd3217e23e325910160405180910390a250505050610dd260016000805160206128e083398151915255565b565b610ddc611c17565b610de4611c4f565b600080546040516370a0823160e01b8152336004820181905292916001600160a01b0316906370a0823190602401602060405180830381865afa158015610e2f573d6000803e3d6000fd5b505050506040513d601f19601f82011682018060405250810190610e539190612810565b905060008111610e9a5760405162461bcd60e51b81526020600482015260126024820152714e6f20746f6b656e7320746f207374616b6560701b6044820152606401610935565b6001600160a01b0382166000908152600860205260409020805415610ecb57610ec38383611c94565b505050610f2b565b8181554260018201819055600282018190556040516001600160a01b038516917f1449c6dd7851abc30abf37f57715f492010519147cc2652fbc38202c18a6ee9091610f1f91868252602082015260400190565b60405180910390a25050505b610dd260016000805160206128e083398151915255565b610f4a611a3e565b610dd2611db0565b610f5a611a3e565b612710811115610fa15760405162461bcd60e51b815260206004820152601260248201527143616e6e6f7420657863656564203130302560701b6044820152606401610935565b600380549082905560408051828152602081018490527f5e8b2a19aa52c1ad1f471d10d017a2322ff4c121271c0e8f08fa03b6e4298f4c9101610ba8565b6006546000908190831061102a5760405162461bcd60e51b8152602060048201526012602482015271092dcecc2d8d2c840e8d2cae440d2dcc8caf60731b6044820152606401610935565b6006838154811061103d5761103d612829565b90600052602060002001546007848154811061105b5761105b612829565b906000526020600020015491509150915091565b611077611e0a565b61108082611eaf565b61108a8282611eb7565b5050565b6000611098611f79565b506000805160206128a083398151915290565b6110b3611a3e565b6127108210156111055760405162461bcd60e51b815260206004820181905260248201527f4d756c7469706c696572206d757374206265203e3d20317820283130303030296044820152606401610935565b620186a08211156111635760405162461bcd60e51b815260206004820152602260248201527f4d756c7469706c696572206d757374206265203c3d2031307820283130303030604482015261302960f01b6064820152608401610935565b60065483106111d3576006805460018181019092557ff652222313e28459528d920b65115c16c04f3efc82aaedc97be59f3f377c0d3f018390556007805491820181556000527fa66cc928b5edb82af9bd49922954155ab7b0942694bea4ce44661d9a8736c68801819055611216565b81600684815481106111e7576111e7612829565b9060005260206000200181905550806007848154811061120957611209612829565b6000918252602090912001555b60408051848152602081018490529081018290527fd21dfcdd2c7fded204fecb79ddbd5a4b5673c1a92be8c12089433aebc99e90259060600160405180910390a1505050565b60608060066007818054806020026020016040519081016040528092919081815260200182805480156112ae57602002820191906000526020600020905b81548152602001906001019080831161129a575b505050505091508080548060200260200160405190810160405280929190818152602001828054801561130057602002820191906000526020600020905b8154815260200190600101908083116112ec575b50505050509050915091509091565b611317611a3e565b610dd26000611fc2565b611329611a3e565b610dd2612033565b611339611a3e565b60065460011061138b5760405162461bcd60e51b815260206004820152601760248201527f43616e6e6f742072656d6f7665206c61737420746965720000000000000000006044820152606401610935565b60065460009061139d906001906127db565b905060068054806113b0576113b061283f565b6001900381819060005260206000200160009055905560078054806113d7576113d761283f565b600190038181906000526020600020016000905590557f8fa04867a0a1c9bc12ecb65dde92e2f4c99b17fdc81078b9cfd03b91e5e2f66e8160405161141e91815260200190565b60405180910390a150565b611431611a3e565b6001600160a01b0381166114775760405162461bcd60e51b815260206004820152600d60248201526c24b73b30b634b2103a37b5b2b760991b6044820152606401610935565b600180546001600160a01b0319166001600160a01b0383169081179091556040517f77bcb3f48f2f77aadd01a7e3e609b265d40a1a1cacb0fc0a6d450b96ee28ee5e90600090a250565b600781815481106114d157600080fd5b600091825260209091200154905081565b6001600160a01b03811660009081526008602052604081206002810154820361150e5750600092915050565b600081600201544261152091906127db565b60055490915061153882670de0b6b3a7640000612855565b61154291906127ee565b949350505050565b6001600160a01b0381166000908152600860205260408120600181015482036115765750600092915050565b600554600282015461158890426127db565b61159291906127ee565b9392505050565b600080546040516370a0823160e01b81526001600160a01b038481166004830152839216906370a0823190602401602060405180830381865afa1580156115e4573d6000803e3d6000fd5b505050506040513d601f19601f820116820180604052508101906116089190612810565b90506115928161207c565b600080546040516370a0823160e01b81526001600160a01b038481166004830152839216906370a0823190602401602060405180830381865afa15801561165e573d6000803e3d6000fd5b505050506040513d601f19601f820116820180604052508101906116829190612810565b6007549091505b80156116da57600761169c6001836127db565b815481106116ac576116ac612829565b906000526020600020015482106116c8576115426001826127db565b806116d28161286c565b915050611689565b5060009392505050565b600681815481106114d157600080fd5b6001600160a01b03818116600081815260086020526040808220825491516370a0823160e01b8152600481019490945291938493849384938493849384938493849384939116906370a0823190602401602060405180830381865afa158015611761573d6000803e3d6000fd5b505050506040513d601f19601f820116820180604052508101906117859190612810565b60405163c5e22f3f60e01b81526001600160a01b038e166004820152909750309063c5e22f3f90602401602060405180830381865afa1580156117cc573d6000803e3d6000fd5b505050506040513d601f19601f820116820180604052508101906117f09190612810565b604051637269310760e11b81526001600160a01b038e166004820152909350309063e4d2620e90602401602060405180830381865afa158015611837573d6000803e3d6000fd5b505050506040513d601f19601f8201168201806040525081019061185b9190612810565b6040516318ebd13160e11b81526001600160a01b038e16600482015290945030906331d7a26290602401602060405180830381865afa1580156118a2573d6000803e3d6000fd5b505050506040513d601f19601f820116820180604052508101906118c69190612810565b8154600183015491975088109250156118f85760055460028201546118eb90426127db565b6118f591906127ee565b94505b80600001548160010154826002015483600301549a509a509a509a50509193959799509193959799565b61192a611a3e565b600480549082905560408051828152602081018490527f3ddc332fa05f40d1bb72f0da99d449ba7f0398a3d2af91398b221f93199844fe9101610ba8565b611970611a3e565b600280549082905560408051828152602081018490527f4cab0e93f2febd4d1a1bb4ca2f9e35e1486b65039c3f9e506212eeef709d99eb9101610ba8565b6119b6611a3e565b6001600160a01b0381166119e057604051631e4fbdf760e01b815260006004820152602401610935565b6119e981611fc2565b50565b6000807ff0c57e16840df040f15088dc2f81fe391c3923bec73e23a9662efc9c229c6a00610bbf565b611a1d612120565b6119e981612145565b611a2e612120565b610dd261214d565b610dd2612120565b33611a707f9016d09d72d40fdae2fd8ceac6b6234c7706214fd39c1cd1e609a0528c199300546001600160a01b031690565b6001600160a01b031614610dd25760405163118cdaa760e01b8152336004820152602401610935565b6001600160a01b038116600090815260086020526040812080548203611ac25750600092915050565b6000816002015442611ad491906127db565b905080600003611ae8575060009392505050565b600080546040516370a0823160e01b81526001600160a01b038781166004830152909116906370a0823190602401602060405180830381865afa158015611b33573d6000803e3d6000fd5b505050506040513d601f19601f82011682018060405250810190611b579190612810565b905080600003611b6c57506000949350505050565b600554600090611b8484670de0b6b3a7640000612855565b611b8e91906127ee565b9050600084600001548310611ba4578454611ba6565b825b90506000611bb38261207c565b90506000611bcb612710670de0b6b3a7640000612855565b611bdd90670de0b6b3a7640000612855565b6002548390611bec8688612855565b611bf69190612855565b611c009190612855565b611c0a91906127ee565b9998505050505050505050565b6000805160206128e0833981519152805460011901611c4957604051633ee5aeb560e01b815260040160405180910390fd5b60029055565b6000805160206128c08339815191525460ff1615610dd25760405163d93c066560e01b815260040160405180910390fd5b60016000805160206128e083398151915255565b6001600160a01b038216600090815260086020526040812080549091611cbb858386612155565b90508015611d435780836003016000828254611cd791906127c8565b90915550506001546040516340c10f1960e01b81526001600160a01b03878116600483015260248201849052909116906340c10f1990604401600060405180830381600087803b158015611d2a57600080fd5b505af1158015611d3e573d6000803e3d6000fd5b505050505b838355426001840181905560028401819055604080518481526020810187905290810183905260608101919091526001600160a01b038616907f4bce7886509a8aa645f57f99a104498ffdef78a52bd6e6cb6a13a99d92c7ac0c9060800160405180910390a25050505050565b611db861234c565b6000805160206128c0833981519152805460ff191681557f5db9ee0a495bf2e6ff9c91a7834c1ba4fdd244a5e8aa4e537bd38aeae4b073aa335b6040516001600160a01b03909116815260200161141e565b306001600160a01b037f0000000000000000000000000000000000000000000000000000000000000000161480611e9157507f00000000000000000000000000000000000000000000000000000000000000006001600160a01b0316611e856000805160206128a0833981519152546001600160a01b031690565b6001600160a01b031614155b15610dd25760405163703e46dd60e11b815260040160405180910390fd5b6119e9611a3e565b816001600160a01b03166352d1902d6040518163ffffffff1660e01b8152600401602060405180830381865afa925050508015611f11575060408051601f3d908101601f19168201909252611f0e91810190612810565b60015b611f3957604051634c9c8ce360e01b81526001600160a01b0383166004820152602401610935565b6000805160206128a08339815191528114611f6a57604051632a87526960e21b815260048101829052602401610935565b611f74838361237c565b505050565b306001600160a01b037f00000000000000000000000000000000000000000000000000000000000000001614610dd25760405163703e46dd60e11b815260040160405180910390fd5b7f9016d09d72d40fdae2fd8ceac6b6234c7706214fd39c1cd1e609a0528c19930080546001600160a01b031981166001600160a01b03848116918217845560405192169182907f8be0079c531659141344cd1fd0a4f28419497f9722a3daafe3b4186f6b6457e090600090a3505050565b61203b611c4f565b6000805160206128c0833981519152805460ff191660011781557f62e78cea01bee320cd4e420270b5ea74000d11b0c9f74754ebdbfc544b05a25833611df2565b6007546000905b80156120f95760076120966001836127db565b815481106120a6576120a6612829565b906000526020600020015483106120e75760066120c46001836127db565b815481106120d4576120d4612829565b9060005260206000200154915050919050565b806120f18161286c565b915050612083565b50600660008154811061210e5761210e612829565b90600052602060002001549050919050565b6121286123d2565b610dd257604051631afcd79f60e31b815260040160405180910390fd5b6119b6612120565b611c80612120565b6001600160a01b03831660009081526008602052604081208054820361217f576000915050611592565b600081600201544261219191906127db565b9050806000036121a657600092505050611592565b6005546000906121be83670de0b6b3a7640000612855565b6121c891906127ee565b90508585101561223d5760006121dd8661207c565b90506121f3612710670de0b6b3a7640000612855565b61220590670de0b6b3a7640000612855565b60025482906122148986612855565b61221e9190612855565b6122289190612855565b61223291906127ee565b945050505050611592565b60006122488761207c565b9050600061225861271080612855565b61226a90670de0b6b3a7640000612855565b61227c90670de0b6b3a7640000612855565b60025483908a61228e87611f40612855565b6122989190612855565b6122a29190612855565b6122ac9190612855565b6122b691906127ee565b905060006122c38861207c565b905060006122d361271080612855565b6122e590670de0b6b3a7640000612855565b6122f790670de0b6b3a7640000612855565b60025483908b612309896107d0612855565b6123139190612855565b61231d9190612855565b6123279190612855565b61233191906127ee565b905061233d81846127c8565b9b9a5050505050505050505050565b6000805160206128c08339815191525460ff16610dd257604051638dfc202b60e01b815260040160405180910390fd5b612385826123ec565b6040516001600160a01b038316907fbc7cd75a20ee27fd9adebab32041f755214dbc6bffa90cc0225b39da2e5c2d3b90600090a28051156123ca57611f748282612451565b61108a6124c7565b60006123dc6119ec565b54600160401b900460ff16919050565b806001600160a01b03163b60000361242257604051634c9c8ce360e01b81526001600160a01b0382166004820152602401610935565b6000805160206128a083398151915280546001600160a01b0319166001600160a01b0392909216919091179055565b6060600080846001600160a01b03168460405161246e9190612883565b600060405180830381855af49150503d80600081146124a9576040519150601f19603f3d011682016040523d82523d6000602084013e6124ae565b606091505b50915091506124be8583836124e6565b95945050505050565b3415610dd25760405163b398979f60e01b815260040160405180910390fd5b6060826124fb576124f682612542565b611592565b815115801561251257506001600160a01b0384163b155b1561253b57604051639996b31560e01b81526001600160a01b0385166004820152602401610935565b5080611592565b80511561255157805160208201fd5b60405163d6bda27560e01b815260040160405180910390fd5b80356001600160a01b038116811461258157600080fd5b919050565b60008060006060848603121561259b57600080fd5b6125a48461256a565b92506125b26020850161256a565b9150604084013590509250925092565b6000602082840312156125d457600080fd5b6115928261256a565b6000602082840312156125ef57600080fd5b5035919050565b634e487b7160e01b600052604160045260246000fd5b6000806040838503121561261f57600080fd5b6126288361256a565b9150602083013567ffffffffffffffff8082111561264557600080fd5b818501915085601f83011261265957600080fd5b81358181111561266b5761266b6125f6565b604051601f8201601f19908116603f01168101908382118183101715612693576126936125f6565b816040528281528860208487010111156126ac57600080fd5b8260208601602083013760006020848301015280955050505050509250929050565b6000806000606084860312156126e357600080fd5b505081359360208301359350604090920135919050565b60008151808452602080850194506020840160005b8381101561272b5781518752958201959082019060010161270f565b509495945050505050565b60408152600061274960408301856126fa565b82810360208401526124be81856126fa565b60005b8381101561277657818101518382015260200161275e565b50506000910152565b602081526000825180602084015261279e81604085016020870161275b565b601f01601f19169190910160400192915050565b634e487b7160e01b600052601160045260246000fd5b80820180821115610bbf57610bbf6127b2565b81810381811115610bbf57610bbf6127b2565b60008261280b57634e487b7160e01b600052601260045260246000fd5b500490565b60006020828403121561282257600080fd5b5051919050565b634e487b7160e01b600052603260045260246000fd5b634e487b7160e01b600052603160045260246000fd5b8082028115828204841417610bbf57610bbf6127b2565b60008161287b5761287b6127b2565b506000190190565b6000825161289581846020870161275b565b919091019291505056fe360894a13ba1a3210667c828492db98dca3e2076cc3735a920a3ca505d382bbccd5ed15c6e187e77e9aee88184c21f4f2182ab5827cb3b7e07fbedcd63f033009b779b17422d0df92223018b32b4d1fa46e071723d6817e2486d003becc55f00a26469706673582212203a6f2dfc3ded0bab03917be6f0105fcd613b9e755b582eb55255cc3fcf84c27b64736f6c63430008160033",
  "linkReferences": {},
  "deployedLinkReferences": {}
}