{
  "_format": "hh-sol-artifact-1",
  "contractName": "RewardPoints",
  "sourceName": "contracts/RewardPoints.sol",
  "abi": [
    {
      "inputs": [],
      "stateMutability": "nonpayable",
      "type": "constructor"
    },
    {
      "inputs": [
        {
          "internalType": "address",
          "name": "spender",
          "type": "address"
        },
        {
          "internalType": "uint256",
          "name": "allowance",
          "type": "uint256"
        },
        {
          "internalType": "uint256",
          "name": "needed",
          "type": "uint256"
        }
      ],
      "name": "ERC20InsufficientAllowance",
      "type": "error"
    },
    {
      "inputs": [
        {
          "internalType": "address",
          "name": "sender",
          "type": "address"
        },
        {
          "internalType": "uint256",
          "name": "balance",
          "type": "uint256"
        },
        {
          "internalType": "uint256",
          "name": "needed",
          "type": "uint256"
        }
      ],
      "name": "ERC20InsufficientBalance",
      "type": "error"
    },
    {
      "inputs": [
        {
          "internalType": "address",
          "name": "approver",
          "type": "address"
        }
      ],
      "name": "ERC20InvalidApprover",
      "type": "error"
    },
    {
      "inputs": [
        {
          "internalType": "address",
          "name": "receiver",
          "type": "address"
        }
      ],
      "name": "ERC20InvalidReceiver",
      "type": "error"
    },
    {
      "inputs": [
        {
          "internalType": "address",
          "name": "sender",
          "type": "address"
        }
      ],
      "name": "ERC20InvalidSender",
      "type": "error"
    },
    {
      "inputs": [
        {
          "internalType": "address",
          "name": "spender",
          "type": "address"
        }
      ],
      "name": "ERC20InvalidSpender",
      "type": "error"
    },
    {
      "inputs": [
        {
          "internalType": "address",
          "name": "owner",
          "type": "address"
        }
      ],
      "name": "OwnableInvalidOwner",
      "type": "error"
    },
    {
      "inputs": [
        {
          "internalType": "address",
          "name": "account",
          "type": "address"
        }
      ],
      "name": "OwnableUnauthorizedAccount",
      "type": "error"
    },
    {
      "anonymous": false,
      "inputs": [
        {
          "indexed": true,
          "internalType": "address",
          "name": "owner",
          "type": "address"
        },
        {
          "indexed": true,
          "internalType": "address",
          "name": "spender",
          "type": "address"
        },
        {
          "indexed": false,
          "internalType": "uint256",
          "name": "value",
          "type": "uint256"
        }
      ],
      "name": "Approval",
      "type": "event"
    },
    {
      "anonymous": false,
      "inputs": [
        {
          "indexed": true,
          "internalType": "address",
          "name": "spender",
          "type": "address"
        }
      ],
      "name": "AuthorizedSpenderAdded",
      "type": "event"
    },
    {
      "anonymous": false,
      "inputs": [
        {
          "indexed": true,
          "internalType": "address",
          "name": "spender",
          "type": "address"
        }
      ],
      "name": "AuthorizedSpenderRemoved",
      "type": "event"
    },
    {
      "anonymous": false,
      "inputs": [
        {
          "indexed": true,
          "internalType": "address",
          "name": "previousOwner",
          "type": "address"
        },
        {
          "indexed": true,
          "internalType": "address",
          "name": "newOwner",
          "type": "address"
        }
      ],
      "name": "OwnershipTransferred",
      "type": "event"
    },
    {
      "anonymous": false,
      "inputs": [
        {
          "indexed": true,
          "internalType": "address",
          "name": "manager",
          "type": "address"
        }
      ],
      "name": "RewardManagerSet",
      "type": "event"
    },
    {
      "anonymous": false,
      "inputs": [
        {
          "indexed": true,
          "internalType": "address",
          "name": "from",
          "type": "address"
        },
        {
          "indexed": true,
          "internalType": "address",
          "name": "to",
          "type": "address"
        },
        {
          "indexed": false,
          "internalType": "uint256",
          "name": "value",
          "type": "uint256"
        }
      ],
      "name": "Transfer",
      "type": "event"
    },
    {
      "inputs": [
        {
          "internalType": "address",
          "name": "_spender",
          "type": "address"
        }
      ],
      "name": "addAuthorizedSpender",
      "outputs": [],
      "stateMutability": "nonpayable",
      "type": "function"
    },
    {
      "inputs": [
        {
          "internalType": "address",
          "name": "owner",
          "type": "address"
        },
        {
          "internalType": "address",
          "name": "spender",
          "type": "address"
        }
      ],
      "name": "allowance",
      "outputs": [
        {
          "internalType": "uint256",
          "name": "",
          "type": "uint256"
        }
      ],
      "stateMutability": "view",
      "type": "function"
    },
    {
      "inputs": [
        {
          "internalType": "address",
          "name": "spender",
          "type": "address"
        },
        {
          "internalType": "uint256",
          "name": "value",
          "type": "uint256"
        }
      ],
      "name": "approve",
      "outputs": [
        {
          "internalType": "bool",
          "name": "",
          "type": "bool"
        }
      ],
      "stateMutability": "nonpayable",
      "type": "function"
    },
    {
      "inputs": [
        {
          "internalType": "address",
          "name": "",
          "type": "address"
        }
      ],
      "name": "authorizedSpenders",
      "outputs": [
        {
          "internalType": "bool",
          "name": "",
          "type": "bool"
        }
      ],
      "stateMutability": "view",
      "type": "function"
    },
    {
      "inputs": [
        {
          "internalType": "address",
          "name": "account",
          "type": "address"
        }
      ],
      "name": "balanceOf",
      "outputs": [
        {
          "internalType": "uint256",
          "name": "",
          "type": "uint256"
        }
      ],
      "stateMutability": "view",
      "type": "function"
    },
    {
      "inputs": [
        {
          "internalType": "address",
          "name": "_from",
          "type": "address"
        },
        {
          "internalType": "uint256",
          "name": "_amount",
          "type": "uint256"
        }
      ],
      "name": "burnFrom",
      "outputs": [],
      "stateMutability": "nonpayable",
      "type": "function"
    },
    {
      "inputs": [],
      "name": "decimals",
      "outputs": [
        {
          "internalType": "uint8",
          "name": "",
          "type": "uint8"
        }
      ],
      "stateMutability": "view",
      "type": "function"
    },
    {
      "inputs": [
        {
          "internalType": "address",
          "name": "_to",
          "type": "address"
        },
        {
          "internalType": "uint256",
          "name": "_amount",
          "type": "uint256"
        }
      ],
      "name": "mint",
      "outputs": [],
      "stateMutability": "nonpayable",
      "type": "function"
    },
    {
      "inputs": [],
      "name": "name",
      "outputs": [
        {
          "internalType": "string",
          "name": "",
          "type": "string"
        }
      ],
      "stateMutability": "view",
      "type": "function"
    },
    {
      "inputs": [],
      "name": "owner",
      "outputs": [
        {
          "internalType": "address",
          "name": "",
          "type": "address"
        }
      ],
      "stateMutability": "view",
      "type": "function"
    },
    {
      "inputs": [
        {
          "internalType": "address",
          "name": "_spender",
          "type": "address"
        }
      ],
      "name": "removeAuthorizedSpender",
      "outputs": [],
      "stateMutability": "nonpayable",
      "type": "function"
    },
    {
      "inputs": [],
      "name": "renounceOwnership",
      "outputs": [],
      "stateMutability": "nonpayable",
      "type": "function"
    },
    {
      "inputs": [],
      "name": "rewardManager",
      "outputs": [
        {
          "internalType": "address",
          "name": "",
          "type": "address"
        }
      ],
      "stateMutability": "view",
      "type": "function"
    },
    {
      "inputs": [
        {
          "internalType": "address",
          "name": "_manager",
          "type": "address"
        }
      ],
      "name": "setRewardManager",
      "outputs": [],
      "stateMutability": "nonpayable",
      "type": "function"
    },
    {
      "inputs": [],
      "name": "symbol",
      "outputs": [
        {
          "internalType": "string",
          "name": "",
          "type": "string"
        }
      ],
      "stateMutability": "view",
      "type": "function"
    },
    {
      "inputs": [],
      "name": "totalSupply",
      "outputs": [
        {
          "internalType": "uint256",
          "name": "",
          "type": "uint256"
        }
      ],
      "stateMutability": "view",
      "type": "function"
    },
    {
      "inputs": [
        {
          "internalType": "address",
          "name": "to",
          "type": "address"
        },
        {
          "internalType": "uint256",
          "name": "value",
          "type": "uint256"
        }
      ],
      "name": "transfer",
      "outputs": [
        {
          "internalType": "bool",
          "name": "",
          "type": "bool"
        }
      ],
      "stateMutability": "nonpayable",
      "type": "function"
    },
    {
      "inputs": [
        {
          "internalType": "address",
          "name": "from",
          "type": "address"
        },
        {
          "internalType": "address",
          "name": "to",
          "type": "address"
        },
        {
          "internalType": "uint256",
          "name": "value",
          "type": "uint256"
        }
      ],
      "name": "transferFrom",
      "outputs": [
        {
          "internalType": "bool",
          "name": "",
          "type": "bool"
        }
      ],
      "stateMutability": "nonpayable",
      "type": "function"
    },
    {
      "inputs": [
        {
          "internalType": "address",
          "name": "newOwner",
          "type": "address"
        }
      ],
      "name": "transferOwnership",
      "outputs": [],
      "stateMutability": "nonpayable",
      "type": "function"
    }
  ],
  "bytecode": "0x60806040523480156200001157600080fd5b503360405180604001604052806012815260200171484f444c2052657761726420506f696e747360701b8152506040518060400160405280600781526020016648504f494e545360c81b81525081600390816200006f9190620001bb565b5060046200007e8282620001bb565b5050506001600160a01b038116620000b057604051631e4fbdf760e01b81526000600482015260240160405180910390fd5b620000bb81620000c2565b5062000287565b600580546001600160a01b038381166001600160a01b0319831681179093556040519116919082907f8be0079c531659141344cd1fd0a4f28419497f9722a3daafe3b4186f6b6457e090600090a35050565b634e487b7160e01b600052604160045260246000fd5b600181811c908216806200013f57607f821691505b6020821081036200016057634e487b7160e01b600052602260045260246000fd5b50919050565b601f821115620001b6576000816000526020600020601f850160051c81016020861015620001915750805b601f850160051c820191505b81811015620001b2578281556001016200019d565b5050505b505050565b81516001600160401b03811115620001d757620001d762000114565b620001ef81620001e884546200012a565b8462000166565b602080601f8311600181146200022757600084156200020e5750858301515b600019600386901b1c1916600185901b178555620001b2565b600085815260208120601f198616915b82811015620002585788860151825594840194600190910190840162000237565b5085821015620002775787850151600019600388901b60f8161c191681555b5050505050600190811b01905550565b610d1380620002976000396000f3fe608060405234801561001057600080fd5b50600436106101215760003560e01c80635551c62b116100ad57806395d89b411161007157806395d89b4114610269578063a9059cbb14610271578063d2454e8d14610284578063dd62ed3e146102a7578063f2fde38b146102e057600080fd5b80635551c62b1461020157806370a0823114610214578063715018a61461023d57806379cc6790146102455780638da5cb5b1461025857600080fd5b8063153ee554116100f4578063153ee554146101a757806318160ddd146101ba57806323b872dd146101cc578063313ce567146101df57806340c10f19146101ee57600080fd5b8063051ae65c1461012657806306fdde031461013b578063095ea7b3146101595780630f4ef8a61461017c575b600080fd5b610139610134366004610b78565b6102f3565b005b610143610344565b6040516101509190610b9a565b60405180910390f35b61016c610167366004610be9565b6103d6565b6040519015158152602001610150565b60075461018f906001600160a01b031681565b6040516001600160a01b039091168152602001610150565b6101396101b5366004610b78565b6103f0565b6002545b604051908152602001610150565b61016c6101da366004610c13565b6104ec565b60405160128152602001610150565b6101396101fc366004610be9565b610510565b61013961020f366004610b78565b610578565b6101be610222366004610b78565b6001600160a01b031660009081526020819052604090205490565b610139610614565b610139610253366004610be9565b610628565b6005546001600160a01b031661018f565b61014361068a565b61016c61027f366004610be9565b610699565b61016c610292366004610b78565b60066020526000908152604090205460ff1681565b6101be6102b5366004610c4f565b6001600160a01b03918216600090815260016020908152604080832093909416825291909152205490565b6101396102ee366004610b78565b6106a7565b6102fb6106e5565b6001600160a01b038116600081815260066020526040808220805460ff19169055517f5fa6e567b5d56422d283d51faf98b71ccdf17a8884a80018febc8ed17af1bba69190a250565b60606003805461035390610c82565b80601f016020809104026020016040519081016040528092919081815260200182805461037f90610c82565b80156103cc5780601f106103a1576101008083540402835291602001916103cc565b820191906000526020600020905b8154815290600101906020018083116103af57829003601f168201915b5050505050905090565b6000336103e4818585610712565b60019150505b92915050565b6103f86106e5565b6007546001600160a01b03161561044c5760405162461bcd60e51b815260206004820152601360248201527213585b9859d95c88185b1c9958591e481cd95d606a1b60448201526064015b60405180910390fd5b6001600160a01b0381166104a25760405162461bcd60e51b815260206004820152601760248201527f496e76616c6964206d616e6167657220616464726573730000000000000000006044820152606401610443565b600780546001600160a01b0319166001600160a01b0383169081179091556040517f4b722357462a92ae2776fce05f39902ac96cb04d2fe661eb688f4a72ab069cff90600090a250565b6000336104fa858285610724565b6105058585856107a3565b506001949350505050565b6007546001600160a01b0316331461056a5760405162461bcd60e51b815260206004820152601c60248201527f4f6e6c7920726577617264206d616e616765722063616e206d696e74000000006044820152606401610443565b6105748282610802565b5050565b6105806106e5565b6001600160a01b0381166105c85760405162461bcd60e51b815260206004820152600f60248201526e24b73b30b634b21039b832b73232b960891b6044820152606401610443565b6001600160a01b038116600081815260066020526040808220805460ff19166001179055517f2c66df6f035615fe056471ae03212730212cf4ac367daa7043e457a8bda0c0079190a250565b61061c6106e5565b6106266000610838565b565b3360009081526006602052604090205460ff166106805760405162461bcd60e51b81526020600482015260166024820152752737ba1030baba3437b934bd32b21039b832b73232b960511b6044820152606401610443565b610574828261088a565b60606004805461035390610c82565b6000336103e48185856107a3565b6106af6106e5565b6001600160a01b0381166106d957604051631e4fbdf760e01b815260006004820152602401610443565b6106e281610838565b50565b6005546001600160a01b031633146106265760405163118cdaa760e01b8152336004820152602401610443565b61071f83838360016108c0565b505050565b6001600160a01b0383811660009081526001602090815260408083209386168352929052205460001981101561079d578181101561078e57604051637dc7a0d960e11b81526001600160a01b03841660048201526024810182905260448101839052606401610443565b61079d848484840360006108c0565b50505050565b6001600160a01b0383166107cd57604051634b637e8f60e11b815260006004820152602401610443565b6001600160a01b0382166107f75760405163ec442f0560e01b815260006004820152602401610443565b61071f838383610995565b6001600160a01b03821661082c5760405163ec442f0560e01b815260006004820152602401610443565b61057460008383610995565b600580546001600160a01b038381166001600160a01b0319831681179093556040519116919082907f8be0079c531659141344cd1fd0a4f28419497f9722a3daafe3b4186f6b6457e090600090a35050565b6001600160a01b0382166108b457604051634b637e8f60e11b815260006004820152602401610443565b61057482600083610995565b6001600160a01b0384166108ea5760405163e602df0560e01b815260006004820152602401610443565b6001600160a01b03831661091457604051634a1406b160e11b815260006004820152602401610443565b6001600160a01b038085166000908152600160209081526040808320938716835292905220829055801561079d57826001600160a01b0316846001600160a01b03167f8c5be1e5ebec7d5bd14f71427d1e84f3dd0314c0f7b2291e5b200ac8c7c3b9258460405161098791815260200190565b60405180910390a350505050565b6001600160a01b03831615806109b257506001600160a01b038216155b806109d557506001600160a01b03821660009081526006602052604090205460ff165b610a2c5760405162461bcd60e51b815260206004820152602260248201527f52657761726420706f696e747320617265206e6f6e2d7472616e7366657261626044820152616c6560f01b6064820152608401610443565b61071f8383836001600160a01b038316610a5d578060026000828254610a529190610cbc565b90915550610acf9050565b6001600160a01b03831660009081526020819052604090205481811015610ab05760405163391434e360e21b81526001600160a01b03851660048201526024810182905260448101839052606401610443565b6001600160a01b03841660009081526020819052604090209082900390555b6001600160a01b038216610aeb57600280548290039055610b0a565b6001600160a01b03821660009081526020819052604090208054820190555b816001600160a01b0316836001600160a01b03167fddf252ad1be2c89b69c2b068fc378daa952ba7f163c4a11628f55a4df523b3ef83604051610b4f91815260200190565b60405180910390a3505050565b80356001600160a01b0381168114610b7357600080fd5b919050565b600060208284031215610b8a57600080fd5b610b9382610b5c565b9392505050565b60006020808352835180602085015260005b81811015610bc857858101830151858201604001528201610bac565b506000604082860101526040601f19601f8301168501019250505092915050565b60008060408385031215610bfc57600080fd5b610c0583610b5c565b946020939093013593505050565b600080600060608486031215610c2857600080fd5b610c3184610b5c565b9250610c3f60208501610b5c565b9150604084013590509250925092565b60008060408385031215610c6257600080fd5b610c6b83610b5c565b9150610c7960208401610b5c565b90509250929050565b600181811c90821680610c9657607f821691505b602082108103610cb657634e487b7160e01b600052602260045260246000fd5b50919050565b808201808211156103ea57634e487b7160e01b600052601160045260246000fdfea2646970667358221220fe502f474ad805dd4f872115fdad81ffe2a53c15827ba36a2656cb07ca1f768964736f6c63430008160033",
  "linkReferences": {},
  "deployedLinkReferences": {}
}