{
  "_format": "hh-sol-artifact-1",
  "contractName": "RewardPoints",
  "sourceName": "contracts/RewardPoints.sol",
  "abi": [
    {
      "inputs": [],
      "stateMutability": "nonpayable",
      "type": "constructor"
    },
    {
      "inputs": [
        {
          "internalType": "address",
          "name": "target",
          "type": "address"
        }
      ],
      "name": "AddressEmptyCode",
      "type": "error"
    },
    {
      "inputs": [
        {
          "internalType": "address",
          "name": "implementation",
          "type": "address"
        }
      ],
      "name": "ERC1967InvalidImplementation",
      "type": "error"
    },
    {
      "inputs": [],
      "name": "ERC1967NonPayable",
      "type": "error"
    },
    {
      "inputs": [
        {
          "internalType": "address",
          "name": "spender",
          "type": "address"
        },
        {
          "internalType": "uint256",
          "name": "allowance",
          "type": "uint256"
        },
        {
          "internalType": "uint256",
          "name": "needed",
          "type": "uint256"
        }
      ],
      "name": "ERC20InsufficientAllowance",
      "type": "error"
    },
    {
      "inputs": [
        {
          "internalType": "address",
          "name": "sender",
          "type": "address"
        },
        {
          "internalType": "uint256",
          "name": "balance",
          "type": "uint256"
        },
        {
          "internalType": "uint256",
          "name": "needed",
          "type": "uint256"
        }
      ],
      "name": "ERC20InsufficientBalance",
      "type": "error"
    },
    {
      "inputs": [
        {
          "internalType": "address",
          "name": "approver",
          "type": "address"
        }
      ],
      "name": "ERC20InvalidApprover",
      "type": "error"
    },
    {
      "inputs": [
        {
          "internalType": "address",
          "name": "receiver",
          "type": "address"
        }
      ],
      "name": "ERC20InvalidReceiver",
      "type": "error"
    },
    {
      "inputs": [
        {
          "internalType": "address",
          "name": "sender",
          "type": "address"
        }
      ],
      "name": "ERC20InvalidSender",
      "type": "error"
    },
    {
      "inputs": [
        {
          "internalType": "address",
          "name": "spender",
          "type": "address"
        }
      ],
      "name": "ERC20InvalidSpender",
      "type": "error"
    },
    {
      "inputs": [],
      "name": "FailedCall",
      "type": "error"
    },
    {
      "inputs": [],
      "name": "InvalidInitialization",
      "type": "error"
    },
    {
      "inputs": [],
      "name": "NotInitializing",
      "type": "error"
    },
    {
      "inputs": [
        {
          "internalType": "address",
          "name": "owner",
          "type": "address"
        }
      ],
      "name": "OwnableInvalidOwner",
      "type": "error"
    },
    {
      "inputs": [
        {
          "internalType": "address",
          "name": "account",
          "type": "address"
        }
      ],
      "name": "OwnableUnauthorizedAccount",
      "type": "error"
    },
    {
      "inputs": [],
      "name": "UUPSUnauthorizedCallContext",
      "type": "error"
    },
    {
      "inputs": [
        {
          "internalType": "bytes32",
          "name": "slot",
          "type": "bytes32"
        }
      ],
      "name": "UUPSUnsupportedProxiableUUID",
      "type": "error"
    },
    {
      "anonymous": false,
      "inputs": [
        {
          "indexed": true,
          "internalType": "address",
          "name": "owner",
          "type": "address"
        },
        {
          "indexed": true,
          "internalType": "address",
          "name": "spender",
          "type": "address"
        },
        {
          "indexed": false,
          "internalType": "uint256",
          "name": "value",
          "type": "uint256"
        }
      ],
      "name": "Approval",
      "type": "event"
    },
    {
      "anonymous": false,
      "inputs": [
        {
          "indexed": true,
          "internalType": "address",
          "name": "spender",
          "type": "address"
        }
      ],
      "name": "AuthorizedSpenderAdded",
      "type": "event"
    },
    {
      "anonymous": false,
      "inputs": [
        {
          "indexed": true,
          "internalType": "address",
          "name": "spender",
          "type": "address"
        }
      ],
      "name": "AuthorizedSpenderRemoved",
      "type": "event"
    },
    {
      "anonymous": false,
      "inputs": [
        {
          "indexed": false,
          "internalType": "uint64",
          "name": "version",
          "type": "uint64"
        }
      ],
      "name": "Initialized",
      "type": "event"
    },
    {
      "anonymous": false,
      "inputs": [
        {
          "indexed": true,
          "internalType": "address",
          "name": "previousOwner",
          "type": "address"
        },
        {
          "indexed": true,
          "internalType": "address",
          "name": "newOwner",
          "type": "address"
        }
      ],
      "name": "OwnershipTransferred",
      "type": "event"
    },
    {
      "anonymous": false,
      "inputs": [
        {
          "indexed": true,
          "internalType": "address",
          "name": "manager",
          "type": "address"
        }
      ],
      "name": "RewardManagerSet",
      "type": "event"
    },
    {
      "anonymous": false,
      "inputs": [
        {
          "indexed": true,
          "internalType": "address",
          "name": "from",
          "type": "address"
        },
        {
          "indexed": true,
          "internalType": "address",
          "name": "to",
          "type": "address"
        },
        {
          "indexed": false,
          "internalType": "uint256",
          "name": "value",
          "type": "uint256"
        }
      ],
      "name": "Transfer",
      "type": "event"
    },
    {
      "anonymous": false,
      "inputs": [
        {
          "indexed": true,
          "internalType": "address",
          "name": "implementation",
          "type": "address"
        }
      ],
      "name": "Upgraded",
      "type": "event"
    },
    {
      "inputs": [],
      "name": "UPGRADE_INTERFACE_VERSION",
      "outputs": [
        {
          "internalType": "string",
          "name": "",
          "type": "string"
        }
      ],
      "stateMutability": "view",
      "type": "function"
    },
    {
      "inputs": [
        {
          "internalType": "address",
          "name": "_spender",
          "type": "address"
        }
      ],
      "name": "addAuthorizedSpender",
      "outputs": [],
      "stateMutability": "nonpayable",
      "type": "function"
    },
    {
      "inputs": [
        {
          "internalType": "address",
          "name": "owner",
          "type": "address"
        },
        {
          "internalType": "address",
          "name": "spender",
          "type": "address"
        }
      ],
      "name": "allowance",
      "outputs": [
        {
          "internalType": "uint256",
          "name": "",
          "type": "uint256"
        }
      ],
      "stateMutability": "view",
      "type": "function"
    },
    {
      "inputs": [
        {
          "internalType": "address",
          "name": "spender",
          "type": "address"
        },
        {
          "internalType": "uint256",
          "name": "value",
          "type": "uint256"
        }
      ],
      "name": "approve",
      "outputs": [
        {
          "internalType": "bool",
          "name": "",
          "type": "bool"
        }
      ],
      "stateMutability": "nonpayable",
      "type": "function"
    },
    {
      "inputs": [
        {
          "internalType": "address",
          "name": "",
          "type": "address"
        }
      ],
      "name": "authorizedSpenders",
      "outputs": [
        {
          "internalType": "bool",
          "name": "",
          "type": "bool"
        }
      ],
      "stateMutability": "view",
      "type": "function"
    },
    {
      "inputs": [
        {
          "internalType": "address",
          "name": "account",
          "type": "address"
        }
      ],
      "name": "balanceOf",
      "outputs": [
        {
          "internalType": "uint256",
          "name": "",
          "type": "uint256"
        }
      ],
      "stateMutability": "view",
      "type": "function"
    },
    {
      "inputs": [
        {
          "internalType": "address",
          "name": "_from",
          "type": "address"
        },
        {
          "internalType": "uint256",
          "name": "_amount",
          "type": "uint256"
        }
      ],
      "name": "burnFrom",
      "outputs": [],
      "stateMutability": "nonpayable",
      "type": "function"
    },
    {
      "inputs": [],
      "name": "decimals",
      "outputs": [
        {
          "internalType": "uint8",
          "name": "",
          "type": "uint8"
        }
      ],
      "stateMutability": "view",
      "type": "function"
    },
    {
      "inputs": [],
      "name": "getTokenInfo",
      "outputs": [
        {
          "internalType": "string",
          "name": "tokenName",
          "type": "string"
        },
        {
          "internalType": "string",
          "name": "tokenSymbol",
          "type": "string"
        },
        {
          "internalType": "uint8",
          "name": "tokenDecimals",
          "type": "uint8"
        },
        {
          "internalType": "address",
          "name": "manager",
          "type": "address"
        },
        {
          "internalType": "address",
          "name": "tokenOwner",
          "type": "address"
        }
      ],
      "stateMutability": "view",
      "type": "function"
    },
    {
      "inputs": [],
      "name": "initialize",
      "outputs": [],
      "stateMutability": "nonpayable",
      "type": "function"
    },
    {
      "inputs": [
        {
          "internalType": "address",
          "name": "_spender",
          "type": "address"
        }
      ],
      "name": "isAuthorizedSpender",
      "outputs": [
        {
          "internalType": "bool",
          "name": "",
          "type": "bool"
        }
      ],
      "stateMutability": "view",
      "type": "function"
    },
    {
      "inputs": [
        {
          "internalType": "address",
          "name": "_to",
          "type": "address"
        },
        {
          "internalType": "uint256",
          "name": "_amount",
          "type": "uint256"
        }
      ],
      "name": "mint",
      "outputs": [],
      "stateMutability": "nonpayable",
      "type": "function"
    },
    {
      "inputs": [],
      "name": "name",
      "outputs": [
        {
          "internalType": "string",
          "name": "",
          "type": "string"
        }
      ],
      "stateMutability": "view",
      "type": "function"
    },
    {
      "inputs": [],
      "name": "owner",
      "outputs": [
        {
          "internalType": "address",
          "name": "",
          "type": "address"
        }
      ],
      "stateMutability": "view",
      "type": "function"
    },
    {
      "inputs": [],
      "name": "proxiableUUID",
      "outputs": [
        {
          "internalType": "bytes32",
          "name": "",
          "type": "bytes32"
        }
      ],
      "stateMutability": "view",
      "type": "function"
    },
    {
      "inputs": [
        {
          "internalType": "address",
          "name": "_spender",
          "type": "address"
        }
      ],
      "name": "removeAuthorizedSpender",
      "outputs": [],
      "stateMutability": "nonpayable",
      "type": "function"
    },
    {
      "inputs": [],
      "name": "renounceOwnership",
      "outputs": [],
      "stateMutability": "nonpayable",
      "type": "function"
    },
    {
      "inputs": [],
      "name": "rewardManager",
      "outputs": [
        {
          "internalType": "address",
          "name": "",
          "type": "address"
        }
      ],
      "stateMutability": "view",
      "type": "function"
    },
    {
      "inputs": [
        {
          "internalType": "address",
          "name": "_manager",
          "type": "address"
        }
      ],
      "name": "setRewardManager",
      "outputs": [],
      "stateMutability": "nonpayable",
      "type": "function"
    },
    {
      "inputs": [],
      "name": "symbol",
      "outputs": [
        {
          "internalType": "string",
          "name": "",
          "type": "string"
        }
      ],
      "stateMutability": "view",
      "type": "function"
    },
    {
      "inputs": [],
      "name": "totalSupply",
      "outputs": [
        {
          "internalType": "uint256",
          "name": "",
          "type": "uint256"
        }
      ],
      "stateMutability": "view",
      "type": "function"
    },
    {
      "inputs": [
        {
          "internalType": "address",
          "name": "to",
          "type": "address"
        },
        {
          "internalType": "uint256",
          "name": "value",
          "type": "uint256"
        }
      ],
      "name": "transfer",
      "outputs": [
        {
          "internalType": "bool",
          "name": "",
          "type": "bool"
        }
      ],
      "stateMutability": "nonpayable",
      "type": "function"
    },
    {
      "inputs": [
        {
          "internalType": "address",
          "name": "from",
          "type": "address"
        },
        {
          "internalType": "address",
          "name": "to",
          "type": "address"
        },
        {
          "internalType": "uint256",
          "name": "value",
          "type": "uint256"
        }
      ],
      "name": "transferFrom",
      "outputs": [
        {
          "internalType": "bool",
          "name": "",
          "type": "bool"
        }
      ],
      "stateMutability": "nonpayable",
      "type": "function"
    },
    {
      "inputs": [
        {
          "internalType": "address",
          "name": "newOwner",
          "type": "address"
        }
      ],
      "name": "transferOwnership",
      "outputs": [],
      "stateMutability": "nonpayable",
      "type": "function"
    },
    {
      "inputs": [
        {
          "internalType": "address",
          "name": "newImplementation",
          "type": "address"
        },
        {
          "internalType": "bytes",
          "name": "data",
          "type": "bytes"
        }
      ],
      "name": "upgradeToAndCall",
      "outputs": [],
      "stateMutability": "payable",
      "type": "function"
    }
  ],
  "bytecode": "0x60a06040523060805234801561001457600080fd5b5061001d610022565b6100d4565b7ff0c57e16840df040f15088dc2f81fe391c3923bec73e23a9662efc9c229c6a00805468010000000000000000900460ff16156100725760405163f92ee8a960e01b815260040160405180910390fd5b80546001600160401b03908116146100d15780546001600160401b0319166001600160401b0390811782556040519081527fc7f505b2f371ae2175ee4913f4499e1f2633a7b5936321eed1cdaeb6115181d29060200160405180910390a15b50565b6080516119256100fd60003960008181610cde01528181610d070152610e4801526119256000f3fe6080604052600436106101665760003560e01c80635551c62b116100d157806395d89b411161008a578063ad3cb1cc11610064578063ad3cb1cc14610458578063d2454e8d14610489578063dd62ed3e146104b9578063f2fde38b146104d957600080fd5b806395d89b41146103fd578063a9059cbb14610412578063abb1dc441461043257600080fd5b80635551c62b1461033b57806370a082311461035b578063715018a61461039e57806379cc6790146103b35780638129fc1c146103d35780638da5cb5b146103e857600080fd5b806323b872dd1161012357806323b872dd1461027e578063256a87f31461029e578063313ce567146102d757806340c10f19146102f35780634f1ef2861461031357806352d1902d1461032657600080fd5b8063051ae65c1461016b57806306fdde031461018d578063095ea7b3146101b85780630f4ef8a6146101e8578063153ee5541461022057806318160ddd14610240575b600080fd5b34801561017757600080fd5b5061018b6101863660046114d0565b6104f9565b005b34801561019957600080fd5b506101a261054a565b6040516101af919061153b565b60405180910390f35b3480156101c457600080fd5b506101d86101d336600461154e565b61060d565b60405190151581526020016101af565b3480156101f457600080fd5b50600154610208906001600160a01b031681565b6040516001600160a01b0390911681526020016101af565b34801561022c57600080fd5b5061018b61023b3660046114d0565b610627565b34801561024c57600080fd5b507f52c63247e1f47db19d5ce0460030c497f067ca4cebf71ba98eeadabe20bace02545b6040519081526020016101af565b34801561028a57600080fd5b506101d8610299366004611578565b610723565b3480156102aa57600080fd5b506101d86102b93660046114d0565b6001600160a01b031660009081526020819052604090205460ff1690565b3480156102e357600080fd5b50604051601281526020016101af565b3480156102ff57600080fd5b5061018b61030e36600461154e565b610749565b61018b6103213660046115ca565b6107b1565b34801561033257600080fd5b506102706107cc565b34801561034757600080fd5b5061018b6103563660046114d0565b6107e9565b34801561036757600080fd5b506102706103763660046114d0565b6001600160a01b031660009081526000805160206118b0833981519152602052604090205490565b3480156103aa57600080fd5b5061018b610885565b3480156103bf57600080fd5b5061018b6103ce36600461154e565b610899565b3480156103df57600080fd5b5061018b6108fb565b3480156103f457600080fd5b50610208610a51565b34801561040957600080fd5b506101a2610a7f565b34801561041e57600080fd5b506101d861042d36600461154e565b610abe565b34801561043e57600080fd5b50610447610acc565b6040516101af95949392919061168c565b34801561046457600080fd5b506101a2604051806040016040528060058152602001640352e302e360dc1b81525081565b34801561049557600080fd5b506101d86104a43660046114d0565b60006020819052908152604090205460ff1681565b3480156104c557600080fd5b506102706104d43660046116dc565b610b0b565b3480156104e557600080fd5b5061018b6104f43660046114d0565b610b55565b610501610b93565b6001600160a01b038116600081815260208190526040808220805460ff19169055517f5fa6e567b5d56422d283d51faf98b71ccdf17a8884a80018febc8ed17af1bba69190a250565b7f52c63247e1f47db19d5ce0460030c497f067ca4cebf71ba98eeadabe20bace0380546060916000805160206118b0833981519152916105899061170f565b80601f01602080910402602001604051908101604052809291908181526020018280546105b59061170f565b80156106025780601f106105d757610100808354040283529160200191610602565b820191906000526020600020905b8154815290600101906020018083116105e557829003601f168201915b505050505091505090565b60003361061b818585610bc5565b60019150505b92915050565b61062f610b93565b6001546001600160a01b0316156106835760405162461bcd60e51b815260206004820152601360248201527213585b9859d95c88185b1c9958591e481cd95d606a1b60448201526064015b60405180910390fd5b6001600160a01b0381166106d95760405162461bcd60e51b815260206004820152601760248201527f496e76616c6964206d616e616765722061646472657373000000000000000000604482015260640161067a565b600180546001600160a01b0319166001600160a01b0383169081179091556040517f4b722357462a92ae2776fce05f39902ac96cb04d2fe661eb688f4a72ab069cff90600090a250565b600033610731858285610bd7565b61073c858585610c3e565b60019150505b9392505050565b6001546001600160a01b031633146107a35760405162461bcd60e51b815260206004820152601c60248201527f4f6e6c7920726577617264206d616e616765722063616e206d696e7400000000604482015260640161067a565b6107ad8282610c9d565b5050565b6107b9610cd3565b6107c282610d78565b6107ad8282610d80565b60006107d6610e3d565b506000805160206118d083398151915290565b6107f1610b93565b6001600160a01b0381166108395760405162461bcd60e51b815260206004820152600f60248201526e24b73b30b634b21039b832b73232b960891b604482015260640161067a565b6001600160a01b038116600081815260208190526040808220805460ff19166001179055517f2c66df6f035615fe056471ae03212730212cf4ac367daa7043e457a8bda0c0079190a250565b61088d610b93565b6108976000610e86565b565b3360009081526020819052604090205460ff166108f15760405162461bcd60e51b81526020600482015260166024820152752737ba1030baba3437b934bd32b21039b832b73232b960511b604482015260640161067a565b6107ad8282610ef7565b6000610905610f2d565b805490915060ff600160401b820416159067ffffffffffffffff1660008115801561092d5750825b905060008267ffffffffffffffff16600114801561094a5750303b155b905081158015610958575080155b156109765760405163f92ee8a960e01b815260040160405180910390fd5b845467ffffffffffffffff1916600117855583156109a057845460ff60401b1916600160401b1785555b6109f360405180604001604052806012815260200171484f444c2052657761726420506f696e747360701b8152506040518060400160405280600781526020016648504f494e545360c81b815250610f56565b6109fc33610f68565b610a04610f79565b8315610a4a57845460ff60401b19168555604051600181527fc7f505b2f371ae2175ee4913f4499e1f2633a7b5936321eed1cdaeb6115181d29060200160405180910390a15b5050505050565b7f9016d09d72d40fdae2fd8ceac6b6234c7706214fd39c1cd1e609a0528c199300546001600160a01b031690565b7f52c63247e1f47db19d5ce0460030c497f067ca4cebf71ba98eeadabe20bace0480546060916000805160206118b0833981519152916105899061170f565b60003361061b818585610c3e565b6060806000806000610adc61054a565b610ae4610a7f565b60126001546001600160a01b0316610afa610a51565b945094509450945094509091929394565b6001600160a01b0391821660009081527f52c63247e1f47db19d5ce0460030c497f067ca4cebf71ba98eeadabe20bace016020908152604080832093909416825291909152205490565b610b5d610b93565b6001600160a01b038116610b8757604051631e4fbdf760e01b81526000600482015260240161067a565b610b9081610e86565b50565b33610b9c610a51565b6001600160a01b0316146108975760405163118cdaa760e01b815233600482015260240161067a565b610bd28383836001610f81565b505050565b6000610be38484610b0b565b9050600019811015610c385781811015610c2957604051637dc7a0d960e11b81526001600160a01b0384166004820152602481018290526044810183905260640161067a565b610c3884848484036000610f81565b50505050565b6001600160a01b038316610c6857604051634b637e8f60e11b81526000600482015260240161067a565b6001600160a01b038216610c925760405163ec442f0560e01b81526000600482015260240161067a565b610bd2838383611068565b6001600160a01b038216610cc75760405163ec442f0560e01b81526000600482015260240161067a565b6107ad60008383611068565b306001600160a01b037f0000000000000000000000000000000000000000000000000000000000000000161480610d5a57507f00000000000000000000000000000000000000000000000000000000000000006001600160a01b0316610d4e6000805160206118d0833981519152546001600160a01b031690565b6001600160a01b031614155b156108975760405163703e46dd60e11b815260040160405180910390fd5b610b90610b93565b816001600160a01b03166352d1902d6040518163ffffffff1660e01b8152600401602060405180830381865afa925050508015610dda575060408051601f3d908101601f19168201909252610dd791810190611749565b60015b610e0257604051634c9c8ce360e01b81526001600160a01b038316600482015260240161067a565b6000805160206118d08339815191528114610e3357604051632a87526960e21b81526004810182905260240161067a565b610bd2838361110a565b306001600160a01b037f000000000000000000000000000000000000000000000000000000000000000016146108975760405163703e46dd60e11b815260040160405180910390fd5b7f9016d09d72d40fdae2fd8ceac6b6234c7706214fd39c1cd1e609a0528c19930080546001600160a01b031981166001600160a01b03848116918217845560405192169182907f8be0079c531659141344cd1fd0a4f28419497f9722a3daafe3b4186f6b6457e090600090a3505050565b6001600160a01b038216610f2157604051634b637e8f60e11b81526000600482015260240161067a565b6107ad82600083611068565b6000807ff0c57e16840df040f15088dc2f81fe391c3923bec73e23a9662efc9c229c6a00610621565b610f5e611160565b6107ad8282611185565b610f70611160565b610b90816111d6565b610897611160565b6000805160206118b08339815191526001600160a01b038516610fba5760405163e602df0560e01b81526000600482015260240161067a565b6001600160a01b038416610fe457604051634a1406b160e11b81526000600482015260240161067a565b6001600160a01b03808616600090815260018301602090815260408083209388168352929052208390558115610a4a57836001600160a01b0316856001600160a01b03167f8c5be1e5ebec7d5bd14f71427d1e84f3dd0314c0f7b2291e5b200ac8c7c3b9258560405161105991815260200190565b60405180910390a35050505050565b6001600160a01b038316158061108557506001600160a01b038216155b806110a857506001600160a01b03821660009081526020819052604090205460ff165b6110ff5760405162461bcd60e51b815260206004820152602260248201527f52657761726420706f696e747320617265206e6f6e2d7472616e7366657261626044820152616c6560f01b606482015260840161067a565b610bd28383836111de565b6111138261131c565b6040516001600160a01b038316907fbc7cd75a20ee27fd9adebab32041f755214dbc6bffa90cc0225b39da2e5c2d3b90600090a280511561115857610bd28282611381565b6107ad6113f7565b611168611416565b61089757604051631afcd79f60e31b815260040160405180910390fd5b61118d611160565b6000805160206118b08339815191527f52c63247e1f47db19d5ce0460030c497f067ca4cebf71ba98eeadabe20bace036111c784826117b2565b5060048101610c3883826117b2565b610b5d611160565b6000805160206118b08339815191526001600160a01b03841661121a578181600201600082825461120f9190611872565b9091555061128c9050565b6001600160a01b0384166000908152602082905260409020548281101561126d5760405163391434e360e21b81526001600160a01b0386166004820152602481018290526044810184905260640161067a565b6001600160a01b03851660009081526020839052604090209083900390555b6001600160a01b0383166112aa5760028101805483900390556112c9565b6001600160a01b03831660009081526020829052604090208054830190555b826001600160a01b0316846001600160a01b03167fddf252ad1be2c89b69c2b068fc378daa952ba7f163c4a11628f55a4df523b3ef8460405161130e91815260200190565b60405180910390a350505050565b806001600160a01b03163b60000361135257604051634c9c8ce360e01b81526001600160a01b038216600482015260240161067a565b6000805160206118d083398151915280546001600160a01b0319166001600160a01b0392909216919091179055565b6060600080846001600160a01b03168460405161139e9190611893565b600060405180830381855af49150503d80600081146113d9576040519150601f19603f3d011682016040523d82523d6000602084013e6113de565b606091505b50915091506113ee858383611430565b95945050505050565b34156108975760405163b398979f60e01b815260040160405180910390fd5b6000611420610f2d565b54600160401b900460ff16919050565b606082611445576114408261148c565b610742565b815115801561145c57506001600160a01b0384163b155b1561148557604051639996b31560e01b81526001600160a01b038516600482015260240161067a565b5080610742565b80511561149b57805160208201fd5b60405163d6bda27560e01b815260040160405180910390fd5b80356001600160a01b03811681146114cb57600080fd5b919050565b6000602082840312156114e257600080fd5b610742826114b4565b60005b838110156115065781810151838201526020016114ee565b50506000910152565b600081518084526115278160208601602086016114eb565b601f01601f19169290920160200192915050565b602081526000610742602083018461150f565b6000806040838503121561156157600080fd5b61156a836114b4565b946020939093013593505050565b60008060006060848603121561158d57600080fd5b611596846114b4565b92506115a4602085016114b4565b9150604084013590509250925092565b634e487b7160e01b600052604160045260246000fd5b600080604083850312156115dd57600080fd5b6115e6836114b4565b9150602083013567ffffffffffffffff8082111561160357600080fd5b818501915085601f83011261161757600080fd5b813581811115611629576116296115b4565b604051601f8201601f19908116603f01168101908382118183101715611651576116516115b4565b8160405282815288602084870101111561166a57600080fd5b8260208601602083013760006020848301015280955050505050509250929050565b60a08152600061169f60a083018861150f565b82810360208401526116b1818861150f565b60ff96909616604084015250506001600160a01b039283166060820152911660809091015292915050565b600080604083850312156116ef57600080fd5b6116f8836114b4565b9150611706602084016114b4565b90509250929050565b600181811c9082168061172357607f821691505b60208210810361174357634e487b7160e01b600052602260045260246000fd5b50919050565b60006020828403121561175b57600080fd5b5051919050565b601f821115610bd2576000816000526020600020601f850160051c8101602086101561178b5750805b601f850160051c820191505b818110156117aa57828155600101611797565b505050505050565b815167ffffffffffffffff8111156117cc576117cc6115b4565b6117e0816117da845461170f565b84611762565b602080601f83116001811461181557600084156117fd5750858301515b600019600386901b1c1916600185901b1785556117aa565b600085815260208120601f198616915b8281101561184457888601518255948401946001909101908401611825565b50858210156118625787850151600019600388901b60f8161c191681555b5050505050600190811b01905550565b8082018082111561062157634e487b7160e01b600052601160045260246000fd5b600082516118a58184602087016114eb565b919091019291505056fe52c63247e1f47db19d5ce0460030c497f067ca4cebf71ba98eeadabe20bace00360894a13ba1a3210667c828492db98dca3e2076cc3735a920a3ca505d382bbca26469706673582212208a4d85a03859ed150579a9685b4443745e0a90f36f1d8e7b162f281841b93f6c64736f6c63430008160033",
  "linkReferences": {},
  "deployedLinkReferences": {}
}